:020000040800F2
:10000000000002209DA700083D12000845120008CC
:100010004D120008551200085D1200080000000093
:100020000000000000000000000000006512000851
:100030007312000800000000811200088F120008EF
:10004000EDA70008EDA70008EDA70008EDA7000840
:10005000EDA70008EDA70008EDA70008EDA7000830
:10006000EDA70008EDA70008EDA70008EDA7000820
:10007000EDA70008EDA70008EDA70008EDA7000810
:10008000EDA70008EDA70008EDA700089D120008E5
:10009000B1120008C5120008EDA70008EDA700087E
:1000A000EDA70008EDA70008EDA70008EDA70008E0
:1000B000EDA70008EDA70008EDA70008EDA70008D0
:1000C000EDA70008EDA70008EDA70008EDA70008C0
:1000D000EDA70008EDA70008EDA70008EDA70008B0
:1000E000EDA70008EDA70008EDA70008EDA70008A0
:1000F000EDA70008EDA70008EDA70008EDA7000890
:10010000EDA70008EDA70008EDA70008EDA700087F
:10011000EDA70008EDA70008EDA70008D912000818
:10012000EDA70008EDA70008EDA70008EDA700085F
:10013000EDA70008EDA70008EDA70008EDA700084F
:10014000EDA70008EDA70008EDA70008ED120008D4
:10015000EDA70008EDA70008EDA70008EDA700082F
:10016000EDA70008EDA70008EDA70008EDA700081F
:10017000EDA70008EDA70008EDA7000800000000AB
:08018000EDA70008EDA700083F
:1001900010B5054C237833B9044B13B10448AFF3C1
:1001A00000800123237010BD8800002000000000A3
:1001B0005046010808B5034B1BB103490348AFF390
:1001C000008008BD000000008C000020504601089F
:1001D000034613F8012B002AFBD1181A0138704787
:1001E00001F0FF01102A2BDB10F0070F08D010F8E8
:1001F000013B013A8B422DD010F0070F42B3F6D1EC
:10020000F0B441EA012141EA014122F007047FF004
:1002100000070023F0E80256083C85EA010586EA5B
:10022000010685FA47F5A3FA87F586FA47F6A5FA97
:1002300087F68EB9EED1F0BC01F0FF0102F00702A3
:1002400032B110F8013B013A83EA010313B1F8D14E
:100250000020704701387047002D06BF354603382F
:10026000073815F0010F07D1013015F4807F02BF68
:10027000013015F4C03F0130F0BC0138704700BFB9
:1002800053B94AB9002908BF00281CBF4FF0FF31FD
:100290004FF0FF3000F088B9ADF1080C6DE904CEE5
:1002A00000F006F8DDF804E0DDE9022304B0704751
:1002B0002DE9F047089D8E4604468846002B4AD11A
:1002C0008A42174662D9B2FA82F64EB1C6F12003CD
:1002D00001FA06F820FA03F3B74043EA0808B440ED
:1002E0004FEA174E1FFA87FCB8FBFEF1230C0EFBFA
:1002F000118843EA084301FB0CF29A4209D9FB1822
:1003000001F1FF3080F0EA809A4240F2E780023942
:100310003B449A1AA3B2B2FBFEF00EFB102243EA52
:10032000024300FB0CFC9C4509D9FB1800F1FF328D
:1003300080F0D6809C4540F2D3803B44023840EAAE
:100340000140A3EB0C0300211DB1F3400022C5E9DD
:100350000032BDE8F0878B4205D90DB1C5E9000137
:1003600000210846F5E7B3FA83F1002946D1734529
:1003700002D3824200F20581841A6EEB030201204F
:100380009046002DE5D0C5E90048E2E7002A00F0DC
:100390009080B2FA82F6002E40F0A4808A1A030CF4
:1003A0004FEA174E80B2BCB20121B2FBFEFC0EFB3D
:1003B0001C2243EA024304FB0CF29A4207D9FB18C1
:1003C0000CF1FF3802D29A4200F2E080C4469B1A38
:1003D000B3FBFEF20EFB123340EA034302FB04F4CC
:1003E0009C4207D9FB1802F1FF3002D29C4200F276
:1003F000CA8002461B1B42EA0C40A5E7C1F1200659
:100400008B4022FA06F71F430EFA01F420FA06F396
:100410002EFA06FE4FEA1749234300FA01F81FFAA5
:1004200087FCBEFBF9F01C0C09FB10EE44EA0E44FD
:1004300000FB0CFEA64502FA01F209D93C1900F1B5
:10044000FF3A80F09C80A64540F2998002383C44F7
:10045000A4EB0E041FFA83FEB4FBF9F309FB13446B
:100460004EEA044403FB0CFCA44508D93C1903F1F3
:10047000FF3E80F08280A4457FD9023B3C4443EAA2
:100480000040A4EB0C04A0FB02EC64457346E1467B
:1004900062D35FD05DB1B8EB030264EB090404FAE8
:1004A00006F622FA01F31E43CC40C5E900640021A0
:1004B0004FE7B1FBF2FC010C41EA0E4180B240EA89
:1004C00001423B4638463C46B846BE462026B1FB74
:1004D000F7F1A2EB080241EA0C4166E7014618E792
:1004E00010462CE7C6F120022EFA02F3B740B140C5
:1004F00020FA02F24FEA174E0A43B3FBFEF8BCB2F1
:100500000EFB1833110C41EA034108FB04F9B0401B
:1005100089454FEA104380B23ED9791808F1FF3C73
:1005200001D289451FD8A1EB0901B1FBFEF909FBF6
:1005300004F80EFB191192B242EA0142424529D257
:10054000BA1809F1FF31C4D24245C2D2A9F1020161
:100550003A44BEE7F0459DD2BEEB02036CEB070CBC
:100560000138E14696E7A7EB09094944A8F1020CD6
:10057000B1FBFEF909FB04F8DBE773467FE7504661
:1005800066E70846FDE63B44023A33E7ACF1020C6D
:100590003B441CE749469CE7A1EB0901C446B1FB7B
:1005A000FEF909FB04F8C4E7704700BF80B582B0CC
:1005B00000AF786001224FF4005103480BF0E4FAD9
:1005C00000BF0837BD4680BD000C024080B582B038
:1005D00000AF786001224FF4004103480BF0D4FAD9
:1005E00000BF0837BD4680BD000C024080B584B016
:1005F00000AF0146C7E900230B46FB81FB89194682
:10060000054813F00FFAD7E90023044813F00AFA5B
:1006100000BF1037BD4680BD68460108844601080A
:1006200080B400AF00BFBD465DF8047B704700009A
:1006300080B58CB000AF7860134A7B6813600123EB
:10064000BB620023FB610023FB620023BB6100232C
:10065000BB600023FB6000233B6100237B61002320
:100660003B6201237B6207F10803194678680AF0B0
:1006700051FA78680AF02CFB032178680AF05EFDD5
:1006800000BF3037BD4680BDA800002080B582B0D5
:1006900000AF00F019F80B4B1B78002B14BF01239F
:1006A0000023DBB283F00103DBB2FB71FB7903F0C3
:1006B0000103FB7100F014F8FB7918460837BD46BA
:1006C00080BD00BFA400002080B500AF034B1B68B5
:1006D000022118460AF058FD00BF80BDA800002086
:1006E00080B500AF034B1B68032118460AF026FDB6
:1006F00000BF80BDA800002080B58CB000AF78603E
:10070000FFF7C4FF0346002B39D07B681B7A7B625E
:100710007B685B68BB6100233B620423FB610023B1
:1007200087F8283000237B610023BB600023FB6235
:100730000DE07A68FB6A13440933197807F10C025B
:10074000FB6A13440A461A70FB6A0133FB627B683A
:100750001B7A1A46FB6A9342EBDB0B4B186807F1D6
:10076000080307F10C0207F114010AF0F5FA034639
:10077000002B04D1054B01221A70012300E0002355
:1007800018463037BD4680BDA8000020A4000020D8
:1007900080B483B000AF7860044B00221A7000BFB1
:1007A0000C37BD465DF8047B704700BFA4000020F5
:1007B00080B483B000AF7860044B00221A7000BF91
:1007C0000C37BD465DF8047B704700BFA4000020D5
:1007D00080B483B000AF7860044B00221A7000BF71
:1007E0000C37BD465DF8047B704700BFA4000020B5
:1007F00080B592B000AF786007F128031C22002179
:10080000184613F021F907F10C03142200211846B1
:1008100013F01AF928E03B6B042B25D17B6B002BDE
:1008200022D13B7B43F001033B73FB6A3B61BB6B13
:10083000DBB23B7500237B640DE007F120027B6C8B
:100840001344197807F115027B6C13440A461A7099
:100850007B6C01337B64BA6B7B6C9A42EDD807F1F9
:100860000C03184602F0E8FE07F1200307F1280206
:10087000002178680AF040FB0346002BCBD000BF74
:1008800000BF4837BD4680BD80B582B000AF7860FC
:10089000044A7B68136078680EF064FF00BF083775
:1008A000BD4680BDAC00002080B582B000AF78604E
:1008B00039600AF0BCFF00BF0837BD4680BD0000AC
:1008C00080B500AFFFF700FF034B1B6818460EF022
:1008D00021FF00BF80BD00BFAC00002080B500AF8D
:1008E000FFF7FEFE034B1B6818460EF03BFF00BFF0
:1008F00080BD00BFAC00002080B582B000AF786042
:10090000054B1B687A689A4201D104F065FB00BF71
:100910000837BD4680BD00BFAC00002080B483B066
:1009200000AF7860396000BF0C37BD465DF8047BCE
:10093000704780B483B000AF7860396000BF0C3777
:10094000BD465DF8047B704780B483B000AF78602B
:10095000396000BF0C37BD465DF8047B704700006E
:1009600080B500AF09F044FF00F03CF800F0A2F9B8
:1009700000F0A2F800F0D6F800F002F900F02EF92D
:1009800012F0A8FB00F060F90F48FFF751FE0F4886
:10099000FFF77AFF0E4801F029FA0E4804F08CFAAE
:1009A000FFF73EFE0C4A0D4840F2015104F0E0FA18
:1009B00012F0B6FB4FF4805109480BF0FEF804F03A
:1009C000FFFA00BFF4E700BFB0000020CC01002018
:1009D000EC4601080847010848470108550701018E
:1009E000000C024080B594B000AF07F12003302224
:1009F0000021184613F028F807F10C0300221A60B2
:100A00005A609A60DA601A610023BB60284B1B6C45
:100A1000274A43F080531364254B1B6C03F080532B
:100A2000BB60BB6800237B60224B1B68214A43F4F8
:100A3000804313601F4B1B6803F480437B607B681B
:100A400001233B624FF480337B620223BB634FF48C
:100A50008003FB6304233B64A8237B640223BB6401
:100A60000723FB6407F1200318460DF0B5FF03468A
:100A7000002B01D000F01CFA0F23FB6002233B6126
:100A800080237B614FF48053BB614FF48053FB6143
:100A900007F10C03022118460EF016FA0346002B4C
:100AA00001D000F005FA00BF5037BD4680BD00BF41
:100AB000003802400070004080B500AF174B184A64
:100AC0001A60164B2A225A60144B00229A60134B6C
:100AD0000022DA60114B4FF400321A610F4B4FF4D1
:100AE00040125A610D4B00221A760C4B00225A76A6
:100AF0000A4B00229A76094B0022DA76074B002235
:100B00001A77064B00225A77044809F007FF03467C
:100B1000002B01D000F0CCF900BF80BDB000002058
:100B20000064004080B500AF124B134A1A60114BAD
:100B3000124A5A600F4B00229A600E4B0022DA6074
:100B40000C4B4FF480421A610A4B00225A61094B48
:100B500000229A61074B0022DA61064B00221A62DA
:100B600004480DF055F90346002B01D000F0A0F920
:100B700000BF80BDD800002000540040A0860100C6
:100B800080B500AF134B144A1A60124B4FF4007239
:100B90005A60104B00229A600E4B0022DA600D4B17
:100BA0004FF400721A610B4B4BF680325A61094BBD
:100BB00000229A61074B0022DA61064B00221A627A
:100BC00004480DF069FA0346002B01D000F070F9DB
:100BD00000BF80BD2C010020003C004080B500AF6C
:100BE000174B184A1A60164B4FF482725A60144B16
:100BF00000229A60124B0022DA60114B00221A6127
:100C00000F4B00225A610E4B4FF400729A610C4B4D
:100C10000022DA610A4B00221A62094B00225A6252
:100C2000074B00229A62064B0A22DA6204480EF051
:100C300099FC0346002B01D000F03AF900BF80BDBB
:100C4000740100200030014080B582B000AF3B4607
:100C500000221A605A60154B154A1A60134B802205
:100C60005A60124B00229A60104B4FF6FF72DA6006
:100C70000E4B00229A610D480EF0FDFC0346002B3E
:100C800001D000F015F900233B6000237B603B4658
:100C9000194606480EF094FF0346002B01D000F0E1
:100CA00007F900BF0837BD4680BD00BFCC0100205A
:100CB0000014004080B58CB000AF07F11C03002287
:100CC0001A605A609A60DA601A610023BB61724B45
:100CD0001B6B714A43F0100313636F4B1B6B03F0E4
:100CE0001003BB61BB6900237B616B4B1B6B6A4AC2
:100CF00043F004031363684B1B6B03F004037B6135
:100D00007B6900233B61644B1B6B634A43F08003A8
:100D10001363614B1B6B03F080033B613B69002352
:100D2000FB605D4B1B6B5C4A43F0010313635A4B42
:100D30001B6B03F00103FB60FB680023BB60564B99
:100D40001B6B554A43F002031363534B1B6B03F0B9
:100D50000203BB60BB6800237B604F4B1B6B4E4A9A
:100D600043F0080313634C4B1B6B03F008037B60D9
:100D70007B680022082149480AF006FF0122012170
:100D800047480AF001FF00224FF2100145480AF0DF
:100D9000FBFE0823FB6101233B6200237B620023EF
:100DA000BB6207F11C0319463C480AF051FD0123C0
:100DB000FB6101233B6200237B620023BB6207F1DE
:100DC0001C03194636480AF043FD0823FB61022341
:100DD0003B6200237B620023BB620523FB6207F1B9
:100DE0001C0319462E480AF033FD0123FB614FF422
:100DF00090133B6200237B6207F11C0319462A48CB
:100E00000AF026FD0423FB6100233B6200237B6282
:100E100007F11C03194625480AF01AFD4FF48063B8
:100E2000FB6102233B6200237B620023BB6205233C
:100E3000FB6207F11C0319461C480AF009FD4FF23A
:100E40001003FB6101233B6200237B620023BB6232
:100E500007F11C03194613480AF0FAFC2023FB6132
:100E600000233B6200237B6207F11C0319460D48F7
:100E70000AF0EEFC0223FB614FF490133B62002367
:100E80007B6207F11C03194604480AF0E1FC00BF2D
:100E90003037BD4680BD00BF003802400010024020
:100EA00000080240000C0240000002400004024022
:100EB00080B400AF72B600BF00BFFDE780B582B05E
:100EC00000AF00237B60104B5B6C0F4A43F4804300
:100ED00053640D4B5B6C03F480437B607B680023A1
:100EE0003B60094B1B6C084A43F080531364064B6C
:100EF0001B6C03F080533B603B6807200AF062FCE8
:100F000000BF0837BD4680BD0038024080B58AB0BA
:100F100000AF786007F1140300221A605A609A60EB
:100F2000DA601A617B681B68254A934243D100232B
:100F30003B61244B1B6C234A43F000731364214B29
:100F40001B6C03F000733B613B690023FB601D4B8E
:100F50001B6B1C4A43F0080313631A4B1B6B03F013
:100F60000803FB60FB6803237B610223BB61002352
:100F7000FB6103233B6209237B6207F114031946DB
:100F800011480AF065FC0022002113200AF025FC1C
:100F900013200AF03EFC0022002114200AF01DFC60
:100FA00014200AF036FC0022002115200AF015FC5E
:100FB00015200AF02EFC00BF2837BD4680BD00BFBB
:100FC0000064004000380240000C024080B58AB046
:100FD00000AF786007F1140300221A605A609A602B
:100FE000DA601A617B681B68194A93422CD100238E
:100FF0003B61184B1B6B174A43F002031363154BFD
:101000001B6B03F002033B613B694FF410737B6180
:101010001223BB610123FB6100233B6204237B623B
:1010200007F1140319460C480AF012FC0023FB6078
:10103000084B1B6C074A43F400131364054B1B6CED
:1010400003F40013FB60FB6800BF2837BD4680BD7A
:1010500000540040003802400004024080B58EB0C9
:1010600000AF786007F1240300221A605A609A608A
:10107000DA601A6107F1140300221A605A609A605C
:10108000DA607B681B68314A93425AD101237B6145
:101090003223BB610223FB6107F1140318460EF0F3
:1010A0001FF90346002B01D0FFF702FF00233B612D
:1010B000274B1B6C264A43F400431364244B1B6CE0
:1010C00003F400433B613B690023FB60204B1B6B37
:1010D0001F4A43F0010313631D4B1B6B03F0010315
:1010E000FB60FB680023BB60194B1B6B184A43F085
:1010F00004031363164B1B6B03F00403BB60BB6854
:1011000010237B620223BB620023FB6200233B634C
:1011100006237B6307F1240319460E480AF098FB67
:101120004FF4A4537B620223BB620023FB620023C3
:101130003B6306237B6307F12403194606480AF044
:1011400087FB00BF3837BD4680BD00BF003C004074
:1011500000380240000002400008024080B58AB01A
:1011600000AF786007F1140300221A605A609A6099
:10117000DA601A617B681B68194A93422BD10023FD
:101180003B61184B5B6C174A43F480535364154B17
:101190005B6C03F480533B613B690023FB60114BA4
:1011A0001B6B104A43F0010313630E4B1B6B03F0E0
:1011B0000103FB60FB68E0237B610223BB6100232A
:1011C000FB6100233B6205237B6207F11403194690
:1011D00005480AF03DFB00BF2837BD4680BD00BF73
:1011E00000300140003802400000024080B584B069
:1011F00000AF78607B681B680E4A934215D10023CC
:10120000FB600D4B1B6C0C4A43F0200313640A4B2C
:101210001B6C03F02003FB60FB68002200213720D9
:101220000AF0DBFA37200AF0F4FA00BF1037BD46A7
:1012300080BD00BF001400400038024080B400AF01
:1012400000BFFDE780B400AF00BFFDE780B400AF92
:1012500000BFFDE780B400AF00BFFDE780B400AF82
:1012600000BFFDE780B400AF00BFBD465DF8047B62
:10127000704780B400AF00BFBD465DF8047B704787
:1012800080B400AF00BFBD465DF8047B704780B5F9
:1012900000AF09F0FFFA00BF80BD000080B500AFCD
:1012A000024809F098FF00BF80BD00BFB0000020D9
:1012B00080B500AF024809F08EFF00BF80BD00BFBF
:1012C000B000002080B500AF024809F084FF00BFE5
:1012D00080BD00BFB000002080B500AF02480EF016
:1012E000B1FA00BF80BD00BFCC01002080B500AFC7
:1012F00002480AF039FF00BF80BD00BF101D00206A
:1013000080B400AF01231846BD465DF8047B7047EA
:1013100080B582B000AF7860396012F0ADFB034653
:1013200016221A604FF0FF3318460837BD4680BDBD
:1013300080B582B000AF78604FF0FF317868FFF77A
:10134000E7FF00BFFDE780B586B000AFF860B96089
:101350007A6000237B610AE0AFF300800146BB683E
:101360005A1CBA60CAB21A707B6901337B617A6910
:101370007B689A42F0DB7B6818461837BD4680BD13
:1013800080B586B000AFF860B9607A6000237B61F9
:1013900009E0BB685A1CBA601B781846AFF300809E
:1013A0007B6901337B617A697B689A42F1DB7B68F8
:1013B00018461837BD4680BD80B483B000AF786052
:1013C0004FF0FF3318460C37BD465DF8047B70477D
:1013D00080B483B000AF786039603B684FF400524E
:1013E0005A60002318460C37BD465DF8047B7047F1
:1013F00080B483B000AF7860012318460C37BD4637
:101400005DF8047B704780B485B000AFF860B960C8
:101410007A60002318461437BD465DF8047B704798
:1014200080B586B000AF7860144A154BD31A7B6143
:101430007B693B61134B1B68002B02D1114B124A95
:101440001A60104B1A687B6813443A699A4207D2B3
:1014500012F012FB03460C221A604FF0FF3309E032
:10146000084B1B68FB60074B1A687B681344054AEE
:101470001360FB6818461837BD4680BD0000022087
:1014800000040000140200204022002080B400AFBD
:10149000064BD3F88830054A43F47003C2F888300D
:1014A00000BFBD465DF8047B704700BF00ED00E063
:1014B00080B487B000AF0346FB713B4B1B78FA79D1
:1014C000D31AFB74FB7C002B04D14FF000024FF0C9
:1014D000000362E0344AFB791370344B1B880133FC
:1014E0009AB2324B1A8000237B614FE0304B0022CE
:1014F0001A802F4B1B881B012E4A1344FB60FB688C
:10150000D3E90023134339D0FB681B89002B06D194
:10151000FB681B7B03F00103DBB2002B30D0FB68C0
:101520001B7B03F00103DBB2002B11D01F4B1A8889
:10153000FB685B89D31A3B813B891D2B22D9FB6851
:1015400000221A81FA68137B23F00103137319E058
:10155000164B1A88FB685B89D31A7B817B89F92B30
:1015600011D9FA68137B43F0010313730F4B1A88E8
:10157000FB685A81FB68D3E900230EE000BF02E05C
:1015800000BF00E000BF7B6901337B617B69002BFA
:10159000ACDD4FF000024FF00003104619461C3737
:1015A000BD465DF8047B70472A0200202C02002013
:1015B000280200201802002080B483B000AF00236E
:1015C0007B6027E0194A7B681B0113440833002223
:1015D0001A80164A7B681B01D1184FF000024FF0A9
:1015E0000003C1E90023114A7B681B01134403F186
:1015F0000802937823F0010393700C4A7B681B0167
:10160000134403F10802937823F0020393707B687C
:1016100001337B607B68002BD4DD044B00221A74FD
:1016200000BF0C37BD465DF8047B704730020020D8
:1016300080B500AFFFF7C0FF00BF80BD80B400AF32
:10164000024B1846BD465DF8047B7047300200200F
:1016500080B400AF034B01221A7400BFBD465DF891
:10166000047B70473002002080B487B000AF014691
:10167000C7E900230B46FB81FB89002B03D0FB89C4
:10168000B3F5805F01D300233CE0D7E90023134387
:1016900004D0D7E90023B3F5803F01D3002331E024
:1016A00000237B612AE01A4A7B691B01134408333B
:1016B0001B88002B0BD0164A7B691B011344D3E90E
:1016C0000023D7E90001994208BF904213D1104A84
:1016D0007B691B0113440833FA891A800C4A7B6921
:1016E0001B01D118D7E90023C1E900237B691B0145
:1016F000074A134406E07B6901337B617B69002B59
:10170000D1DD002318461C37BD465DF8047B7047C9
:101710003002002080B485B000AF0346FB80002378
:10172000FB6031E01D4AFB681B01134408331B8832
:10173000FA889A4225D1194AFB681B0113440833E1
:1017400000221A80154AFB681B01D1184FF00002D5
:101750004FF00003C1E90023104AFB681B0113444A
:1017600003F10802937823F0010393700B4AFB689E
:101770001B01134403F10802937823F002039370D2
:1017800006E0FB680133FB60FB68002BCADD00BF8D
:1017900000BF1437BD465DF8047B7047300200205F
:1017A00080B485B000AF0346FB80FB88002B03D0DC
:1017B000FB88B3F5805F01D3002317E00023FB60B3
:1017C00010E00D4AFB681B01134408331B88FA889C
:1017D0009A4204D1FB681B01074A134406E0FB68E8
:1017E0000133FB60FB68002BEBDD00231846143748
:1017F000BD465DF8047B70473002002080B485B0A0
:1018000000AFC7E90001D7E90023134304D0D7E9AB
:101810000023B3F5803F01D300231AE00023FB60CF
:1018200013E00F4AFB681B011344D3E90023D7E9F7
:101830000001994208BF904204D1FB681B01084A8D
:10184000134406E0FB680133FB60FB68002BE8DD16
:10185000002318461437BD465DF8047B704700BF6F
:101860003002002080B483B000AF00237B6007E02B
:101870000C4A7B68002142F823107B6801337B60AF
:101880007B68142BF4DD074B0022A3F85420054B92
:101890000022A3F8562000BF0C37BD465DF8047B3C
:1018A000704700BF4802002080B485B000AF786068
:1018B000124BB3F854300133FB81FB89142B01D94F
:1018C0000023FB810D4BB3F85630FA899A420DD0B4
:1018D0000A4BB3F854301946084A7B6842F8213065
:1018E000064AFB89A2F85430012300E00023184681
:1018F0001437BD465DF8047B704700BF48020020E6
:1019000080B483B000AF194BB3F85420174BB3F831
:1019100056309A4222D0154BB3F856301A46134B24
:1019200053F822307B60114BB3F8563019460F4BF9
:10193000002243F821200D4BB3F8563001339AB200
:101940000A4BA3F85620094BB3F85630142B03D991
:10195000064B0022A3F856207B6800E000231846BF
:101960000C37BD465DF8047B704700BF480200207D
:1019700080B483B000AF00237B6036E022497A68F0
:1019800013469B0013449B00CA18137823F00103ED
:1019900013701D497A6813469B0013449B000B4447
:1019A000043300221A6018497A6813469B001344D6
:1019B0009B000B44083300221A7000233B600EE0AA
:1019C00011497A6813469B0013449B00CA183B6870
:1019D0001344093300221A703B6801333B603B68B3
:1019E000072BEDDD7B6801337B607B68132BC5DD46
:1019F000064B00221A80064B00221A8000BF0C37CB
:101A0000BD465DF8047B7047A00200203004002032
:101A10003204002080B582B000AF00237B603CE040
:101A200022497A6813469B0013449B000B441B78A1
:101A3000C3F30003DBB2002B2CD11D4B1B880133F9
:101A40009AB21B4B1A801A4B1A881A4B1B889A425F
:101A500003D9174B1A88174B1A807A6813469B00D4
:101A600013449B00114A1344184602F047F90F49EA
:101A70007A6813469B0013449B00CA18137843F0FE
:101A8000010313707A6813469B0013449B00074AB6
:101A9000134406E07B6801337B607B68132BBFDD5A
:101AA000002318460837BD4680BD00BFA0020020B5
:101AB000300400203204002080B483B000AF78608E
:101AC0007B68002B0BD0094B1B88013B9AB2074B5C
:101AD0001A807A68137823F00103137000E000BFC6
:101AE0000C37BD465DF8047B704700BF3004002012
:101AF00080B500AF0C220021074811F0A5FF064B6E
:101B0000064A1A60044B064A5A60064B1B689B69DA
:101B1000014A936000BF80BD3404002069160008AC
:101B2000A11700083805002080B500AF2822002149
:101B3000114811F089FF104B104A1A600E4B104AE1
:101B40005A600D4B0F4A9A600B4B0F4ADA600A4BF2
:101B50000E4A1A61084B0E4A5A61074B0D4A9A61A8
:101B6000054B0D4ADA61044B0C4A1A62024B0C4ACF
:101B70005A6200BF80BD00BF40040020B11F0008B2
:101B8000E31F00081D200008E52000084D21000883
:101B9000B52100080D22000875220008AF220008B8
:101BA000F922000880B500AF2C2200210C4811F06A
:101BB0004BFF0B4B0B4A1A60094B0B4A5A60084B00
:101BC0000A4A9A60064B0A4ADA60054B094A1A61CA
:101BD000034B094A5A61024B084A9A6100BF80BD13
:101BE00068040020151A00082D480008A1170008F5
:101BF000FD1700083D16000851160008F1490008BD
:101C000080B500AF38220021184811F01DFF174B96
:101C1000174A1A60154B174A5A60144B164A9A60B5
:101C2000124B164ADA60114B154A1A610F4B154ACE
:101C30005A610E4B144A9A610C4B144ADA610B4BF1
:101C4000134A1A62094B134A5A62084B124A9A62A3
:101C5000064B124ADA62054B114A1A63114B1B6894
:101C60001B69024A536300BF80BD00BF940400207B
:101C7000552C0008CD2B0008E5290008B92A0008DA
:101C8000552B0008D12C0008552D0008312E0008D6
:101C9000812E0008413000088D300008ED2C00082E
:101CA000A11700083805002080B500AF08220021E8
:101CB000074811F0C9FE074B1B681B68044A1360F4
:101CC000044B1B685B69024A536000BF80BD00BFC4
:101CD000CC0400203805002080B500AF1C22002174
:101CE0000C4811F0B1FE0C4B1B685B68094A13608D
:101CF000084B0A4A5A60074B094A9A60054B094A41
:101D0000DA60044B084A1A61024B084A5A6100BF64
:101D100080BD00BFD404002038050020493A0008E7
:101D2000CD39000831390008F53A00080F3B0008AA
:101D300080B500AF482200211C4811F085FE1C4BE5
:101D40001B689B68194A1360194B1B68DB68174AAC
:101D50005360164B174A9A60144B174ADA60134BBC
:101D6000164A1A61114B164A5A61104B154A9A616C
:101D70000E4B154ADA610D4B144A1A620B4B144A8A
:101D80005A620A4B134A9A62084B134ADA62074BAB
:101D9000124A1A63054B124A5A63044B114A9A635A
:101DA000024B114ADA6300BF80BD00BFF00400207F
:101DB00038050020DD3C000861700008B1700008A3
:101DC00071730008992300083D16000815170008D4
:101DD000F1490008B9250008FD2500087126000812
:101DE000B5260008192700087127000880B582B0C1
:101DF00000AF7860174A7B681360FFF7B9FDFFF703
:101E000031FDFFF775FEFFF78FFEFFF7CBFEFFF703
:101E1000F7FEFFF749FFFFF75FFFFFF789FF0E4867
:101E200000F03EFD0D4801F03DF90D4801F026FCA3
:101E30000C4801F079FE0C4800F01CF80B4800F04B
:101E40009BFA0B4800F00EFBFFF7F2FB00BF0837D0
:101E5000BD4680BD380500206804002094040020A1
:101E6000CC040020D40400203404002040040020CE
:101E7000F004002080B483B000AF7860044A7B682F
:101E8000136000BF0C37BD465DF8047B704700BF90
:101E90003C0500202DE9B00F89B000AFC7E9020171
:101EA000BB6823F07F43FB61D7E902014FF00002DA
:101EB0004FF00003020E42EA01220B0E134623F0FC
:101EC0007F43BB61BB695A02FB69DB0BC3F30803A9
:101ED000134323F07F437B61FB695B0223F07F4365
:101EE0003B61BA697B69134403F5D81303F6A34336
:101EF000BB61FA693B691A44144B1344FB61BB692B
:101F000023F07F42FB691B0E1344BB61FB6923F086
:101F10007F43FB61BB6900229A4693464FEA1A252C
:101F20004FEA0A64FB6900229846914644EA080396
:101F30003B6045EA09037B60D7E900231046194658
:101F40002437BD46BDE8B00F704700BFA94B7A00EB
:101F500080B485B000AFC7E900013B6823F07F4340
:101F6000FB60D7E900014FF000024FF00003020EC2
:101F700042EA01220B0E134623F07F43BB60BB688D
:101F80009AB2FB689BB253409AB2BB681B0B9BB2E0
:101F900053409AB2FB681B0B9BB253409BB2C3F3F6
:101FA0000B039BB218461437BD465DF8047B70479F
:101FB00080B483B000AF78607B681B687A68116872
:101FC000D3E90223C1E906237B681A68137802214A
:101FD00061F30403137000BF0C37BD465DF8047B4A
:101FE000704790B583B000AF78607B681B68D3E919
:101FF000062379680C6810461946FFF74BFF024626
:102000000B46C4E906237B681A681378022161F342
:102010000403137000BF0C37BD4690BD90B583B06C
:1020200000AF78607B681B68D3E9062379680C6889
:1020300010461946FFF78CFF0346238219E07B68A0
:102040001B68D3E9062379680C6810461946FFF728
:1020500021FF02460B46C4E906237B681B68D3E9CF
:10206000062379680C6810461946FFF771FF03468E
:1020700023827B681B681B8A002BE0D0184B1B68EF
:102080005B687A681268128A104698470346002BEC
:10209000D5D1134B1B6819687B681B68188A7B684D
:1020A0001B68D3E9022388470D4B1B689B68002BF4
:1020B0000AD00B4B1B6899687B681B68188A7B6881
:1020C0001B68D3E9022388477B681A6813780321C9
:1020D00061F30403137000BF0C37BD4690BD00BF11
:1020E0003C05002080B483B000AF78607B685B68FB
:1020F00000221A727B681B68D3E902014FF00002CC
:102100004FF00003020E42EA01220B0E0E4B134069
:102110007A681268128A1A437B685B6842F0B85288
:102120005A607A68137A43F0010313727B681A6865
:102130001378042161F30403137000BF0C37BD460C
:102140005DF8047B704700BF00F0FF0080B483B0EF
:1021500000AF78607B685B6800221A727B681B683E
:10216000D3E902014FF000024FF00003020B42EAF4
:1021700001520B0B0E4B13407A681268128A1A43F5
:102180007B685B6842F0B0525A607A68137A43F019
:10219000010313727B681A681378052161F3040345
:1021A000137000BF0C37BD465DF8047B704700BF5D
:1021B00000F0FF0080B483B000AF78607B685B689C
:1021C00000221A727B681B68D3E902230E4B13406E
:1021D0007A681268128A1A437B685B6842F0A852D8
:1021E0005A607A68137A43F0010313727B681A68A5
:1021F0001378062161F30403137000BF0C37BD464A
:102200005DF8047B704700BF00F0FF0080B483B02E
:1022100000AF78607B685B6800221A727B681B687D
:10222000D3E9022313461A03114B13407A6812684C
:10223000128A1A437B685B6842F0A0525A607B683E
:102240005A7C7B681B68A3F894207A68137A43F061
:10225000010313727B681A681378072161F3040382
:10226000137000BF0C37BD465DF8047B704700BF9C
:1022700000F0FF0080B485B000AF78607B685A7CC6
:102280007B681B68B3F89430DBB2D31AFB73FB7B1B
:10229000022B06D97B681A681378082161F30403BE
:1022A000137000BF1437BD465DF8047B704780B4DF
:1022B00083B000AF78607B681B681B8A43F0835350
:1022C00043F480137A68526853607B685B6800222D
:1022D0001A727A68137A43F0010313727B681A68E2
:1022E0001378092161F30403137000BF0C37BD4656
:1022F0005DF8047B7047000080B586B002AF78605F
:102300007B681B681B8A43F0102343F4E0037A6860
:10231000526853607B6859687B681B68D3E9022365
:1023200000200090084601F009FD7A68137A43F016
:10233000010313727B681A68137843F0400313702B
:102340000C4B1B685B687A681268128A10469847C3
:10235000F860FA68937A43F0020393727B681A6814
:1023600013780A2161F30403137000BF1037BD46D0
:1023700080BD00BF3C05002080B483B000AF786012
:10238000044A7B68136000BF0C37BD465DF8047BD0
:10239000704700BF4005002080B582B000AF786074
:1023A0007B681B681B78C3F30403DBB2092B53D88B
:1023B00001A252F823F000BFE1230008ED2300083A
:1023C000F923000805240008112400081D24000832
:1023D0002924000835240008412400084D24000861
:1023E0001F4B1B681B687868984736E01C4B1B68BE
:1023F0005B687868984730E0194B1B689B68786881
:1024000098472AE0164B1B68DB687868984724E0F9
:10241000134B1B681B69786898471EE0104B1B68BC
:102420005B697868984718E00D4B1B689B69786872
:10243000984712E00A4B1B68DB69786898470CE004
:10244000074B1B681B6A7868984706E0044B1B68BB
:102450005B6A7868984700E000BF0837BD4680BDDA
:102460004005002080B582B000AF78600E4A7B68DE
:1024700013600E4801F042FC0D4B0C4A5A600C4BA5
:1024800000221A600A4A137A23F001031372084AE1
:10249000137C23F001031374054B0022DA6000BFA4
:1024A0000837BD4680BD00BF440500205C05002004
:1024B0004805002080B582B000AF78607B68002BB3
:1024C00036D07B6800221A827A68137823F04003A2
:1024D00013707A68137823F0800313707A68537846
:1024E00023F0010353707A68537823F00803537084
:1024F0007A68537823F0040353707A68537823F092
:10250000020353707B68D3F8A030002B09D07B689E
:10251000D3F8A030184602F00FFA7B680022C3F807
:10252000A0207A681378012161F30403137000E09E
:1025300000BF0837BD4680BD80B586B000AF78606B
:102540000023FB7500233B6129E07A683B691B018E
:10255000134408331B88FB81FB89002B1CD07A684D
:102560003B691B01134408339B78C3F30003DBB2C0
:10257000002B11D00F4B1B681B6AFA891046984735
:102580000C4B1B685B69FA8910469847034618464E
:10259000FFF790FF0123FB753B6901333B613B690A
:1025A000002BD2DD7B6800221A74FB7D1846183799
:1025B000BD4680BD4405002080B582B000AF002339
:1025C000FB710D4B1B681B6898470B4B1B68DB6945
:1025D000984738603B681B7C002B04D03868FFF7B5
:1025E000ABFF0123FB71044B1B685B689847FB79C9
:1025F00018460837BD4680BD4405002080B500AFB1
:10260000194BDB68002B0CD1184B1B681B689847D3
:10261000FFF776F90346144AD360144B1B685B68D6
:102620009847114BDB68002B1BD0104B1B689B6835
:102630000D4AD268104698470346002B0FD00B4B2B
:102640001B681B689847084BDB681846FFF734FA8D
:10265000064B1B685B689847034B0022DA60012336
:1026600000E00023184680BD4805002044050020F6
:1026700080B500AF0D4B1B7A03F00103DBB2002BDA
:1026800010D00B4B1B689B68084A5268104698474D
:102690000346002B04D0054A137A23F0010313727A
:1026A000012300E00023184680BD00BF480500203C
:1026B0004405002080B500AF154B1B68002B24D1CA
:1026C000144B1B68DB68062098470346104A1360CA
:1026D0000F4B1B68002B01D1012317E00C4B1B682B
:1026E0001B78C3F30403DBB2092B0CD8094B1B681E
:1026F0005B6A984703461A46054B5A74054B1B689C
:102700009B6903489847012300E00023184680BDD9
:10271000480500204405002080B500AF124B1B681F
:102720001B69062098470346104A13600F4B1B682D
:10273000002B01D1012315E00C4B1B681B78C3F360
:102740000403DBB2092B0CD8074B1B685B6A984764
:1027500003461A46054B5A74034B1B689B69034892
:1027600098470023184680BD4405002048050020F6
:1027700080B586B002AF254B1B685B6A984703465D
:102780001846FEF795FEC7E90201D7E90223134375
:1027900037D01E4B1B68DB680620984778607B6843
:1027A000002B2ED07B681B8A002B2AD0174B1B686E
:1027B0001B689847FFF72EF93860144B1B685B685D
:1027C00098473B68002B1CD07B681B8A43F08353DF
:1027D00043F481131A463B685A6000230093D7E9FB
:1027E0000223386801F0AAFA084B1B681B68984757
:1027F0003868FFF759F8054B1B685B689847012359
:1028000000E0002318461037BD4680BD4405002077
:1028100080B500AF214B1B681B6898471F4B1B6896
:102820005B6A98470346184601F09AFE1B4B1B68EB
:102830005B689847194B1B68DB6B002B03D0174B69
:102840001B68DB6B9847154B1B689B6A98470346D0
:10285000002B1BD1114B1B68DB6A98470346002BEA
:1028600016D10E4B1B681B6B98470346002B11D1EA
:102870000A4B1B685B6B98470346002B0CD1074B38
:102880001B689B6B98470346002B06E000BF04E0E3
:1028900000BF02E000BF00E000BF80BD4405002093
:1028A00080B483B000AF7860044A7B68136000BFD7
:1028B0000C37BD465DF8047B704700BF70050020F3
:1028C00090B58BB006AF0446084611461A4623461B
:1028D000FB800346BB800B467B8013463B801C4B32
:1028E0001B685B6800209847F860FB68002B2BD0C2
:1028F0007B8841F64842934203D140F648237B80CF
:1029000001E068237B80F9887B8804934FF0000204
:102910004FF00003CDE90223BB8800934FF0000283
:102920004FF00003F86804F0ABFDBB8800221946A5
:10293000F86804F08AFE3B8802221946F86804F021
:1029400084FEF86801F0CCFC00BF1437BD4690BD92
:102950007005002080B588B002AF7860786801F01B
:102960002BFB0346FB821D4B1B689B68FA8A1046B3
:10297000984738613B69002B01D1002329E03A696F
:10298000937A43F001039372144B1B685B69984779
:102990003B699B7A03F00203DBB2002B18D00F4B8C
:1029A0001B681B689847F860FB68002B10D0FA8AF8
:1029B0000B4B13431A46FB685A603B69D3E900236B
:1029C00000210091F86801F0B9F9F868FEF76CFF92
:1029D000012318461837BD4680BD00BF7005002092
:1029E0000030701080B58CB006AF78600B46FB707D
:1029F0001346BB70786801F0EFFA0346FB827868F3
:102A000001F0DAFA0346BB82786801F033FB034633
:102A10007B827A8AF98ABB8A184601F023FDF86026
:102A2000FB68002B07D07A8AB98AF88A42F24203FF
:102A3000FFF746FF3AE01F4B1B685B68BA78104609
:102A40009847F860FB68002B07D17A8AB98AF88A20
:102A500042F22003FFF734FF28E0B98A7B8A04930F
:102A60004FF000024FF00003CDE90223FB8A0093F0
:102A70004FF000024FF00003F86804F001FD0D4B29
:102A80001B689B69984703461A46FB6883F8202019
:102A9000FA68137843F002031370FB781A467968DA
:102AA000F86801F0C9F9F86801F0B8FC1837BD46BC
:102AB00080BD00BF7005002080B586B000AF786093
:102AC0000B46FB70786801F087FA0346FB82786852
:102AD00001F072FA0346BB82786801F0CBFA034634
:102AE0007B827A8AF98ABB8A184601F0BBFCF860BF
:102AF000FB68002B07D17A8AB98AF88A42F241032F
:102B0000FFF7DEFE21E0124B1B689B6998470346E6
:102B10001A46FB6893F82030D31AFB72FB7A1D2B00
:102B20000DD9F86801F0DCFCF86801F005FF7A8A3D
:102B3000B98AF88A42F24103FFF7C2FE05E0FB784A
:102B40001A467968F86801F077F91837BD4680BDF4
:102B50007005002080B586B000AF78600B46FB7032
:102B6000786801F039FA0346FB82786801F024FAAC
:102B70000346BB82786801F07DFA03467B827A8A3D
:102B8000F98ABB8A184601F06DFCF860FB68002BDF
:102B900007D17A8AB98AF88A42F24103FFF790FE98
:102BA00010E0FB781A467968F86801F045F9FA6890
:102BB000137823F002031370F86801F091FCF868B1
:102BC00001F08EFB1837BD4680BD000080B58CB08B
:102BD00006AF78600B46FB701346BB701C4B1B683E
:102BE0005B68BA781046984778617B69002B2AD0D9
:102BF000786801F0F1F903467B82786801F0DCF92E
:102C000003463B82786801F035FA0346FB81398A36
:102C1000FB8904934FF000024FF00003CDE902233B
:102C20007B8A00934FF000024FF00003786904F0B4
:102C300027FCFB781A467968786901F0FDF8786915
:102C400001F04EFB00E000BF1837BD4680BD00BF5D
:102C50007005002080B586B000AF78600B46FB7031
:102C60001346BB70786801F0B7F90346FB827868B9
:102C700001F0A2F90346BB82786801F0FBF9034634
:102C80007B827A8AF98ABB8A184601F0EBFBF860EE
:102C9000FB68002B06D1BA78FB7819467868FFF7F5
:102CA000A1FE11E07968F86801F04DFA0346052BA2
:102CB00005D8FB7819467868FFF7FEFE04E0FB783C
:102CC00019467868FFF746FF00BF1837BD4680BD3C
:102CD00080B483B000AF78600B46FB701346BB70C6
:102CE00000BF0C37BD465DF8047B704780B586B0E9
:102CF00000AF78607B68002B25D0786801F05CF924
:102D00000346FB82124B1B689B68FA8A1046984761
:102D100038613B69002B17D00D4B1B681B68984727
:102D2000F860FB68002B0FD0FB8A43F0835343F419
:102D300080131A46FB685A60FB6800221A72F86812
:102D4000FEF7B2FD00E000BF1837BD4680BD00BFF2
:102D50007005002080B582B000AF78607868FFF71A
:102D6000F9FD00BF0837BD4680BD80B588B000AF13
:102D7000C7E900010023FB6152E0FB699BB21846E2
:102D800001F0D8FBB861BB69002B3BD0BB691B7855
:102D9000C3F34003DBB283F00103DBB2002B33D17A
:102DA000BB695B8840F2EB5293422FD10021B86996
:102DB00004F088FE0346FB750121B86904F082FE29
:102DC0000346BB75FB7D302B22D1BB7D012B21D16E
:102DD0000321B86904F011FDC7E90201D7E9020136
:102DE000D7E90023994208BF904215D1BA691378F8
:102DF00023F002031370B86901F072FBB86901F0A7
:102E00006FFA0AE000BF08E000BF06E000BF04E080
:102E100000BF02E000BF00E000BFFB690133FB61BF
:102E2000FB69032BA9DD00BF00BF2037BD4680BD75
:102E300080B586B000AF78607868FFF78BFD0F4BE8
:102E40001B681B6A002B14D0786801F031F8C7E9C1
:102E50000401786801F0B0F80346FB81074B1B685A
:102E60001B6AFA89D7E904019847D7E90401FFF7FB
:102E70007CFF00BF1837BD4680BD00BF7005002035
:102E800090B589B002AF78607868FFF763FD0346BC
:102E9000002B40F09E8000233B617B681B7A002B57
:102EA00034D0504B1B68DC68786801F001F80246AA
:102EB0000B4610461946A047B860BB68002B00F0CF
:102EC0008A80BB689B7A03F00203DBB2002B00F020
:102ED0008280444B1B681B68984738613B69002B14
:102EE0007BD0BB681B8943F0102343F4E0031A46F0
:102EF0003B695A60BB68D3E900230021009138691F
:102F000000F01CFF3869FEF7CFFC66E0354B1B680C
:102F10009B6A002B03D0334B1B689B6A9847314B4D
:102F20001B681B699847F86000237B614DE0FA68D5
:102F30007B691B01134408331B88002B42D0FA68BD
:102F40007B691B01134408339B78C3F34003DBB256
:102F5000002B37D0234B1B681B6A002B0FD0214B53
:102F60001B681B6AF9687A6912010A44D2E90001F8
:102F7000FC687A6912012244083212889847194B7A
:102F80001B681B68984738613B69002B1AD0FA68A8
:102F90007B691B01134408331B8843F0102343F45F
:102FA000E0031A463B695A60FA687B691B011344C7
:102FB000D3E9002300210091386900F0BFFE386991
:102FC000FEF772FC7B6901337B617B69002BAEDD10
:102FD00004E000BF02E000BF00E000BF1C37BD46B8
:102FE00090BD00BF7005002080B584B000AF0346DF
:102FF000FB800023FB601AE0FB689BB2184601F0DF
:1030000099FAB860BB68002B0BD0BB689B88FA8824
:103010009A4208D1B86801F063FAB86801F08CFCF4
:1030200002E000BF00E000BFFB680133FB60FB680B
:10303000032BE1DD00BF00BF1037BD4680BD00009F
:1030400080B584B000AF78607868FFF783FC78685B
:1030500000F0B2FF0346FB81FB891846FFF7C4FF6F
:10306000FB89184601F08CF9074B1B685B6A002B43
:1030700005D0054B1B685B6AFA891046984700BF6C
:103080001037BD4680BD00BF7005002080B582B0FE
:1030900000AF78607868FFF75DFC00BF0837BD4679
:1030A00080BD000080B483B000AF7860044A7B68C4
:1030B000136000BF0C37BD465DF8047B704700BF4E
:1030C0007405002080B483B000AF78607B685B68D3
:1030D0001B0B9BB2C3F30B039BB218460C37BD46C8
:1030E0005DF8047B7047000080B582B000AF786067
:1030F0000B467B807B685B7A03F03003302B48D033
:10310000302B5EDC202B50D0202B5ADC002B02D041
:10311000102B1FD055E07B8840F6082293420CD13B
:103120002E4B1B681B68002B4DD02C4B1B681B685B
:10313000022202217868984745E0284B1B685B68AB
:10314000002B40D0254B1B685B6800220221786869
:10315000984738E07B8840F6082293420CD11F4BF9
:103160001B689B68002B30D01C4B1B689B6802229D
:1031700002217868984728E0184B1B689B68002B51
:1031800023D0164B1B689B68002202217868984761
:103190001BE0124B1B68DB68002B18D00F4B1B6821
:1031A000DB6802217868984711E00C4B1B681B69AB
:1031B000002B0ED0094B1B681B69022178689847C9
:1031C00007E000BF06E000BF04E000BF02E000BF70
:1031D00000E000BF00BF0837BD4680BD7405002079
:1031E00080B582B000AF78600B467B807B8840F66C
:1031F000167293420CD040F6167293422DDC40F6C4
:10320000147293421DD040F6157293420DD024E003
:103210001E4B1B689B68002B2CD01C4B1B689B68AB
:10322000022200217868984724E0184B1B68DB686D
:10323000002B21D0154B1B68DB680021786898476C
:103240001AE0124B1B681B69002B17D00F4B1B6831
:103250001B6900217868984710E00C4B1B685B687D
:10326000002B0DD0094B1B685B6800220021786899
:10327000984705E000BF04E000BF02E000BF00E0A7
:1032800000BF00BF0837BD4680BD00BF74050020E9
:1032900090B583B000AF78607B685B6803F0E06353
:1032A000B3F1E06F00F0B080B3F1E06F00F2C580E1
:1032B000B3F1C06F00F0C380B3F1C06F00F2BD8006
:1032C000B3F1A06F00F08880B3F1A06F00F2B58079
:1032D000B3F1806F68D0B3F1806F00F2AE80B3F1CC
:1032E000407F48D0B3F1407F00F2A780B3F1807FE8
:1032F00003D0B3F1007F25D09FE07B685B6803F4C7
:103300000043002B15D05B4B1B681C6B786800F0EA
:1033100063FE03461846A0470346002B00F0918049
:103320007868FFF7CFFE034619467868FFF7DCFEA2
:103330009CE07868FFF7C6FE034619467868FFF7F9
:103340004FFF93E04B4B1B681C6B786800F044FE0A
:1033500003461846A0470346002B74D0454B1B6814
:103360005B68002B71D0434B1B685B680022002117
:103370007868984769E03F4B1B681C6B786800F0E1
:103380002BFE03461846A0470346002B5FD0394B5F
:103390001B689B68002B5CD0364B1B689B68012226
:1033A00000217868984754E0324B1B681C6B7868A2
:1033B00000F012FE03461846A0470346002B4AD0F1
:1033C0002C4B1B68DB68002B47D02A4B1B68DB6843
:1033D00000217868984740E0264B1B681C6B786892
:1033E00000F0FAFD03461846A0470346002B36D0EE
:1033F000204B1B681B69002B33D01E4B1B681B69BD
:103400000021786898472CE01A4B1B681C6B786881
:1034100000F0E2FD03461846A0470346002B22D0E9
:10342000144B1B685B69002B1FD0124B1B685B6938
:10343000032200217868984717E000BF16E000BF1C
:1034400014E000BF12E000BF10E000BF0EE000BFBC
:103450000CE000BF0AE000BF08E000BF06E000BFCC
:1034600004E000BF02E000BF00E000BF00BF0C3777
:10347000BD4690BD7405002080B582B000AF786075
:103480007B685A68394B1340394A934253D0384AC3
:1034900093425BD8374A93424DD0364A934255D82F
:1034A000354A934247D0344A93424FD8B3F5E20F9E
:1034B00041D0B3F5E20F49D8304A934230D02F4A79
:1034C000934243D82E4A93421FD02D4A93423DD86F
:1034D000B3F5E00F03D02B4A93420BD036E02A4BD2
:1034E0001B689B69002B33D0274B1B689B6978684E
:1034F00098472DE0244B1B68DB69002B2AD0224B18
:103500001B68DB697868984724E01F4B1B681B6ABF
:10351000002B21D01C4B1B681B6A786898471BE066
:10352000194B1B685B6A002B18D0174B1B685B6A32
:103530007868984712E0144B1B689B6A002B0FD0E9
:10354000114B1B689B6A7868984709E000BF08E048
:1035500000BF06E000BF04E000BF02E000BF00E0E3
:1035600000BF00BF0837BD4680BD00BF00F0FF00B0
:1035700000307100002071000010710000307000F8
:1035800000207000001070007405002080B582B02B
:1035900000AF78607B685B6803F0E063B3F1E06FD5
:1035A00020D0B3F1E06F28D8B3F1C06F1AD0B3F1D7
:1035B000C06F22D8B3F1A06F14D0B3F1A06F1CD8A4
:1035C000B3F1806F0ED0B3F1806F16D8B3F1407FA6
:1035D00008D0B3F1407F10D8B3F1807F02D0B3F1AF
:1035E000007F0AD1084B1B68DB6A002B07D0064B13
:1035F0001B68DB6A7868984701E000BF00E000BF05
:1036000000BF0837BD4680BD7405002080B582B07C
:1036100000AF78607B685B6803F0E063002B03D148
:103620007868FFF729FF03E07868FFF7AFFF00BF76
:1036300000BF0837BD4680BD80B582B000AF78605E
:103640000D4B1B685B6B002B04D00B4B1B685B6B3B
:1036500078689847786800F08AFD0346002B03D00D
:103660007868FFF715FE02E07868FFF7CFFF00BF2C
:103670000837BD4680BD00BF7405002080B483B00C
:1036800000AF7860044A7B68136000BF0C37BD460A
:103690005DF8047B704700BF7805002080B483B0DC
:1036A00000AF78607B68DB881B034FF0D052134378
:1036B0007A689288134318460C37BD465DF8047B40
:1036C000704780B483B000AF78607B68DB881B03F1
:1036D0004FF0D85213437A689288134318460C3738
:1036E000BD465DF8047B704780B483B000AF78605E
:1036F0007B68DB881B034FF0E05213437A689288A3
:10370000134318460C37BD465DF8047B704780B400
:1037100083B000AF78607B68DB881B034FF0E85212
:1037200013437A689288134318460C37BD465DF8F8
:10373000047B704780B483B000AF78607B685B889F
:103740001A03074B13404FF0C85213437A6892880C
:10375000134318460C37BD465DF8047B704700BF25
:1037600000F0FF0080B483B000AF78607B685B88B6
:103770001A03074B13404FF0C85213437A689288DC
:10378000134318460C37BD465DF8047B704700BFF5
:1037900000F0FF0080B584B000AF78600C4B1B6870
:1037A0001B68786898470346FB73094B1B685B6886
:1037B000002B07D0FB7B002B04D0054B1B685B68FC
:1037C00078689847FB7B18461037BD4680BD00BF20
:1037D0007805002080B582B000AF786039607868E5
:1037E000FFF75CFF02463B685A603868FFF7D2FF7C
:1037F000034618460837BD4680BD80B582B000AF8D
:10380000786039607868FFF75CFF02463B685A6071
:103810003868FFF7BFFF034618460837BD4680BD2E
:1038200080B582B000AF786039607868FFF75CFFE0
:1038300002463B685A603868FFF7ACFF03461846FB
:103840000837BD4680BD80B582B000AF7860396072
:103850007868FFF75CFF02463B685A603868FFF7FC
:1038600099FF034618460837BD4680BD80B582B033
:1038700000AF786039603B6809330021184604F0D6
:1038800079F93868FFF786FF034618460837BD46C2
:1038900080BD80B582B000AF786039603B68093385
:1038A0001021184604F066F93868FFF773FF0346E5
:1038B00018460837BD4680BD80B582B000AF78603D
:1038C0007B6809333021184604F054F97868FFF713
:1038D00061FF034618460837BD4680BD80B582B0FB
:1038E00000AF786039603B6809332021184604F046
:1038F00041F93868FFF74EFF034618460837BD46C2
:1039000080BD80B483B000AF786039607B68DB88AD
:103910001B0A9BB2DAB23B685A727B68DB88DAB268
:103920003B689A7200BF0C37BD465DF8047B704758
:1039300080B586B000AFF860B9607A600023FB758F
:103940007B681A880023B968F86800F031FA0346EA
:10395000BB75FB685B8B082B06D8B968F868FFF766
:1039600039FF0346FB7520E07B681B88072B06D8D0
:10397000B968F868FFF741FF0346FB7515E07B68FF
:103980001B881A46BB7D1344FA68528B934206DAB1
:10399000B968F868FFF744FF0346FB7505E0B968AE
:1039A000F868FFF750FF0346FB75FB7D002B07D03F
:1039B0007B681A88BB7D9BB213449AB27B681A80DD
:1039C000FB7D18461837BD4680BD000080B586B027
:1039D00000AFF860B9607A600023FB75FB685B8B11
:1039E000082B1FD87B681A880023B968F86800F094
:1039F000DFF90346BB75F868FFF79CFE0246BB681B
:103A00005A60B868FFF7C6FE0346FB75FB7D002BC6
:103A10000FD07B681A88BB7D9BB213449AB27B6837
:103A20001A8006E0054B064A4FF49D7105480FF0D9
:103A300049FEFB7D18461837BD4680BD98460108F3
:103A4000704A0108A046010880B586B000AFF86052
:103A5000B9607A60B968F868FFF753FFF868FFF754
:103A600081FE0246BB685A607B681A880223B968E7
:103A7000F86800F09DF90346BB750023FB75FB68F1
:103A80005B8B062B06D8B968F868FFF7EFFE034694
:103A9000FB751FE07B681B88052B06D8B968F868A2
:103AA000FFF7F7FE0346FB7514E07B681B881A4698
:103AB000BB7D1344FA68528B934205DAB868FFF76E
:103AC000FBFE0346FB7505E0B968F868FFF706FFE3
:103AD0000346FB75FB7D002B07D07B681A88BB7DF6
:103AE0009BB213449AB27B681A80FB7D1846183744
:103AF000BD4680BD80B485B000AFF860B9607A6023
:103B0000012318461437BD465DF8047B704780B525
:103B100082B000AF78607868FFF73CFE0346184635
:103B20000837BD4680BD000080B483B000AF786028
:103B3000044A7B68136000BF0C37BD465DF8047B08
:103B4000704700BF7C05002080B584B000AFF860EE
:103B5000B9607A60F86804F027F80346002B3DD07E
:103B6000FB685B8841F6484293421CD041F64842CC
:103B700093422ADC40F6C84293421DD040F6C84228
:103B8000934222DC40F6A802934215D040F6A802E8
:103B900093421ADC40F6680293420DD040F6880248
:103BA000934209D011E0134B1B68DB687A68B9684F
:103BB000F8689847034619E00E4B1B681B697A6842
:103BC000B968F8689847034610E00A4B1B685B68C1
:103BD0007A68B968F8689847034607E0054B1B68A0
:103BE0009B687A68B968F8689847034618461037A2
:103BF000BD4680BD7C05002090B58BB000AF7860DD
:103C00007B681B7803F00403DBB2002B01D0012397
:103C10005DE07B68DB88002B21D17B68D3E904233E
:103C200013431CD02C4B1B689B69002B17D02A4BCD
:103C30001B689C697B68D3E9042310461946A0479A
:103C400078627B6A002B08D07B6A1B89002B04D02A
:103C50007B6A1A897B68DA8001E0012337E0002360
:103C6000FB811D4B1B681B689847034683F00103CB
:103C7000DBB2002B01D0002329E07B685B8B002B9B
:103C800009D107F10E0207F1100319467868FFF712
:103C90005BFF03461BE007F10E0207F11003194614
:103CA0007868FFF751FF0346002B0FD007E007F1BC
:103CB0000E0207F1100319467868FFF745FF7B688D
:103CC0005A8BFB899A42F2D8012300E00023184660
:103CD0002C37BD4690BD00BF7C05002080B582B06A
:103CE00000AF7860044B1B685B69786898470346AF
:103CF00018460837BD4680BD7C05002080B485B0DD
:103D000000AF78607B6800225A607B6800221A72DC
:103D10000023FB6008E07A68FB6813440933002243
:103D20001A70FB680133FB60FB68072BF3DD00BFF3
:103D300000BF1437BD465DF8047B704780B487B080
:103D400000AFF860C7E9002397F82030022B01D9B3
:103D5000002327E097F820300633DAB2FB681A72A6
:103D600097F8203005337B6115E03978FA687B6974
:103D7000134409330A461A70D7E900014FF00002D4
:103D80004FF00003020A42EA01620B0AC7E900236E
:103D90007B69013B7B6197F820307A699A42E4DACB
:103DA000FB681B7A18461C37BD465DF8047B7047DC
:103DB00080B487B000AFF860B96011461A460B4670
:103DC000FB8013467B71BB6800221A720023FB75CF
:103DD000FB685B8B002B01D1002327E07B793B61E3
:103DE00018E0FB68DA69FB8813441978BA683B6904
:103DF000134409330A461A70FB880133FB80FB7DAC
:103E00000133FB75FB685B8BFA889A4206D23B69EB
:103E100001333B613B69072BE3DD00E000BF7A79AA
:103E2000FB7D1344DAB2BB681A72FB7D18461C375F
:103E3000BD465DF8047B704780B588B000AFF86080
:103E4000B9601346FB710023FB77FB681B7E1846A5
:103E500003F0ECFA0346FB82FB79BB611BE0FB68D5
:103E60005B8BFA8A9A421DD9FB68DB69FA68528B30
:103E70001344B968BA690A44093212781A70FB68A7
:103E80005B8B01339AB2FB685A83FB7F0133FB776C
:103E9000BB690133BB61BB681B7A1A46BB6993429D
:103EA000DDDB00E000BFFB7F18462037BD4680BD4C
:103EB0002DE9F00F94B000AFF864FB6C5B7ADBB2D5
:103EC00000223B647A644FF000004FF000013B6C2D
:103ED00019020020FB6C9B7ADBB20022BB63FA6301
:103EE0004FF000024FF00003BE6B3300002240EAA7
:103EF000020841EA0309FB6CDB7ADBB200223B6378
:103F00007A63D7E90C120B461D0A0B461C0648EAD9
:103F10000403BB6249EA0503FB62FB6C1B7BDBB25B
:103F200000223B627A624FF000024FF00003D7E9B3
:103F3000084529460B04214643EA114321460A0459
:103F4000D7E90A4521461143B96129461943F96168
:103F5000FB6C5B7BDBB200223B617A614FF00002BD
:103F60004FF00003D7E9044529460B02214643EAF6
:103F7000116321460A02D7E90645214641EA020AB1
:103F8000294641EA030BFB6C9B7BDBB20022BB6042
:103F9000FA60D7E902120B464AEA03033B60134674
:103FA0004BEA03037B60D7E90023104619465037DC
:103FB000BD46BDE8F00F704780B483B000AF7860B5
:103FC0007B685B689BB2C3F30B039BB218460C374C
:103FD000BD465DF8047B704780B483B000AF786065
:103FE0007B685B6803F0E063B3F1E06F1BD0B3F173
:103FF000E06F35D8B3F1A06F2AD0B3F1A06F2FD8FE
:10400000B3F1806F24D0B3F1806F29D8B3F1407F32
:104010001ED0B3F1407F23D8B3F1807F03D0B3F13A
:10402000007F15D01CE07B685B6803F40043002B25
:1040300018D07B685B7A1BB21B021BB203F470635F
:104040001AB27B689B7A1BB213431BB29BB20BE084
:104050007B685B681B0B9BB2C3F30B039BB203E053
:1040600000BF00E000BF002318460C37BD465DF8D6
:10407000047B704780B485B000AF78600023FB817B
:104080007B685B6803F0E063B3F1E06F1BD0B3F1D2
:10409000E06F2DD8B3F1A06F27D0B3F1A06F27D870
:1040A000B3F1806F21D0B3F1806F21D8B3F1407F9D
:1040B0001BD0B3F1407F1BD8B3F1807F03D0B3F1A5
:1040C000007F12D014E07B685B681B0B9BB2C3F3CC
:1040D0000B03FB81FB89A3F61473022B03D840F674
:1040E0001473FB8100BFFB8904E041F6484301E003
:1040F00000BF002318461437BD465DF8047B7047A7
:1041000080B485B000AF78600023FB730023BB60F0
:104110000CE07A68BB68134409331B78002B02D18A
:10412000FB7B0133FB73BB680133BB607B681B7A8D
:104130001A46BB689342ECDBFB7B18461437BD463E
:104140005DF8047B704790B583B000AF786039604C
:104150003868FFF7D5FF03461C46786803F037FD43
:1041600003462344DBB218460C37BD4690BD80B4ED
:1041700083B000AF78607B685B6803F00063002B5E
:1041800014BF01230023DBB218460C37BD465DF88F
:10419000047B704780B483B000AF7860044A7B68CA
:1041A000136000BF0C37BD465DF8047B704700BF4D
:1041B0008005002080B485B000AFC7E9000100236E
:1041C000FB600023BB604BE02A49BA6813465B00E2
:1041D00013441B010B4420331B78C3F38003DBB271
:1041E000002B3AD02349BA6813465B0013441B01E5
:1041F0000B44D3E90023D7E90001994208BF90425C
:104200002BD11C49BA6813465B0013441B010B44B5
:1042100020331B78C3F34003DBB2002B12D01549C7
:10422000BA6813465B0013441B010B4428331B6818
:10423000002B07D0BA6813465B0013441B010D4ADC
:10424000134411E0FB68002B07D1BA6813465B00EA
:1042500013441B01074A1344FB60BB680133BB6076
:10426000BB68072BB0DDFB6818461437BD465DF808
:10427000047B70478805002080B584B000AFC7E993
:104280000001D7E90001FFF795FFF860FB68002BFC
:1042900001D0FB6800E0002318461037BD4680BD02
:1042A00080B483B000AF00237B6007E00B4A7B68DB
:1042B000002142F823107B6801337B607B68042B6C
:1042C000F4DD064B00229A82044B0022DA8200BF02
:1042D0000C37BD465DF8047B704700BF080700201F
:1042E00080B485B000AF7860104B9B8A0133FB81AE
:1042F000FB89042B01D90023FB810C4BDB8AFA8953
:104300009A420BD0094B9B8A1946084A7B6842F8AF
:104310002130064AFB8993827B6800E0002318461F
:104320001437BD465DF8047B704700BF08070020C6
:1043300080B483B000AF00237B60104B9A8A0F4B90
:10434000DB8A9A4213D00D4BDB8A1A460B4B53F88B
:1043500022307B60094BDB8A01339AB2074BDA8249
:10436000064BDB8A042B02D9044B0022DA827B68DD
:1043700018460C37BD465DF8047B704708070020DF
:1043800080B485B000AF0346FB80FB88002B23D0B0
:10439000144BDB8AFB8119E0FB89124A52F8233067
:1043A000BB60BB68002B09D0BB689B88FA889A4227
:1043B00004D1BA68137843F004031370FB89013306
:1043C000FB81FB89042B01D90023FB81054B9B8AD0
:1043D000FA899A42E0D100E000BF1437BD465DF88B
:1043E000047B70470807002080B483B000AF00232F
:1043F0007B6007E0084A7B68002142F823107B6855
:1044000001337B607B68032BF4DD00BF00BF0C37FA
:10441000BD465DF8047B70472007002080B485B05E
:1044200000AF78600023FB600FE00D4AFB6852F894
:104430002330002B06D10A49FB687A6841F8232013
:104440007B6806E0FB680133FB60FB68032BECDD57
:10445000002318461437BD465DF8047B704700BF43
:104460002007002080B485B000AF0346FB800B46D8
:10447000BB8013467B800023FB6025E0174AFB6866
:1044800052F82330002B1CD0144AFB6852F823301A
:10449000DB88BA889A4214D1104AFB6852F823305C
:1044A0009B88FA889A420CD10C4AFB6852F8233058
:1044B0005B887A889A4204D1084AFB6852F8233014
:1044C00006E0FB680133FB60FB68032BD6DD0023AD
:1044D00018461437BD465DF8047B7047200700205E
:1044E00080B485B000AF78607B68002B01D10023D9
:1044F00017E00023FB6010E00D4AFB6852F8233000
:104500007A689A4206D10A4AFB68002142F82310D1
:104510007B6806E0FB680133FB60FB68032BEBDD87
:10452000002318461437BD465DF8047B704700BF72
:104530002007002080B483B000AF0346FB80FB88D7
:10454000032B01D9002303E0FB88044A52F82330EF
:1045500018460C37BD465DF8047B704720070020E5
:1045600080B586B000AF0346FB7100237B6122E07B
:10457000154A7B6952F823303B613B69002B17D009
:104580003B691B7803F00203DBB2002B10D03B69C0
:1045900093F82030FA79D31AFB73FB7B1D2B07D9D4
:1045A000094A7B69002142F82310386900F0C4F9F8
:1045B0007B6901337B617B69032BD9DD00BF00BFC1
:1045C0001837BD4680BD00BF2007002080B582B0EF
:1045D00000AF00237B607EE07A6813469B001344A3
:1045E000DB004D4A1344184602F0AAFF7B68002BFB
:1045F00018DC49497A6813469B001344DB000B44DE
:10460000183300221A707B680A331B01424A99183A
:1046100041487A6813469B001344DB0003441C3373
:10462000196055E07B68012B1CDC3B497A68134616
:104630009B001344DB000B44183301221A707B6883
:104640005A1E1346DB001344DB00B033324A99187C
:1046500031487A6813469B001344DB0003441C3343
:10466000196035E07B68022B19DC2B497A68134608
:104670009B001344DB000B44183302221A707B6842
:10468000023B1B02F833244A991823487A681346E0
:104690009B001344DB0003441C33196018E01E49DF
:1046A0007A6813469B001344DB000B441833032243
:1046B0001A707B68033B03F5FC73174A9918164878
:1046C0007A6813469B001344DB0003441C331960D3
:1046D0007B6801337B607B68032B7FF77DAF0F4BDB
:1046E00000221A800E4B00221A800E4B00221A80E4
:1046F0000D4B00221A800D4B00221A800C4B002219
:104700001A800C4B00221A800B4B00221A8000BF2B
:104710000837BD4680BD00BF3007002030090020AB
:104720003209002034090020360900203809002011
:104730003A0900203C0900203E09002080B483B0E3
:1047400000AF0346FB71FB79032B4FD801A252F84F
:1047500023F000BF6547000887470008A947000805
:10476000CB470008294B1B8801339AB2274B1A808C
:10477000264B1A88264B1B889A4239D9234B1A8814
:10478000234B1A803BE0234B1B8801339AB2214B09
:104790001A80204B1A88204B1B889A422AD91D4B1D
:1047A0001A881D4B1A802AE01C4B1B8801339AB2D1
:1047B0001A4B1A80194B1A88194B1B889A421BD91D
:1047C000164B1A88164B1A8019E0164B1B880133BA
:1047D0009AB2144B1A80134B1A88134B1B889A42B7
:1047E0000CD9104B1A88104B1A8008E000BF06E065
:1047F00000BF04E000BF02E000BF00E000BF00BF58
:104800000C37BD465DF8047B704700BF30090020BF
:1048100038090020320900203A090020340900201C
:104820003C090020360900203E09002080B584B0F4
:1048300000AF0346FB710023FB810023BB81FB79A2
:10484000032B22D801A252F823F000BF5D480008D4
:1048500067480008734800087F4800080023FB8170
:104860000123BB8113E00123FB81FB890133BB8161
:104870000DE00223FB81FB890133BB8107E00323A9
:10488000FB81FB890133BB8101E000234DE0FB8903
:10489000BB6045E02749BA6813469B001344DB0020
:1048A0000B441B78C3F30003DBB283F00103DBB2DC
:1048B000002B32D0BA6813469B001344DB001D4A1C
:1048C0001344184602F03CFE1A49BA6813469B008E
:1048D0001344DB000B44213301221A701549BA68D6
:1048E00013469B001344DB00CA18137843F00103FE
:1048F00013701049BA6813469B001344DB000B4445
:1049000018331B781846FFF719FFBA6813469B0047
:104910001344DB00074A134407E0BB680133BB6064
:10492000BB89BA689A42B5DB002318461037BD46EA
:1049300080BD00BF3007002080B483B000AF786036
:104940007B68002B43D07B6893F82130013BDAB2BF
:104950007B6883F821207B6893F82130002B38D1C5
:104960007B681B7E032B27D801A252F823F000BFDF
:10497000814900088F4900089D490008AB4900089B
:10498000174B1B88013B9AB2154B1A8015E0154B4B
:104990001B88013B9AB2134B1A800EE0124B1B8806
:1049A000013B9AB2104B1A8007E0104B1B88013B69
:1049B0009AB20E4B1A8000E000BF7B68002283F899
:1049C00021207A68137823F00103137002E000BFFE
:1049D00000E000BF0C37BD465DF8047B704700BFA8
:1049E0003009002032090020340900203609002057
:1049F00080B400AF034B1B78DBB21846BD465DF8B0
:104A0000047B7047100D002080B500AF0422002108
:104A100004480FF019F8044B1B685B6B014A1360E4
:104A200000BF80BD740A00200C0D002080B500AFCF
:104A30000822002102480FF007F800BF80BD00BF28
:104A40006C0A002080B500AF3822002118480EF013
:104A5000FBFF174B174A1A60154B174A5A60144B45
:104A6000164A9A60124B164ADA61114B154A9A613E
:104A70000F4B154ADA600E4B144A1A610C4B144A5C
:104A80005A610B4B134A1A62094B134A5A62084B7C
:104A9000124A9A62064B124ADA62054B114A1A63AD
:104AA000114B1B689B6B024A536300BF80BD00BF64
:104AB000340A0020F93B000861700008B17000085A
:104AC00015740008F15F0008C5540008B1550008CE
:104AD000C5570008BD500008B95200080D53000822
:104AE0003D530008915300080C0D002080B500AF25
:104AF0000822002107480EF0A7FF074B1B68DB6A5E
:104B0000044A1360044B1B681B6B024A536000BFCE
:104B100080BD00BF880A00200C0D002080B500AFCA
:104B20000422002104480EF08FFF044B1B689B6891
:104B3000014A136000BF80BD840A00200C0D0020D4
:104B400080B500AF4C22002116480EF07DFF154BBA
:104B5000154A1A60134B154A5A60154B1B689B681F
:104B6000104A93600F4B134ADA600E4B124A1A61D7
:104B70000C4B124A5A610B4B114A9A61094B114A6C
:104B8000DA61084B104A1A62064B104A5A62054B0A
:104B90000F4A9A62064B1B689B69024A936400BFE6
:104BA00080BD00BF480C00208D9A0008BD9B000806
:104BB0000C0D002011A400084DA4000883A40008D7
:104BC000BBA40008F3A400082BA5000869A50008F1
:104BD000F9A5000880B500AF382200210F480EF07B
:104BE00033FF0E4B0E4A1A600C4B0E4A5A600E4BA6
:104BF0001B68DB68094A93600B4B1B689B68074A7C
:104C0000D360094B1B689B6A044AD362064B1B683E
:104C1000DB69024A136300BF80BD00BF940C002013
:104C20008D9A0008BD9B00080C0D002080B500AFD8
:104C3000402200210F480EF007FF0E4B0E4A1A606B
:104C40000C4B0E4A5A600B4B0D4A9A60094B0D4AA9
:104C50001A610D4B1B681B6A064AD3620A4B1B681C
:104C60005B6A044A1363084B1B681B69014A936320
:104C700000BF80BDCC0C00208D9A0008BD9B0008B1
:104C800077820008318300080C0D002080B500AF4A
:104C90004FF4DC72002119480EF0D6FE184B1B6849
:104CA0001B68164A1360164B1B685B68134A5360F7
:104CB000124B144AC3F8CC20104B134AC3F880217E
:104CC0000E4B124AC3F884210C4B114AC3F88821B9
:104CD0000A4B104AC3F88C21084B0F4AC3F89021A5
:104CE000064B0E4AC3F8A421044B0D4AC3F8A82171
:104CF000024B0C4AC3F8B02100BF80BD900A0020CF
:104D00000C0D0020358800083984000865840008EF
:104D100091840008C5840008F98400082D850008E6
:104D2000618500089585000880B500AFF422002158
:104D300034480EF089FE344B1B681B68314A1360FF
:104D4000314B1B685B682F4A53602E4B2F4A9A6089
:104D50002C4B2F4ADA602B4B2E4A1A61294B2E4AD4
:104D60005A61284B2D4A9A61264B2D4ADA61254B10
:104D70002C4A1A62234B2C4A5A62224B2B4A9A62C3
:104D8000204B2B4ADA621F4B2A4A1A631D4B2A4AD0
:104D90005A631C4B294A9A631A4B294ADA63194B06
:104DA000284A1A64174B284A5A64164B274A9A64B1
:104DB000144B274ADA64134B264A1A65114B264ACC
:104DC0005A65104B254A9A650E4B254ADA650D4BFC
:104DD000244A1A660B4B244A5A660A4B234A9A669F
:104DE000084B234AC3F8C020064B224AC3F8C4200C
:104DF000044B214AC3F8CC20024B204AC3F8C820F8
:104E000000BF80BD400900200C0D0020F93B0008C8
:104E1000F149000861700008B170000811710008C4
:104E200015740008515F0008319F00086D9F00084D
:104E300055A1000807A100086BA10008A9A100085E
:104E40002DA20008A99F0008E9A00008F15F000852
:104E50008D5E0008696A0008BD6A0008ED6A0008F6
:104E6000656B0008C96B000889A600087FA70008C9
:104E70005D9A0008219C0008459C0008BD9B000825
:104E800080B500AF0C22002108480EF0DDFD074B75
:104E9000074A1A60074B1B689B68044A5360054B1E
:104EA0001B68DB68014A936000BF80BD780A002060
:104EB000656D00080C0D002080B582B000AF7860F1
:104EC000204A7B681360FFF781FBFFF78DFAFFF73D
:104ED000E7F9FFF799FDFFF7A9FDFFF7B3FDFFF72E
:104EE000CFFFFFF71BFEFFF701FEFFF7CFFEFFF737
:104EF00027FEFFF76FFEFFF799FEFFF715FF124839
:104F000005F0D6F9114803F0B1FC114803F072FB2B
:104F1000104802F0E3FF104804F078FF0F4802F059
:104F200063F80F4800F0BEFA0E4800F065F80E482E
:104F300000F04EFD0D48FFF72DF900BF0837BD46C4
:104F400080BD00BF0C0D0020840A0020900A0020C4
:104F5000940C0020CC0C0020880A0020740A002049
:104F60006C0A0020340A002040090020780A002042
:104F700080B584B000AFC7E902017A607A68D7E9EA
:104F8000020102F085F9034618461037BD4680BD80
:104F900080B582B000AF094B1B78FB71FB791846D6
:104FA00002F014FAFB79184604F0D2FEFB79184699
:104FB00004F0DAFE00BF0837BD4680BD100D0020AA
:104FC00080B500AFFDF724FC00F00CFA01F02AFEDA
:104FD000FFF7DEFF00BF80BD80B400AF054B1B783C
:104FE000DBB20133DAB2034B1A7000BFBD465DF885
:104FF000047B7047100D002080B582B000AF786050
:10500000264A7B681360264B264A9A60244B9B688D
:10501000254ADA61224B9B6800221A76204B9B6856
:10502000184602F08DFA1E4B9B68184602F066FA8D
:105030001B4B9A68137843F001031370184B00223E
:105040001A601A4B1A4A1A61184B1B69194ADA611D
:10505000164B1B6904221A76144B1B69184602F082
:105060006FFA124B1B69184602F048FA0F4B1A6987
:10507000137843F0010313700C4B00225A600B4A63
:10508000137A23F001031372084B00221A600A4BB3
:1050900000221A7000BF0837BD4680BD140D0020E5
:1050A000180D0020280D0020500D0020600D00205C
:1050B000780D0020A00D0020A80E002080B582B041
:1050C00000AF78607B681B681B78C3F30403DBB216
:1050D0000A3B032B36D801A252F823F0ED5000080A
:1050E000F95000080551000811510008184B1B68C1
:1050F000DB687868984728E0154B1B685B6978681F
:10510000984722E0124B1B681B69786898471CE09F
:105110000F4B1B685B6B002B0CD00D4B1B685B6B44
:105120007A68126810469847034683F00103DBB2A1
:10513000002B09D17B681A6813780E2161F30403F0
:10514000137002E000BF00E000BF0837BD4680BD1D
:10515000140D002080B500AF124B1B68DB69984727
:105160000346012B01D800231AE00F4B9B680F4A1E
:1051700053600E4A137A23F0010313720B4B5A68E3
:10518000137843F008031370064B1B685B68092013
:1051900098470346054A1360054B01221A70012304
:1051A000184680BD140D0020180D0020600D002051
:1051B000A80E002080B500AF0D4B1B7D03F001034E
:1051C000DBB2002B10D00B4B1B681B68084A12691E
:1051D000104698470346002B04D0054A137D23F060
:1051E00001031375012300E00023184680BD00BFB2
:1051F000600D0020140D002080B500AF084B1B7A15
:1052000003F00103DBB2002B06D0064B1B689B6941
:1052100003489847012300E00023184680BD00BFE3
:10522000600D0020140D002080B500AF0C4B1B68F2
:10523000002B04D10B4B00221A7000230DE0084B09
:105240001B681B7803F01F03DBB20E2B04D1064B47
:105250001B689B69024898470123184680BD00BF20
:10526000600D0020A80E0020140D002080B500AFB6
:105270000E4B1B68002B01D1002314E00C4B1B6864
:105280009B68092098470346084A1360074B1B6830
:10529000002B07D1074B00221A70044B00225A60E2
:1052A000012300E00123184680BD00BF600D0020EF
:1052B000140D0020A80E002080B500AF114B1B7B01
:1052C00003F00103DBB2002B18D00F4B1B681B68E7
:1052D0000C4A9268104698470346002B0CD0FFF703
:1052E00039FF034683F00103DBB2002B04D0054AEB
:1052F000137B23F001031373012300E000231846FE
:1053000080BD00BF180D0020140D002080B500AF37
:10531000084B1B7B03F00203DBB2002B06D0064BCD
:105320001B681B6A03489847012300E000231846C6
:1053300080BD00BF180D0020140D002080B500AF07
:10534000114B1B68002B1CD1104B1B685B680520A0
:10535000984703460C4A13600B4B1B68002B01D186
:1053600001230FE0084B1B681B78C3F30403DBB277
:105370000D2B04D8054B1B681B6A03489847012373
:1053800000E00023184680BD180D0020140D0020F9
:1053900080B500AF114B1B68002B1CD0104B1B6855
:1053A0009B680520984703460C4A13600B4B1B680B
:1053B000002B01D101230FE0084B1B681B78C3F3BE
:1053C0000403DBB20D2B04D8054B1B681B6A034892
:1053D0009847012300E00023184680BD180D0020E7
:1053E000140D002080B500AF2B4B1B7883F0010318
:1053F000DBB2002B06D0294B1B685B6A984703463B
:10540000002B3CD1244B1B78002B23D0FFF7D2FE7E
:105410000346002B35D1FFF7EFFE0346002B32D1B8
:10542000FFF702FF0346002B14D0FFF71FFF1A4BB4
:105430001B7883F00103DBB2002B26D0184B9A684F
:10544000137823F008031370154A137B23F001032C
:1054500013731AE0114B1B689B6A98470346002B95
:1054600015D10E4B1B68DB6A98470346002B10D101
:105470000A4B1B681B6B98470346002B0AE000BFD2
:1054800008E000BF06E000BF04E000BF02E000BF8C
:1054900000E000BF80BD00BFA80E0020140D00205A
:1054A000180D002080B483B000AF7860044A7B6898
:1054B000136000BF0C37BD465DF8047B704700BF2A
:1054C000AC0E0020B0B58AB006AF78604FF48071A2
:1054D000F98179680968D1F89010D1E9200100F4C8
:1054E00000020023134302D040F20113FB817B68CA
:1054F0009C687B681B681D8A7B681B68D3E9022354
:10550000F98904914FF000004FF00001CDE902014C
:10551000002100912946204601F0B2FF7B6899687E
:105520007B681B68D3E9022300200090084602F044
:1055300032F97B689B6806225A837B681A68137865
:1055400043F0800313707B681A6892F8883043F048
:10555000010382F888307B681B68002283F8892069
:105560007B681B68002283F88A207B681A6892F89F
:10557000503023F0010382F850307B681B68002212
:1055800083F851207B681B68002283F852207A68D8
:10559000137B43F0010313737B681A6813780C21A3
:1055A00061F30403137000BF1037BD46B0BD0000A7
:1055B000B0B58CB006AF78607B681B68B3F8583024
:1055C000002B12D17B681B68B3F87030002B0CD114
:1055D0007B681A6813780B2161F3040313707A68EF
:1055E000137B23F001031373E7E04FF000024FF049
:1055F0000003C7E904237B681B6893F88A301A46C6
:105600007B681B68B3F870309A424BD27B689C6809
:105610007B681B681D8A7B681B68D3E9022340F204
:10562000245104914FF000004FF00001CDE9020138
:10563000002100912946204601F022FF7B681A686C
:105640007B681B6893F88A301B0113447833D3E9D5
:1056500000017B681A687B681B6893F88A300833FE
:105660001B0113441B881A4602F05CFBC7E90401C6
:105670007B689968D7E90423084601F09CFF7B68A2
:105680001B6893F88A200132D2B283F88A207A68A4
:10569000137B43F0020313737A68137B43F0010317
:1056A00013738AE07B681B6893F889301A467B681D
:1056B0001B68B3F858309A424AD2414B1B681B68AA
:1056C0007A6810687A68126892F8892011469847BB
:1056D0000346FB817B681A687B681B6893F88930F6
:1056E00006331B011344D3E90023C7E904237B6875
:1056F0009C687B681B681D8A7B681B68D3E9022352
:10570000F98904914FF000004FF00001CDE902014A
:10571000002100912946204601F0B2FE7B6899687D
:10572000D7E90423084601F046FF7B681B6893F81D
:1057300089200132D2B283F889207A68137B43F042
:10574000020313737A68137B43F00103137334E08D
:105750007B681B68002283F889207B681B68002215
:1057600083F88A207B681A6892F8883023F0010356
:1057700082F888307B681B68002283F851207B68A0
:105780001B68002283F852207B681A6892F8503018
:1057900043F0010382F850307A68137B23F0020350
:1057A00013737A68137B23F0010313737B681A6801
:1057B00013780B2161F3040313701837BD46B0BD95
:1057C000AC0E0020B0B58CB006AF78607B681B686B
:1057D0001B8C002B11D17B681B681B8F002B0CD1FD
:1057E0007B681A6813780D2161F3040313707A68DB
:1057F000137B23F001031373E5E04FF000024FF039
:105800000003C7E904237B681B6893F852301A46EB
:105810007B681B681B8F9A424BD27B689C687B68B5
:105820001B681D8A7B681B68D3E9022340F2A441F0
:1058300004914FF000004FF00001CDE9020100217A
:1058400000912946204601F01BFE7B681A687B68A0
:105850001B6893F8523004331B011344D3E9000151
:105860007B681A687B681B6893F852301B011344ED
:1058700048331B881A4602F055FAC7E904017B68D1
:105880009968D7E90423084601F095FE7B681B68F8
:1058900093F852200132D2B283F852207A68137BF7
:1058A00043F0020313737A68137B43F0010313730D
:1058B00089E07B681B6893F851301A467B681B6847
:1058C0001B8C9A424AD2414B1B685B687A6810680D
:1058D0007A68126892F85120114698470346FB8176
:1058E0007B681A687B681B6893F851301B0113446E
:1058F0002833D3E90023C7E904237B689C687B68CD
:105900001B681D8A7B681B68D3E90223F98904910F
:105910004FF000004FF00001CDE90201002100919D
:105920002946204601F0ACFD7B689968D7E904233D
:10593000084601F040FE7B681B6893F85120013255
:10594000D2B283F851207A68137B43F002031373B9
:105950007A68137B43F00103137334E07B681B68A0
:10596000002283F889207B681B68002283F88A2044
:105970007B681A6892F8883023F0010382F8883037
:105980007B681B68002283F851207B681B6800221B
:1059900083F852207B681A6892F8503023F0010394
:1059A00082F850307A68137B23F0020313737A680D
:1059B000137B23F0010313737B681A6813780D219E
:1059C00061F3040313701837BD46B0BDAC0E002060
:1059D00080B584B000AF7860484A7B681360484B5C
:1059E000484A1A61464B1B69474ADA61444B1B69B6
:1059F00004221A76424B1B69184601F0A1FD404B68
:105A00001B69184601F07AFD3D4B1A69137843F083
:105A1000010313703A4B00225A60394A137A23F07B
:105A200001031372364B00221A60384B384A1A6150
:105A3000364B1B69374ADA61344B1B6904221A76EC
:105A4000324B1B69184601F07BFD304B1B69184631
:105A500001F054FD2D4B1A69137843F001031370C4
:105A60002A4B00225A60294A137A23F00103137249
:105A7000264B00221A60284B00221A70274B284A16
:105A80001A60264B1B68274ADA61244B1B680422E4
:105A90001A76254B00221A700023FB601DE0FB687C
:105AA0004FF4947202FB03F32833204A1A441F492F
:105AB000FB684FF4947000FB03F30B441C331A6033
:105AC0001A4AFB684FF4947101FB03F31344183333
:105AD00004221A70FB680133FB60FB68042BDEDDD7
