:020000040800F2
:1000000000000220B15300087D0F00087F0F000898
:10001000810F0008830F0008850F00080000000012
:10002000000000000000000000000000870F000832
:10003000890F0008000000008B0F00088D0F0008DA
:10004000015400080154000801540008015400083C
:10005000015400080154000801540008015400082C
:10006000015400080154000801540008015400081C
:10007000015400080154000801540008015400080C
:10008000015400080154000801540008910F0008B1
:100090009D0F0008A10F000801540008015400083A
:1000A00001540008015400080154000801540008DC
:1000B00001540008015400080154000801540008CC
:1000C00001540008015400080154000801540008BC
:1000D00001540008015400080154000801540008AC
:1000E000015400080154000801540008015400089C
:1000F000015400080154000801540008015400088C
:10010000015400080154000801540008015400087B
:10011000015400080154000801540008A50F00080C
:10012000015400080154000801540008015400085B
:10013000015400080154000801540008015400084B
:10014000015400080154000801540008B10F0008D0
:10015000015400080154000801540008015400082B
:10016000015400080154000801540008015400081B
:100170000154000801540008015400080000000068
:080180000154000801540008BD
:1001900010B5054C237833B9044B13B10448AFF3C1
:1001A00000800123237010BD8800002000000000A3
:1001B00088A2000808B5034B1BB103490348AFF3FD
:1001C000008008BD000000008C00002088A200080C
:1001D000034613F8012B002AFBD1181A0138704787
:1001E00001F0FF01102A2BDB10F0070F08D010F8E8
:1001F000013B013A8B422DD010F0070F42B3F6D1EC
:10020000F0B441EA012141EA014122F007047FF004
:1002100000070023F0E80256083C85EA010586EA5B
:10022000010685FA47F5A3FA87F586FA47F6A5FA97
:1002300087F68EB9EED1F0BC01F0FF0102F00702A3
:1002400032B110F8013B013A83EA010313B1F8D14E
:100250000020704701387047002D06BF354603382F
:10026000073815F0010F07D1013015F4807F02BF68
:10027000013015F4C03F0130F0BC0138704700BFB9
:1002800053B94AB9002908BF00281CBF4FF0FF31FD
:100290004FF0FF3000F088B9ADF1080C6DE904CEE5
:1002A00000F006F8DDF804E0DDE9022304B0704751
:1002B0002DE9F047089D8E4604468846002B4AD11A
:1002C0008A42174662D9B2FA82F64EB1C6F12003CD
:1002D00001FA06F820FA03F3B74043EA0808B440ED
:1002E0004FEA174E1FFA87FCB8FBFEF1230C0EFBFA
:1002F000118843EA084301FB0CF29A4209D9FB1822
:1003000001F1FF3080F0EA809A4240F2E780023942
:100310003B449A1AA3B2B2FBFEF00EFB102243EA52
:10032000024300FB0CFC9C4509D9FB1800F1FF328D
:1003300080F0D6809C4540F2D3803B44023840EAAE
:100340000140A3EB0C0300211DB1F3400022C5E9DD
:100350000032BDE8F0878B4205D90DB1C5E9000137
:1003600000210846F5E7B3FA83F1002946D1734529
:1003700002D3824200F20581841A6EEB030201204F
:100380009046002DE5D0C5E90048E2E7002A00F0DC
:100390009080B2FA82F6002E40F0A4808A1A030CF4
:1003A0004FEA174E80B2BCB20121B2FBFEFC0EFB3D
:1003B0001C2243EA024304FB0CF29A4207D9FB18C1
:1003C0000CF1FF3802D29A4200F2E080C4469B1A38
:1003D000B3FBFEF20EFB123340EA034302FB04F4CC
:1003E0009C4207D9FB1802F1FF3002D29C4200F276
:1003F000CA8002461B1B42EA0C40A5E7C1F1200659
:100400008B4022FA06F71F430EFA01F420FA06F396
:100410002EFA06FE4FEA1749234300FA01F81FFAA5
:1004200087FCBEFBF9F01C0C09FB10EE44EA0E44FD
:1004300000FB0CFEA64502FA01F209D93C1900F1B5
:10044000FF3A80F09C80A64540F2998002383C44F7
:10045000A4EB0E041FFA83FEB4FBF9F309FB13446B
:100460004EEA044403FB0CFCA44508D93C1903F1F3
:10047000FF3E80F08280A4457FD9023B3C4443EAA2
:100480000040A4EB0C04A0FB02EC64457346E1467B
:1004900062D35FD05DB1B8EB030264EB090404FAE8
:1004A00006F622FA01F31E43CC40C5E900640021A0
:1004B0004FE7B1FBF2FC010C41EA0E4180B240EA89
:1004C00001423B4638463C46B846BE462026B1FB74
:1004D000F7F1A2EB080241EA0C4166E7014618E792
:1004E00010462CE7C6F120022EFA02F3B740B140C5
:1004F00020FA02F24FEA174E0A43B3FBFEF8BCB2F1
:100500000EFB1833110C41EA034108FB04F9B0401B
:1005100089454FEA104380B23ED9791808F1FF3C73
:1005200001D289451FD8A1EB0901B1FBFEF909FBF6
:1005300004F80EFB191192B242EA0142424529D257
:10054000BA1809F1FF31C4D24245C2D2A9F1020161
:100550003A44BEE7F0459DD2BEEB02036CEB070CBC
:100560000138E14696E7A7EB09094944A8F1020CD6
:10057000B1FBFEF909FB04F8DBE773467FE7504661
:1005800066E70846FDE63B44023A33E7ACF1020C6D
:100590003B441CE749469CE7A1EB0901C446B1FB7B
:1005A000FEF909FB04F8C4E7704700BF08B500F086
:1005B0001DFE00F0DFFD214801F028F9204801F080
:1005C00095FA204801F0CCFB1F4801F055FC1F486C
:1005D00000F068FE1E4800F089FF1E4800F0C4FFCE
:1005E00000F056FD01F014FE01F0CCFD01F090FD8D
:1005F000194804F0B5FD194803F028FC184804F028
:100600000DFA184804F0C3FC174803F011F9174815
:1006100003F034FB164802F04FFE164802F056FB7A
:10062000154801F085FF154801F0D6FE144802F088
:100630009DF8BDE80840134801F064BDFCA6000821
:10064000C4A60008BCA60008A4A600083CA7000891
:1006500014A700086CA6000824A50008A0A20008A2
:1006600034A6000868A60008D8A40008A4A40008BE
:1006700064A4000868A600082CA6000800A60008CC
:100680002CA5000858A400087047000010B50D4CB8
:100690000D484FF4804105F080FB2388052B0DD9D0
:1006A000094800224FF4005105F072FB0648002271
:1006B0004FF4004105F06CFB0023238023880133B5
:1006C000238010BDA4000020000C0240024801223B
:1006D0004FF4005105F05CBB000C024002480122BF
:1006E0004FF4004105F054BB000C024070B50146C8
:1006F00015461C46044808F0FBFF2A4623460348DB
:10070000BDE8704008F0F4BF48A7000863A70008E0
:1007100010B54068002102F0B2FCBDE8104002466E
:100720000B46014808F0E4BF76A7000810B594B066
:10073000102200210AA808F0EDFF1422002103A8CE
:1007400008F0E8FF1F4B002101911A6C42F0805223
:100750001A641B6C03F080530193019B1A4B0291A6
:100760001A6842F480421A601B6803F480430293C3
:10077000029B01214FF480330224CDE908134FF48A
:1007800080030420CDE90E43A823CDE910030723FD
:1007900008A81294139306F08DFB08B172B6FEE719
:1007A0000F23CDE9033480224FF48053214603A860
:1007B000CDE90523079306F059FD08B172B6FEE7AF
:1007C00014B010BD003802400070004080B58CB0FD
:1007D00004F03CFEFFF7AAFF1422002107A808F04E
:1007E00099FF0024994B01941A6B994842F010022A
:1007F0001A631A6B02F010020192019A02941A6BAA
:1008000042F004021A631A6B02F004020292029A86
:1008100003941A6B42F080021A631A6B02F0800292
:100820000392039A04941A6B42F001021A631A6B42
:1008300002F001020492049A05941A6B42F002023B
:100840001A631A6B02F002020592059A06941A6B5B
:1008500042F008021A631B6B03F00803069322465A
:100860000821069B05F094FA01221146794805F00B
:100870008FFA224678484FF2100105F089FA0125D7
:100880000826734807A9CDE90765CDE9094405F0B5
:10089000A7F9704807A9CDE907554FF00508CDE93C
:1008A000094405F09DF96B48079607A902264FF405
:1008B0009017CDE908640A94CDF82C8005F090F9E2
:1008C0006648079507A9CDE9087405F089F904235E
:1008D0006348099407A9CDE9073405F081F94FF47D
:1008E00080635F48CDF82C8007A9CDE90736CDE9B4
:1008F000094405F075F94FF21003574807A9CDE9EF
:100900000735CDE9094405F06BF920235248554DD0
:10091000099407A9CDE9073405F062F9CDE9076725
:100920004B48514E099407A905F05AF92A23C5E905
:1009300000634FF400374FF440132846C5E90473B1
:10094000C5E90244AC61AC8304F0C0FD034608B1C4
:1009500072B6FEE74548464A464C0362C0E900428B
:100960004FF48042C0E90233C0E90423C0E90633F2
:1009700005F0B2FF034608B172B6FEE73E483F4AB3
:100980004FF40074C0E900244BF68032C0E9023312
:10099000C0E90523C0E90733046106F045F80346C2
:1009A00008B172B6FEE7364836498362C0E90233C1
:1009B000C0E90433C0E90643C0E908334FF482724A
:1009C0000A23C0E90012C36206F0BCFD064608B166
:1009D00072B6FEE708F0DAFB2B4C2C4AA6608023A7
:1009E000C4E9002320464FF6FF73CDE90766E360B4
:1009F000A66106F03DFF08B172B6FEE7CDE907003B
:100A000007A9204606F060FF08B172B6FEE7FFF7BF
:100A1000CDFDFFF739FE284600F040F8204600F0F3
:100A2000FBF81B4A1B480C4C40F2015102F09AF9AA
:100A300008F0CCFB4FF48051204605F0AEF900F0F1
:100A400069FE01F05FFD02F0E3F8F1E700380240D3
:100A50000010024000080240000C0240000002406A
:100A600000040240E40100200064004090010020E6
:100A7000A08601000054004048010020003C0040D6
:100A8000F000002000300140A800002000140040C9
:100A9000E8A700085507010172B6FEE710B50E4B36
:100AA0008AB001220446694618600023CDE900336C
:100AB000CDE90233CDE906320892059309930493F8
:100AC00004F080FD204604F003FE0321204604F0DC
:100AD000F1FE0AB010BD00BF0C020020024B022143
:100AE000186804F0F8BE00BF0C020020024B03217E
:100AF000186804F0DFBE00BF0C02002010B5FFF73D
:100B0000EDFF044B1C7884F00104FFF7EFFF204653
:100B100010BD00BF1002002070B58AB00446FFF778
:100B2000EDFF054618B9002528460AB070BD636878
:100B3000059304220023CDE90623207A8DF8243082
:100B40000493019304F10803C4F1FF2402A904F5FE
:100B50007F0408900A46F834E618B0420BDC0848D7
:100B600001AB006804A904F0DEFD0028DBD1054BD1
:100B700001221A70D8E713F8016F01F8016BEBE757
:100B80000C02002010020020014B00221A70704756
:100B900010020020014B00221A7070471002002042
:100BA000014B00221A7070471002002030B51C2241
:100BB0008FB0002104460DEB020008F0ABFD1422BB
:100BC000002102A808F0A6FD6B4607AA00212046D6
:100BD00004F0F4FD08B10FB030BD099B042BF3D134
:100BE0000A9B002BF0D19DF8082042F001028DF8FD
:100BF0000820089A03920B9A8DF81020694604A8E1
:100C0000934203D102A800F077FFDDE711F8015B02
:100C100000F8015F0133F3E7014B186006F002BDF5
:100C20001402002070470000F0B5144B87B001ADEE
:100C300084460C4603F1100E2E46186859682F465C
:100C400003C7083373453D46F7D118683860002361
:100C500019469C4209DCBCF1000F03D1334611193F
:100C60008A4205D1204607B0F0BDD1540133F0E7E8
:100C700013F8010B02F8010BF2E700BF98A7000878
:100C80000846704708B5FFF729FF034B1868BDE811
:100C9000084006F0B3BC00BF1402002008B5FFF7FF
:100CA00025FF034B1868BDE8084006F0BBBC00BF39
:100CB0001402002008B5054B1B68834205D102F0E1
:100CC000EDF8BDE8084003F0A8BE08BD14020020FE
:100CD00082B00D4B002100915A6C42F480425A645C
:100CE0005A6C02F480420092009A01911A6C42F010
:100CF00080521A641B6C03F080530193019B072000
:100D000002B004F007BF00BF0038024010B504462F
:100D100088B01422002103A808F0FCFC22681F4BB5
:100D20009A4239D1002403F5EA3301941A6C1C4825
:100D300042F000721A641A6C02F000720192019A79
:100D400002941A6B42F008021A631B6B03F008034B
:100D500002930222029B0323CDE90332069303A9E7
:100D60000923079304F03CFF22462146132004F098
:100D7000E3FE132004F012FF22462146142004F063
:100D8000DBFE142004F00AFF15202246214604F061
:100D9000D3FE152004F002FF08B010BD006400402F
:100DA000000C024030B5044689B01422002103A88B
:100DB00008F0B0FC2268144B9A4222D1134C14481C
:100DC00000250195236B43F002032363236B03F09B
:100DD00002030193019B4FF410721223CDE9032308
:100DE0000123059303A90423079304F0F9FE029558
:100DF000236C43F400132364236C03F40013029365
:100E0000029B09B030BD00BF0054004000380240D2
:100E10000004024070B58CB004461422002107A8DB
:100E200008F078FC1022002103A808F073FC226867
:100E3000234B9A4242D132230122CDE9032303A856
:100E40000223059306F0BCFA08B1FFF725FE1D4BFF
:100E50001D48002400941A6C42F400421A641A6C73
:100E600002F400420092009A01941A6B42F00102CF
:100E70001A631A6B02F001020192019A02941A6B32
:100E800042F004021A631B6B03F004030293029BFB
:100E900002261023062507A9CDE90736CDE9094426
:100EA0000B9504F09DFE4FF4A45308480B9507A939
:100EB000CDE90736CDE9094404F092FE0CB070BDCF
:100EC000003C0040003802400000024000080240A0
:100ED00010B5044688B01422002103A808F01AFCBB
:100EE0002268134B9A4220D103F5843300210191EB
:100EF0005A6C104842F480525A645A6C02F4805280
:100F00000192019A02911A6B42F001021A631B6B63
:100F100003F001030293029BE0220223CDE90323A5
:100F200003A90523079304F05BFE08B010BD00BFC2
:100F3000003001400000024007B50F4B02689A42A2
:100F400016D1002203F509330192196C41F02001FA
:100F500019641B6C03F02003019311463720019B99
:100F600004F0EAFD372003B05DF804EB04F016BE90
:100F700003B05DF804FB00BF00140040FEE7FEE78D
:100F8000FEE7FEE7FEE770477047704704F078BA67
:100F9000014804F0BBBC00BFE4010020FFF7F8BF2C
:100FA000FFF7F6BF014806F07BBB00BFA80000209A
:100FB000014804F09FBF00BF9834002070B50D4673
:100FC00014460E46731B9C4201DC204670BDAFF3F5
:100FD000008006F8010BF5E770B50D4614460E4685
:100FE000731B9C4201DC204670BD16F8010BAFF369
:100FF0000080F5E74FF0FF3070474FF400534B602F
:101000000020704701207047002070470B4A11688C
:1010100010B5034609B90A491160106809490A4C1C
:101020000344091B8B4206D908F08CFB0C23036098
:101030004FF0FF3010BD1360FCE700BF1802002026
:10104000C83900200000022000040000034AD2F842
:10105000883043F47003C2F88830704700ED00E038
:101060000A4A0023F0B510461C46002600271481CA
:10107000E2E8046700EB03150133A97A042B21F0A1
:101080000301A972F3D180F84040F0BD2002002096
:10109000FFF7E6BF0048704720020020024B012204
:1010A00083F84020704700BF20020020F0B50D4CAF
:1010B000054600212646208930B906EB01100C01B7
:1010C000058132514360F0BDD4E90070984208BFF9
:1010D0009742F2D00131042904F11004EBD1002031
:1010E000F1E700BF2002002010B50C4900220B469A
:1010F0000C8984420CD103EB021300220020002152
:101100001A819A7AC3E9000122F003029A7210BD93
:101110000132042A01F11001EAD1F8E7200200208F
:1011200010B5084900220B460C89844202D103EB1A
:10113000021010BD0132042A01F11001F4D1002087
:10114000F7E700BF20020020094B70B51A460024C3
:10115000D3E900658D4208BF864202D102EB04103C
:1011600070BD0134042C03F11003F1D10020F7E726
:101170002002002008B5044B2C220021184608F05C
:10118000C9FA0022828508BD6802002010B5094A0C
:1011900092F82C1092F82D404B1CDBB20B2B28BF81
:1011A00000239C421BBF82F82C3042F82100002013
:1011B000012010BD680200200B4A92F82C1092F812
:1011C0002D3099424FF000010CD052F8230042F824
:1011D00023100133DBB20A2B94BF82F82D3082F842
:1011E0002D10704708467047680200200E4B002102
:1011F00070B50A461D46142606FB01F40131285D30
:101200000A2920F00100285503F1140343F8102C9B
:1012100003F80C2C43F80B2C43F8072CECD1034BB0
:101220001A80034B1A8070BD9C0200209A02002095
:101230009802002070B5124D0023142202FB03F126
:10124000695CC90716D40F490A88013292B20A8034
:101250000D490888904238BF0A80142202FB03F42B
:101260002E19304600F06EFE2B5D43F001032B5526
:10127000304670BD01330A2BE0D10026F8E700BFED
:101280009C0200209A0200209802002038B1044AF3
:101290001388013B1380037823F001030370704728
:1012A0009A020020014B1860704700BF64030020C1
:1012B0000368D3E902011A78C3E90601022161F348
:1012C00004021A7070470000016830B5D1E9064287
:1012D000230E43EA0223114D23F07F4224F07F4086
:1012E000154400F5D810D20B00F6A3405B0242EA89
:1012F0004422024423F07F432B4422F07F4202EB3E
:10130000136223F07F4343EA0263100AC1E9063007
:101310000B78022262F304030B7030BDA94B7A00F4
:10132000016870B5D1E906351A0E42EA052222F0AD
:101330007F42044623F07F40C3F30B3353400D4DEF
:10134000434083EA1233C3F30B002B6808821E6804
:10135000D1E90223B0472B68996821B12068D0E910
:101360000223008A884723681A78032161F3040264
:101370001A7070BD6403002010B544680023237206
:101380000268D3681902084B0B40118A0B4343F0E3
:10139000B8536360037A43F00103037213780421A6
:1013A00061F30403137010BD00F0FF0010B5446832
:1013B000002323720268D2E90213090B41EA0351A8
:1013C000084B0B40118A0B4343F0B0536360037A20
:1013D00043F0010303721378052161F304031370D2
:1013E00010BD00BF00F0FF004168002310B50B7274
:1013F0000268094B94682340148A234343F0A8539E
:101400004B60037A43F0010303721378062161F302
:101410000403137010BD00BF00F0FF0030B5446836
:101420000B4B002121720268956803EA0533158A87
:101430002B4343F0A0536360037AA2F8441643F0B1
:10144000010303721378072161F30403137030BDA5
:1014500000F0FF000368B3F84426022A81BF1A781F
:10146000082161F304021A707047D0E90021138A41
:1014700043F0835343F480134B6000230B72037AD1
:1014800043F0010303721378092161F3040313701D
:101490007047000013B50446D0E90020138A43F0DA
:1014A000102343F4E003436000230093D2E90223B6
:1014B00000F003FE237A43F00103237223681A78B5
:1014C000188A42F040021A70074A12685268904720
:1014D000837A43F00203837223681A780A2161F346
:1014E00004021A7002B010BD64030020014B1860A2
:1014F000704700BF6803002003681B7803F01F03D8
:10150000092B2ED8DFE803F005090D1115191D214F
:101510002529144B1B681B681847124B1B685B6816
:10152000FAE7104B1B689B68F6E70E4B1B68DB68FD
:10153000F2E70C4B1B681B69EEE70A4B1B685B6903
:10154000EAE7084B1B689B69E6E7064B1B68DB690B
:10155000E2E7044B1B681B6ADEE7024B1B685B6A11
:10156000DAE770476803002010B50A4B0A4C186090
:10157000204600F0E7FC094B197A5C60002262F318
:1015800000011972197C1A6062F300011974DA60A3
:1015900010BD00BF940300206C03002080030020D6
:1015A0002DE9F047204E33681B6898473368DB69A4
:1015B000984790F840800546B8F1000F2ED00027DC
:1015C00000F108093B0139F803400CB32B449B7A26
:1015D000DB071DD5336820461B6A984733682046D1
:1015E0005B699847044698B103884FF0000A23F4DA
:1015F0007C63A0F810A00380D0F8500618B100F06A
:10160000C1FEC4F850A62378012262F304032370BC
:101610000137042FD6D1002385F8403033685B684A
:1016200098474046BDE8F0879403002038B5104C39
:10163000E3684BB90F4D2B681B689847FFF7BCFD5B
:101640002B68E0605B689847E06880B1094D2B68C3
:101650009B68984750B12B681B689847E068FFF774
:1016600015FE2B685B6898470023E360012038BDB6
:10167000800300209403002010B5084C207A10F05D
:1016800001000AD0064B60681B689B68984718B138
:10169000237A23F001032372012010BD8003002070
:1016A0009403002038B50B4C23688BB90A4D2B6886
:1016B0000620DB689847206040B1037803F01F03E1
:1016C000092B03D82B6820469B699847012038BD19
:1016D0000020FCE7800300209403002010B50B4C91
:1016E000236806201B69984703460948036053B1E5
:1016F0001B7803F01F03092B01D9002010BD2368BC
:101700009B699847F9E70120F8E700BF94030020A0
:101710008003002010B50B4C23685B6A984780B9A2
:1017200023689B6A984760B92368DB6A984740B989
:1017300023681B6B984720B92368BDE810405B6B9A
:10174000184710BD940300202DE9F0411E46174BA9
:101750001B6886B05B68074600200D469046984798
:101760000446F8B141F6484240F64823904518BF78
:101770006823049300220023CDE902233946009513
:1017800001F0C3FB29462046002201F011FC20464F
:101790000222314601F00CFC204606B0BDE8F041C3
:1017A00000F0C4BC06B0BDE8F08100BF9803002083
:1017B00070B5144D00F0CEFB2B689B680646984729
:1017C000044650B1837A43F0010383722B685B694E
:1017D0009847A37A9B0701D4012070BD2B681B6832
:1017E0009847094B3343436006230372054600F1D3
:1017F0000902D4E9000100F079FC2846FFF7C6FC95
:10180000EAE700BF9803002000307010014B186019
:10181000704700BF980300202DE9F04387B0894648
:101820001446804600F09AFB0646404600F092FBC4
:101830000546404600F0B7FB3146074602462846BB
:1018400000F0BAFC48B142F242033A46294630461B
:1018500007B0BDE8F043FFF777BF114B1B68204688
:101860005B689847044610B942F22003EDE7002276
:101870000023CDE9022329460497009601F045FB99
:10188000237843F0020323704A464146204600F085
:10189000AEFB204607B0BDE8F04300F07BBC00BFC4
:1018A000980300202DE9F0418846044600F056FBDD
:1018B0000546204600F04EFB0646204600F073FB2E
:1018C000294607460246304600F076FC40B93A46C3
:1018D0003146284642F24103BDE8F041FFF734BFEC
:1018E00042462146BDE8F04100F081BB2DE9F047BA
:1018F0008946054600F032FB0646284600F02AFBE2
:101900000746284600F04FFB3146024680463846DF
:1019100000F052FC044640B942463946304642F295
:101920004103BDE8F047FFF70FBF4A46294600F0E4
:101930005EFB237823F002032370204600F054FC62
:101940002046BDE8F04700F0F1BB00002DE9F04172
:10195000164B1B6886B05B68054610460E469847D6
:10196000044600B3284600F0F9FA8046284600F005
:10197000F1FA0746284600F016FB00230022CDE9C5
:101980000223049039462046CDF8008001F0BDFACC
:1019900032462946204600F02AFB204606B0BDE824
:1019A000F04100F0C3BB06B0BDE8F0819803002011
:1019B0002DE9F0410D461646044600F0CFFA804668
:1019C000204600F0C7FA0746204600F0ECFA4146F0
:1019D0000246384600F0F0FB30B932462946204630
:1019E000BDE8F041FFF718BF214600F01DFB0528B8
:1019F0002946204603D8BDE8F041FFF753BFBDE8B4
:101A0000F041FFF773BF704738B50B4D00F0A2FAF5
:101A10002B689B680446984768B12B681B689847F9
:101A200044F08354002344F4801403724460BDE8FE
:101A30003840FFF7ABBB38BD98030020FFF7B8BEB6
:101A4000FFF7B6BE2DE9F8430446FFF7B1FE0028C4
:101A500041D1224E227A3368F2B12046DD6800F08F
:101A600000FBA8470546002835D033681B68984717
:101A70002B8943F0102343F4E003436006230372F1
:101A8000044600F10902D5E9000100F02FFB2046D1
:101A9000BDE8F843FFF77ABB1B69114F98474FF039
:101AA0000608044600F1400923898BB133681B689E
:101AB0009847238980F808803B430546436000F13E
:101AC0000902D4E9000100F011FB2846FFF75EFB94
:101AD00010344C45E8D1BDE8F88300BF98030020DE
:101AE00000107010FFF764BEFFF762BE014B186074
:101AF000704700BF9C03002070B5894D2B685B6B5D
:101B0000044603B19847204600F0A7FA636800280E
:101B100000F0BE8003F0E062B2F1806F00F0A080C0
:101B20000AD8B2F1007F7FD0B2F1407F00F0888008
:101B3000B2F1807F15D070BDB2F1A06F00F09C8033
:101B4000B2F1E06FF7D12B6820461E6B00F006FA69
:101B5000B0470028EFD02B685B69002BEBD0032245
:101B600057E013F400412A683CD02046166B00F081
:101B7000F5F9B0470028DED0627A616802F0F00221
:101B8000802A2CD00ED8C1F30B31B2B1402AD2D169
:101B90002B6840F6082291429B6814D0002BCAD0D3
:101BA000002217E0C02AC6D12B68DB68002BC2D008
:101BB00002212046BDE87040184740F608208142C7
:101BC0002B6804D11B68002BB5D0022202E05B68B1
:101BD000002BB0D002212046BDE8704018472B688A
:101BE0001B69E3E7C3F30B3340F61570834212D051
:101BF00040F616718B4208D040F614718B420ED01D
:101C00005368002B97D0002203E09368002B92D0FA
:101C100002220021DFE7D368002BCAD18BE71369CA
:101C2000002B88D00021C4E72B6820461E6B00F0F3
:101C300095F9B04700283FF47EAF2B685B68E0E77A
:101C40002B6820461E6B00F089F9B04700283FF44E
:101C500072AF2B689B68002B3FF46DAF0122D8E771
:101C60002B6820461E6B00F079F9B04700283FF43E
:101C700062AF2B68DB68D3E72B6820461E6B00F051
:101C80006DF9B04700283FF456AF2B681B69C7E7D2
:101C900013F0E06234D1234A23491A408A4229D002
:101CA00009D8B2F5E00F1CD0204B9A427FF443AF25
:101CB0002B68DB6917E01E498A421ED0FFF43BAF58
:101CC00001F570418A4206D008D81A4A1A40B2F586
:101CD000E20F7FF430AF2B689B6A04E0164B9A4208
:101CE000F7E72B689B69002B3FF425AF2046BDE842
:101CF000704018472B681B6AF5E72B685B6AF2E7B0
:101D0000B2F1806F09D008D9B2F1C06F05D003F0ED
:101D1000A063B3F1A06F7FF40EAF2B68DB6AE2E73C
:101D20009C03002000F0FF000020700000107000F5
:101D30000030700000E0FF000030710070B5074E09
:101D400033681B680546984733685B68044613B1DF
:101D500008B128469847204670BD00BFA003002068
:101D6000014B1860704700BFA0030020F8B507467C
:101D70000023154612880C4600F083F9798BBB8846
:101D800008290646F8880CD843EA003343F0D053BC
:101D900063602046FFF7D2FF10B12B881E442E80CF
:101DA000F8BD2A88072A43EA003302D843F0D85303
:101DB000EEE732448A42B4BF43F0E05343F0E853C5
:101DC000E6E70000F8B5438B082B06460F4614469D
:101DD00001D90020F8BD1288002300F052F9728862
:101DE000084B03EA0233B288134343F0C853054655
:101DF0007B603846FFF7A2FF0028EAD023881D4405
:101E00002580E7E700F0FF00F8B5C3888B72154620
:101E10001A0A4A724288154B03EA02338288134336
:101E2000074643F0C8532A884B6002230C4600F053
:101E300028F97A8B062A064604F109000AD80021FF
:101E400001F049F92046FFF779FF10B12B881E44B5
:101E50002E80F8BD2B88052B01D84021F0E73344B4
:101E60009342B4BFC0218021EAE700BF00F0FF0029
:101E700001207047FFF762BF014B1860704700BF39
:101E8000A403002070B5164604460D4601F029F95A
:101E9000124AF8B16388126840F6C8418B420AD0F2
:101EA0000BD823F0200140F68800814203D040F691
:101EB00068018B420CD1136904E041F648418B4222
:101EC00006D1D368324629462046BDE870401847FF
:101ED0005368F7E713689B68F4E700BFA40300208A
:101EE00030B587B00023ADF80230124B1B681B6879
:101EF0000546984718B90024204607B030BD6B8BC3
:101F00000DF1020201A928461BB9FFF7BBFF0446E9
:101F1000F2E7FFF7B7FF04460028ECD06A8BBDF864
:101F200002309A42E8D90DF1020201A92846FFF7D2
:101F3000A9FFF3E7A4030020014B1B685B69184766
:101F4000A4030020002343600372C0F80930C0F8E6
:101F50000D3070474068C0F30B007047436803F0D2
:101F6000E061B1F1806F024618D011D803F0C06073
:101F7000B0F1007F12D0B1F1807F12D113F4004094
:101F800010D0537A907A1B0203F4706318437047A1
:101F9000B1F1A06F02D0B1F1E06FEEE7C3F30B3007
:101FA000704700207047406800F0E063B3F1806F35
:101FB00018D011D800F0C062B2F1007F12D0B3F196
:101FC000807F12D1C0F30B30A0F6147240F6147368
:101FD000022A98BF18467047B3F1A06F02D0B3F140
:101FE000E06FEEE741F64840704700207047F8B5D3
:101FF0000E4615460446007E00F06CFF2B4606F1A7
:102000000901327A9A4202DC581BC0B2F8BD628BD9
:102010008242F9D2E76911F803C007F802C0628B67
:10202000013262830133ECE738B50B46C1F1FF2181
:1020300001F57F0113F8085F0024F831CA189542B2
:1020400004DC01F052F82044C0B238BD13F8012F6F
:10205000002AF3D10134E4B2F0E74068C0F3C06075
:10206000704710B5C47A837B417A827A43EA04636D
:10207000047B407B43EA044343EA002042EA012117
:1020800010BDF0B50546002008726E8B9EB11C464F
:1020900001F1090C072C02DD03440B72F0BDEF695E
:1020A000BF5C0CF80470013292B201309642C0B2AB
:1020B000F2D90134EEE73046F0E710B59DF808405C
:1020C000022C014610D8A01DC0B20F340872214462
:1020D000062401F8012D013C4FEA122242EA036274
:1020E0004FEA1323F5D110BD0020FCE7931D03F840
:1020F000010D000A934240EA01604FEA1121F6D136
:1021000070470000014B1860704700BFA803002013
:1021100008B5054BA8220021184607F0FBFA00225B
:10212000A0F8A82008BD00BFAC03002010B5094AE4
:1021300092F8A81092F8A9404B1CDBB22A2B28BFBA
:1021400000239C421ABF82F8A83042F821000020E8
:1021500010BD00BFAC030020094A92F8A93092F8E4
:10216000A810994209D052F823000133DBB2292B81
:1021700088BF002382F8A93070470020704700BF55
:10218000AC0300200248A422002107F0C3BA00BF1C
:102190005804002010B5074A0023114652F8044B9A
:1021A00014B941F8230010BD0133292BF6D10020CA
:1021B000F9E700BF5804002070B50A4D044600231B
:1021C00055F8040B40B1C6888E4205D18688A642D8
:1021D00002D14688964203D00133292BF0D100204A
:1021E00070BD00BF5804002010B548B1074A002355
:1021F000114652F8044B844203D1002241F82320B7
:1022000010BD0133292BF4D10020F9E75804002038
:102210002DE9F84F224C0025A4F1980704F5CD686C
:10222000A7F5CF56A1464FF0010AAB46204600F075
:1022300099FE1F2D21DC84F818B0C4F81C800135EC
:10224000292D04F1280408F1100807F1480706F5C4
:102250008076EBD1134A00231380134A1380134A6C
:102260001380134A1380134A1380134A1380134AAE
:102270001380134A1380BDE8F88F232D03DC84F804
:1022800018A0E761DBE7282D09BF0323022389F8A3
:1022900058360C4B1ABF2376E661C9F85C36CEE798
:1022A000100500200A050020080500200605002072
:1022B000040500200205002000050020FE04002087
:1022C000FC04002098120020032870B507D8224B88
:1022D000224D1A5C224B1B5C28219A4201DC00240F
:1022E00021E001FB03F6AC19A85DC00732D42046FB
:1022F00000F038FE012384F82130AB5D43F0010388
:10230000AB55237E032B0ED8DFE803F0020F161D1A
:10231000144A1549138801339BB213800A889342EB
:1023200001D901320A80204670BD104A1049138835
:1023300001339BB21380F1E70E4A0F491388013332
:102340009BB21380EAE70D4A0D49138801339BB213
:102350001380E3E70133C0E718FD000810050020F3
:102360001CFD00080A0500200205002008050020C9
:102370000005002006050020FE04002004050020C2
:10238000FC040020C0B190F82130013BDBB280F8A2
:1023900021308BB9037E032B07D8DFE803F0020E50
:1023A0001012094A1388013B13800378002262F35C
:1023B000000380F8212003707047044AF2E7044AC2
:1023C000F0E7044AEEE700BF0A05002008050020F8
:1023D000060500200405002038B50C4C0C4B0025E8
:1023E000186004F1380304F11000E362A06084F87F
:1023F000285000F0B7FDA06800F0A5FDA268137892
:1024000043F001031370256038BD00BF981400200D
:10241000E014002003681B7803F01F030B2B0BD084
:102420000C2B05D00A2B0BD1064B1B681B681847D9
:10243000044B1B685B68FAE7024B1B689B68F6E776
:10244000704700BFE014002010B5084C207B10F04E
:1024500001000AD0064BA0681B68DB68984718B1DA
:10246000237B23F001032373012010BD9814002067
:10247000E0140020064808B5037B13F0020305D0E2
:10248000044B1B689B699847012008BD1846FCE770
:1024900098140020E014002038B50B4C23688BB949
:1024A0000A4D2B6805201B699847206040B10378CE
:1024B00003F01F030C2B03D82B6820469B69984719
:1024C000012038BD0020FCE798140020E014002013
:1024D00038B50A4C206880B1094D2B6805205B692E
:1024E0009847206040B1037803F01F030C2B03D8FA
:1024F0002B6820469B699847012038BD981400201E
:10250000E014002010B5094C2368DB69984760B9D6
:1025100023681B6A984740B923685B6A984720B9CB
:102520002368BDE810409B6A184710BDE0140020E6
:10253000014B1860704700BFE4140020F0B5036839
:10254000D3F84026198AD2F8802087B000260027C9
:102550001202CDE9026754BF4FF4807240F20112BB
:102560000025044604920095D3E90223806800F018
:10257000CCFC23680095D3E90223A06800F06BFD32
:10258000A36806225A8323681A7842F080021A70E0
:10259000B3F8382602F0FE0242F00102A3F8382612
:1025A000B3F8282202F0FE02A3F82822227B42F090
:1025B000010222731A780C2161F304021A7007B029
:1025C000F0BD00002DE9F04304460068B0F8302269
:1025D00087B05AB903780B2161F304030370237B9E
:1025E00062F30003237307B0BDE8F083264B90F835
:1025F00039161B681B689847236893F83926198A8F
:1026000003EB02124FF000084FF00009D2E98E6789
:10261000CDE90289002504900095D3E90223A06842
:1026200000F073FC32463B46A06800F0ACFCA368A7
:1026300008225A83236893F839260132D2B283F8EC
:102640003926217B21F0030141F003012173B3F806
:1026500030129142C7D8B3F8382602F0FE02A3F830
:102660003826B3F8282202F0FE0242F00102A3F855
:102670002822227B65F3410222731A780B2161F331
:1026800004021A70AFE700BFE41400202DE9F04304
:1026900004460068028C87B05AB903780D2161F3B3
:1026A00004030370237B62F30003237307B0BDE8C8
:1026B000F083224B90F829121B685B6898472368C7
:1026C00093F82922198A03EB02124FF000084FF009
:1026D0000009D2E90A67CDE9028900250490009536
:1026E000D3E90223A06800F010FC32463B46A06804
:1026F00000F049FCA36808225A83236893F8292232
:102700000132D2B283F82922217B21F0030141F06A
:1027100003012173198C9142C8D8B3F8282202F022
:10272000FE02A3F82822227B65F3410222731A7865
:102730000D2161F304021A70B8E700BFE414002011
:1027400038B5084C63685BB1074D2B685B6A9847E6
:102750006068FFF717FE2B689B6A98470023636049
:1027600038BD00BFE81400202817002010B50F4B1B
:102770000F4C186004F1400304F118006363032355
:1027800084F83030206100F0EDFB206900F0DBFBC5
:102790002269137843F001031370227A002363F354
:1027A000000263602272236010BD00BF2817002062
:1027B000E8140020026892F90030002B10B514DAFA
:1027C00043685888010712D5148AD9888C420ED0E4
:1027D000D2E90242D3E904139A4208BF8C4206D0E0
:1027E000A0F592635842584110BD0020FCE701203B
:1027F000FAE7D0B5D0E9003286B004466820198ADD
:102800000490D2E90267CDE9026792880092D3E989
:102810000223206900F079FB2069002241F2430184
:1028200000F0C6FB636820695988022200F0C0FBF3
:10283000237D43F00103237506B0D0BD70B5044677
:10284000002800F06381A04D2B681B6C984700287E
:1028500000F05C8161684B8840F2EB52934200F0DB
:1028600035816CD8B3F5996F4ED240F2C342934292
:1028700022D8B3F5B87F00F0F7802ED8B3F5807F6B
:1028800000F0E98022D8682B00F0F180A82B00F03E
:10289000F180206800F038FC002800F037812B68B8
:1028A0009B6BD4E0A3F24553022B00F2F980DFE8E2
:1028B00013F0FB00FF00F300A3F2C543022B00F26C
:1028C000E280DFE813F0E300E600DD0040F20112F1
:1028D0009342DED12B685B68B7E0B3F5926F00F0EE
:1028E000C0800AD840F2E912934200F0F380B3F5B9
:1028F000916FCED12B689B68A7E040F2A44293422F
:10290000C7D12B685B6EA0E0B3F5A96F0AD240F285
:1029100043529342C6D840F224529342B9D12B6815
:10292000DB6F92E040F29452934200F0C98040F293
:10293000B4529342ADD12B68D3F89C3085E040F679
:10294000C812934200F0CE8037D840F6A8029342D6
:1029500000F0D88017D840F66802934200F0CE808D
:1029600009D8B3F5CD6F79D040F62802934290D1C3
:102970002B68DB6969E040F68802934289D12B68B5
:10298000D3F8CC3061E040F66812934200F09480B6
:102990000BD840F6F40293426FD040F614129342E3
:1029A0007FF477AF2B689B6F4FE0B3F5176F7FF421
:1029B00070AF2B68D3F8943047E040F6A8529342AA
:1029C00000F08C801BD840F64822934200F09280A1
:1029D0000CD840F60822934235D040F62822934284
:1029E0007FF457AF2B68D3F8B8302EE040F6C842DA
:1029F00093427FF44EAF2B68D3F8C03025E041F608
:102A00004842934272D00CD840F6E852934211D01B
:102A100040F6147293427FF43CAF2B68D3F8A03099
:102A200013E041F6887293427FF433AF2B68D3F8FA
:102A3000C8300AE02B689A6D002A3FF431AF204677
:102A4000BDE8704010472B68DB6D002B5ED0204640
:102A5000BDE8704018472B681B68F6E72B681B6AB7
:102A6000F3E72B68DB68F0E72B681B69EDE72B6861
:102A70005B69EAE72B689B69E7E72B681B6EE4E775
:102A80002B689B6EE1E72B68DB6EDEE72B681B6F24
:102A9000DBE72B685B6FD8E72B68D3F88030D4E78F
:102AA0002B68D3F88430D0E72B68D3F88830CCE794
:102AB0002B68D3F88C30C8E72B68D3F89030C4E784
:102AC0002B68D3F89830C0E7281700202B68D3F87C
:102AD000A420B1E72B68D3F8A830B6E72B68D3F869
:102AE000AC20A9E72B68D3F8B030AEE72B68D3F859
:102AF000B430AAE72B68D3F8BC30A6E72B68D3F82C
:102B0000C430A2E72B68D3F8D0309EE770BD00BF79
:102B100010B5084C207D10F001000AD0064B20694A
:102B20001B68DB6A984718B1237D23F001032375E6
:102B3000012010BDE814002028170020064808B521
:102B4000037A13F0010305D0044B1B68DB6B984735
:102B5000012008BD1846FCE7E814002028170020D3
:102B600038B50A4C636873B9094D2B685B6A98479E
:102B7000FFF7F2FA2B6860609B6A98476068B0FACA
:102B800080F0400938BD0020FCE700BFE8140020B9
:102B90002817002038B50D4C2368A3B90C4D2B68BD
:102BA00004201B6B9847206018B9FFF7C9FD01206E
:102BB00038BD037803F01F030D2BF8D12B68204696
:102BC000DB6B9847F3E70020F2E700BFE814002032
:102BD0002817002038B50C4C206848B10B4D2B68E5
:102BE00004205B6B9847206018B9FFF7A9FD01200E
:102BF00038BD037803F01F030D2BF8D12B68204656
:102C0000DB6B9847F3E700BFE8140020281700208B
:102C100010B50B4C23685B6C984780B923689B6C9C
:102C2000984760B92368DB6C984740B923681B6DEF
:102C3000984720B92368BDE810405B6D184710BD68
:102C40002817002002886FF30B0270B500230024C0
:102C50000025028000F5CA62C0E90245C0E90645C8
:102C60000382A0F8443600F5007642E902450146A9
:102C700080F85436C0F8503603840246C1E90A454C
:102C800081F830301031B142F8D1A0F8303200F57F
:102C90008061002400250023C2E98E4582F840327D
:102CA00010328A42F8D190F8382663F3000280F897
:102CB000382690F8282263F3000280F82822024A7E
:102CC0001360536070BD00BF3017002010B50C4B6F
:102CD0000C4C18602046FFF7B5FF04F5CB60FFF7FA
:102CE000B1FF04F54B60FFF7ADFF04F5805400F52C
:102CF000CB60FFF7A7FF0023A4F8603910BD00BF29
:102D00002C17002038170020072801D90020704711
:102D1000054B00221A540548B0F86039002BF5D055
:102D2000A0F58050704700BF3017002038270020E2
:102D3000072801D900207047084A135C0133DBB231
:102D40001354074800F58052B2F860299A42F1D92D
:102D50004FF4CB6202FB0300704700BF3017002026
:102D6000381700202DE9F84F3C4E17460446884698
:102D700000254FF4CB6202FB05F3F018F35CC3F3BC
:102D800040199B0665D4FFF75DFFC0E902484FEA92
:102D90000841C0F8407680F85456A0F8209041EAE7
:102DA000144123044FF4CB6897F888B084468646D4
:102DB0001C468A464A4608FB05685A4526DB4FF4FE
:102DC000CB6404FB05640022A4F8302297F889E064
:102DD00072452DDB4FF4CB636B43F218B2F8281227
:102DE00001F0FE01A2F82812B2F8381601F0FE0137
:102DF000A2F838161A49B1F860290132A1F8602901
:102E0000F25C42F02002F254BDE8F88F1F2ADFBFC7
:102E1000CEE90A4AB8F8209009F10109A8F82090F3
:102E2000013402F101024AF1000A0EF1100EC4E76A
:102E30003F2ADFBFCCE98E31B4F830720137A4F8F5
:102E40003072013302F1010241F100010CF1100C6A
:102E5000BEE70135042D8ED10020D5E738170020BC
:102E6000382700200C4B30B5B3F86049A3F58053E8
:102E700000211A468C4201DC00200AE003F5CB63F6
:102E8000A3F5C9652D88854204D14FF4CB6303FBBC
:102E9000012030BD0131EDE7382700200B4B002227
:102EA000B3F86009A3F58053904203F5CB6304DCCB
:102EB000074B1B681B683BB1184733F8141C0131E2
:102EC00023F8141C0132EFE7704700BF38270020B9
:102ED0002C17002003289ABF024B33F81000002063
:102EE000704700BF20FD0008D0F8403690F8540627
:102EF00003F5A04393F82413D3F82823490744BFCC
:102F0000D3F82C33D21A50437047D0B5DDE90667A9
:102F10000446C4E90223BDF81000BDF82030E0806B
:102F200000226380C4E90467207EA180628384F864
:102F30002020FFF7CFFF1346984200DCD0BDE169A7
:102F4000CA540133F8E710B50246007EFFF7C2FF0E
:102F500000231946984201DC518310BDD469E15425
:102F60000133F7E730B50023438043604383038494
:102F700003780024002523F00303C0E90245C0E9DB
:102F80000445037030BD10B50721C4696254448BF9
:102F9000120A0134013942EA036244834FEA1323DF
:102FA000F3D210BDC3699954438B013343837047F7
:102FB000C36910B50C0A9C54C36913445970438B00
:102FC0000233438310BDC36910B50C0E9C54C36912
:102FD00013440C0C5C70C36913440C0A9C70C369E5
:102FE0001344D970438B0433438310BD70B504463A
:102FF000007EFFF76FFF013900230138E56911F802
:10300000016F013315449BB236B900222A70628BDE
:1030100001326283184670BD9042F6DD2E70658BDA
:10302000013565830132E9E7F8B50446007E1E46A6
:10303000FFF750FF00250346A8B2864200D8F8BD2E
:103040009342FCDDE0694F5D8754608B0130608303
:1030500001350132F0E730B5BDF80C500521C469E7
:103060000C4401396255448B4FEA122204F10104E9
:1030700042EA036244834FEA1323F0D230BD10B515
:10308000C3695C5C0B4498785A79597842EA0062CB
:10309000D87842EA0042187941EA042142EA002045
:1030A00010BDC3691968586809BA00BA7047C36986
:1030B000585C0B445B7843EA00207047C3695A5C54
:1030C0001944CB78887843EA02634A7843EA02439A
:1030D00043EA00207047037803F00F03194301709F
:1030E00070474088C0F3C0007047002210B5014609
:1030F000448B1046944200DC10BDCB699B5C0BB93D
:10310000431CD8B20132F5E7028ACB889A4210B547
:103110000AD0D0E90242D1E904039A4208BF8442AE
:103120000CBF0120002010BD0120FCE770B5B0F8F5
:10313000304200218C4201DC002009E01030D0E94F
:103140008A659D4208BF964203D1049B01201980E5
:1031500070BD0131EEE770B5048C00218C4201DCBA
:10316000002009E01030D0E906659D4208BF964274
:1031700003D1049B0120198070BD0131EEE7436843
:10318000DB699B78EF3B102B42D8DFE803F03A4134
:103190004141414141414141332C251E1710090055
:1031A0000368D3F8400600F5A54014307047036863
:1031B000D3F8400600F5A5405C3070470368D3F8AB
:1031C000400600F5A640243070470368D3F8400657
:1031D00000F5A6406C3070470368D3F8400600F550
:1031E000A740343070470368D3F8400600F5A74085
:1031F0007C3070470368D3F8400600F5A84044309F
:1032000070470368D3F8400600F5A9405030704776
:10321000002070470268527870B5C2F340069207EA
:1032200004461CD4124A4D6812686DB113683146C9
:1032300098472268537843F0020353700122237A9F
:1032400062F30003237270BD536841F24101984755
:1032500023685A7865F341025A700022EFE74B6801
:1032600098472268537823F002035370F5E700BFB4
:10327000A0300020F0B50446D4E9003287B00069E0
:10328000198A002541F6484645830496D2E902672B
:10329000CDE9026792880092D3E90223FFF735FE59
:1032A00020692A462021FFF77DFE237D65F3000378
:1032B000237507B0F0BD0000014B1860704700BFD8
:1032C000A030002010B50446FFF7D4FF012220698A
:1032D0008221FFF767FE23682069D3F8403603F5A3
:1032E000A04393F88C3403F00101C9039A0748BF47
:1032F00041F480415A0748BF41F400511A0748BFC2
:1033000041F40061DA0648BF41F480619B0648BF82
:1033100041F400710222FFF74BFE23682069D3F8C5
:10332000403603F5A043042293F88C3413F0400F89
:1033300014BFE321E221FFF735FE23682069D3F8AB
:10334000403603F5A043052293F88D14FFF72AFEBB
:1033500023682069D3F8403603F5A043062293F88A
:103360008E14FFF71FFE2368D3F8401601F5A04323
:1033700093F88F3433B1206901F5A941428B0F31A5
:10338000FFF734FE237D43F00103237510BD38B5EC
:103390000D460446FFF76EFF2B680122002B37D045
:1033A0001B78D90734D520698721FFF7FBFD6368B7
:1033B0002069DB6902229978FFF7F4FD2B68206908
:1033C00059680322FFF7FFFD2B6820691B78C3F3C0
:1033D00040015B0748BF41F002010722FFF7E2FD11
:1033E0002B681A7812F0040F4FF0080204D0996885
:1033F0002069FFF7E8FD0C2229680B7B1BB12069CF
:103400000C31FFF7F3FD237D43F00103237538BD35
:1034100020698621FFF7C6FD63682069DB69022207
:103420009978FFF7BFFD236908225A83EBE737B588
:103430000446FFF71FFF60680221FFF720FE2368A4
:1034400003F5CA6353E902252A4319D143E902016E
:103450002046FFF70FFF20698A210122FFF7A2FD16
:1034600023680222009203F5CA6353E9022320690C
:10347000FFF7F1FD237D43F00103237503B030BD59
:10348000084302BF0020002143E90201E0E70000F9
:1034900007B5064B1B689B680193694600230093A0
:1034A000FFF7B8FE03B05DF804FB00BFA0300020BA
:1034B00007B5064B1B68DB68019369460023009340
:1034C000FFF7A8FE03B05DF804FB00BFA0300020AA
:1034D00013B5074B1B681B6901930446FFF74FFEAA
:1034E000694600902046FFF795FE02B010BD00BF70
:1034F000A030002013B5074B1B689B69019304465D
:10350000FFF73DFE694600902046FFF783FE02B0BC
:1035100010BD00BFA030002013B5074B1B685B69CE
:1035200001930446FFF72BFE694600902046FFF703
:1035300071FE02B010BD00BFA030002007B5064BE1
:103540001B68DB690193694600230093FFF762FE65
:1035500003B05DF804FB00BFA030002007B5064BA8
:103560001B681B6A0193694600230093FFF752FE14
:1035700003B05DF804FB00BFA030002007B5064B88
:103580001B685B6A0193694600230093FFF742FEC4
:1035900003B05DF804FB00BFA030002007B5064B68
:1035A0001B689B6A0193694600230093FFF732FE74
:1035B00003B05DF804FB00BFA030002013B5074B3B
:1035C0001B681B6B01930446FFF7D9FD6946009009
:1035D0002046FFF71FFE02B010BD00BFA030002044
:1035E00013B5074B1B68DB6A01930446FFF7C7FD61
:1035F000694600902046FFF70DFE02B010BD00BFE7
:10360000A030002007B5064B1B685B6B0193694631
:1036100000230093FFF7FEFD03B05DF804FB00BF3D
:10362000A030002007B5064B1B689B6B01936946D1
:1036300000230093FFF7EEFD03B05DF804FB00BF2D
:10364000A030002007B5064B1B68DB6B0193694671
:1036500000230093FFF7DEFD03B05DF804FB00BF1D
:10366000A03000202DE9F0430446D4E9003287B0B1
:103670000069002641F6484746830D46198A04979B
:10368000D2E90289CDE9028992880092D3E9022326
:10369000FFF73BFC206932462021FFF783FC63687B
:1036A0002069DB69597810310122C9B2FFF77AFC31
:1036B000696820690222FFF786FC2B78012B06D16E
:1036C00063682069DB6906229979FFF76BFC237D2B
:1036D00023F00103237507B0BDE8F0832DE9F04323
:1036E00004461646D4E9003287B0006941F6484CDA
:1036F000002747830D46198ACDF810C0D2E9028908
:10370000CDE9028992880092D3E90223FFF7FDFBFD
:1037100020693A462021FFF745FC63682069DB6990
:10372000597818310122C9B2FFF73CFC6968206959
:103730000222FFF748FC2B78012B06D16368206931
:10374000DB6906229979FFF72DFC6A8920693146E9
:1037500007B0BDE8F043FFF72BBC00002DE9F041B6
:1037600004460D4640680221FFF7A8FC63686860C4
:10377000DB692F695A78402A0BBF012200222A7088
:103780002A700CBFDA799A792A810CBF07230623A5
:103790006B8123685B789E0732D4244B1E6877B117
:1037A000EB681978C90711D55B68984211D8013ABE
:1037B0003F2A11D8B36C36688BB9194613E041F231
:1037C000410173682046BDE8F041184741F201010C
:1037D000F7E741F20201F4E74FF48451F1E729469B
:1037E0002046984701462046B0472268537843F068
:1037F00002035370237A43F001032372BDE8F08182
:10380000EB685B6802449A4221BF1B1ADBB20133AA
:103810002B8129462046B8472268537823F00203BB
:103820005370237A23F00103E7E700BFA4300020A0
:10383000014B1860704700BFA430002038B5044623
:103840000D46FFF70FFF23686968D3F840066A89C1
:103850002B898A3101442069FFF7E6FB237D43F081
:103860000103237538BD000070B5134E33689B68A3
:1038700004460D46E3B1FFF7F5FE23696A89D9696D
:10388000336868689B680A44298998472269538B82
:10389000034453832B89834205D94FF402522946AE
:1038A0002046FFF71BFF237D43F00103237570BD06
:1038B0004FF48452F5E700BFA430002070B50D46E8
:1038C0000446FFF7CFFE6A68184B2A2A28D009D889
:1038D0007AB1012A21D01B6841F201015B682046C0
:1038E000984715E0532A1ED0682AF4D11B68DE6978
:1038F00001E01B68DE682EB12B896A892169206886
:10390000B04705E04FF4845229462046FFF7E6FE13
:10391000237D43F00103237570BD1B681E69EAE730
:103920001B685E69E7E71B689E69E4E7A430002036
:1039300070B50D460446FFF795FE6A68114B012AE3
:103940001B6815D0402A15D0B2B91E6A2EB12B893A
:103950006A8921692068B04705E04FF484522946FE
:103960002046FFF7BBFE237D43F00103237570BDA6
:103970005E6AEBE79E6AE9E75B6841F20101204677
:103980009847F0E7A43000207FB5084B1B68DB6A3E
:1039900005930368D3F8403603F5A543143301A912
:1039A0000493FFF7DBFE07B05DF804FBA4300020B2
:1039B0007FB5084B1B681B6B05930368D3F8403633
:1039C00003F5A5435C3301A90493FFF7C7FE07B0D5
:1039D0005DF804FBA43000207FB5084B1B685B6BCF
:1039E00005930368D3F8403603F5A643243301A9B1
:1039F0000493FFF7B3FE07B05DF804FBA43000208A
:103A00007FB5084B1B689B6B05930368D3F8403662
:103A100003F5A6436C3301A90493FFF79FFE07B09B
:103A20005DF804FBA43000207FB5084B1B68DB6BFE
:103A300005930368D3F8403603F5A743343301A94F
:103A40000493FFF78BFE07B05DF804FBA430002061
:103A50007FB5084B1B681B6C05930368D3F8403691
:103A600003F5A7437C3301A90493FFF777FE07B062
:103A70005DF804FBA43000207FB5084B1B685B6C2D
:103A800005930368D3F8403603F5A843443301A9EE
:103A90000493FFF763FE07B05DF804FBA430002039
:103AA0002DE9F0430446D4E9003287B000690026CE
:103AB00041F6484746830D46198A0497D2E90289A0
:103AC000CDE9028992880092D3E90223FFF71DFA1B
:103AD000206932462021FFF765FA63682069DB69B7
:103AE000597810310122C9B2FFF75CFA6968206980
:103AF0000222FFF768FA2B78012B06D16368206950
:103B0000DB6906229979FFF74DFA237D23F0010343
:103B1000237507B0BDE8F0832DE9F0430446154650
:103B2000D4E9003287B0006941F6484C002747834A
:103B30000E46198ACDF810C0D2E90289CDE9028972
:103B400092880092D3E90223FFF7DFF920693A4611
:103B50002021FFF727FA63682069DB69597818315B
:103B60000122C9B2FFF71EFA716820690222FFF72D
:103B70002AFA3378012B12D163682069DB690622A7
:103B80009979FFF70FFA072220692946FFF710FA03
:103B9000237D23F00103237507B0BDE8F0830622DF
:103BA000F2E7000070B504460D4640680221FFF7B9
:103BB00085FA63686860DA695278FAB901222A7076
:103BC0005B8B073B9BB2072221686A814978EA68D0
:103BD0002B81890739D428490E68117811F0010F1B
:103BE00013D0890718D45268904218D8013B3F2B54
:103BF00018D8336B3668C3B919461AE000222A7008
:103C00005B8B063B9BB20622DEE741F20101736843
:103C10002046BDE87040184741F20301F7E741F242
:103C20000201F4E74FF48451F1E729462046984712
:103C300001462046B0472268537843F00203537090
:103C4000237A43F00103237270BD52680344934208
:103C500022BF121AD2B201322B6928BF2A8129460B
:103C6000204698472268537823F002035370237A42
:103C700023F00103E7E700BFA8300020014B1860E4
:103C8000704700BFA830002038B504460D46FFF746
:103C900007FF104B1B689B68C3B121696A89C9691A
:103CA00068680A44298998472269538B03445383DF
:103CB0002B89834205D94FF4025229462046FFF74B
:103CC0002BFF237D43F00103237538BD4FF484524D
:103CD000F3E700BFA830002038B50C460546FFF7D3
:103CE000DFFE6368012B04D0402B1DD041F202029D
:103CF0000EE00F4B1B68DB689BB169686289C9697C
:103D00002089114498472389834205D94FF40252F0
:103D100021462846FFF700FF2B7D43F001032B755A
:103D200038BD4FF48452F3E7014B1B681B69E3E78E
:103D3000A83000207FB5084B1B685B6905930368BA
:103D4000D3F8403603F5A543143301A90493FFF7D4
:103D500029FF07B05DF804FBA83000207FB5084BB1
:103D60001B689B6905930368D3F8403603F5A543A8
:103D70005C3301A90493FFF715FF07B05DF804FB5E
:103D8000A83000207FB5084B1B68DB6905930368EA
:103D9000D3F8403603F5A643243301A90493FFF773
:103DA00001FF07B05DF804FBA83000207FB5084B89
:103DB0001B681B6A05930368D3F8403603F5A643D6
:103DC0006C3301A90493FFF7EDFE07B05DF804FB27
:103DD000A83000207FB5084B1B685B6A0593036819
:103DE000D3F8403603F5A743343301A90493FFF712
:103DF000D9FE07B05DF804FBA83000207FB5084B62
:103E00001B689B6A05930368D3F8403603F5A74304
:103E10007C3301A90493FFF7C5FE07B05DF804FBEE
:103E2000A83000207FB5084B1B68DB6A0593036848
:103E3000D3F8403603F5A843443301A90493FFF7B0
:103E4000B1FE07B05DF804FBA8300020014B1860FC
:103E5000704700BFAC300020F0B5054687B00029A0
:103E600041D0022941D9042941D9082941D9102931
:103E700041D9202941D9402941D9802941D9B1F5D9
:103E8000807F40D9B1F5007F3FD9B1F5806F3ED931
:103E9000B1F5006F3DD9B1F5805F3CD9B1F5005F58
:103EA0003BD9B1F5804F8CBF0F240E24D5E90032E9
:103EB00040F62820198A0490D2E90267CDE902670A
:103EC00092880092D3E902232869FFF71EF8286937
:103ED000002244F08001FFF765F82B7D43F00103D9
:103EE0002B7507B0F0BD0C46E0E70124DEE70224A5
:103EF000DCE70324DAE70424D8E70524D6E7062420
:103F0000D4E70724D2E70824D0E70924CEE70A241F
:103F1000CCE70B24CAE70C24C8E70D24C6E7F0B5AC
:103F2000D0E9003287B0044640F648200D46198A91
:103F30000490D2E90267CDE9026792880092D3E942
:103F400002232069FEF7E1FF206900222946FFF7DE
:103F50002FF8237D43F00103237507B0F0BD19B995
:103F600041F24101FFF7DBBF084700004268D26918
:103F700011782029034640F00B855178AA2900F2D8
:103F8000E180DFE811F06702A302AA02B102DF00BC
:103F9000DF00DF00DF005D039903A003A703DF005C
:103FA000DF00DF00DF00B802F402FB020203DF00E3
:103FB000DF00DF00DF00090345034F035603DF0086
:103FC000DF00DF00DF00AE03EA03F103F803DF00E8
:103FD000DF00DF00DF00DF00DF00DF00DF00DF00E9
:103FE000DF00DF00DF00FF033B0442044904DF0081
:103FF000DF00DF00DF0050048C0493049A04DF002C
:10400000DF00DF00DF00AB00E400EA00F000DF00CB
:10401000DF00DF00DF00DF00DF00DF00DF00DF00A8
:10402000DF00DF00DF00F6002A0130013601DF008B
:10403000DF00DF00DF003C01700176017C01DF0062
:10404000DF00DF00DF008201B701BD01C301DF0037
:10405000DF00DF00DF00DF00DF00DF00DF00DF0068
:10406000DF00DF00DF00C90104020A021002DF00E6
:10407000DF00DF00DF001602520259026002DF009B
:10408000DF00DF00DF00A104DF00A804DF00B104CF
:10409000DF00B804BF04C604DF00CD04DF00D40491
:1040A000DB04DF00DF00DF00DF00DF00DF00DF0018
:1040B000DF00DF00DF00DF00DF00DF00DF00DF0008
:1040C000DF00DF00DF00E204E904DF00DF00DF00E3
:1040D000DF00DF00DF00F004F704FE049279F93A14
:1040E000062A2FD8DFE802F028221C16100A040046
:1040F0009B4A126818461168FFF731BF984A126848
:1041000018465168FFF72BBF954A12681846916808
:10411000FFF725BF924A12681846D168FFF71FBF04
:104120008F4A126818461169FFF719BF8C4A126846
:1041300018465169FFF713BF894A126818469169FA
:10414000FFF70DBF41F241011846FFF7E8BE844A70
:10415000126818469168FFF702BF814A1268184634
:104160005168FFF7FCBE7E4A126818461168FFF7D7
:10417000F6BE9279F93A062AE4D8DFE802F028225E
:104180001C16100A0400764A12681846D169FFF717
:10419000E6BE734A12681846116AFFF7E0BE704A1D
:1041A00012681846516AFFF7DABE6D4A126818465F
:1041B000916AFFF7D4BE6A4A12681846D16AFFF7BF
:1041C000CEBE674A12681846116BFFF7C8BE644A34
:1041D00012681846516BFFF7C2BE614A1268184652
:1041E000516AFFF7BCBE5E4A12681846116AFFF7B3
:1041F000B6BE5B4A12681846D169FFF7B0BE927925
:10420000F93A062A9ED8DFE802F028221C16100A86
:104210000400534A12681846916BFFF7A0BE504A3B
:1042200012681846D16BFFF79ABE4D4A12681846BD
:10423000116CFFF794BE4A4A12681846516CFFF79A
:104240008EBE474A12681846916CFFF788BE444AF2
:1042500012681846D16CFFF782BE414A12681846B0
:10426000116DFFF77CBE3E4A12681846116CFFF7CD
:1042700076BE3B4A12681846D16BFFF770BE384ACB
:1042800012681846916BFFF76ABE9279F93A062ACE
:104290003FF658AFDFE802F028221C16100A04008F
:1042A0002F4A12681846516DFFF759BE2C4A126802
:1042B0001846916DFFF753BE294A12681846D16D12
:1042C000FFF74DBE264A12681846116EFFF747BE2B
:1042D000234A12681846516EFFF741BE204A126801
:1042E0001846916EFFF73BBE1D4A12681846D16E04
:1042F000FFF735BE1A4A12681846D16DFFF72FBE78
:10430000174A12681846916DFFF729BE144A1268C1
:104310001846516DFFF723BE9279F93A062A3FF607
:1043200011AFDFE802F02D261F16100A04000C4A18
:1043300012681846116FFFF712BE094A1268184634
:10434000516FFFF70CBE064A12681846916FFFF7CF
:1043500006BE034A12681846D16FFFF700BE00BFC1
:10436000AC300020AE4A12681846D2F88010FFF731
:10437000F6BDAB4A12681846D2F88410FFF7EFBDBD
:10438000A74A12681846D2F88810FFF7E8BDA44A79
:1043900012681846916FFFF7E2BDA14A12681846ED
:1043A000516FFFF7DCBD9E4A12681846116FFFF788
:1043B000D6BD9279F93A062A3FF6C4AEDFE802F09C
:1043C0002E272019120B0400954A12681846D2F8BD
:1043D0008C10FFF7C4BD924A12681846D2F89010AC
:1043E000FFF7BDBD8E4A12681846D2F89410FFF749
:1043F000B6BD8B4A12681846D2F89810FFF7AFBDC9
:10440000874A12681846D2F89C10FFF7A8BD844A64
:1044100012681846D2F8A010FFF7A1BD804A1268B2
:104420001846D2F8A410FFF79ABD7D4A12681846C4
:10443000D2F89410FFF793BD794A12681846D2F863
:104440009010FFF78CBD764A12681846D2F88C108F
:10445000FFF785BD9279F93A062A3FF673AEDFE899
:1044600002F02E272019120B04006D4A126818461C
:10447000D2F8A810FFF773BD694A12681846D2F83F
:10448000AC10FFF76CBD664A12681846D2F8B0103F
:10449000FFF765BD624A12681846D2F8B410FFF7FC
:1044A0005EBD5F4A12681846D2F8B810FFF757BDD4
:1044B0005B4A12681846D2F8BC10FFF750BD584A44
:1044C00012681846D2F8C010FFF749BD544A126866
:1044D0001846D2F8B010FFF742BD514A126818468C
:1044E000D2F8AC10FFF73BBD4D4A12681846D2F81F
:1044F000A810FFF734BD9279F93A062A3FF622AEAA
:10450000DFE802F02E272019120B0400444A12683B
:104510001846D2F8C810FFF722BD414A1268184663
:10452000D2F8CC10FFF71BBD3D4A12681846D2F8EE
:10453000D010FFF714BD3A4A12681846D2F8D410CA
:10454000FFF70DBD364A12681846D2F8D810FFF7AB
:1045500006BD334A12681846D2F8DC10FFF7FFBCDC
:104560002F4A12681846D2F8E010FFF7F8BC2C4A20
:1045700012681846D2F8D010FFF7F1BC284A12682A
:104580001846D2F8CC10FFF7EABC254A1268184644
:10459000D2F8C810FFF7E3BC9279F93A062A3FF641
:1045A000D1ADDFE802F02E272019120B04001C4ABF
:1045B00012681846D2F8E410FFF7D1BC184A126806
:1045C0001846D2F8E810FFF7CABC154A1268184618
:1045D000D2F8EC10FFF7C3BC114A12681846D2F8A3
:1045E000F010FFF7BCBC0E4A12681846D2F8F4105F
:1045F000FFF7B5BC0A4A12681846D2F8F810FFF760
:10460000AEBC074A12681846D2F8FC10FFF7A7BCE8
:10461000034A12681846D2F8EC10FFF7A0BC00BF9E
:10462000AC300020AF4A12681846D2F8E810FFF705
:1046300096BCAC4A12681846D2F8E410FFF78FBC5B
:104640009279F93A062A3FF67DADDFE802F02E278F
:104650002019120B0400A34A12681846D2F8001160
:10466000FFF77DBC9F4A12681846D2F80411FFF785
:1046700076BC9C4A12681846D2F80811FFF76FBC46
:10468000984A12681846D2F80C11FFF768BC954A90
:1046900012681846D2F81011FFF761BC914A1268EF
:1046A0001846D2F81411FFF75ABC8E4A1268184601
:1046B000D2F81811FFF753BC8A4A12681846D2F88C
:1046C0000811FFF74CBC874A12681846D2F804114B
:1046D000FFF745BC834A12681846D2F80011FFF76D
:1046E0003EBC9279F93A062A3FF62CADDFE802F09B
:1046F0002E272019120B04007A4A12681846D2F8A5
:104700002011FFF72CBC774A12681846D2F8241102
:10471000FFF725BC734A12681846D2F82811FFF734
:104720001EBC704A12681846D2F82C11FFF717BC4D
:104730006C4A12681846D2F83011FFF710BC694A6B
:1047400012681846D2F83411FFF709BC654A12689E
:104750001846D2F83811FFF702BC624A12681846B0
:10476000D2F82811FFF7FBBB5E4A12681846D2F850
:104770002411FFF7F4BB5B4A12681846D2F82011E7
:10478000FFF7EDBB9279F93A062A3FF6DBACDFE89A
:1047900002F02E272019120B0400524A1268184604
:1047A000D2F84011FFF7DBBB4E4A12681846D2F828
:1047B0004411FFF7D4BB4B4A12681846D2F848118F
:1047C000FFF7CDBB474A12681846D2F84C11FFF7E5
:1047D000C6BB444A12681846D2F85011FFF7BFBB57
:1047E000404A12681846D2F85411FFF7B8BB3D4A48
:1047F00012681846D2F85811FFF7B1BB394A12684F
:104800001846D2F84811FFF7AABB364A1268184674
:10481000D2F84411FFF7A3BB324A12681846D2F807
:104820004011FFF79CBB9279F93A062A3FF68AAC11
:10483000DFE802F02E272019120B0400294A126823
:104840001846D2F85C11FFF78ABB264A1268184650
:10485000D2F86011FFF783BB224A12681846D2F8DB
:104860006411FFF77CBB1F4A12681846D2F8681122
:10487000FFF775BB1B4A12681846D2F86C11FFF798
:104880006EBB184A12681846D2F87011FFF767BB62
:10489000144A12681846D2F87411FFF760BB114A27
:1048A00012681846D2F86411FFF759BB0D4A126816
:1048B0001846D2F86011FFF752BB0A4A1268184630
:1048C000D2F85C11FFF74BBB064A12681846D2F8C3
:1048D0007811FFF744BB034A12681846D2F87C11DE
:1048E000FFF73DBBAC3000202B4A12681846D2F8C7
:1048F0008011FFF734BB284A12681846D2F8841199
:10490000FFF72DBB244A12681846D2F88811FFF72A
:1049100026BB214A12681846D2F88C11FFF71FBB3C
:104920001D4A12681846D2F89011FFF718BB1A4AB0
:1049300012681846D2F89411FFF711BB164A126894
:104940001846D2F89811FFF70ABB134A12681846A6
:10495000D2F89C11FFF703BB0F4A12681846D2F831
:10496000A011FFF7FCBA0C4A12681846D2F8A4113D
:10497000FFF7F5BA084A12681846D2F8A811FFF7EF
:10498000EEBA054A12681846D2F8AC11FFF7E7BA3A
:1049900041F24201FFF7C3BAAC30002038B5D0F87D
:1049A000503604467BB10A4D2B68D3F8B031984796
:1049B000D4F85006FDF7E6FC2B68D3F8B4319847DD
:1049C0000023C4F85036637823F00403637038BDC5
:1049D000AC30002010B504460068FFF7DFFF237DF0
:1049E00023F00103237510BD10B500210446406873
:1049F000FEF75DFB83040CD52368D3F850261AB16B
:104A00005A7842F004025A70237D23F00103237583
:104A100010BD2068FFF7C2FFF6E77047014B186032
:104A2000704700BFB030002000EB011090F830302C
:104A3000012B07D040F2C74240F2C540022B18BFFD
:104A40001046704740F2C440704700EB011090F8E8
:104A50004032012B07D040F2475240F24550022B22
:104A600018BF1046704740F2445070472DE9F04798
:104A700088B0002304464068ADF81E30FEF711FBF5
:104A80000B460DF11E01009102462068FEF763FB04
:104A9000054620B363682068BDF81E10B0F810907A
:104AA000B3F804A0D4F81080D0E9026793ED027B3C
:104AB000FFF7BAFF324604903B4640468DED027B3D
:104AC000CDF800A04946FEF720FABDF81E20236865
:104AD000206903EB0213D3E90A23FEF754FA237D7E
:104AE00065F30003237508B0BDE8F08737B50A4DBC
:104AF0002B681B6804464BB14068FEF7D2FA2B685E
:104B0000CDE900011B68206869469847237D23F0A2
:104B10000103237503B030BDB030002037B50A4D16
:104B20002B685B6804464BB14068FEF7BAFA2B6805
:104B3000CDE900015B68206869469847237D23F032
:104B40000103237503B030BDB030002037B50A4DE6
:104B50002B689B6804464BB14068FEF7A2FA2B68AD
:104B6000CDE900019B68206869469847237D23F0C2
:104B70000103237503B030BDB030002037B50A4DB6
:104B80002B68DB6804464BB14068FEF78AFA2B6855
:104B9000CDE90001DB68206869469847237D23F052
:104BA0000103237503B030BDB030002037B50A4D86
:104BB0002B681B6904464BB14068FEF772FA2B68FC
:104BC000CDE900011B69206869469847237D23F0E1
:104BD0000103237503B030BDB03000202DE9F0474C
:104BE00088B0002304464068ADF81E30FEF759FA3D
:104BF0000B460DF11E01009102462068FEF796FA61
:104C0000054620B363682068BDF81E10B0F8109008
:104C1000B3F804A0D4F81080D0E9026793ED027BCA
:104C2000FFF713FF324604903B4640468DED027B72
:104C3000CDF800A04946FEF768F9BDF81E202368AC
:104C4000206903EB0213D3E98E23FEF79CF9237D41
:104C500065F30003237508B0BDE8F08737B50A4D4A
:104C60002B685B6904464BB14068FEF71AFA2B6863
:104C7000CDE900015B69206869469847237D23F0F0
:104C80000103237503B030BDB030002037B50A4DA5
:104C90002B689B6904464BB14068FEF702FA2B680B
:104CA000CDE900019B69206869469847237D23F080
:104CB0000103237503B030BDB030002037B50A4D75
:104CC0002B68DB6904464BB14068FEF7EAF92B68B4
:104CD000CDE90001DB69206869469847237D23F010
:104CE0000103237503B030BDB030002037B50A4D45
:104CF0002B681B6A04464BB14068FEF7D2F92B685B
:104D0000CDE900011B6A206869469847237D23F09E
:104D10000103237503B030BDB030002037B50A4D14
:104D20002B685B6A04464BB14068FEF7BAF92B6802
:104D3000CDE900015B6A206869469847237D23F02E
:104D40000103237503B030BDB03000202DE9F04FD2
:104D500004460068B0F8303290F839168B4287B0BC
:104D600090F8383637D9DD0707D443F0010380F8CF
:104D70003836237A43F0010323726368B0F8108059
:104D8000B3F804902569D0E90267D3E902ABFFF7D5
:104D90005CFE324604903B4641462846CDE902ABD4
:104DA000CDF80090FEF7B1F82368206993F8392612
:104DB00003EB0213D3E98E23FEF7E5F8226892F89D
:104DC0003936013382F83936237D43F001032375E8
:104DD00007B0BDE8F08F23F0010390F8291280F8A6
:104DE0003836038C8B4233D990F82832DA0707D44F
:104DF00043F0010380F82832237A43F00103237241
:104E00006368B0F81080B3F804902569D0E90267B0
:104E1000D3E902ABFFF708FE324604903B46414619
:104E20002846CDE902ABCDF80090FEF76EF8236876
:104E3000206993F8292203EB0213D3E90A23FEF732
:104E4000A2F8226892F82932013382F82932BBE7AE
:104E5000B0F82832002203F0FE0380F83926A0F8CB
:104E60002832237A62F300032372B1E710B50446B7
:104E7000D0E90001FEF748F920B12046BDE8104016
:104E8000FFF764BF237D60F30003237510BD0000AE
:104E900037B50A4D2B689B6A04464BB14068FEF754
:104EA00000F92B68CDE900019B6A206869469847A4
:104EB000237D23F00103237503B030BDB030002003
:104EC00037B50A4D2B68DB6A04464BB14068FEF7E4
:104ED000E8F82B68CDE90001DB6A2068694698474D
:104EE000237D23F00103237503B030BDB0300020D3
:104EF00037B504464068438B082B05D8237D23F043
:104F00000103237503B030BD0A4D2B681B6B002BCA
:104F1000F4D0FEF7C6F86268D369528BCDE9000180
:104F2000296820680D6B083A083392B26946A84791
:104F3000E4E700BFB03000200368D0B5D3F84026C6
:104F4000198AD2F88020044686B0120258BF4FF466
:104F5000B870626848BF40F271100490D2E90267ED
:104F6000CDE9026792880092D3E902232069FDF718
:104F7000CCFF236800220092D3E902232069FEF7C8
:104F80006AF8237D43F00103237506B0D0BD704756
:104F9000037D23F0010303757047037D23F00103B4
:104FA00003757047F0B50368D3F84026198AD2F824
:104FB00080505A7887B00446120742684FF4CD609B
:104FC0000490D2E90267CDE902679288009244BF5B
:104FD00025F0300545F01005D3E902232069FDF7DF
:104FE00094FF2069C5F307410022FDF7DBFF20692C
:104FF000C5F307210122FDF7D5FF2069E9B202229E
:10500000FDF7D0FF206903220021FDF7CBFF2069C7
:1050100004220021FDF7C6FF206905220021FDF7CB
:10502000C1FF237D43F00103237507B0F0BD037D6D
:1050300023F001030375704710B504464068438BA5
:105040004BB10021FEF71BF82368D3E902239942F4
:1050500008BF904204D12046BDE81040FFF76CBF66
:10506000237D23F00103237510BDFFF765BF00000A
:10507000F0B5044687B040680021FEF700F82568C7
:10508000D5E90223994208BF904221D16978C90726
:105090001CD46068298A40F2B4550495D0E90267AF
:1050A000CDE90267808800902069FDF72EFF0A4B4A
:1050B000206940F20122FDF766FF2268537843F031
:1050C00001035370237D43F00103237507B0F0BD46
:1050D000237D23F00103F8E700000101037D23F0A5
:1050E000010303757047037D23F0010303757047C7
:1050F0002DE9F8430746104698460E469146FBF7C1
:1051000067F83388BDF8205084B2F86944451844E4
:1051100018D308F1FF381FFA88F42246494604F0F4
:105120003EFB3388FA6923449BB200213380D1547B
:105130003388013333807B8B01331C44A5B27D83DC
:10514000BDE8F883AC42E8D92A46494604F027FB7B
:1051500033882B4433807B8B1D44ADB2EFE70000D6
:10516000014B1860704700BFB430002010B50446F2
:1051700018464BB1D4F840361878CB6998544B8B0D
:10518000013201334B8390B210BD1FB50446ADF818
:105190000E20D4F8402600930846292301320DF151
:1051A0000E01FFF7A5FFBDF80E0004B010BD1FB53E
:1051B0000446ADF80E20D4F8402600930846292373
:1051C0002A320DF10E01FFF793FFBDF80E0004B077
:1051D00010BD1FB50446ADF80E20D4F8402600934C
:1051E0000846152353320DF10E01FFF781FFBDF87C
:1051F0000E0004B010BD1FB50446ADF80E20D4F863
:10520000402600930846152368320DF10E01FFF782
:105210006FFFBDF80E0004B010BD10B5044618466F
:1052200053B1D4F8403693F87D00CB6998544B8B3A
:10523000013201334B8390B210BD000070B51D46A2
:10524000D0F8403603F5A04394B093F82443ADF86A
:105250000E2014F0040418BFD3F82C430E46FDF7BB
:1052600043FE094B1B6804AA29461B682044984743
:10527000304600953F2304AA0DF10E01FFF738FFD9
:10528000BDF80E0014B070BDB430002070B51C46DF
:10529000D0F8403694B003F5A043ADF80E2093F853
:1052A000242352074ABFD3F82C533F253F350E46DF
:1052B000FDF71AFE094B1B6804AA21461B68284407
:1052C000984730460094402304AA0DF10E01FFF7E1
:1052D0000FFFBDF80E0014B070BD00BFB430002049
:1052E000D0B5D0E9003286B0044640F60820198ACD
:1052F0000490D2E90267CDE9026792880092D3E96F
:1053000002232069FDF701FE2169206801230022A4
:10531000FFF72CFF2169024628232068FFF735FF9D
:105320002169024628232068FFF741FF21690246D0
:1053300014232068FFF74DFF2169024614232068DB
:10534000FFF759FF2169024601232068FFF765FF37
:10535000216902463E232068FFF770FF216902465B
:105360003F232068FFF792FF237D43F0010323755D
:1053700006B0D0BD044B1B685B680A4613B10146FA
:105380000020184718467047B4300020044B1B68B3
:105390005B680A4613B101463F201847184670471C
:1053A000B4300020037D23F0010303757047000033
:1053B000DFF834D0FBF74AFE0C480D490D4A0023B4
:1053C00002E0D458C4500433C4188C42F9D30A4ABA
:1053D0000A4C002301E013600432A242FBD304F024
:1053E000B7F9FBF7F3F97047000002200000002036
:1053F0008800002038FD000888000020C439002003
:10540000FEE7000038B50E4B1A784FF47A73B3FB01
:10541000F2F30C4A05461068B0FBF3F000F0CCFB49
:10542000044658B90F2D09D8024629464FF0FF30DF
:1054300000F082FB044B20461D6038BD0120FCE7D4
:1054400004000020000000200800002008B50B4BDD
:105450001A6842F400721A601A6842F480621A6094
:105460001A6842F480721A60032000F053FB002097
:10547000FFF7C8FFFBF72CFC002008BD003C0240F2
:10548000034A044B11681B780B441360704700BF3C
:10549000B830002004000020014B1868704700BF9E
:1054A000B830002038B50446FFF7F6FF631C1CBF78
:1054B000054B1B78054618BFE418FFF7EDFF431BAB
:1054C000A342FAD338BD00BF0400002038B504461B
:1054D00000286ED090F820300BB9FBF717FC22683B
:1054E000136843F001031360FFF7D6FF05462368F6
:1054F0005A68D10751D51A6822F002021A60FFF7E4
:10550000CBFF054623685A68920754D4227E012AAD
:105510001A680CBF42F0800222F080021A60627E9C
:10552000012A1A680CBF42F0400222F040021A60C1
:10553000A27E012A1A680CBF42F0200222F020024B
:105540001A60E27E012A1A680CBF22F0100242F0B3
:1055500010021A60227F012A1A680CBF42F008026A
:1055600022F008021A60627F012A1A680CBF42F01A
:10557000040222F004021A60D4E902210A432169DC
:105580000A4361690A43616801390A43DA6100200C
:105590000123606284F820300CE0FFF77DFF401BA0
:1055A0000A28A4D9636A43F400336362052384F8AC
:1055B0002030012038BDFFF76FFF401B0A28A1D91A
:1055C000F0E7000030B590F82030013B012B77D890
:1055D0003E4BD3F8002242F00102C3F80022D3F878
:1055E000002222F47C52C3F80022D3F80022486A39
:1055F00042EA0022C3F800224A69D3F81C5202F0A2
:105600001F040120A04025EA0005C3F81C52CD6903
:10561000C443002D35D1D3F80C522540C3F80C52A9
:10562000CB688D8845EA0345D30003F1804303F539
:10563000C8430A88C3F840528D6842EA0542C3F85D
:1056400044228A69214B8ABBD3F804222240C3F842
:1056500004220A6972BBD3F814221440C3F814421E
:105660000B6A012B194B02BFD3F81C220243C3F86B
:105670001C22D3F8002222F00102C3F800220020ED
:1056800030BD012DDDD1D3F80C520543C3F80C52C7
:105690000B688D8845EA0345D30003F1804303F589
:1056A000C8438A89C3F840528D68C6E7D3F80422FC
:1056B0000243CCE7D3F814220243C3F81422CFE705
:1056C000436A43F4802343620120D9E70064004029
:1056D00038B590F82030012B04461FD10268022310
:1056E00080F82030136823F001031360FFF7D4FE25
:1056F00005462368586810F0010001D1606238BD8A
:10570000FFF7CAFE401B0A28F3D9636A43F400334B
:105710006362052384F820300120F0E7436A43F4F4
:1057200000234362F8E7F0B590F820500468013D8B
:10573000012DA6683ED816F0E05F35D0C6F30160B3
:10574000012585401D60D1E9025700F1180325BBF2
:105750000D681B0147EA4557E75004EB00130E693B
:10576000C3F88461097D012908BFD3F884114FEA89
:10577000001504BF41F48071C3F884112C445168B2
:10578000C4F88C111268C4F88821D3F8802142F043
:105790000102C3F880210020F0BD4E683D431B018B
:1057A00045EAC605E550D8E7436A43F4001343626F
:1057B0000120F1E7436A43F48023F8E7F0B590F85D
:1057C0002040013C012C71D8066841B9F468A40757
:1057D00007D1436A43F4001343620120F0BD3469EA
:1057E000F5E706EB01150C01D5F8B07107F00407D9
:1057F0009760002F50D1D5F8B0717F0D1760D5F8A4
:10580000B07107F00207D760D5F8B4713F0756BFF3
:10581000D5F8B471082707F00F071761D5F8B471F0
:10582000D5F8B4512644C7F307272D0C976155616D
:10583000D6F8B8211A7002682244D2F8B821120AA8
:105840005A7002682244D2F8B821120C9A70026889
:105850002244D2F8B821120EDA7002682244D2F83B
:10586000BC211A7102682244D2F8BC21120A5A7172
:1058700002682244D2F8BC21120C9A7102682244B8
:10588000D2F8BC21120EDA71036851B9DA6842F01D
:105890002002DA600020A1E7D5F8B071FF08576058
:1058A000ADE71A6942F020021A61F3E7436A43F454
:1058B000802391E790F82030013B012B05D8026846
:1058C00053691943516100207047436A43F48023B0
:1058D00043620120704790F82030013B012B06D82D
:1058E0000268536923EA0101516100207047436A4D
:1058F00043F480234362012070477047704770472C
:105900007047704770477047704770472DE9F84FF0
:1059100003685E69D3F80490D3F80880D3F80CB01C
:10592000D3F810A09F6916F00104054627D018F09F
:10593000010F07D0012218F0020F9A6000F0A58035
:10594000FBF722F9002418F4807F0AD02B684FF46B
:10595000807218F4007F9A6000F0A6802846FBF75A
:1059600019F918F4803F0AD02B684FF4803218F4EC
:10597000003F9A6000F0A8802846FBF711F9310734
:1059800007D51BF0100F1FBF2B68102244F40074C2
:10599000DA60720708D51BF0080F05D02B680822C3
:1059A000DA602846FFF7ACFFB30706D52B68DB6843
:1059B000980702D02846FBF7F9F8710607D51AF0C8
:1059C000100F1FBF2B68102244F480641A61B206C6
:1059D00008D51AF0080F05D02B6808221A6128464E
:1059E000FFF790FFF30606D52B681B69980702D0D6
:1059F0002846FFF786FFB10308D519F0100F05D030
:105A00002B6810225A602846FFF77DFFF20308D565
:105A100019F0080F05D02B6808225A602846FFF7B6
:105A200073FF330428D519F0040F2A6822D0F0053B
:105A300044BF07F001031C43B10503D5BB0748BFB2
:105A400044F00204700503D5790748BF44F004040C
:105A500033050FD517F070030CD0402B54D043D82A
:105A6000202B4BD0302B4CD0102B44D0936923F0FB
:105A700070039361042353602CB16B6A23436B6200
:105A80002846FFF742FFBDE8F88F18F0040F05D154
:105A900018F0080F05D1FFF730FF53E74FF400640B
:105AA00051E74FF480544EE718F4806F02D044F46D
:105AB000005456E718F4006F02D044F4804450E7D5
:105AC0002846FFF71BFF4CE718F4802F02D044F460
:105AD000004454E718F4002F02D044F480344EE719
