:020000040000fa
:080000000002040000000000f2
:020000040000fa
:040008000a030000e7
:020000040000fa
:04000c0010030000dd
:020000040000fa
:040010006a0400007e
:020000040000fa
:0400140016030000cf
:020000040000fa
:040018001c030000c5
:020000040000fa
:04001c0022030000bb
:020000040000fa
:040020006a0400006e
:020000040000fa
:040024006a0400006a
:020000040000fa
:040028006a04000066
:020000040000fa
:04002c006a04000062
:020000040000fa
:040030006a0400005e
:020000040000fa
:040034006a0400005a
:020000040000fa
:04003800620400005e
:020000040000fa
:04003c006a04000052
:020000040000fa
:040040006a0400004e
:020000040000fa
:04004400280300008d
:020000040000fa
:040048006a04000046
:020000040000fa
:04004c006a04000042
:020000040000fa
:040050006a0400003e
:020000040000fa
:04005400560300004f
:020000040000fa
:040058004e03000053
:020000040000fa
:04005c006a04000032
:020000040000fa
:040060006a0400002e
:020000040000fa
:040064006a0400002a
:020000040000fa
:040068006a04000026
:020000040000fa
:04006c006a04000022
:020000040000fa
:040070006a0400001e
:020000040000fa
:040074006a0400001a
:020000040000fa
:040078006a04000016
:020000040000fa
:04007c006a04000012
:020000040000fa
:040080006a0400000e
:020000040000fa
:040084006a0400000a
:020000040000fa
:040088005a04000016
:020000040000fa
:04008c006a04000002
:020000040000fa
:040090006a040000fe
:020000040000fa
:040094006a040000fa
:020000040000fa
:040098006a040000f6
:020000040000fa
:04009c006a040000f2
:020000040000fa
:0400a0006a040000ee
:020000040000fa
:0400a4006a040000ea
:020000040000fa
:0400a8006a040000e6
:020000040000fa
:0400ac006a040000e2
:020000040000fa
:0400b0006a040000de
:020000040000fa
:0400b40086030000bf
:020000040000fa
:0400b8006a040000d6
:020000040000fa
:0400bc006a040000d2
:020000040000fa
:0400c0006a040000ce
:020000040000fa
:0400c4006a040000ca
:020000040000fa
:0400c8006a040000c6
:020000040000fa
:0400cc006a040000c2
:020000040000fa
:0400d0006a040000be
:020000040000fa
:0400d4006a040000ba
:020000040000fa
:0400d8006a040000b6
:020000040000fa
:0400dc006a040000b2
:020000040000fa
:0400e0006a040000ae
:020000040000fa
:0400e4006a040000aa
:020000040000fa
:0400e8006a040000a6
:020000040000fa
:0400ec006a040000a2
:020000040000fa
:0400f0006a0400009e
:020000040000fa
:0400f4006a0400009a
:020000040000fa
:0400f8006a04000096
:020000040000fa
:0400fc006a04000092
:020000040000fa
:040100006a0400008d
:020000040000fa
:040104006a04000089
:020000040000fa
:040108006a04000085
:020000040000fa
:04010c006a04000081
:020000040000fa
:040110006a0400007d
:020000040000fa
:040114006a04000079
:020000040000fa
:040118006a04000075
:020000040000fa
:04011c006a04000071
:020000040000fa
:040120006a0400006d
:020000040000fa
:040124006a04000069
:020000040000fa
:040128006a04000065
:020000040000fa
:04012c006a04000061
:020000040000fa
:040130006a0400005d
:020000040000fa
:040134006a04000059
:020000040000fa
:040138006a04000055
:020000040000fa
:04013c006a04000051
:020000040000fa
:040140006a0400004d
:020000040000fa
:040144006a04000049
:020000040000fa
:040148006a04000045
:020000040000fa
:04014c006a04000041
:020000040000fa
:040150006a0400003d
:020000040000fa
:040154006a04000039
:020000040000fa
:040158006a04000035
:020000040000fa
:04015c006a04000031
:020000040000fa
:040160006a0400002d
:020000040000fa
:040164006a04000029
:020000040000fa
:040168006a04000025
:020000040000fa
:04016c006a04000021
:020000040000fa
:040170006a0400001d
:020000040000fa
:040174006a04000019
:020000040000fa
:040178006a04000015
:020000040000fa
:04017c006a04000011
:020000040000fa
:040180006a0400000d
:020000040000fa
:040184006a04000009
:020000040000fa
:040188006a04000005
:020000040000fa
:04018c006a04000001
:020000040000fa
:040190006a040000fd
:020000040000fa
:040194006a040000f9
:020000040000fa
:040198006a040000f5
:020000040000fa
:04019c006a040000f1
:020000040000fa
:0401a0006a040000ed
:020000040000fa
:0401a4006a040000e9
:020000040000fa
:0401a8006a040000e5
:020000040000fa
:0401ac006a040000e1
:020000040000fa
:0401b0006a040000dd
:020000040000fa
:0401b4006a040000d9
:020000040000fa
:0401b8006a040000d5
:020000040000fa
:0401bc006a040000d1
:020000040000fa
:0401c0006a040000cd
:020000040000fa
:0401c4006a040000c9
:020000040000fa
:0401c8006a040000c5
:020000040000fa
:0401cc006a040000c1
:020000040000fa
:0401d0006a040000bd
:020000040000fa
:0401d4006a040000b9
:020000040000fa
:0401d8006a040000b5
:020000040000fa
:0401dc006a040000b1
:020000040000fa
:0401e0006a040000ad
:020000040000fa
:0401e4006a040000a9
:020000040000fa
:0401e8006a040000a5
:020000040000fa
:0401ec006a040000a1
:020000040000fa
:0401f0006a0400009d
:020000040000fa
:0401f4006a04000099
:020000040000fa
:0401f8006a04000095
:020000040000fa
:0401fc006a04000091
:020000040000fa
:040200006a0400008c
:020000040000fa
:040204006a04000088
:020000040000fa
:040208006a04000084
:020000040000fa
:04020c006a04000080
:020000040000fa
:040210006a0400007c
:020000040000fa
:040214006a04000078
:020000040000fa
:040218006a04000074
:020000040000fa
:04021c006a04000070
:020000040000fa
:040220006a0400006c
:020000040000fa
:040224006a04000068
:020000040000fa
:040228006a04000064
:020000040000fa
:04022c006a04000060
:020000040000fa
:040230006a0400005c
:020000040000fa
:040234006a04000058
:020000040000fa
:040238006a04000054
:020000040000fa
:04023c006a04000050
:020000040000fa
:040240006a0400004c
:020000040000fa
:040244006a04000048
:020000040000fa
:040248006a04000044
:020000040000fa
:04024c006a04000040
:020000040000fa
:040250006a0400003c
:020000040000fa
:040254006a04000038
:020000040000fa
:040258006a04000034
:020000040000fa
:04025c006a04000030
:020000040000fa
:040260006a0400002c
:020000040000fa
:040264006a04000028
:020000040000fa
:040268006a04000024
:020000040000fa
:04026c006a04000020
:020000040000fa
:040270006a0400001c
:020000040000fa
:040274006a04000018
:020000040000fa
:040278006a04000014
:020000040000fa
:04027c006a04000010
:020000040000fa
:040280006a0400000c
:020000040000fa
:10040000efa121000eff22000e0188000000000075
:10041000000020000000e000020032000001200087
:100420002002880014000700770107000000e000a8
:1004300003003a00a0492500010020000200370017
:100440000000200001002000810f70000100320038
:100450000f000700000020000000e0000200320052
:100460000000020000000000782d020000000000e3
:100470000040da000000fe00a00521000000e000be
:1004800002003200002020009001880000000600d9
:10049000a1028800800478000000eb001f003700f4
:1004a000e284440054a0b4009905ba00e2844400f8
:1004b00054a0b4009906ba00e284440054a0b400e9
:1004c0000006eb00476fde00fd07b200ae018800ba
:1004d000636ce10003003a000ad801000000eb0061
:1004e0000e003700606ce10008003a00004deb00a0
:1004f0000a05e800020039003420ec000af0a000f0
:100500008b05e900f9ff3e00040037006168e10057
:10051000010032000086eb000b00070019c7ba008b
:100520000e04e0001905ba0003003a000a00e000da
:10053000dbff3a0000000600fe07b200ae028800b2
:100540008a047800f5ff37000cd0a300e20f4d00bd
:100550001c003b0089027800354dba000a05e8000e
:10056000020039003420ec000af0a0008b05e900fd
:100570000f003200254dba000a05e80002003900dc
:100580003420ec000af0a0008b05e90008003200de
:100590000c00e0000600320015cdba000a05e800a4
:1005a000020039003420ec000af0a0008b05e900bd
:1005b0008984e80054a0b4000b00e000e2ff3a0098
:1005c000000006009902ba00055d78008b05e9007d
:1005d000f7ff3200c82ade00055d78008b05e900d0
:1005e000f3ff32000c00e000f1ff320019ddba0029
:1005f000eeff3700000000000000000000000000d7
:1006000000000000000000000000000000000000ea
:10061000000000000000fa00c028a900ffff37001a
:100620000000fa00c068a900ffff37000000fa00d0
:10063000c048a900ffff37000000fa00c088a900e9
:10064000ffff37000000fa00c0a8a900ffff370035
:100650003600f800809fbe00829fbe00849fbe00cf
:10066000869fbe000000fa0000e8a900108080000c
:100670000000e00002003200108080000000010055
:100680000080fa004f03be004f02be004f01be00c3
:100690004f00be003600f900004006000000fa00de
:1006a0000188a9000080fa00004006003600f8002a
:1006b000809fbe00829fbe00849fbe00869fbe00ba
:1006c0000000fa000168a9001011800061006000bc
:1006d0000000e00006003200208080000000e00002
:1006e00003003200218080003011800001000100f1
:1006f0000080fa004f03be004f02be004f01be0053
:100700004f00be003600f900004006003600f80039
:10071000809fbe00829fbe00849fbe00869fbe0059
:100720001600fa000468a9005020800062006000f2
:100730000000e000530032004020800000407800bc
:10074000f043b200004f7800402080004800de00f7
:10075000f043b200204798000a24a9000040eb00b3
:10076000104798000000eb00200798004000370079
:100770001e80fb0064014700e60047007c1a07006a
:100780001e80fb00e6004700091b07002e009000ba
:100790000000e00008003200008080000000e0005f
:1007a000050032000280800066004700800078006b
:1007b0001e407800020001001e407800ef4f5000fc
:1007c0000d003e001e80fb008000400080ea2900f2
:1007d0000080400010007800002188001e80fb008f
:1007e0008000400080ea290000804000100078006e
:1007f000402188000e0037001e80fb007000500072
:100800008000400080ea290000804000100078004d
:10081000102188001e80fb00700050008000400006
:1008200080ea2900008040001000780050218800f4
:100830001e4fe8001e407800ff4f500002003600b7
:1008400080c0b300004f78001e4090000040e800d8
:100850001047980006d0bf009e40900080cf500007
:10086000030036001e41900061002100824878009c
:100870002e4090009e40780080cf5000bcff3a0090
:100880000500370050208000610060000000e0009b
:10089000010032000a04a9000080fa004f03be00e4
:1008a0004f02be004f01be004f00be003600f900ef
:1008b000004006000000fa000308a9000080fa00ca
:1008c000004006000000fa000088a9000080fa003d
:1008d000004006000040da000000fe000a00fa00b6
:1008e00011002000b1bf9f00c0bf9f006a80570069
:1008f000bc0407004fb897000080fa000000060013
:100900000a00fa00e20f500034003e00308f8000f1
:10091000e10f500003003200e20f500011003a00d6
:100920000c003700032220000300e00001003a0021
:100930000040da002002e200020035002822ef0029
:1009400021e2a8002342ab000d003a002342a80098
:100950000b003700032320000300e00001003a00f1
:100960000040da003002e200020035003822ef00d9
:1009700031e2a8003342ab0001003a003342a80044
:10098000820178000b0037003102fb00e10f5000bc
:1009900004003a002322ab00feff3a002411880035
:1009a000030037003322ab00feff3a00a411880099
:1009b0008301e9000300e000f3ff3a00e10f50007b
:1009c00003003a002302ab00feff32000b003700a9
:1009d0003302ab00feff3200080037003300200076
:1009e000b3bf9f00c0bf9f00d1bf9f00e2bf9f0069
:1009f0006a8057007d0407006fb9970002007800f5
:100a00000080fa0000000600000005000000fa0067
:100a100068815700cfb89700808a80001000780066
:100a2000410007000080fa000000060014003700b3
:100a3000818a800091007800d60207001100200012
:100a40000000e00005003500808a800090007800fa
:100a5000a000200083030700cf00de000100ea00b1
:100a600000000600000006006015210000000600de
:100a7000fdff0700a08a8800908a88000000060019
:100a8000ea874700889fbe008a9fbe008e1f7800bd
:100a900000047800030078007287570084e2260083
:100aa00055c72600049fbe00c3962200030f78009e
:100ab0006c875700004feb0011059000a1049000d7
:100ac000910578000200e000020032000207780081
:100ad00001003700728757000000e00002003a0072
:100ae0000e007800600307000a00e00003003500f4
:100af0008a0f5000010036000a0078000b027800cf
:100b000089017800000178008e00780008007800e4
:100b1000430007004f0778004f05be004f04be009a
:100b2000af00b100000006000200fa00881f780044
:100b300000047800e2bf9f0064815700080078003d
:100b4000f9010700980090000148a300010032005d
:100b50000080eb004f0478000080fa0000000600df
:100b6000889fbe000004780048009000820478004e
:100b7000808f54000100360080047800090178005d
:100b800058009000b502070058009000090040008e
:100b900050049800c80090008984500049049800cf
:100ba0000048eb004f04be00000006001000780073
:100bb00053ff3700900190000388a300010032002a
:100bc000e7ff37000348a30001003a00f7ff0700e2
:100bd00000000600889fbe000004780048009000d6
:100be00082047800808f5400010036008004780071
:100bf0000901780058009000980207005800900002
:100c00000900400050049800c800900089845000fa
:100c1000490498000048eb004f04be0000000600a5
:100c2000f2874700889fbe008a9fbe008c9fbe004f
:100c30008e1f780080047800010578000204780097
:100c4000830578006107620002003a008b0f5400b0
:100c500008003900080178008a007800090078004f
:100c6000d4ff07008b0f540002003900880578007c
:100c70001e003700088655000c017800f00f560062
:100c80000100360002012000010220007e80570092
:100c9000790207008c067800050037000201200069
:100ca000fe80570009007800c2ff0700f08656005a
:100cb000ef8f5600f9ff3e004461de0000ff2f0079
:100cc0008091b9000c014100fe80570009007800b6
:100cd000b8ff07000e00e00004003a0008017800a9
:100ce0008a00780009007800b2ff07000b00780046
:100cf0004f0778004f06be004f05be004f04be00f0
:100d00002f01b100000006000000050000000500f2
:100d100000000500000178000040eb008080fb002f
:100d20008180400083a0210081814100134278002e
:100d30000404e00004003a0090a02100810040007b
:100d4000114078000000060092017800934f520095
:100d500005003a0090a02100810040001140780079
:100d60000309e800010037000040e800ea4f5000a6
:100d7000eaff360000000600f6874700889fbe00a5
:100d80008a9fbe008c9fbe008e1f780000057800f1
:100d90000104780083057800040678000000eb0069
:100da000c0b79f008080eb00d1b79f00e0b79f00e5
:100db000f2b79f000008200080bf9f0098007800d5
:100dc000010078008004eb00010037008904e8008e
:100dd000304178000204e0000300320053c2b30047
:100de000834f5100f9ff3a000900e000040032008f
:100df000090178000a0078006eff0700188c440093
:100e00001807780050c2b3009e4f10003f013a000f
:100e10000e07e8000e0c780010003700cfb09700e6
:100e20000100a0000b003700cfb097000110a00018
:100e300008003700cfb097000120a0000500370060
:100e4000cfb097000130a00002003700cfb097006c
:100e50000140a000c1b79f00000ce8001800780016
:100e600090407800b2c2b30082cf5000f1ff320050
:100e700007003c0002c2b30082cf5000f0ff3200f6
:100e800032c2b30082cf500007003a00efff3700b4
:100e9000d2c2b30082cf5000e0ff320002c3b300e1
:100ea00082cf5000e0ff3200a2c2b30082cf5000d8
:100eb0000d003a00000ce8001c80e900000e7800ec
:100ec00010007800e0b79f000000e0000f003d0038
:100ed000cfb097000100a200c1b79f000000ea0058
:100ee000e0b79f000900370084010700e0b79f00ca
:100ef00001003700000ce800180078009000fb00ab
:100f00000103b100e98f5000faff36004fb097009f
:100f10000008a300020032000010a100c0b79f002b
:100f200018007800e1c2b30090cf100016003a001c
:100f30008000eb00d1b79f000000e800000c7800b3
:100f4000a1c2b30090cf100006003a00000ce800e8
:100f50001c80e900000e780010007800d0b79f00d8
:100f60000900370065010700d0b79f000100370076
:100f7000000ce800180078009000fb000103b100ad
:100f8000e98f5000faff36000800780061ff070083
:100f900080467800180078001000fb00540207001b
:100fa00091062000810f50003800320012003c00f2
:100fb00041062000810f5000340032000a003c003e
:100fc00011062000810f5000200032003106200061
:100fd000810f5000a000320051022000810f50000c
:100fe000bc003a00b400370071062000810f5000a9
:100ff000b8003c008800370001072000810f500036
:101000005c00320007003c00e1062000810f500028
:101010007a003200f1062000810f5000ad003a0046
:101020003900370051072000810f5000270032009f
:1010300081072000810f500042003200310720005c
:10104000810f5000a3003a008f0037008d80fb0015
:101050000c01780000fe2f000f0040002f02070057
:101060000000e000a800320018007800000ce80042
:101070009041780002fe2f000f014100f8805700d8
:101080000a00780021ff07000e0037008d80fb006a
:101090008c0178001200200000fe2f000f0040009d
:1010a000400207000000e00097003200180ce80042
:1010b00002fe2f000f014100f88057000a0078005f
:1010c00011ff070080844400900037008d80fb00f2
:1010d0008c0178000001eb0000fe2f000f004000a3
:1010e000300207000000e00087003200180ce80022
:1010f00002fe2f000f014100f88057000a0078001f
:1011000001ff0700efff37008d80fb008c017800a6
:101110000001eb0000fe2f000f004000210207003d
:101120000000e00078003200180ce80002fe2f00fa
:101130000f014100f88057000a007800f2fe070016
:10114000e0ff37008d80fb008c0178000001eb0090
:1011500000fe2f000f004000120207000000e00018
:101160006900320018007800000ce8009041780017
:101170001c0037008c0178000001eb00010f2000fb
:1011800000fe2f000f004000060207000000e000f4
:101190005d003200180ce8000fb097009fb0970078
:1011a0002fb19700bfb19700e00f5000e08f5800bb
:1011b000e00f5900e08f590009003a00cfb59700c1
:1011c0006fb4970000a02100a70107000b02780070
:1011d000880178000001780001a021004700370055
:1011e00083c7b30002fe2f000f014100f8805700b3
:1011f0000a007800c5fe0700b2ff37000b814400eb
:101200008d80fb008c01780000fe2f000f00400055
:101210003c0207003c0037008d80fb000c01780089
:1012200000fe2f000f004000bc0107000000e0009e
:101230003500320018007800000ce800904178007a
:1012400002fe2f000f014100f88057000a007800cd
:10125000aefe07009bff370000c8b30080cf5600ea
:1012600029003a00180ce8001c80e900000e780004
:1012700010407800e0df9f0013002000e2fd2f0007
:101280000f0141000800370000c8b30080cf5600ae
:101290001d003a00180ce8001c80e900000e7800e0
:1012a0008001eb0010017800f88057000a007800f8
:1012b000f3fd070083ff370000c8b30080cf56005e
:1012c00011003a00180ce8004fb29700efb19700f8
:1012d000080037000e0c78000000eb00c0b79f003c
:1012e000e0b79f000080eb00d0b79f000002eb004a
:1012f000840178001200200061a021000a0078001b
:1013000047fe07006fff3700180ce800090078005f
:101310004f0778004f06be004f05be004f04be00c9
:101320006f01b100000006008200fa00889fbe0035
:101330008a1f78000005780082047800c13f9f0072
:101340000004eb00100037000902780088017800e3
:10135000a2f72f000f01410081f72f008f8040007e
:101360000a00780084fe070008004000880f500043
:1013700004003d00b0042000208f88000084eb00b2
:1013800004003700000478004f3897001004e00094
:10139000edff3a00080078004f0578004f04be00ca
:1013a0000080fa0000000600889fbe000004be0016
:1013b0000000eb000800e000180032001800900068
:1013c0000058a3000d003200d80090006800900083
:1013d000808f500009003600b80990000001eb0032
:1013e000820078000800780003000100d800900017
:1013f0000080eb000100e000080032000000eb007c
:10140000200c980060049800500498000900e00047
:10141000020032001800780030fd07004f04be00c3
:1014200000000600889fbe000004be000000eb0024
:101430000800e00025003200180090000058a300ca
:1014400011003200d800900068009000808f50009a
:1014500009003600b80990000001eb008200780016
:101460000800780003000100d80090000080eb0025
:101470000100e000150032000000eb00200c980095
:101480006004980050049800780a900008109000ba
:10149000800f5200060031000002520011002000af
:1014a000cfa2de00612bb9001800780065000700ac
:1014b0000000eb0000149800700c98000900e00098
:1014c000020032001800780004fd07004f04be003f
:1014d00000000600800078001000200002022000ba
:1014e000828f500004003200e9805000e48f5000e9
:1014f000010036000000eb0000000600889fbe00df
:101500008a1f7800000578000a0478009844780063
:101510000805e8000900fb00eeff07000000e000fe
:10152000f9ff3a00b0c2b30080cf5400050032008a
:10153000d0c2b3008000eb0080cf540005003a0019
:10154000020037008000eb0001003700110020008e
:101550000804e8000000eb0003003700ea00b900cf
:10156000020050000003b0003801fb0003fd2f0013
:1015700082814100e98f5100f8ff36000100e00050
:1015800001003a000000ea004f0578004f04be0059
:1015900000000600889fbe008a1f78008004780043
:1015a0000105780009007800af000700000478000a
:1015b0008a017800080178001100200009007800f5
:1015c0000a000700800078000080eb00888f500040
:1015d00001003a000000eb004f0578004f04be0008
:1015e0000000060010007800c5fc3700889fbe0090
:1015f0008a1f7800810478000204780089c5b90048
:101600000900e00001003a000004eb000a01780044
:10161000800078000300780064fd070080007800f7
:101620008a8f500003003200110009008980d80021
:1016300000047800080078004f0578004f04be00d1
:1016400000000600a0fd2f00f1ff2f009e00070004
:101650004f89de00820178000000060080017800da
:1016600002003700b15978000201e9000200e000f1
:10167000fcff3a0000000600889fbe008a9fbe0063
:10168000800478000200e0005b0032000140780036
:10169000814c780082814400f1f99f00e20f5100f3
:1016a0005500360091449800a1449800e1f99f004c
:1016b000d1f99f00e60f51004f003600b144980069
:1016c000c1f99f00e80f51004b0036000905ea0000
:1016d000630565000a8444000a055100c1ff2f001c
:1016e000010565000080fb008000eb001210200067
:1016f0001310200073010700008cbe000a01440093
:1017000060b99f0071b99f00e80f55003a0036009c
:101710002004980031049800400498005104980077
:1017200020b99f0031b99f0040b99f0051b99f0077
:10173000f80f5500300036006004980071049800de
:10174000000c9800110c9800200c9800310c9800a7
:10175000400c9800510c980020b19f0031b19f00bf
:1017600040b19f0051b19f0060b19f0071b19f00d7
:1017700000b99f0011b99f00640164007801410025
:1017800002044400020555006011b8000203be00c7
:101790000002be000403be006022b8000000720018
:1017a0008180720002017300838173001000370092
:1017b000009cbe000294be004004980051049800b2
:1017c0006204980073049800000c9800110c9800b3
:1017d000220c9800330c9800400c9800510c980093
:1017e000620c9800730c98000a02b1000802b00065
:1017f000ff0f5500eeff3e00090078004f05be00c8
:101800004f04be00000006000200fa0081017800cb
:10181000e0ff9f00930090000188a30005003200c4
:10182000d3009000805878000080fb00d101980020
:101830000a003700120020008f80e90003007800c2
:10184000dafc0700800078000080eb000100e00077
:1018500002003200eff897000180fb000080fa00e0
:1018600000000600e8ff3700800078000400370021
:101870003104e00002003a000000510000000600c0
:10188000010178000108a300f9ff3a008101780006
:1018900031017800f4ef2f00020242000281ea00d9
:1018a000020162000408280004016100f7ff320011
:1018b00083007800010178003104e000fdff3a0068
:1018c000000051000000060002002f00f3ff2f006f
:1018d000820f5000838f5800040036000000ea0099
:1018e000208f88000080eb008080eb000000060065
:1018f000f1fb2f0080804000f98f500001003e0076
:101900000050a00000000600f9ff370000000600ac
:1019100057fc0700fdff0700fcff3700881f780019
:101920000004780000082000808f50001a00350065
:1019300010082000808f50000d0034003008200077
:10194000808f500014003a009200780068805000a8
:1019500000097800100278009002900020039000a7
:10196000b0039000049cbe000694be00080037003f
:101970009202780064805200000978009000900084
:10198000100078009b000700009cbe000294be007f
:1019900010002000010037000000eb004f04780029
:1019a0000000060084082000848f50001d003200d3
:1019b0000d003c0014082000848f500027003200e6
:1019c00002003c0004082000040037002408200026
:1019d000848f50003600320044082000848f50006d
:1019e00047003a003a003700040a2000848f500074
:1019f0002900320004003c0004092000848f5000bc
:101a00003f003a002a003700020c2000828f50006d
:101a100033003200020f2000828f500038003a005d
:101a20002f0037009380e9000200e000050032003b
:101a3000810978001102fb00cfa2de00612bb90002
:101a40002c00370081097800114278000482fb00e5
:101a50008002eb006033b8002600370013027800e4
:101a6000e40052000200e000060032008109780024
:101a700011027800910290004fabde0086037800df
:101a80001c00370081097800110278009102900053
:101a90006033b800170037009380e90081097800af
:101aa00011027800cfa2de00612bb90011003700cf
:101ab00093027800e88052008109780011027800d2
:101ac0009102900021039000b103900009003700bb
:101ad0009380e9000200e00002003200efff3700cf
:101ae0009380e90081097800110278008002eb0000
:101af0006033b8000498be000690be0010000500d8
:101b00000000050044082000848f500025003200aa
:101b100008003c0014082000848f5000140032009c
:101b200024082000848f5000240032000408200084
:101b30000c00370004092000848f50001f00320081
:101b400004003c0084082000848f500024003a00e8
:101b50000e003700040a2000848f5000110032006c
:101b6000040c2000848f50001d003a000d00370047
:101b70009380e900810978009100780001087800dd
:101b8000cf91de008288be00140037009380e90008
:101b90008109780091007800010878008248780077
:101ba0000e0037009380e9008109780091007800e9
:101bb0000108780082087800080037009380e90067
:101bc0008109780091007800010878006112b9005d
:101bd000612bb9008498be008690be0010000500fd
:101be0000000050000c0da000000060000c0da00b6
:101bf00000000600810378001d0007000001be0000
:101c00006000b8000478a30013003a006220e100ed
:101c100015003e000d0039008301d1000281d30080
:101c20008180d3008301d1000281d3008180d30061
:101c30008301d1000281d3008180d3000538b00038
:101c4000c42add00f300b2008381720007f0a70010
:101c500003f0a0000000060083ff27000200200020
:101c60006110b900f9ff370003ff2700f7ff3700c5
:101c7000c70ade00f107b200f50fb200080032001b
:101c8000e1cf4200020032000170a00024000500f4
:101c9000810f7000010032000408050044000500b7
:101ca000810f700002003a00140005008502e9006f
:101cb0000000400081c04800fcff3b000170a00014
:101cc00024000500020ab900001bb9000200b80098
:0c1cd0008100420081004300000006007b
:020000040000fa
:101cdc00436f0000756c0000642000006e6f000004
:101cec007420000070750000736800002061000013
:101cfc002062000061730000696300002062000034
:101d0c00756600006665000072200000696e0000b8
:101d1c002074000068650000206600006966000001
:101d2c006f000000436f0000756c00006420000021
:101d3c006e6f000074200000707500007368000066
:101d4c0020610000206400006174000061670000e5
:101d5c00726100006d200000627500006666000074
:101d6c0065720000206900006e200000746800009d
:101d7c006520000066690000666f000000430000eb
:101d8c006f7500006c640000206e00006f74000022
:101d9c0020700000757300006820000061200000b6
:101dac00736e000069700000206200007566000010
:101dbc006665000072200000696e0000207400004f
:101dcc006865000020660000696600006f00000076
:101ddc00436f0000756c0000642000006e6f000003
:101dec0074200000616c00006c6f000063610000e7
:101dfc007465000020610000207300007472000004
:101e0c00656100006d2000006275000066660000d0
:101e1c0065720000206900006e20000074680000ec
:101e2c006520000066690000666f0000007000000d
:101e3c00617900006c6f000061640000206d00008f
:101e4c00697300006d61000074630000682000007d
:101e5c006261000073690000632000006669000085
:101e6c00666f00000064000065730000745f000082
:101e7c00616c000061690000732000006d69000056
:101e8c00736d000061740000636800002062000044
:101e9c006173000069630000206600006966000041
:101eac006f000000736f0000757200006365000026
:101ebc005f6100006c69000061730000206d000020
:101ecc00697300006d6100007463000068200000fd
:101edc006261000073690000632000006669000005
:101eec00666f0000007300006f75000072630000e5
:101efc00655f000069640000206d000069730000dc
:101f0c006d610000746300006820000062610000d5
:101f1c00736900006320000066690000666f0000b2
:101f2c000064000065730000745f000069640000c9
:101f3c00206d0000697300006d6100007463000087
:101f4c0068200000626100007369000063200000db
:101f5c0066690000666f0000006d00007469000087
:101f6c00206d0000697300006d6100007463000057
:101f7c0068200000626100007369000063200000ab
:101f8c0066690000666f000000740000696d000057
:101f9c006572000074690000636b00007320000020
:101fac006d690000736d00006174000063680000cf
:101fbc00206200006173000069630000206600006d
:101fcc00696600006f00000073740000617400000b
:101fdc00652e0000616c00006c6f000063610000f6
:101fec0074650000642000006d690000736d0000d2
:101ffc0061740000636800002062000061730000df
:10200c006963000020660000696600006f00000034
:10201c007374000061740000652e0000696e00008e
:10202c00707200006f630000657300007320000085
:10203c006d690000736d000061740000636800003e
:10204c0020620000617300006963000020660000dc
:10205c00696600006f000000436f0000756c0000a3
:10206c00642000006e6f000074200000706f000090
:10207c0070200000612000006261000073690000a4
:10208c006320000062750000666600006572000047
:10209c00206900006e2000007468000065200000bc
:1020ac0066690000666f0000007000006179000036
:1020bc006c6f000061640000206d0000697300000b
:1020cc006d61000074630000682000006461000012
:1020dc007461000067720000616d000020660000f2
:1020ec00696600006f0000006465000073740000f6
:1020fc005f6100006c61000069730000206d0000de
:10210c00697300006d6100007463000068200000ba
:10211c00646100007461000067720000616d000072
:10212c0020660000696600006f000000736f0000fd
:10213c0075720000636500005f6100006c6900004f
:10214c0061730000206d0000697300006d61000078
:10215c00746300006820000064610000746100007a
:10216c0067720000616d0000206600006966000067
:10217c006f000000736f0000757200006365000053
:10218c005f690000642000006d690000736d000041
:10219c00617400006368000020640000617400003a
:1021ac0061670000726100006d200000666900002c
:1021bc00666f00000064000065730000745f00002f
:1021cc0069640000206d0000697300006d610000ff
:1021dc0074630000682000006461000074610000fa
:1021ec0067720000616d00002066000069660000e7
:1021fc006f0000006d740000692000006d69000024
:10220c00736d0000617400006368000020640000be
:10221c006174000061670000726100006d200000b5
:10222c0066690000666f000000740000696d0000b4
:10223c006572000074690000636b0000732000007d
:10224c006d690000736d000061740000636800002c
:10225c00206400006174000061670000726100007e
:10226c006d20000066690000666f000000730000be
:10227c0074610000746500002e6100006c6c00003d
:10228c006f6300006174000065640000206d000045
:10229c00697300006d610000746300006820000029
:1022ac00646100007461000067720000616d0000e1
:1022bc0020660000696600006f0000007374000067
:1022cc0061740000652e0000696e000070720000e1
:1022dc006f63000065730000732000006d690000df
:1022ec00736d0000617400006368000020640000de
:1022fc006174000061670000726100006d200000d5
:10230c0066690000666f0000004300006f750000f6
:10231c006c640000206e00006f74000020700000e0
:10232c006f700000206100002064000061740000e8
:10233c0061670000726100006d2000006275000092
:10234c006666000065720000206900006e200000c7
:10235c00746800006520000066690000666f00006c
:10236c0000700000617900006c6f00006164000077
:10237c00206d0000697300006d6100007463000043
:10238c0068200000736e0000697000002066000079
:10239c00696600006f000000646500007374000043
:1023ac005f6100006c61000069730000206d00002b
:1023bc00697300006d610000746300006820000008
:1023cc00736e0000697000002066000069660000f2
:1023dc006f000000736f00007572000063650000f1
:1023ec005f6100006c69000061730000206d0000eb
:1023fc00697300006d6100007463000068200000c8
:10240c00736e0000697000002066000069660000b1
:10241c006f000000736f00007572000063650000b0
:10242c005f690000642000006d690000736d00009e
:10243c006174000063680000207300006e69000086
:10244c007020000066690000666f000000640000e8
:10245c0065730000745f000069640000206d00006b
:10246c00697300006d610000746300006820000057
:10247c00736e000069700000206600006966000041
:10248c006f0000006d740000692000006d69000091
:10249c00736d00006174000063680000207300001d
:1024ac006e6900007020000066690000666f000015
:1024bc0000740000696d0000657200007469000012
:1024cc00636b0000732000006d690000736d0000e9
:1024dc006174000063680000207300006e690000e6
:1024ec007020000066690000666f00000073000039
:1024fc0074610000746500002e6100006c6c0000bb
:10250c006f6300006174000065640000206d0000c2
:10251c00697300006d6100007463000068200000a6
:10252c00736e000069700000206600006966000090
:10253c006f0000007374000061740000652e0000d1
:10254c00696e0000707200006f630000657300001c
:10255c00732000006d690000736d00006174000051
:10256c0063680000207300006e690000702000009a
:10257c0066690000666f0000004300006f75000084
:10258c006c640000206e00006f740000207000006e
:10259c006f70000020610000207300006e69000065
:1025ac007020000062750000666600006572000015
:1025bc00206900006e200000746800006520000097
:1025cc0066690000666f0000007000006179000011
:1025dc006c6f000061640000206d000069730000e6
:1025ec006d610000746300006820000073740000cb
:1025fc0072650000616d00002066000069660000d5
:10260c006f00000064650000737400005f610000df
:10261c006c61000069730000206d0000697300009c
:10262c006d610000746300006820000062610000ae
:10263c007369000063200000737400007265000071
:10264c00616d0000007300006f7500007263000084
:10265c00655f0000616c0000696100007320000080
:10266c006d690000736d0000617400006368000008
:10267c002062000061730000696300002073000099
:10268c0074720000656100006d000000736f000043
:10269c0075720000636500005f6900006420000033
:1026ac006d690000736d00006174000063680000c8
:1026bc002062000061730000696300002073000059
:1026cc0074720000656100006d000000646500001c
:1026dc00737400005f690000642000006d690000e5
:1026ec00736d0000617400006368000020620000dc
:1026fc0061730000696300002073000074720000b5
:10270c00656100006d0000006d7400006920000020
:10271c006d690000736d0000617400006368000057
:10272c0020620000617300006963000020730000e8
:10273c0074720000656100006d0000007469000097
:10274c006d65000072740000696300006b7300001b
:10275c00206d0000697300006d610000746300005f
:10276c00682000007374000072650000616d000049
:10277c0020660000696600006f00000073740000a2
:10278c0061740000652e0000616c00006c6f00002d
:10279c006361000074650000642000006d69000036
:1027ac00736d00006174000063680000207300000a
:1027bc0074720000656100006d2000006669000005
:1027cc00666f000000730000746100007465000007
:1027dc002e6900006e700000726f000063650000cf
:1027ec0073730000206d0000697300006d610000c0
:1027fc0074630000682000007374000072650000b0
:10280c00616d000020660000696600006f0000002a
:10281c00436f0000756c0000642000006e6f0000b8
:10282c0074200000706f0000702000006120000018
:10283c007374000072650000616d0000206200007e
:10284c00756600006665000072200000696e00006d
:10285c0020740000686500002066000069660000b6
:10286c006f000000616c00006c6f00006361000081
:10287c00746900006f6e0000206100006674000037
:10288c006572000020460000494600004f20000001
:10289c007465000073740000206c00006f61000010
:1028ac006473000020730000756300006365000012
:1028bc006564000065640000207700006865000016
:1028cc006e200000616c00006c200000627500003e
:1028dc0066660000657200007320000073680000db
:1028ec006f7500006c6400002068000061760000c9
:1028fc006520000062650000656e0000206100002c
:10290c006c6c00006f630000617400006564000073
:10291c0000460000494600004f200000746500008e
:10292c00737400002064000069640000206e0000d5
:10293c006f74000020640000656100006c6c000086
:10294c006f6300006174000065200000616c000082
:10295c006c20000062750000666600006572000065
:10296c0073000000436f0000756c000064200000d1
:10297c006e6f00007420000070750000736800001a
:10298c002061000020620000617300006963000098
:10299c002062000075660000666500007220000071
:1029ac00696e00002074000068650000206c000057
:1029bc006973000074000000436f0000756c000028
:1029cc00642000006e6f0000742000007075000021
:1029dc007368000020610000206400006174000036
:1029ec0061670000726100006d20000062750000dc
:1029fc006666000065720000206900006e20000011
:102a0c0074680000652000006c690000737400009d
:102a1c00004300006f7500006c640000206e000025
:102a2c006f740000207000007573000068200000b7
:102a3c0061200000736e00006970000020620000cd
:102a4c00756600006665000072200000696e00006b
:102a5c002074000068650000206c000069730000a1
:102a6c0074000000436f0000756c000064200000cf
:102a7c006e6f000074200000707500007368000019
:102a8c00206100002073000074720000656100007a
:102a9c006d20000062750000666600006572000023
:102aac00206900006e2000007468000065200000a2
:102abc006c69000073740000007000006179000004
:102acc006c6f000061640000206d000069730000f1
:102adc006d610000746300006820000062610000fa
:102aec0073690000632000006c69000073740000bf
:102afc000064000065730000745f0000616c0000ee
:102b0c0061690000732000006d690000736d0000a6
:102b1c0061740000636800002062000061730000b3
:102b2c0069630000206c00006973000074000000f1
:102b3c00736f000075720000636500005f61000038
:102b4c006c69000061730000206d00006973000067
:102b5c006d61000074630000682000006261000079
:102b6c0073690000632000006c690000737400003e
:102b7c00007300006f75000072630000655f000059
:102b8c0069640000206d0000697300006d61000035
:102b9c00746300006820000062610000736900002b
:102bac00632000006c690000737400000064000076
:102bbc0065730000745f000069640000206d000004
:102bcc00697300006d6100007463000068200000f0
:102bdc006261000073690000632000006c690000f2
:102bec0073740000006d000074690000206d00001b
:102bfc00697300006d6100007463000068200000c0
:102c0c006261000073690000632000006c690000c1
:102c1c007374000000740000696d000065720000a0
:102c2c0074690000636b0000732000006d69000084
:102c3c00736d000061740000636800002062000086
:102c4c006173000069630000206c00006973000070
:102c5c00740000007374000061740000652e0000a5
:102c6c00616c00006c6f0000636100007465000013
:102c7c00642000006d690000736d00006174000039
:102c8c00636800002062000061730000696300004b
:102c9c00206c000069730000740000007374000065
:102cac0061740000652e0000696e000070720000f7
:102cbc006f63000065730000732000006d690000f5
:102ccc00736d0000617400006368000020620000f6
:102cdc006173000069630000206c000069730000e0
:102cec0074000000436f0000756c0000642000004d
:102cfc006e6f000074200000666900006e640000b6
:102d0c002061000020620000617300006963000014
:102d1c0020620000756600006665000072200000ed
:102d2c00696e00002074000068650000206c0000d3
:102d3c00697300007400000070610000796c000081
:102d4c006f610000642000006d690000736d00006d
:102d5c00617400006368000020640000617400006e
:102d6c0061670000726100006d2000006c6900005a
:102d7c00737400000064000065730000745f000051
:102d8c00616c000061690000732000006d69000037
:102d9c00736d000061740000636800002064000023
:102dac006174000061670000726100006d2000001a
:102dbc006c69000073740000007300006f750000f4
:102dcc0072630000655f0000616c000069610000c7
:102ddc00732000006d690000736d000061740000c9
:102dec0063680000206400006174000061670000eb
:102dfc00726100006d2000006c69000073740000ab
:102e0c00007300006f75000072630000655f0000c6
:102e1c0069640000206d0000697300006d610000a2
:102e2c00746300006820000064610000746100009d
:102e3c0067720000616d0000206c00006973000077
:102e4c007400000064650000737400005f6900008a
:102e5c00642000006d690000736d00006174000057
:102e6c00636800002064000061740000616700006a
:102e7c00726100006d2000006c690000737400002a
:102e8c00006d000074690000206d00006973000083
:102e9c006d61000074630000682000006461000034
:102eac007461000067720000616d0000206c00000e
:102ebc006973000074000000746900006d65000007
:102ecc0072740000696300006b730000206d0000d9
:102edc00697300006d6100007463000068200000dd
:102eec00646100007461000067720000616d000095
:102efc00206c000069730000740000007374000003
:102f0c0061740000652e0000616c00006c6f0000a5
:102f1c006361000074650000642000006d690000ae
:102f2c00736d000061740000636800002064000091
:102f3c006174000061670000726100006d20000088
:102f4c006c69000073740000007300007461000071
:102f5c00746500002e6900006e700000726f000036
:102f6c006365000073730000206d0000697300003e
:102f7c006d61000074630000682000006461000053
:102f8c007461000067720000616d0000206c00002d
:102f9c006973000074000000436f0000756c000042
:102fac00642000006e6f0000742000006669000051
:102fbc006e64000020610000206400006174000059
:102fcc0061670000726100006d20000062750000f6
:102fdc006666000065720000206900006e2000002b
:102fec0074680000652000006c69000073740000b8
:102ffc0000700000617900006c6f000061640000db
:10300c00206d0000697300006d61000074630000a6
:10301c0068200000736e000069700000206c0000d6
:10302c006973000074000000646500007374000094
:10303c005f6100006c61000069730000206d00008e
:10304c00697300006d61000074630000682000006b
:10305c00736e000069700000206c00006973000042
:10306c0074000000736f000075720000636500004f
:10307c005f6100006c69000061730000206d00004e
:10308c00697300006d61000074630000682000002b
:10309c00736e000069700000206c00006973000002
:1030ac0074000000736f000075720000636500000f
:1030bc005f690000642000006d690000736d000002
:1030cc006174000063680000207300006e690000ea
:1030dc00702000006c690000737400000064000034
:1030ec0065730000745f000069640000206d0000cf
:1030fc00697300006d6100007463000068200000bb
:10310c00736e000069700000206c00006973000091
:10311c00740000006d740000692000006d690000ef
:10312c00736d000061740000636800002073000080
:10313c006e690000702000006c6900007374000060
:10314c0000740000696d0000657200007469000075
:10315c00636b0000732000006d690000736d00004c
:10316c006174000063680000207300006e69000049
:10317c00702000006c690000737400000073000084
:10318c0074610000746500002e6100006c6c00001e
:10319c006f6300006174000065640000206d000026
:1031ac00697300006d61000074630000682000000a
:1031bc00736e000069700000206c000069730000e1
:1031cc00740000007374000061740000652e000030
:1031dc00696e0000707200006f6300006573000080
:1031ec00732000006d690000736d000061740000b5
:1031fc0063680000207300006e69000070200000fe
:10320c006c69000073740000004300006f750000cf
:10321c006c640000206e00006f74000020660000db
:10322c00696e00006420000061200000736e0000d5
:10323c006970000020620000756600006665000081
:10324c0072200000696e00002074000068650000a8
:10325c00206c0000697300007400000070610000b5
:10326c00796c00006f610000642000006d69000043
:10327c00736d00006174000063680000207300002f
:10328c0074720000656100006d2000006c69000024
:10329c00737400000064000065730000745f00002c
:1032ac00616c000061690000732000006d69000012
:1032bc00736d0000617400006368000020730000ef
:1032cc0074720000656100006d2000006c690000e4
:1032dc0073740000007300006f75000072630000cf
:1032ec00655f0000616c00006961000073200000e4
:1032fc006d690000736d000061740000636800006c
:10330c002073000074720000656100006d200000e5
:10331c006c69000073740000007300006f7500008e
:10332c0072630000655f000069640000206d00009e
:10333c00697300006d610000746300006820000078
:10334c007374000072650000616d0000206c000059
:10335c006973000074000000646500007374000061
:10336c005f690000642000006d690000736d00004f
:10337c006174000063680000207300007472000028
:10338c00656100006d2000006c6900007374000022
:10339c00006d000074690000206d0000697300006e
:1033ac006d610000746300006820000073740000fd
:1033bc0072650000616d0000206c000069730000f4
:1033cc0074000000746900006d65000072740000e8
:1033dc00696300006b730000206d000069730000ce
:1033ec006d610000746300006820000073740000bd
:1033fc0072650000616d0000206c000069730000b4
:10340c00740000007374000061740000652e0000ed
:10341c00616c00006c6f000063610000746500005b
:10342c00642000006d690000736d00006174000081
:10343c006368000020730000747200006561000076
:10344c006d2000006c6900007374000000730000b4
:10345c0074610000746500002e6900006e7000003d
:10346c00726f00006365000073730000206d000034
:10347c00697300006d610000746300006820000037
:10348c007374000072650000616d0000206c000018
:10349c006973000074000000436f0000756c00003d
:1034ac00642000006e6f000074200000666900004c
:1034bc006e64000020610000207300007472000034
:1034cc00656100006d2000006275000066660000fa
:1034dc0065720000206900006e2000007468000016
:1034ec00652000006c69000073740000006100002e
:1034fc006c6c00006f63000061740000696f000069
:10350c006e200000616600007465000072200000ef
:10351c004c69000073740000207400006573000097
:10352c00742000006c6f00006164000073200000c8
:10353c00737500006363000065650000646500003e
:10354c006420000077680000656e000020610000b8
:10355c006c6c00002062000075660000666500005f
:10356c007273000020730000686f0000756c00001f
:10357c006420000068610000766500002062000095
:10358c00656500006e200000616c00006c6f00002f
:10359c006361000074650000640000004c69000069
:1035ac007374000020740000657300007420000028
:1035bc0064690000642000006e6f0000742000003d
:1035cc0064650000616c00006c6f000063610000ba
:1035dc0074650000206100006c6c0000206200002b
:1035ec00756600006665000072730000000a00003a
:1035fc000a5400006573000074200000537400002e
:10360c0061720000742000002a2a00002a2a00009f
:10361c002a2a00002a2a00002a2a00002a2a00004e
:10362c002a2a00002a2a00002a2a00002a2a00003e
:10363c002a2a00002a2a00002a2a00002a2a00002e
:10364c002a2a00002a2a00002a2a0000000a000068
:10365c000a54000065730000746900006e67000076
:10366c0020740000686500002046000069660000b8
:10367c006f0000000a460000696600006f20000021
:10368c005465000073740000204400006f6e00004d
:10369c006500000044690000642000006e6f0000ab
:1036ac007420000064650000616c00006c6f000009
:1036bc006361000074650000206100006c6c000008
:1036cc0020620000756600006665000072730000e1
:1036dc00206900006e200000746800006520000066
:1036ec0046690000666f00002074000065730000de
:1036fc0074000000427500006666000065720000f0
:10370c0020460000696600006f200000697300000d
:10371c00206e00006f740000206500006d700000ca
:10372c007479000000540000657300007469000097
:10373c006e6700002074000068650000204c0000db
:10374c0069730000740000000a4c000069730000eb
:10375c0074200000546500007374000020440000c5
:10376c006f6e0000650000004469000064200000da
:10377c006e6f00007420000064650000616c000036
:10378c006c6f000063610000746500002061000034
:10379c006c6c00002062000075660000666500001d
:1037ac0072730000206900006e2000007468000035
:1037bc00652000004c690000737400002074000048
:1037cc00657300007400000042750000666600001e
:1037dc0065720000204c000069730000742000002a
:1037ec0069730000206e00006f74000020650000fb
:1037fc006d70000074790000000a00000a5400008b
:10380c0065730000746900006e670000207400008e
:10381c006865000020430000414e0000204c000071
:10382c0069730000740000000a430000414e000060
:10383c00204c0000697300007420000054650000e7
:10384c0073740000204400006f6e000065000000df
:10385c00434100004e2000004275000066660000e7
:10386c006572000020460000696600006f200000b1
:10387c0069730000206e00006f740000206500006a
:10388c006d700000747900000000000045720000ab
:10389c00726f0000723a000020480000616e000058
:1038ac00646c0000654900006e6300006f6d0000e1
:1038bc00696e0000675f0000434100004e5f00002e
:1038cc00446100007461000067720000616d0000cb
:1038dc005f460000697200007374000046720000bd
:1038ec00616d000065200000666f0000756e0000c1
:1038fc0064200000616e0000206500007869000003
:10390c0073740000696e0000672000007175000080
:10391c006575000065640000206d00006573000093
:10392c0073610000676500000045000072720000c2
:10393c006f7200003a200000486100006e640000c5
:10394c006c650000496e0000636f00006d6900003b
:10395c006e6700005f430000414e00005f440000b2
:10396c006174000061670000726100006d5f00000f
:10397c00466900007273000074460000726100001a
:10398c006d65000020660000616900006c65000038
:10399c0064200000746f000020660000696e000057
:1039ac006420000061200000667200006565000064
:1039bc002062000075660000666500007200000061
:1039cc0045720000726f0000723a0000204800003f
:1039dc00616e0000646c0000654900006e630000bd
:1039ec006f6d0000696e0000675f000043410000ce
:1039fc004e5f00004d690000646400006c650000bf
:103a0c0046720000616d000065200000676f0000c9
:103a1c0074200000612000006d69000064640000e7
:103a2c006c65000020660000726100006d6500008e
:103a3c0020620000757400002064000069640000be
:103a4c00206e00006f740000206700006574000099
:103a5c002061000020660000697200007374000091
:103a6c0000450000727200006f7200003a200000e6
:103a7c00486100006e6400006c650000496e000037
:103a8c00636f00006d6900006e6700005f4300000b
:103a9c00414e00005f4c0000617300007446000052
:103aac00726100006d650000206700006f740000fb
:103abc0020610000206c0000617300007420000085
:103acc0066720000616d00006520000062750000e8
:103adc007420000064690000642000006e6f000018
:103aec007420000067650000742000006120000055
:103afc00666900007273000074000000436f0000e0
:103b0c00756c0000642000006e6f000074200000d3
:103b1c00616c00006c6f0000636100007465000054
:103b2c002061000020430000414e00002062000094
:103b3c007566000066650000723a0000205f0000a8
:103b4c00686100006e6400006c6500005f7200002c
:103b5c00696400005f6300006f6e00007472000007
:103b6c006f6c00005f660000726100006d65000004
:103b7c00004300006f7500006c640000206e0000b4
:103b8c006f740000206100006c6c00006f6300001b
:103b9c0061740000652000006120000043410000ba
:103bac004e20000062750000666600006572000021
:103bbc003a2000005f680000616e0000646c000039
:103bcc00655f0000616d0000645f0000636f0000c2
:103bdc006e740000726f00006c5f00006672000073
:103bec00616d000065000000436f0000756c000003
:103bfc00642000006e6f000074200000616c0000f7
:103c0c006c6f0000636100007465000020610000af
:103c1c0020430000414e0000206200007566000049
:103c2c0066650000723a0000205f000068610000c9
:103c3c006e6400006c6500005f6100006d65000043
:103c4c005f6300006f6e0000747200006f6c000008
:103c5c005f660000726100006d65000000430000ab
:103c6c006f7500006c640000206e00006f74000023
:103c7c00206100006c6c00006f6300006174000038
:103c8c006520000061200000434100004e20000030
:103c9c006275000066660000657200003a20000044
:103cac005f680000616e0000646c0000655f0000de
:103cbc00616d0000725f0000636f00006e740000a5
:103ccc00726f00006c5f000066720000616d000096
:103cdc0065000000436f0000756c0000642000005c
:103cec006e6f000074200000616c00006c6f0000af
:103cfc006361000074650000206100002043000037
:103d0c00414e0000206200007566000066650000f0
:103d1c00723a0000205f0000686100006e640000d1
:103d2c006c6500005f6900006e6300006f6d000041
:103d3c00696e0000675f00006369000064000000aa
:103d4c0008000000feff0000fdff0000fbff00006c
:103d5c00f7ff0000efff0000dfff0000bfff0000d7
:103d6c007fff0000fffe0000fffd0000fffb0000d6
:103d7c00fff70000ffef0000ffdf0000ffbf0000b7
:043d8c00ff7f0000b5
:020000040000fa
:103d90000600fa000000eb00000f78004800370032
:103da00000012000071a0700200798002e0090004d
:103db0000000e0003d0032000000eb00100798001a
:103dc0000b0037002e009000600890008000780003
:103dd0001e009000008040009e009000814078000e
:103de000014878001e0090000000e80010079800cd
:103df0009e0090002e00900040089000808f5000a0
:103e0000f0ff39001e00e800800078002e009000ce
:103e1000310098001e00e800800078002e0090001d
:103e2000210098001e00e800cf80de006109b90083
:103e30002e029000000a9800110a9800220a9800a9
:103e4000330a98001e00e800cf80de006109b90047
:103e50002e029000400298005102980062029800e1
:103e6000730298001e00e800800078002e00900089
:103e7000110098001e007800004078008040e800a3
:103e80002e009000615898002e009000900078005d
:103e90000100a000010878002e009000900078003a
:103ea0000110a0000108780004003700e0e62800b7
:103eb000801f7800d5f207008f87e9001e0fe80009
:103ec0001e007800e90f5000b5ff34000080fa00b2
:103ed000000006000600fa000000eb00000f78006a
:103ee0004800370080042000b6190700200798001a
:103ef0002e0090000000e0003d0032000000eb00ca
:103f0000100798000b0037002e009000600890000a
:103f1000800078001e009000008040009e0090000d
:103f200081407800014878001e0090000000e80001
:103f3000100798009e0090002e009000400890000e
:103f4000808f5000f0ff39001e00e80080007800ec
:103f50002e009000310098001e00e80080007800dc
:103f60002e009000210098001e00e800cf80de00a7
:103f70006109b9002e029000000a9800110a980009
:103f8000220a9800330a98001e00e800cf80de0065
:103f90006109b9002e029000400298005102980079
:103fa00062029800730298001e00e800800078000a
:103fb0002e009000110098001e007800004078004c
:103fc0008040e8002e009000615898002e0090007c
:103fd000900078000100a000010878002e009000f9
:103fe000900078000110a00001087800040037005c
:103ff00080e92800801f780084f207008f87e9009d
:104000001e0fe8001e007800e30f5000b5ff3400db
:104010000080fa00000006000600fa000000eb0035
:10402000000f7800480037000010200065190700d5
:10403000200798002e0090000000e0003d003200b4
:104040000000eb00100798000b0037002e009000d6
:1040500060089000800078001e0090000080400002
:104060009e00900081407800014878001e0090007a
:104070000000e800100798009e0090002e009000bd
:1040800040089000808f5000f0ff39001e00e800cb
:10409000800078002e009000310098001e00e8009b
:1040a000800078002e009000210098001e00e8009b
:1040b000cf80de006109b9002e029000000a98004e
:1040c000110a9800220a9800330a98001e00e8009e
:1040d000cf80de006109b9002e02900040029800f6
:1040e0005102980062029800730298001e00e800d6
:1040f000800078002e009000110098001e007800cb
:10410000004078008040e8002e0090006158980040
:104110002e009000900078000100a00001087800b7
:104120002e009000900078000110a0000108780097
:104130000400370050ec2800801f780033f207009d
:104140008f87e9001e0fe8001e007800e10f500085
:10415000b5ff34000080fa00000006000600fa00f7
:104160000000eb00000f78004800370000402000fe
:1041700014190700200798002e0090000000e000ae
:104180003d0032000000eb00100798000b003700e4
:104190002e00900060089000800078001e009000c3
:1041a000008040009e009000814078000148780027
:1041b0001e0090000000e800100798009e0090008c
:1041c0002e00900040089000808f5000f0ff3900d2
:1041d0001e00e800800078002e009000310098005a
:1041e0001e00e800800078002e009000210098005a
:1041f0001e00e800cf80de006109b9002e029000a9
:10420000000a9800110a9800220a9800330a9800c0
:104210001e00e800cf80de006109b9002e02900088
:1042200040029800510298006202980073029800c0
:104230001e00e800800078002e0090001100980019
:104240001e007800004078008040e8002e009000ba
:10425000615898002e009000900078000100a000a6
:10426000010878002e009000900078000110a00056
:104270000108780004003700e0ee2800801f780075
:10428000e2f107008f87e9001e0fe8001e007800aa
:104290000000e000b5ff35000080fa0000000600d5
:1042a0000600fa000000eb00000f780070003700f5
:1042b00000012000fd180700200798002e00900044
:1042c0000000e000670032000000eb0010079800db
:1042d000110037002e0090006008900080007800e8
:1042e0001e00900000804000104078008080fb009d
:1042f0001e019000f00f200000006100808f500030
:1043000002003200d0f12800c9f107001e00900021
:104310000000e800100798009e0090002e0090001a
:1043200040089000808f5000eaff39002e00900076
:10433000b00090001e00e800808f500002003200a4
:1043400090f32800baf107002e009000a000900022
:104350001e00e800808f50000200320080f5280027
:10436000b3f107002e00900040029000d0029000b0
:1043700060039000f00390001e00e800cf80de0094
:104380006109b9000020e10001a8e10002b0e100ec
:1043900003b8e1000200320090f72800a4f1070002
:1043a0002e009000000a9000900a9000200b9000d0
:1043b000b00b90001e00e800cf80de006109b9005c
:1043c0000020e10001a8e10002b0e10003b8e10033
:1043d0000200320070f9280095f107002e009000cd
:1043e000900090001e00e800808f50000200320014
:1043f00030fb28008ef107002e00900060589000de
:104400008080fb001e00e800808f50000200320018
:10441000b0fc280086f107002e0090001000780004
:10442000610060000000e00002003a00a0fe2800e9
:104430007ff107002e0090001000780062006000fd
:104440000000e00002003a00e000290078f10700d7
:104450002e009000061607002e009000dd160700c3
:10446000020037002003290071f107001e0fe80049
:104470001e007800e90f50008dff34000080fa0024
:10448000000006000600fa000000eb00000f7800b4
:10449000700037008004200084180700200798006f
:1044a0002e0090000000e000670032000000eb00ea
:1044b00010079800110037002e009000600890004f
:1044c000800078001e0090000080400010407800be
:1044d0008080fb001e019000f00f200000006100b2
:1044e000808f500002003200b005290050f1070013
:1044f0001e0090000000e800100798009e00900049
:104500002e00900040089000808f5000eaff390094
:104510002e009000b00090001e00e800808f500038
:1045200002003200a007290041f107002e00900090
:10453000a00090001e00e800808f500002003200b2
:10454000c00929003af107002e00900040029000b7
:10455000d002900060039000f00390001e00e8007d
:10456000cf80de006109b9000020e10001a8e10070
:1045700002b0e10003b8e10002003200000c2900a3
:104580002bf107002e009000000a9000900a900086
:10459000200b9000b00b90001e00e800cf80de00e2
:1045a0006109b9000020e10001a8e10002b0e100ca
:1045b00003b8e10002003200100e29001cf10700d0
:1045c0002e009000900090001e00e800808f5000a8
:1045d000020032000010290015f107002e009000a3
:1045e000605890008080fb001e00e800808f500023
:1045f00002003200b01129000df107002e009000da
:1046000010007800610060000000e00002003a0045
:10461000d013290006f107002e009000100078004a
:10462000620060000000e00002003a00401629002d
:10463000fff007002e0090008d1507002e0090005f
:104640006416070002003700b0182900f8f00700d0
:104650001e0fe8001e007800e30f50008dff3400ad
:104660000080fa00000006000600fa000000eb00df
:10467000000f780072003700001020000b180700b0
:10468000200798002e0090000000e0006700320034
:104690000000eb0010079800110037002e0090007a
:1046a00060089000800078001e00900000804000ac
:1046b000104078008080fb001e019000f00f200069
:1046c00000006100808f500002003200701b290042
:1046d000d7f007001e0090000000e80010079800c7
:1046e0009e0090002e00900040089000808f5000a7
:1046f000eaff39002e009000b00090001e00e80094
:10470000808f500002003200201d2900c8f00700f1
:104710002e009000a00090001e00e800808f500046
:1047200002003200001f2900c1f007002e00900097
:1047300040029000d002900060039000f0039000cf
:104740001e00e800cf80de006109b9000020e10012
:1047500001a8e10002b0e10003b8e100020032006c
:1047600000212900b2f007002e009000000a9000fe
:10477000900a9000200b9000b00b90001e00e80003
:10478000cf80de006109b9000020e10001a8e1004e
:1047900002b0e10003b8e10002003200d02229009b
:1047a000a3f007002e009000900090001e00e8008b
:1047b000808f500002003200802429009cf0070006
:1047c0002e009000605890008080fb001e00e800e2
:1047d000808f500002003200f025290094f007007d
:1047e0002e00900010007800610060000000e000e2
:1047f00002003a00d02729008df007002e0090001b
:1048000010007800620060000000e00002003a0042
:10481000002a290086f007002e00900014150700da
:104820002e009000eb15070004003700302c290003
:10483000801f780075f007008f87e9001e0fe800e1
:104840001e007800e10f50008bff34000080fa005a
:10485000000006000600fa000000eb00000f7800e0
:1048600074003700004020009017070020079800d0
:104870002e0090000000e000690032000000eb0014
:1048800010079800130037002e0090006008900079
:10489000800078001e0090000080400010407800ea
:1048a0008080fb001e019000f00f200000006100de
:1048b000808f500004003200b02e2900801f780045
:1048c00052f007008f87e9001e0090000000e8000a
:1048d000100798009e0090002e0090004008900065
:1048e000808f5000e8ff39002e009000b00090004b
:1048f0001e00e800808f5000020032008030290046
:104900004bf007002e009000a00090001e00e80071
:10491000808f5000020032009032290044f00700de
:104920002e00900040029000d002900060039000a2
:10493000f00390001e00e800cf80de006109b9009e
:104940000020e10001a8e10002b0e10003b8e100ad
:1049500002003200c034290035f007002e0090001c
:10496000000a9000900a9000200b9000b00b90007d
:104970001e00e800cf80de006109b9000020e100e0
:1049800001a8e10002b0e10003b8e100020032003a
:10499000c036290026f007002e00900090009000fd
:1049a0001e00e800808f500002003200a03829006d
:1049b0001ff007002e009000605890008080fb00e0
:1049c0001e00e800808f500002003200403a2900ab
:1049d00017f007002e0090001000780061006000c2
:1049e0000000e00002003a00403c290010f00700ff
:1049f0002e00900010007800620060000000e000cf
:104a000002003a00903e290009f007002e009000b5
:104a1000971407002e0090006e1507000400370061
:104a2000e0402900801f7800f8ef07008f87e90039
:104a30001e0fe8001e0078000000e00089ff35002e
:104a40000080fa00000006000400fa00d0fc070015
:104a500020fd070070fd0700c0fd0700a00020003a
:104a600080150700000f78001e0078000000e000ad
:104a70000200320080432900edef070008fe070026
:104a800080fe0700f8fe070072ff070061150700af
:104a9000100798001e0090000000e00002003200a5
:104aa000f0482900e2ef07000080fa00000006004d
:104ab0000600fa000000eb00000f780053003700fa
:104ac000508080000000e800508088000001200035
:104ad0006415070020079800408080008000400097
:104ae000009c210000804000ae009000010878008a
:104af000408080000000e800408088002e00900088
:104b00000000e0003c0032000000eb0010079800bd
:104b10000b0037002e0090006008900080007800a5
:104b20001e009000008040009e00900081407800b0
:104b3000014878001e0090000000e800100798006f
:104b40009e0090002e00900040089000808f500042
:104b5000f0ff3900518080002e0090003100980055
:104b6000518080002e009000210098002e009000bf
:104b7000400890008000eb006011b8002e02900009
:104b8000000a9800110a9800220a9800330a980037
:104b90002e009000400890008000eb006011b800eb
:104ba0002e02900040029800510298006202980084
:104bb00073029800518080002e0090001100980030
:104bc0002e00900040089000804078002e00900059
:104bd000615898002e009000900078000100a0001d
:104be000010878002e009000900078000110a000cd
:104bf0000108780004003700804b2900801f7800ee
:104c000082ef07008f87e9001e0fe8001e00780082
:104c1000e90f5000aaff34000080fa0000000600ef
:104c20000600fa000000eb00000f78005300370088
:104c3000508080000000e800508088008004200040
:104c40000815070020079800408080008000400081
:104c5000009c210000804000ae0090000108780018
:104c6000408080000000e800408088002e00900016
:104c70000000e0003c0032000000eb00100798004c
:104c80000b0037002e009000600890008000780034
:104c90001e009000008040009e009000814078003f
:104ca000014878001e0090000000e80010079800fe
:104cb0009e0090002e00900040089000808f5000d1
:104cc000f0ff3900518080002e00900031009800e4
:104cd000518080002e009000210098002e0090004e
:104ce000400890008000eb006011b8002e02900098
:104cf000000a9800110a9800220a9800330a9800c6
:104d00002e009000400890008000eb006011b80079
:104d10002e02900040029800510298006202980012
:104d200073029800518080002e00900011009800be
:104d30002e00900040089000804078002e009000e7
:104d4000615898002e009000900078000100a000ab
:104d5000010878002e009000900078000110a0005b
:104d60000108780004003700204e2900801f7800d9
:104d700026ef07008f87e9001e0fe8001e0078006d
:104d8000e30f5000aaff34000080fa000000060084
:104d90000600fa000000eb00000f78005300370017
:104da000508080000000e800508088000010200043
:104db000ac1407002007980040808000800040006d
:104dc000009c210000804000ae00900001087800a7
:104dd000408080000000e800408088002e009000a5
:104de0000000e0003c0032000000eb0010079800db
:104df0000b0037002e0090006008900080007800c3
:104e00001e009000008040009e00900081407800cd
:104e1000014878001e0090000000e800100798008c
:104e20009e0090002e00900040089000808f50005f
:104e3000f0ff3900518080002e0090003100980072
:104e4000518080002e009000210098002e009000dc
:104e5000400890008000eb006011b8002e02900026
:104e6000000a9800110a9800220a9800330a980054
:104e70002e009000400890008000eb006011b80008
:104e80002e029000400298005102980062029800a1
:104e900073029800518080002e009000110098004d
:104ea0002e00900040089000804078002e00900076
:104eb000615898002e009000900078000100a0003a
:104ec000010878002e009000900078000110a000ea
:104ed0000108780004003700f0502900801f780096
:104ee000caee07008f87e9001e0fe8001e00780059
:104ef000e10f5000aaff34000080fa000000060015
:104f00000600fa000000eb00000f780053003700a5
:104f1000508080000000e8005080880000402000a1
:104f20005014070020079800408080008000400057
:104f3000009c210000804000ae0090000108780035
:104f4000408080000000e800408088002e00900033
:104f50000000e0003c0032000000eb001007980069
:104f60000b0037002e009000600890008000780051
:104f70001e009000008040009e009000814078005c
:104f8000014878001e0090000000e800100798001b
:104f90009e0090002e00900040089000808f5000ee
:104fa000f0ff3900518080002e0090003100980001
:104fb000518080002e009000210098002e0090006b
:104fc000400890008000eb006011b8002e029000b5
:104fd000000a9800110a9800220a9800330a9800e3
:104fe0002e009000400890008000eb006011b80097
:104ff0002e02900040029800510298006202980030
:1050000073029800518080002e00900011009800db
:105010002e00900040089000804078002e00900004
:10502000615898002e009000900078000100a000c8
:10503000010878002e009000900078000110a00078
:10504000010878000400370080532900801f780091
:105050006eee07008f87e9001e0fe8001e00780043
:105060000000e000aaff35000080fa000000060002
:105070000600fa000000eb00000f78008a003700fd
:10508000508080000000e800508088004080800050
:105090000000e900408088004080800080004000df
:1050a000009c21000080400010007800100190005a
:1050b0004080800080004000009c21000080400073
:1050c00010007800b0009000408080008001400017
:1050d000009c21000080410010007800200090001a
:1050e00003140700200798002e0090000000e00045
:1050f0006a0032002e009000541407000000eb00fc
:10510000100798000f0037002e00900060089000f4
:10511000800078001e009000008040001040780061
:105120008080fb001e009000808f50000200320043
:10513000305629003eee07001e0090000000e800f7
:10514000100798009e0090002e00900040089000ec
:10515000808f5000ecff39002e009000b0009000ce
:1051600050808000808f500002003200f0572900ec
:105170002fee07002e009000a000900050808000cd
:10518000808f500002003200e059290028ee07000d
:105190002e00900040029000d0029000600390002a
:1051a000f00390002e009000400890008000eb007b
:1051b0006011b8000020e10001a8e10002b0e100a8
:1051c00003b8e10002003200f05b290018ee07008e
:1051d0002e009000000a9000900a9000200b900092
:1051e000b00b90002e009000400890008000eb0073
:1051f0006011b8000020e10001a8e10002b0e10068
:1052000003b8e10002003200d05d290008ee07007b
:105210002e0090009000900050808000808f500001
:1052200002003200905f290001ee07002e0090007e
:10523000605890008080fb002e0090004008900095
:10524000808f50000200320010612900f8ed070045
:105250002e00900010007800610060000000e00067
:1052600002003a0000632900f1ed07002e009000d3
:1052700010007800620060000000e00002003a00c8
:1052800040652900eaed07002e0090007812070023
:105290002e0090004f13070002003700806729009e
:1052a000e3ed07001e0fe8001e007800e90f500034
:1052b00073ff34000080fa00000006000600fa00c8
:1052c0000000eb00000f78008a003700508080005b
:1052d0000000e80050808800408080000000e90065
:1052e000408088004080800080004000009c2100b9
:1052f0000080400010007800100190004080800085
:1053000080004000009c21000080400010007800d8
:10531000b00090004080800080014000009c21008f
:1053200000804100100078002000900070130700fa
:10533000200798002e0090000000e0006a00320074
:105340002e009000c11307000000eb00100798002a
:105350000f0037002e009000600890008000780059
:105360001e00900000804000104078008080fb000c
:105370001e009000808f500002003200206a290039
:10538000abed07001e0090000000e8001007980039
:105390009e0090002e00900040089000808f5000ea
:1053a000ecff39002e009000b0009000508080008b
:1053b000808f500002003200106c29009ced070025
:1053c0002e009000a000900050808000808f500040
:1053d00002003200306e290095ed07002e0090008b
:1053e00040029000d002900060039000f003900013
:1053f0002e009000400890008000eb006011b80083
:105400000020e10001a8e10002b0e10003b8e100e2
:10541000020032007070290085ed07002e00900018
:10542000000a9000900a9000200b9000b00b9000b2
:105430002e009000400890008000eb006011b80042
:105440000020e10001a8e10002b0e10003b8e100a2
:10545000020032008072290075ed07002e009000d6
:105460009000900050808000808f50000200320039
:10547000707429006eed07002e00900060589000b7
:105480008080fb002e00900040089000808f50002c
:10549000020032002076290065ed07002e00900002
:1054a00010007800610060000000e00002003a0097
:1054b000407829005eed07002e0090001000780073
:1054c000620060000000e00002003a00b07a2900ab
:1054d00057ed07002e009000e51107002e00900008
:1054e000bc12070002003700207d290050ed0700a4
:1054f0001e0fe8001e007800e30f500073ff340019
:105500000080fa00000006000600fa000000eb0030
:10551000000f78008a003700508080000000e8000b
:1055200050808800408080000000e90040808800b2
:105530004080800080004000009c210000804000ee
:105540001000780010019000408080008000400032
:10555000009c21000080400010007800b000900006
:105560004080800080014000009c210000804100bc
:105570001000780020009000dd120700200798003e
:105580002e0090000000e0006a0032002e00900023
:105590002e1307000000eb00100798000f003700e3
:1055a0002e00900060089000800078001e0090009f
:1055b00000804000104078008080fb001e009000ba
:1055c000808f500002003200f07f290018ed0700a4
:1055d0001e0090000000e800100798009e00900058
:1055e0002e00900040089000808f5000ecff3900a2
:1055f0002e009000b000900050808000808f5000fe
:1056000002003200a081290009ed07002e00900061
:10561000a000900050808000808f50000200320077
:105620008083290002ed07002e00900040029000c8
:10563000d002900060039000f00390002e009000d4
:10564000400890008000eb006011b8000020e100ed
:1056500001a8e10002b0e10003b8e100020032005d
:1056600080852900f2ec07002e009000000a9000cf
:10567000900a9000200b9000b00b90002e0090003c
:10568000400890008000eb006011b8000020e100ad
:1056900001a8e10002b0e10003b8e100020032001d
