:100000000402040000000000160400004804000080
:10001000420500007A040000AC040000DE04000089
:1000200042050000420500004205000042050000B4
:1000300042050000E4030000420500004205000004
:1000400042050000B2030000420500004205000026
:1000500042050000800300004E030000420500003E
:100060004205000042050000420500004205000074
:100070004205000042050000420500004205000064
:100080004205000042050000420500004205000054
:100090004205000042050000420500004205000044
:1000A0004205000042050000420500004205000034
:1000B0004205000010050000420500004205000056
:1000C0004205000042050000420500004205000014
:1000D0004205000042050000420500004205000004
:1000E00042050000420500004205000042050000F4
:1000F00042050000420500004205000042050000E4
:1001000042050000420500004205000042050000D3
:1001100042050000420500004205000042050000C3
:1001200042050000420500004205000042050000B3
:1001300042050000420500004205000042050000A3
:100140004205000042050000420500004205000093
:100150004205000042050000420500004205000083
:100160004205000042050000420500004205000073
:100170004205000042050000420500004205000063
:100180004205000042050000420500004205000053
:100190004205000042050000420500004205000043
:1001A0004205000042050000420500004205000033
:1001B0004205000042050000420500004205000023
:1001C0004205000042050000420500004205000013
:1001D0004205000042050000420500004205000003
:1001E00042050000420500004205000042050000F3
:1001F00042050000420500004205000042050000E3
:1002000042050000420500004205000042050000D2
:1002100042050000420500004205000042050000C2
:1002200042050000420500004205000042050000B2
:1002300042050000420500004205000042050000A2
:100240004205000042050000420500004205000092
:100250004205000042050000420500004205000082
:100260004205000042050000420500004205000072
:100270004205000042050000420500004205000062
:040280004205000033
:100400000402040000000000EFEA21000EFF2700B4
:100410000E01880000000000000020000000E00045
:1004200002003200000120002002880014000700B2
:10043000E10107000000E00003003A00602B290002
:100440000100200002003700000020000100200011
:10045000810F7000010032000F0007000000200033
:100460000000E00002003200000002000000000076
:10047000B28B0200000000000040DA000000FE0025
:10048000C02D21000000E00002003200002020000A
:100490009001880000000600A10288008004780016
:1004A0000000EB001F003700E284440054A0B400B9
:1004B0009905BA00E284440054A0B4009906BA0039
:1004C000E284440054A0B4000006EB00476FDE0055
:1004D000FD07B200AE018800636CE10003003A0042
:1004E0000AD801000000EB000E003700606CE1004C
:1004F00008003A00004DEB000A05E8000200390050
:100500003420EC000AF0A0008B05E900F9FF3E0062
:10051000040037006168E100010032000086EB0052
:100520000B00070019C7BA000E04E0001905BA0055
:1005300003003A000A00E000DBFF3A00000006007A
:10054000FE07B200AE0288008A047800F5FF37008B
:100550000CD0A300E20F4D001C003B008902780084
:10056000354DBA000A05E800020039003420EC00DD
:100570000AF0A0008B05E9000F003200254DBA00FB
:100580000A05E800020039003420EC000AF0A0005F
:100590008B05E900080032000C00E0000600320084
:1005A00015CDBA000A05E800020039003420EC003D
:1005B0000AF0A0008B05E9008984E80054A0B4008B
:1005C0000B00E000E2FF3A00000006009902BA00CA
:1005D000055D78008B05E900F7FF3200C82ADE00D0
:1005E000055D78008B05E900F3FF32000C00E000A8
:1005F000F1FF320019DDBA00EEFF3700086B04008E
:10060000000000001AA0040000000000BC44040028
:1006100000000000B444040000000000C2430400D5
:10062000000000007A44040000000000C4440400FC
:1006300000000000589F040000000000509F0400CC
:10064000000000000A890400000000000C9F040064
:1006500000000000F89E040000000000E49E04007A
:1006600000000000A2A0040000000000F6890400C1
:1006700000000000CC890400000000003C89040058
:10068000000000007211040000000000160C0400BD
:10069000000000001E070400000000003600F80003
:1006A000809FBE00829FBE00849FBE00869FBE00CA
:1006B0000000FA000188A90000808000610060004D
:1006C0000000E00006003200C08080000000E00072
:1006D00004003200C08080000000010001003700EB
:1006E000F74D07000080FA004F03BE004F02BE0026
:1006F0004F01BE004F00BE003600F900004006006A
:100700003600F800809FBE00829FBE00849FBE001E
:10071000869FBE000000FA000168A90000808000EA
:10072000610060000000E00006003200D080800020
:100730000000E00004003200D080800000000100D2
:1007400001003700E14D07000080FA004F03BE00B2
:100750004F02BE004F01BE004F00BE003600F90040
:10076000004006003600F800809FBE00829FBE0059
:10077000849FBE00869FBE000000FA0000E8A9002A
:1007800000808000610060000000E0000600320090
:10079000B08080000000E00004003200B0808000E3
:1007A0000000010001003700D54D07000080FA006D
:1007B0004F03BE004F02BE004F01BE004F00BE00FF
:1007C0003600F900004006003600F800809FBE00A9
:1007D000829FBE00849FBE00869FBE000000FA007C
:1007E0000068A90000808000610060000000E00057
:1007F00006003200F08080000000E00004003200BB
:10080000F08080000000010001003700C44D0700A7
:100810000080FA004F03BE004F02BE004F01BE0031
:100820004F00BE003600F900004006003600F80018
:10083000809FBE00829FBE00849FBE00869FBE0038
:100840000000FA00C028A90000808000610060005C
:100850000000E00006003200608080000000E00040
:1008600004003200608080000000010001003700B9
:10087000FFFF37000080FA004F03BE004F02BE00AA
:100880004F01BE004F00BE003600F90000400600D8
:100890003600F800809FBE00829FBE00849FBE008D
:1008A000869FBE000000FA00C068A900008080009A
:1008B000610060000000E0000600320070808000EF
:1008C0000000E000040032007080800000000100A1
:1008D00001003700FFFF37000080FA004F03BE0021
:1008E0004F02BE004F01BE004F00BE003600F900AF
:1008F000004006003600F800809FBE00829FBE00C8
:10090000849FBE00869FBE000000FA00C048A90078
:1009100000808000610060000000E00006003200FE
:10092000808080000000E0000400320080808000B1
:100930000000010001003700FFFF37000080FA00CF
:100940004F03BE004F02BE004F01BE004F00BE006D
:100950003600F900004006003600F800809FBE0017
:10096000829FBE00849FBE00869FBE000000FA00EA
:10097000C088A90000808000610060000000E000E5
:1009800006003200908080000000E0000400320089
:10099000908080000000010001003700FFFF370059
:1009A0000080FA004F03BE004F02BE004F01BE00A0
:1009B0004F00BE003600F900004006003600F80087
:1009C000809FBE00829FBE00849FBE00869FBE00A7
:1009D0000000FA00C0A8A90000808000610060004B
:1009E0000000E00006003200A08080000000E0006F
:1009F00004003200A08080000000010001003700E8
:100A0000FFFF37000080FA004F03BE004F02BE0018
:100A10004F01BE004F00BE003600F9000040060046
:100A20003600F800809FBE00829FBE00849FBE00FB
:100A3000869FBE000000FA000468A90000808000C4
:100A4000610060000000E00006003200E0808000ED
:100A50000000E00004003200E0808000000001009F
:100A600001003700FD2007000080FA004F03BE00A0
:100A70004F02BE004F01BE004F00BE003600F9001D
:100A8000004006000040DA000000FE000A00FA0004
:100A900011002000B1BF9F00C0BF9F006A805700B7
:100AA000610A07004FB897000080FA0000000600B6
:100AB0000A00FA00E20F500034003E00C08F8000B0
:100AC000E10F500003003200E20F500011003A0025
:100AD0000C003700032220000300E00001003A0070
:100AE0000040DA002002E200020035002822EF0078
:100AF00021E2A8002342AB000D003A002342A800E7
:100B00000B003700032320000300E00001003A003F
:100B10000040DA003002E200020035003822EF0027
:100B200031E2A8003342AB0001003A003342A80092
:100B3000820178000B0037003102FB00E10F50000A
:100B400004003A002322AB00FEFF3A002411880083
:100B5000030037003322AB00FEFF3A00A4118800E7
:100B60008301E9000300E000F3FF3A00E10F5000C9
:100B700003003A002302AB00FEFF32000B003700F7
:100B80003302AB00FEFF32000800370033002000C4
:100B9000B3BF9F00C0BF9F00D1BF9F00E2BF9F00B7
:100BA0006A805700220A07006FB997000200780098
:100BB0000080FA0000000600000005000000FA00B6
:100BC00068815700CFB89700408C800010007800F3
:100BD000F10207000080FA000000060097013700CC
:100BE0000000FA0068815700CFB89700408C800061
:100BF00010007800E80207000080FA0000000600FC
:100C0000F90007005401070009020700330207003A
:100C10008A010700670307000E0337000000FA008F
:100C200068815700CFB89700E90207000080FA00FA
:100C300000000600EC00070047010700FC01070068
:100C4000260207007D0107005A0307000103370051
:100C50008001780002003700B15978000201E900F4
:100C60000200E000FCFF3A0000000600889FBE0082
:100C70008A9FBE00800478000200E0005B00320022
:100C800001407800814C780082814400F1F99F0096
:100C9000E20F51005500360091449800A14498009D
:100CA000E1F99F00D1F99F00E60F51004F00360097
:100CB000B1449800C1F99F00E80F51004B00360085
:100CC0000905EA00630565000A8444000A0551002D
:100CD000C1FF2F00010565000080FB008000EB00D4
:100CE0001210200013102000070A0700008CBE001D
:100CF0000A01440060B99F0071B99F00E80F5500D8
:100D00003A0036002004980031049800400498000E
:100D10005104980020B99F0031B99F0040B99F004D
:100D200051B99F00F80F550030003600600498005C
:100D300071049800000C9800110C9800200C980089
:100D4000310C9800400C9800510C980020B19F0085
:100D500031B19F0040B19F0051B19F0060B19F0031
:100D600071B19F0000B99F0011B99F006401640038
:100D70007801410002044400020555006011B800EA
:100D80000203BE000002BE000403BE006022B800E1
:100D90000000720081807200020173008381730081
:100DA00010003700009CBE000294BE004004980072
:100DB000510498006204980073049800000C980095
:100DC000110C9800220C9800330C9800400C9800ED
:100DD000510C9800620C9800730C98000A02B10044
:100DE0000802B000FF0F5500EEFF3E00090078003A
:100DF0004F05BE004F04BE0000000600418C80007D
:100E00009100780001083700418C80009100780043
:100E100090050700110020000000E00005003500EB
:100E2000408C800090007800A0002000F7070700A9
:100E3000CF00DE000100EA0000000600000006000E
:100E4000E018210000000600FDFF0700608C88000C
:100E5000508C880000000600889FBE000004BE0081
:100E6000080078000D0007000000440089007800A9
:100E700003000700080078004F04BE0000000600D1
:100E8000881F780000047800080078009D0807009B
:100E9000080078004F047800000006008000780009
:100EA000040037003104E00002003A000000510065
:100EB00000000600010178000108A300F9FF3A00D4
:100EC0008101780031017800F4EF2F000202420026
:100ED0000281EA00020162000408280004016100A6
:100EE000F7FF320083007800010178003104E00050
:100EF000FDFF3A0000005100000006004400FA0027
:100F0000889FBE008A1F78000004BE00020578009A
:100F100094BF9F00A5BF9F00B6BF9F00C7BF9F00A3
:100F20000000EB00C09F9F00A8AF9F00D89F9F00CC
:100F30000080EB00B0AF9F006022B8006033B800C3
:100F400060FB2F000F004000B10707001FBA970099
:100F5000AFBA97003FBB9700CFBB970012002000AD
:100F60008A00780060FB2F000F0040006F0507002B
:100F70000900E000060032003FB29700AFAA9700D8
:100F800004824200DF9A970005025200840C44005C
:100F90004F0578004F04BE000080FA0000000600F4
:100FA000F4FF2F00F5FF2F000403BE00D3FF37002E
:100FB0006022B8000600200007002800CFFF37009D
:100FC000F4FF2F00F5FF2F006033B800CBFF370090
:100FD00004002000050028006033B800C7FF370078
:100FE000F3FF3700EEFF3700EC874700889FBE0015
:100FF0008A9FBE008C9FBE008E1F7800000678007E
:1010000001047800180790002805900098067800E1
:10101000CDB79F00B80590001202780092029000B0
:1010200022039000B20390000400BE000601BE003F
:101030004F18DE006011B8008000EB00D0B79F00B1
:10104000E1B79F00F2B79F0083BF9F008004780044
:101050000900E000060032006000B8006011B8002E
:101060000402500085825800060359008783590006
:101070000E00E000020035000D10A100CDB79F006A
:101080000900E00005003A004FB097000028A300D7
:1010900002003A000038A300020032008A00E90092
:1010A000010037008A007800F8815700A200200074
:1010B000080078008B0007000900E00003003A00F8
:1010C000CFB097000128A300080032000000E9001B
:1010D00000814500B1C2B3000900E0000100320008
:1010E000D1C2B30001497800060037000138A300DF
:1010F000040032000000E9008080450002C2B30015
:1011000082487800480190000201E9000001510086
:10111000808045004FB297008A0178000C0078006B
:101120006F0207009C0090000188A30004003200B9
:1011300098009000810F500001003D0001007800F0
:101140004F0778004F06BE004F05BE004F04BE009B
:10115000CF00B100000006000200FA00889FBE0028
:101160008A9FBE00800578000104780002007800A4
:10117000180190002805900098007800B1BF9F00EA
:10118000B80490000200E000020035000110A10048
:10119000B1BF9F00EA815700820020008A007800DA
:1011A000100278009002900020039000B00390009D
:1011B000080078004B0007003FB99700F00061007D
:1011C000040032000000E9008080440002C3B30044
:1011D000824878003FB99700E800610004003200BF
:1011E0000000E9008080440002C2B3008248780019
:1011F000480190000201E900000151008080440094
:101200003FBA97008A0178000B007800340207008B
:101210009B0090000188A300040032009800900019
:10122000810F500001003D00010078004F05BE0015
:101230004F04BE000080FA0000000600EA87470065
:10124000889FBE008A9FBE008E1F78000004780031
:10125000030078007287570084E2260055C72600F5
:10126000049FBE00C3962200030F78006C875700CE
:10127000004FEB0011059000A1049000910578004B
:101280000200E0000200320002077800010037008F
:10129000728757000000E00002003A000E0078005C
:1012A000FEFE07000A00E000030035008A0F500030
:1012B000010036000A0078000B02780089017800EE
:1012C000000178008E007800080078000402070012
:1012D0004F0778004F05BE004F04BE00AF00B100BD
:1012E00000000600F4874700889FBE008A9FBE006A
:1012F0008C9FBE008E1F78000605BE000404BE0051
:1013000081BF9F0082B79F00F3B79F00B00090009D
:10131000E1B79F001301780092B79F0090069000FC
:10132000400090000000E900000678000D00E00099
:1013300001003D001D002000EFB19700008041003A
:101340000048EB001E0020001F0037000C06E900DB
:101350000FB09700CF80DE006109B900A0B79F00F1
:10136000B1B79F00C2B79F00D3B79F000203BE0072
:101370000002BE000800BE000A01BE000A09070004
:1013800000077800EFB097000C80400003C3B30063
:10139000034847008D06E9000FB897000000E900F8
:1013A00080BF9F002FB29700BFB297004FB3970046
:1013B000DFB397000800BE000A01BE00F308070073
:1013C0000205BE000004BE000C00E0000D00340069
:1013D000E00F5400E08F5C00E00F5D00E08F5D00E7
:1013E000DAFF3A000D00E000D8FF3C008FB897000C
:1013F0000100E000030034001FB197000218A300B1
:10140000D2FF3A000E00E00002003A00FFB1970060
:101410001340A1000C0078004F0778004F06BE0073
:101420004F05BE004F04BE004F01B1000000060092
:101430000200FA00889FBE008A9FBE000005780067
:10144000010478000200780018019000A8049000C0
:1014500098007800B1BF9F00B80590000200E0003E
:10146000020035000110A100B1BF9F00EA815700C2
:10147000A2002000890078001002780090029000FD
:1014800020039000B00390000800780095FF07004B
:10149000480190000201E9000001510080804500F0
:1014A0003FBA9700890178000A0078008C01070094
:1014B0009A0090000188A300040032009800900078
:1014C000810F500001003D00010078004F05BE0073
:1014D0004F04BE000080FA0000000600FA874700B3
:1014E000889FBE008A9FBE008C9FBE008E1F780022
:1014F00080047800010478008205780018019000CB
:101500002805900018077800B80090000200E0005D
:10151000020035000E10A10001003700120020006B
:1015200070006700E0B79F000B0032001B027800DC
:101530009B0290002B039000BB039000E00F520031
:10154000E08F5A00E00F5B00E08F5B00020032008A
:101550008A86E900010037008A067800E802670001
:10156000F5B79F00010032008D06E9001B027800EC
:101570009B0290002B039000BB039000E4AF9F0000
:10158000F5AF9F0086B79F0097B79F004806900071
:101590000C06E9000C8040000048EB00EFB2970019
:1015A0007FB297008903780081047800D8AF9F004C
:1015B000020478008BBF9F008A05780003457800FD
:1015C0002B0037000C06E9006FAB97006F0063003B
:1015D000E90F500002003C000003B000010037009A
:1015E0007005B0000A03FB001604B100F90F5300A8
:1015F0000C003E00000378000650A0001606B10063
:10160000F90F530007003E00B4B79F00A5B79F0035
:10161000C7B79F00EC060700CFB39700AFB29700A3
:101620003FB297000C834400004B78000804E900A7
:101630008D06E9006FA89700FFA897000FB19700EB
:101640009FB19700460020008301D1000281D300A2
:101650008180D3000080D3000603E900FAFF3A003E
:10166000E0AF9F00F1AF9F0082B79F0093B79F004C
:10167000E10F56000F0034006FA89700FFA89700F5
:101680000FB197009FB19700E00F5000E08F580016
:10169000E00F5900E08F5900CAFF3A000800E0004F
:1016A000C8FF3C000D00E000020034000E18A3004B
:1016B000C4FF3A0089007800F4B79F0087047800DF
:1016C0005FAC97008A4178000B0578008FBD9700CA
:1016D0000500E000140032001B0278009B0290001D
:1016E0002B039000BB039000E4AF9F00F5AF9F0079
:1016F00086B79F0097B79F00E00F5200E08F5A0017
:10170000E00F5B00E08F5B00070032000C06E90091
:101710000C804000034878000C06E9000C80400073
:1017200002C3B30002487800FFB297000500E00052
:10173000040032000C06E9000C80400002C2B30035
:1017400002487800480190000201E9000C015100B4
:101750008C8040000E0278008A0178000900780031
:10176000DF000700990090000188A3000400320008
:1017700098009000810F500001003D0001007800AA
:101780004F0778004F06BE004F05BE004F04BE0055
:10179000AF01B100000006000200FA00881F7800C7
:1017A00000047800E2BF9F006481570008007800C1
:1017B0008D020700980090000148A300010032004C
:1017C0000080EB004F0478000080FA000000060063
:1017D0008201780001017800F1FF270085063700BB
:1017E000889FBE00000478004800900082047800C2
:1017F000808F5400010036008004780009017800D1
:101800005800900012FD07005800900009004000A9
:1018100050049800C8009000898450004904980042
:101820000048EB004F04BE000000060010007800E6
:101830009FFC3700900190000388A3000100320054
:10184000E7FF37000348A30001003A00F7FF070055
:101850000000060084082000848F50001D00320024
:101860000D003C0014082000848F50002700320037
:1018700002003C0004082000040037002408200077
:10188000848F50003600320044082000848F5000BE
:1018900047003A003A003700040A2000848F5000C5
:1018A0002900320004003C0004092000848F50000D
:1018B0003F003A002A003700020C2000828F5000BF
:1018C00033003200020F2000828F500038003A00AF
:1018D0002F0037009380E9000200E000050032008D
:1018E000810978001102FB00CFA2DE00612BB90054
:1018F0002C00370081097800114278000482FB0037
:101900008002EB006033B800260037001302780035
:10191000E40052000200E000060032008109780075
:1019200011027800910290004FABDE008603780030
:101930001C003700810978001102780091029000A4
:101940006033B800170037009380E9008109780000
:1019500011027800CFA2DE00612BB9001100370020
:1019600093027800E8805200810978001102780023
:101970009102900021039000B1039000090037000C
:101980009380E9000200E00002003200EFFF370020
:101990009380E90081097800110278008002EB0051
:1019A0006033B8000498BE000690BE001000050029
:1019B0000000050044082000848F500025003200FC
:1019C00008003C0014082000848F500014003200EE
:1019D00024082000848F50002400320004082000D6
:1019E0000C00370004092000848F50001F003200D3
:1019F00004003C0084082000848F500024003A003A
:101A00000E003700040A2000848F500011003200BD
:101A1000040C2000848F50001D003A000D00370098
:101A20009380E9008109780091007800010878002E
:101A3000CF91DE008288BE00140037009380E90059
:101A400081097800910078000108780082487800C8
:101A50000E0037009380E90081097800910078003A
:101A60000108780082087800080037009380E900B8
:101A70008109780091007800010878006112B900AE
:101A8000612BB9008498BE008690BE00100005004E
:101A900000000500889FBE00000478004800900008
:101AA00082047800808F54000100360080047800A2
:101AB000090178005800900065FC0700580090006C
:101AC0000900400050049800C8009000898450002C
:101AD000490498000048EB004F04BE0000000600D7
:101AE000F2874700889FBE008A9FBE008C9FBE0081
:101AF0008E1F7800800478000105780002047800C9
:101B0000830578006107620002003A008B0F5400E1
:101B100008003900080178008A0078000900780080
:101B200044FF07008B0F540002003900880578003D
:101B30001E003700088655000C017800F00F560093
:101B40000100360002012000010220007E805700C3
:101B500046FC07008C0678000500370002012000D3
:101B6000FE8057000900780032FF0700F08656001B
:101B7000EF8F5600F9FF3E004461DE0000FF2F00AA
:101B80008091B9000C014100FE80570009007800E7
:101B900028FF07000E00E00004003A00080178006A
:101BA0008A0078000900780022FF07000B00780007
:101BB0004F0778004F06BE004F05BE004F04BE0021
:101BC0002F01B10000000600000005000000050024
:101BD00000000500000178000040EB008080FB0061
:101BE0008180400083E5210081814100134278001B
:101BF0000404E00004003A0090E521008100400068
:101C0000114078000000060092017800934F5200C6
:101C100005003A0090E52100810040001140780065
:101C20000309E800010037000040E800EA4F5000D7
:101C3000EAFF360000000600F6874700889FBE00D6
:101C40008A9FBE008C9FBE008E1F78000005780022
:101C50000104780083057800040678000000EB009A
:101C6000C0B79F008080EB00D1B79F00E0B79F0016
:101C7000F2B79F000008200080BF9F009800780006
:101C8000010078008004EB00010037008904E800BF
:101C9000304178000204E0000300320053C2B30078
:101CA000834F5100F9FF3A000900E00004003200C0
:101CB000090178000A007800DEFE0700188C440055
:101CC0001807780050C2B3009E4F10003F013A0041
:101CD0000E07E8000E0C780010003700CFB0970018
:101CE0000100A0000B003700CFB097000110A0004A
:101CF00008003700CFB097000120A0000500370092
:101D0000CFB097000130A00002003700CFB097009D
:101D10000140A000C1B79F00000CE8001800780047
:101D200090407800B2C2B30082CF5000F1FF320081
:101D300007003C0002C2B30082CF5000F0FF320027
:101D400032C2B30082CF500007003A00EFFF3700E5
:101D5000D2C2B30082CF5000E0FF320002C3B30012
:101D600082CF5000E0FF3200A2C2B30082CF500009
:101D70000D003A00000CE8001C80E900000E78001D
:101D800010007800E0B79F000000E0000F003D0069
:101D9000CFB097000100A200C1B79F000000EA0089
:101DA000E0B79F000900370084010700E0B79F00FB
:101DB00001003700000CE800180078009000FB00DC
:101DC0000103B100E98F5000FAFF36004FB09700D1
:101DD0000008A300020032000010A100C0B79F005D
:101DE00018007800E1C2B30090CF100016003A004E
:101DF0008000EB00D1B79F000000E800000C7800E5
:101E0000A1C2B30090CF100006003A00000CE80019
:101E10001C80E900000E780010007800D0B79F0009
:101E20000900370065010700D0B79F0001003700A7
:101E3000000CE800180078009000FB000103B100DE
:101E4000E98F5000FAFF36000800780061FF0700B4
:101E500080467800180078001000FB00D3040700CB
:101E600091062000810F50003800320012003C0023
:101E700041062000810F5000340032000A003C006F
:101E800011062000810F5000200032003106200092
:101E9000810F5000A000320051022000810F50003D
:101EA000BC003A00B400370071062000810F5000DA
:101EB000B8003C008800370001072000810F500067
:101EC0005C00320007003C00E1062000810F50005A
:101ED0007A003200F1062000810F5000AD003A0078
:101EE0003900370051072000810F500027003200D1
:101EF00081072000810F500042003200310720008E
:101F0000810F5000A3003A008F0037008D80FB0046
:101F10000C01780000FE2F000F004000DA040700DB
:101F20000000E000A800320018007800000CE80073
:101F30009041780002FE2F000F014100F880570009
:101F40000A00780021FF07000E0037008D80FB009B
:101F50008C0178001200200000FE2F000F004000CE
:101F60003CFE07000000E00097003200180CE8007B
:101F700002FE2F000F014100F88057000A00780090
:101F800019FC070080844400900037008D80FB001E
:101F90008C0178000001EB0000FE2F000F004000D4
:101FA0002CFE07000000E00087003200180CE8005B
:101FB00002FE2F000F014100F88057000A00780050
:101FC0001BFD0700EFFF37008D80FB008C017800C0
:101FD0000001EB0000FE2F000F0040001DFE070077
:101FE0000000E00078003200180CE80002FE2F002C
:101FF0000F014100F88057000A00780056FC0700E6
:10200000E0FF37008D80FB008C0178000001EB00C1
:1020100000FE2F000F0040000EFE07000000E00051
:102020006900320018007800000CE8009041780048
:102030001C0037008C0178000001EB00010F20002C
:1020400000FE2F000F00400002FE07000000E0002D
:102050005D003200180CE8000FB097009FB09700A9
:102060002FB19700BFB19700E00F5000E08F5800EC
:10207000E00F5900E08F590009003A00CFB59700F2
:102080006FB4970000E5210084FB07000B02780085
:10209000880178000001780001E521004700370041
:1020A00083C7B30002FE2F000F014100F8805700E4
:1020B0000A00780009FD0700B2FF37000B814400D9
:1020C0008D80FB008C01780000FE2F000F00400087
:1020D00038FE07003C0037008D80FB000C017800C3
:1020E00000FE2F000F004000670407000000E00022
:1020F0003500320018007800000CE80090417800AC
:1021000002FE2F000F014100F88057000A007800FE
:10211000AEFE07009BFF370000C8B30080CF56001B
:1021200029003A00180CE8001C80E900000E780035
:1021300010407800E0DF9F0013002000E2FD2F0038
:102140000F0141000800370000C8B30080CF5600DF
:102150001D003A00180CE8001C80E900000E780011
:102160008001EB0010017800F88057000A00780029
:1021700032FC070083FF370000C8B30080CF560051
:1021800011003A00180CE8004FB29700EFB1970029
:10219000080037000E0C78000000EB00C0B79F006D
:1021A000E0B79F000080EB00D0B79F000002EB007B
:1021B000840178001200200061E521000A00780007
:1021C00047FE07006FFF3700180CE8000900780091
:1021D0004F0778004F06BE004F05BE004F04BE00FB
:1021E0006F01B100000006008200FA00889FBE0067
:1021F0008A1F78000005780082047800C13F9F00A4
:102200000004EB0010003700090278008801780014
:10221000A2F72F000F01410081F72F008F804000AF
:102220000A00780084FE070008004000880F500074
:1022300004003D00B0042000A08F88000084EB0063
:1022400004003700000478004F3897001004E000C5
:10225000EDFF3A00080078004F0578004F04BE00FB
:102260000080FA0000000600889FBE000004BE0047
:102270000000EB000800E000180032001800900099
:102280000058A3000D003200D800900068009000B4
:10229000808F500009003600B80990000001EB0063
:1022A000820078000800780003000100D800900048
:1022B0000080EB000100E000080032000000EB00AD
:1022C000200C980060049800500498000900E00079
:1022D0000200320018007800ECF907004F04BE003D
:1022E00000000600889FBE000004BE000000EB0056
:1022F0000800E00025003200180090000058A300FC
:1023000011003200D800900068009000808F5000CB
:1023100009003600B80990000001EB008200780047
:102320000800780003000100D80090000080EB0056
:102330000100E000150032000000EB00200C9800C6
:102340006004980050049800780A900008109000EB
:10235000800F5200060031000002520011002000E0
:10236000CFA2DE00612BB900180078008A020700B6
:102370000000EB0000149800700C98000900E000C9
:102380000200320018007800C0F907004F04BE00B8
:1023900000000600800078001000200002022000EB
:1023A000828F500004003200E9805000E48F50001A
:1023B000010036000000EB0000000600889FBE0010
:1023C0008A1F7800000578000A0478009844780095
:1023D0000805E8000900FB00EEFF07000000E00030
:1023E000F9FF3A00B0C2B30080CF540005003200BC
:1023F000D0C2B3008000EB0080CF540005003A004B
:10240000020037008000EB000100370011002000BF
:102410000804E8000000EB0003003700EA00B90000
:10242000020050000003B0003801FB0003FD2F0044
:1024300082814100E98F5100F8FF36000100E00081
:1024400001003A000000EA004F0578004F04BE008A
:1024500000000600889FBE008A1F78008004780074
:1024600001057800090078008CFA07000004780064
:102470008A01780008017800110020000900780026
:102480000A000700800078000080EB00888F500071
:1024900001003A000000EB004F0578004F04BE0039
:1024A000000006001000780081F93700889FBE0008
:1024B0008A1F7800810478000204780089C5B90079
:1024C0000900E00001003A000004EB000A01780076
:1024D0008000780003007800D4FC070080007800BA
:1024E0008A8F500003003200110009008980D80053
:1024F00000047800080078004F0578004F04BE0003
:102500000000060080007800100020000202200079
:10251000828F500004003200E9805000E48F5000A8
:10252000010036000000EB00000006006F02B00062
:10253000889FBE008A9FBE008C9FBE008E1F7800C1
:10254000000678000107780082047800D4AF9F006D
:10255000E5AF9F00F6AF9F0087B79F0040022000C5
:10256000800F57007E003E00E10F57007C003200D4
:102570007C089000BC109000810F500003003100D7
:10258000B086FB00700E9800030037000C00780046
:1025900044020700800678000D007800D9FF07008C
:1025A0000000E000F2FF3A00B0022000808F5600E9
:1025B000050032008002EB0085AF9F00D0022000B2
:1025C000808F560010003A00DD82B2000DF0A700A7
:1025D0008D06EA008D06E900CFEEDE008DAF9F008C
:1025E0007C089000BC109000810F50000300310067
:1025F000B086FB00700E9800030037000C007800D6
:1026000028020700800678000E00E0000200320079
:10261000F00F570043003A0000032000808F56005F
:102620003D003A007C089000BC109000810F5000E3
:1026300003003100B086FB00700E980003003700E5
:102640000C00780017020700800678008D007800E3
:102650000150A00080072000808F50002B003A001E
:102660007C089000BC109000810F500003003100E6
:10267000B086FB00700E9800030037000C00780055
:1026800008020700800678008008210000804600CC
:102690000E012000F6C0B300904F13008C003600EE
:1026A0003C1090000000E00003003200FC089000A5
:1026B0008100E900710E98000900E0000C00320072
:1026C0006022B8006033B800D4AF9F00E5AF9F0030
:1026D000F6AF9F0087B79F000000E000A201320024
:1026E0007C0890000000E900700E98009E01370001
:1026F0006022B8006033B8000C007800C401070005
:102700006000B8006011B800930137000E00E000CF
:102710009F013200170037000E00E00001003A0070
:10272000AE00200080082100008046001080FB00E1
:102730008E0F50000F0039003C1090000000E000A8
:10274000030032007C0890000000E900700E980041
:102750006022B8006033B8000C007800AC010700BC
:1027600060012000A08F88006022B8006033B800AC
:1027700072013700EA0F570055003A000004EB00E1
:102780000D0078000C003700EA44B9000004440052
:102790000803B100FC0890003C109000808F5000AE
:1027A000030031003180FB00710E980002003700F9
:1027B0000C007800BB01070001FD2F008080400065
:1027C000E98F500003003E0081992100810F5400E1
:1027D000EDFF3600800678008004EB006055B800FD
:1027E000120037001FAA9700AFAA97003FAB9700CF
:1027F000CFAB97000004420081844A0002054B00E1
:1028000083854B007C089000BC109000810F500025
:1028100003003100B086FB00700E98000300370003
:102820000C0078009F0107008006780005FD2F004E
:102830008582460095AF9F00E98F52000B013E0054
:102840009099290091992900929929009399210042
:102850000040E10001C8E10002D0E10003D8E1003E
:10286000DD003E00A4002000050020006033B80019
:102870000800BE000A01BE002D0407001FAA970031
:102880008002EB006033B80094AF9F00A5AF9F00BB
:10289000B6AF9F00C7AF9F000482EA008582EA00BE
:1028A0000683EA008783EA00D4B79F00E5B79F005C
:1028B000F6B79F0087BF9F000400E1000588E10094
:1028C0000690E1000798E100C6FF3600C20037001D
:1028D0000E00E9000E006000030032000004EB006F
:1028E0000D00780066003700F770B9004500DE0083
:1028F00067006000E1072100008040009000FB00BD
:102900000004EB000D007800810478000B00370014
:102910000944DD0001047400FC0890003C109000A4
:10292000808F5000030031003180FB00710E980051
:10293000020037000C0078005A01070081082100CE
:10294000810040009180FB008E8F50000300310019
:10295000F27F2000820F5400EDFF360080067800E1
:10296000890078008004EB006055B800F4FF2F0068
:10297000F5FF2F000403BE00010078000000E9000D
:10298000050033008703D1000683D3008582D3007E
:102990000482D300F9FF37000D007800810678002B
:1029A000200037000D0178000201E9000500330026
:1029B0000804D0008984D2000A85D2008B85D20019
:1029C000F9FF37000180FB008000EB006011B800C8
:1029D00008047000898470000A0571008B857100FD
:1029E000FC0890003C109000808F500003003100E4
:1029F0003180FB00710E98000A0037000C0078004F
:102A000094B79F00A5B79F00B6B79F00C7B79F00B8
:102A100024010700CFB397003FB39700AFB29700F0
:102A20001FB297008108210081004000914078008A
:102A30000181FB008E0F5100610031000440E10074
:102A400005C8E10006D0E10007D8E100D5FF360057
:102A50005B0037008EC4B90008844000FC08900079
:102A60003C109000808F5000030031003180FB004B
:102A7000710E9800020037000C0078000901070071
:102A800081082100810040009180FB008E8F500062
:102A900003003100B2712000820F5400EDFF3600B8
:102AA000800678008004EB006055B80098AF9F0066
:102AB000A9AF9F00BAAF9F00CBAF9F0012003700B5
:102AC0000002440081824C0002034D0083834D00CC
:102AD00094AF9F00A5AF9F00B6AF9F00C7AF9F0008
:102AE0007C089000BC109000810F50000300310062
:102AF000B086FB00700E9800030037000C007800D1
:102B0000E800070080067800800821000080460069
:102B100010407800E0CF9F00804278000580FB00E5
:102B20008E0F5000280031006174B8006055B80065
:102B30000802BE000A03BE00F0FF2F00F1FF2F00C5
:102B40000001BE00110307001FAA9700AFAA97005B
:102B50003FAB9700CFAB97000020E10001A8E10058
:102B600002B0E10003B8E10017003E000802BE0019
:102B70000A03BE001FA89700AFA897003FA99700BF
:102B8000CFA997006A030700EFCA97000584FB00EE
:102B90008004EB006055B8000882EA008982EA00F0
:102BA0000A83EA008B83EA000400E1000588E10063
:102BB0000690E1000798E100C1FF360002003700EF
:102BC00080067800040037001FAC9700AFAC970078
:102BD0003FAD9700CFAD97008008210000804600F0
:102BE0001080FB008E0F5000200031000D00780097
:102BF00009003700FC0890003C109000808F5000C6
:102C0000030031003180FB00710E98000200370094
:102C10000C007800A300070081082100010040009B
:102C20001080FB008E0F5000F2FF390020022000C0
:102C3000A08F88005FAB97000608A3000700320052
:102C40005FAC9700EFAC97007FAD97008FB5970012
:102C50008003EB0087AF9F00040037005FAC970054
:102C6000EFAC97007FAD97008FB597003C109000B8
:102C70000000E000030032007C0890000000E90042
:102C8000700E98005FA89700EFA897007FA99700A3
:102C90008FB197000040E10001C8E10002D0E100DF
:102CA00003D8E1001C0039000008A3000E003A0020
:102CB0008FA897000100E0000B003A0020022000DE
:102CC000A08F88005FAA9700EFAA97007FAB9700BC
:102CD0008FB3970061025200E0825A0060035B00EC
:102CE000E0835B00150037005FA89700EFA897000E
:102CF0007FA997008FB197000040E10001C8E10073
:102D000002D0E10003D8E1000300360020022000D9
:102D1000A08F8800140037008FA89700E18F400033
:102D20000B003A006000B8006011B80008025000C3
:102D3000898258000A0359008B835900D4AF9F0041
:102D4000E5AF9F00F6AF9F0087B79F0006003700F2
:102D50000800BE000A01BE00D0AF9F00E1AF9F0097
:102D6000F2AF9F0083B79F005FA89700EFA897007E
:102D70007FA997008FB197004F0778004F06BE00DC
:102D80004F05BE004F04BE006F02B10000000600F8
:102D90008E002000CEFE3700A0FD2F00F1FF2F0097
:102DA000F80007004F89DE0082017800000006006D
:102DB0000200FA0081017800E0FF9F00930090007C
:102DC0000188A30005003200D300900080587800ED
:102DD0000080FB00D10198000A003700120020009B
:102DE0008F80E9000300780090FA070080007800E7
:102DF0000080EB000100E00002003200EFF89700D5
:102E00000180FB000080FA0000000600E8FF3700A8
:102E1000889FBE008A9FBE004410980055109800FD
:102E20006610980077109800F00890002004900039
:102E300001045400CFC4DE00614DB90008189800A9
:102E4000191898002A1898003B189800E00F5200B3
:102E5000E08F5A00E00F5B00E08F5B000C00320057
:102E60000014900001045400CFC4DE00614DB9008D
:102E70000440E10005C8E10006D0E10007D8E10008
:102E80000300340004824000341098000200370030
:102E900080109000311098004F05BE004F04BE0016
:102EA000000006002800FA00889FBE008A1F7800F4
:102EB00000047800F808900028009000008050007E
:102EC000081A9000981A9000281B9000B81B9000D8
:102ED000CF80DE000402400085824800068348005F
:102EE0008783480048109000D81090006811900027
:102EF000F8119000E00F5000E08F5800E00F5900EB
:102F0000E08F5900050032000020E10001A8E10037
:102F100002B0E10003B8E1000D003D0008007800B8
:102F2000D4B79F00E5B79F00F6B79F0087BF9F000B
:102F3000F7000700800478005FB29700EFB29700B7
:102F40007FB397008FBB97000900E00016003D009B
:102F500078089000A8009000808050004F89DE0023
:102F600004824000850249000603490087034900A6
:102F7000041C9800151C9800261C9800371C98000B
:102F800030149800F0FF2F00F1FF2F000001BE0069
:102F9000401498005114980062149800731498001B
:102FA0008084EB005200370061004200E0804A005C
:102FB00060014B00E0814B0090BF9F00A1BF9F00CC
:102FC000B2BF9F00C3BF9F0048129000D81290006C
:102FD00068139000F813900094B79F00A5B79F0066
:102FE000B6B79F00C7B79F00E00F5200E08F5A00AE
:102FF000E00F5B00E08F5B0028003200780D90004E
:10300000081190000A0151006112B900612BB9004A
:10301000D4AF9F00E5AF9F00F6AF9F0087B79F003A
:103020001FB09700AFB097003FB19700CFB19700A6
:103030001FBA9700AFBA97003FBB9700CFBB97006E
:10304000040050008580580006015900878159000E
:1030500090AF9F00A1AF9F00B2AF9F00C3AF9F0092
:103060005FAA9700EFAA97007FAB97008FB39700F6
:103070000020E10001A8E10002B0E10003B8E10096
:10308000060034009FB297001FBB970006815200D4
:103090008200450031149800020037008813900028
:1030A0003714980028019000F80890008101510021
:1030B0001FBA9700AFBA97003FBB9700CFBB9700EE
:1030C0004F98DE0004824100850248000603480054
:1030D00087034800041C9800151C9800261C9800C3
:1030E000371C9800828F500001003E00F9F89F00C5
:1030F000090078004F0578004F04BE000080FA00F8
:10310000000006000101780080017800008268005C
:103110000408A30005003200130037003240780095
:10312000805978000004E0001400320003027800A7
:103130000208A300F9FF3A000300780001003700FD
:103140000318780082007800B2017800F5EF2F00B4
:10315000838242000382EA0004826200050828009C
:1031600005026200F6FF320000027800314178006B
:10317000025878000204E000FBFF3A0004007800E7
:103180000000060002002F00F3FF2F00820F500006
:10319000838F5800040036000000EA00A08F8800EA
:1031A0000080EB008080EB0000000600F1FB2F00A8
:1031B00080804000F98F500001003E000050A000C8
:1031C00000000600F9FF3700F1F92F008080400071
:1031D000F98F500001003E00F005B200000006002B
:1031E000F9FF37000000060017F70700FDFF070092
:1031F000FCFF3700F28747008E1F7800020278003C
:10320000030178000000E0000200320000077800AF
:1032100001003700728757008002EB000100E000D8
:10322000010032008102E9007080570006000900A9
:103230000018EB000080EB0080BF9F0023102000EF
:1032400093BF9F00AEBF9F00B1BF9F00C5BF9F004F
:103250000100E00003003D00B1042000A18F8800C0
:1032600006003700004FEB00EEBF9F00DEBF9F005F
:10327000840078007080570047F907004F077800F6
:103280002F01B10000000600881F780000047800BC
:1032900000082000808F50001A0035001008200020
:1032A000808F50000D00340030082000808F5000C7
:1032B00014003A00920078006880500000097800FD
:1032C000100278009002900020039000B00390005C
:1032D000049CBE000694BE000800370092027800ED
:1032E000648052000009780090009000100078007F
:1032F00051000700009CBE000294BE001000200098
:10330000010037000000EB004F04780000000600C9
:103310000200FA00889FBE000004780008007800D0
:10332000100007008084EB000000E00009003A0074
:103330009811900012002000E680570008007800E5
:1033400003000100E10F500002003A002FF897003F
:103350008084FB00090078004F04BE000080FA0062
:1033600000000600881F7800000478004860900084
:103370008040E90000C0700040649800D8009000D0
:1033800068009000808F500005003600B80990005A
:103390000001EB00820078000800780003000100C3
:1033A0000000EB00200C9800600498005004980086
:1033B000980090000118A300030032000140A00013
:1033C0001104980008003700280190003800900090
:1033D0000000410000149800700C98000000EB0001
:1033E0000138A300010032000080EB004F04780098
:1033F0000000060002003700000006000000050083
:10340000FDFF0700B08F80008000EB00FBFF07008E
:10341000508C80008000EB00F8FF0700B08F800028
:103420008000EB00F5FF370000C0DA000000060066
:1034300000C0DA0000000600810378001D000700CC
:103440000001BE006000B8000478A30013003A0039
:103450006220E10015003E000D0039008301D1001B
:103460000281D3008180D3008301D1000281D30087
:103470008180D3008301D1000281D3008180D300F9
:103480000538B000C42ADD00F300B2008381720069
:1034900007F0A70003F0A0000000060083FF27004C
:1034A000020020006110B900F9FF370003FF270078
:1034B000F7FF3700C70ADE00F107B200F50FB200D0
:1034C00008003200E1CF4200020032000170A0008B
:1034D00024000500810F700001003200040805007F
:1034E00044000500810F700002003A00140005003E
:1034F0008502E9000000400081C04800FCFF3B005D
:103500000170A00024000500020AB900001BB900E8
:103510000200B80081004200810043000000060064
:10352000889FBE008A9FBE0030044200B0844A00DB
:1035300030054B0090854B006000B1000898BE003C
:103540000A90BE000440E10005C8E10006D0E10099
:1035500007D8E10002003100680040001008E800D0
:103560004F05BE004F04BE0000000600889FBE004D
:103570008A9FBE00100478009004900020059000FF
:10358000B00590000418540005985C0006185D0012
:1035900007985D00110020000440E10005C8E1002B
:1035A00006D0E10007D8E100010039008000EB00FF
:1035B000108810004F05BE004F04BE00000006003A
:1035C0001200FA00889FBE008A9FBE008C9FBE003A
:1035D000E0B79F00F1B79F0082BF9F0093BF9F009D
:1035E0000605BE000404BE000000EB00D0B79F003B
:1035F000C0B79F00B0B79F00A0B79F0090B79F00D3
:10360000000678005FB19700CFB0970082014100BB
:103610003FB097000200E00004003D0037000700C3
:103620007E805700BEFF070003003700330007000D
:103630007E805700CDFF0700DFB697000D00E00049
:103640000C0035006FB29700FFB297000FBB9700D8
:103650009FBB970010002000010020006011B800FF
:103660000002720081827200020373008383730080
:103670001B0007000C06E80001042000810F560023
:10368000E0FF3A000D00E00004003D000802BE002B
:103690000A03BE007E805700A1FF07005FA89700C5
:1036A0000000E00005003A001FB29700AFB297009B
:1036B0003FB39700CFB39700090007006FB09700A2
:1036C000FFB097000FB997009FB997004F06BE0053
:1036D0004F05BE004F04BE000080FA000000060047
:1036E0000100070000000600A4B79F00B5B79F00C7
:1036F000C6B79F00D7B79F00000006004F09DE0045
:1037000082817100B3B79F004F01DE0081804000CD
:1037100082807000A1B79F008FB097004F09DE0034
:10372000000040000200700090B79F007FA8970043
:103730004F01DE00818040008280700081B79F00D1
:103740000D0007004F3ADE0000004000040070004A
:10375000F0AF9F00080007000402420085824A0083
:1037600006034B0087834B00DFFF07000802BE0003
:103770000A03BE00000006002FB29700BFB29700F8
:103780004FB39700DFB3970000000600881F780052
:1037900018002000881F780089FF07008F87E90044
:1037A0004F04780000000600801FEB0084FF070034
:1037B0008F87E90000000600889FBE008A9FBE0038
:1037C000E00F5000E08F5800E00F5900E08F5900E3
:1037D0000C003D006044B8006055B8000000540083
:1037E00081805C0002015D0083815D001800200083
:1037F0001500070008003D00180007000004EB005A
:10380000050037000004EB000F00070002003D0038
:103810001200070018002000DCFF07000800E0008D
:10382000060032006022B8006033B8000000520089
:1038300081805A0002015B0083815B004F05BE005E
:103840004F04BE0000000600E00F5200E08F5A0057
:10385000E00F5B00E08F5B00000006006044B800F2
:103860006055B8000402540085825C0006035D00C8
:1038700087835D0000000600889FBE008A9FBE000F
:103880008C1F7800E00F5000E08F5800E00F5900C7
:10389000E08F59000D003D006044B8006055B8004D
:1038A0000000540081805C0002015D0083815D00A6
:1038B0001C0020000820E10009A8E1000AB0E10096
:1038C0000BB8E1000D003D00080037000006EB00DA
:1038D000E00F5200E08F5A00E00F5B00E08F5B00CA
:1038E00006003D006044B8006055B8000402540072
:1038F00085825C0006035D0087835D00AAFF0700E8
:103900000C00E000060032006022B8006033B8000E
:103910000000520081805A0002015B0083815B003D
:103920004F0678004F05BE004F04BE0000000600A1
:10393000889FBE008A9FBE008C1F78000006EB00A7
:10394000E00F5000E08F5800E00F5900E08F590061
:1039500007003D006044B8006055B8000000540006
:1039600081805C0002015D0083815D001C002000FD
:10397000E00F5200E08F5A00E00F5B00E08F5B0029
:1039800007003D006044B8006055B80004025400D0
:1039900085825C0006035D0087835D000C00A20049
:1039A0000C0007000C00E000060032006022B800A6
:1039B0006033B8000000520081805A0002015B00B1
:1039C00083815B004F0678004F05BE004F04BE00A8
:1039D00000000600889FBE008A9FBE008C9FBE002C
:1039E0000404B8000506B8008904460060854E004E
:1039F0000606B8000A054600E0854E000706B80036
:103A00008B054600040EB800890446000A854E0066
:103A1000E0854D00050EB8000A0546008B854E0076
:103A2000060EB8008B0546000416B8000A054600CD
:103A30008B854E000516B8008B054600041EB800A5
:103A40008B0546000800BE000A01BE004F06BE00FE
:103A50004F05BE004F04BE00000006003078000095
:103A600025300000345800000025000030340000EC
:103A70005800000025300000345800000A00000003
:103A8000416C000069610000733A000020250000CD
:103A900030340000580A0000004E00006F6400003F
:103AA00065490000443A00002030000078250000FD
:103AB00030340000580000004D540000495F000001
:103AC000494E000049540000494100004C490000A3
:103AD0005A410000544900004F4E00005F4300006F
:103AE0004F4D0000504C00004554000045000000C0
:103AF0004D540000495F0000494E00004954000049
:103B0000494100004C4900005A410000544900005E
:103B10004F4E00005F4300004F4D0000504C00002E
:103B200045540000455F0000534900004D5000001F
:103B30004C450000004D0000544900005F56000055
:103B40004552000049460000595F00004E4F0000FA
:103B5000444500005F490000445F0000414400000C
:103B6000445200004553000053450000440000004B
:103B70004D540000495F00005645000052490000C6
:103B8000465900005F4E00004F440000455F0000B2
:103B9000494400005F4700004C4F000042410000D4
:103BA0004C0000004D540000495F000056450000E5
:103BB0005249000046490000454400005F4E0000A5
:103BC0004F440000455F000049440000004D0000E4
:103BD000544900005F56000045520000494600006D
:103BE00049450000445F00004E4F0000444500007E
:103BF0005F490000445F0000534900004D50000041
:103C00004C450000004D0000544900005F4F00008B
:103C100050540000494F00004E4100004C5F00002E
:103C2000494E00005445000052410000435400003A
:103C3000494F00004E5F0000524500004A45000019
:103C40004354000045440000004D0000544900006A
:103C50005F540000455200004D4900004E410000F5
:103C6000544500005F4400004F5F0000544F0000C7
:103C70005F450000525200004F520000004D00000E
:103C8000544900005F500000524F0000544F0000A4
:103C9000434F00004C5F000053550000505000009F
:103CA0004F520000545F0000494E00005155000083
:103CB00049520000590000004D540000495F0000C7
:103CC000505200004F5400004F4300004F4C000082
:103CD0005F53000055500000504F00005254000048
:103CE0005F520000455000004C590000004D00009C
:103CF000544900005F4300004F4E00005355000040
:103D00004D450000525F000049440000454E000050
:103D10005449000046590000004D0000544900007D
:103D20005F4300004F4E0000535500004D4500001A
:103D3000525F000049440000454E00005449000015
:103D4000465900005F520000414E00004745000008
:103D5000004D0000544900005F4300004F4E00003A
:103D6000535500004D450000525F000049440000DB
:103D7000454E0000544900004649000045440000FB
:103D80005F5500004E4B00004E4F0000574E0000A4
:103D9000004D0000544900005F4300004F4E0000FA
:103DA000535500004D450000525F0000494400009B
:103DB000454E0000544900004649000045440000BB
:103DC0005F53000045540000004D000054490000BE
:103DD0005F4300004F4E0000535500004D4500006A
:103DE000525F000049440000454E00005449000065
:103DF00046490000454400005F4300004C45000078
:103E000041520000004D0000544900005F43000093
:103E10004F4E0000535500004D450000525F00001A
:103E200049440000454E0000544900004649000046
:103E3000454400005F520000455300004552000019
:103E400056450000440000004D540000495F00004A
:103E5000505200004F4400005543000045520000FE
:103E60005F490000444500004E54000049460000F0
:103E7000590000004D540000495F000050520000FE
:103E80004F44000055430000455200005F490000C8
:103E9000444500004E54000049460000595F0000B0
:103EA000524100004E470000450000004D54000004
:103EB000495F0000505200004F440000554300008D
:103EC000455200005F490000444500004E54000088
:103ED0004946000049450000445F0000554E00007F
:103EE0004B4E00004F5700004E0000004D540000A4
:103EF000495F0000505200004F440000554300004D
:103F0000455200005F490000444500004E54000047
:103F10004946000049450000445F00005345000049
:103F2000540000004D540000495F00005052000052
:103F30004F44000055430000455200005F49000017
:103F4000444500004E540000494600004945000029
:103F5000445F0000434C0000454100005200000057
:103F60004D540000495F0000505200004F440000D3
:103F700055430000455200005F49000044450000E1
:103F80004E5400004946000049450000445F0000CF
:103F900052450000534500005256000045440000C1
:103FA000004D0000544900005F45000056450000E8
:103FB0004E540000535F000049440000454E00008D
:103FC00054490000465900005F440000455300007A
:103FD000540000004D540000495F000045560000A9
:103FE000454E0000545300005F4900004445000066
:103FF0004E54000049460000590000004D54000096
:10400000495F000045560000454E0000545F000027
:104010004C450000415200004E0000004D5400008D
:10402000495F0000504300005F4500005645000016
:104030004E5400005F520000455000004F520000F7
:10404000540000004D540000495F00005349000037
:104050004D5000004C4500005F4E00004F440000F2
:10406000455F0000494E0000464F00005F520000CF
:10407000455100005545000053540000004D00001C
:10408000544900005F530000494D0000504C0000AF
:10409000455F00004E4F0000444500005F490000AE
:1040A0004E4600004F5F000052450000504C00009B
:1040B000590000004D540000495F000053490000C2
:1040C0004D5000004C4500005F540000524100007C
:1040D000494E00005F4900004E4600004F5F00005F
:1040E00052450000515500004553000054000000A7
:1040F0004D540000495F0000534900004D5000003E
:104100004C4500005F54000052410000494E000041
:104110005F4900004E4600004F5F0000524500001E
:10412000504C0000590000004D540000495F000051
:104130005452000041430000544900004F4E00001B
:104140005F500000524F0000544F0000434F0000EA
:104150004C0000004D540000495F00005452000024
:1041600041430000544900004F4E00005F520000E0
:10417000455000004C590000200000004D54000044
:10418000495F00005354000052450000414D0000BB
:104190005F4900004E490000545F00005245000096
:1041A0005155000045530000540000004D540000DC
:1041B000495F00005354000052450000414D00008B
:1041C0005F4900004E490000545F00005245000066
:1041D000504C0000590000004D540000495F0000A1
:1041E00046520000414D0000455F00005459000058
:1041F000504500005F430000414E00005F53000047
:1042000054520000454100004D5F0000534500003E
:104210004E440000004D0000544900005F53000070
:1042200054520000454100004D5F00005052000014
:104230004F43000045450000440000004D5400007D
:10424000495F00005354000052450000414D0000FA
:104250005F4300004F4D0000504C000045540000EB
:10426000450000004D540000495F0000444100003B
:104270005441000047520000414D0000004D000035
:10428000544900005F4400004154000041470000D1
:10429000524100004D5F00004F4B00005F52000094
:1042A000455000004C590000004D000054490000EA
:1042B0005F440000415400004147000052410000AB
:1042C0004D5F0000524500004A4500004354000085
:1042D000454400005F520000455000004C5900006A
:1042E000005B0000554E00004B4E00004F57000091
:1042F0004E2000004D540000495D000000530000B6
:104300006F75000072630000652000003A20000015
:104310000044000065730000742000003A20000093
:10432000006D000074690000203A000020250000A4
:1043300030340000580A000000500000617900008D
:104340006C6F000061640000204300006F75000086
:104350006E7400003A20000025640000203D00003B
:1043600020000000307800000025000030320000FE
:1043700058000000416C00006C6F00006361000099
:1043800074650000643A000020540000727500005B
:1043900065000000416C00006C6F0000636100006C
:1043A00074650000643A000020460000616C000063
:1043B0007365000000490000646500006E74000031
:1043C0006966000069650000723A00002000000084
:1043D0005B2000000025000030320000582E000055
:1043E000002000005D0000005374000061740000B4
:1043F00065200000496E0000666F0000002000008C
:10440000206100006C6C00006F63000061740000AC
:1044100065640000203D0000203000007825000089
:1044200030320000580A0000002000002070000018
:10443000657200006D69000074740000656400001E
:10444000203D0000203000007825000030320000C0
:10445000580A000000200000206900006E6900007A
:10446000746100006C6900007A650000642000003F
:104470003D20000030780000253000003258000058
:104480000A0000002020000064750000706C00002D
:104490006963000061740000655F000069640000EA
:1044A0005F640000657400006563000074650000CF
:1044B000642000003D20000030780000253000001E
:1044C000325800000A000000202000006361000054
:1044D0006E5F00006D730000675F000068610000A0
:1044E0006E6400006C650000642000003D20000048
:1044F0003078000025300000325800000A0000002B
:10450000202000006F700000656E00006C630000EA
:10451000625F000064610000746100006772000067
:10452000616D00005F610000636B00005F7300005D
:10453000656E0000742000003D200000307800000F
:1045400025300000325800000A0000002020000042
:1045500072650000736500006E6400005F64000017
:104560006174000061670000726100006D2000004E
:104570003D20000030780000253000003258000057
:104580000A00000020200000726500007365000032
:104590006E6400005F6F000070740000696F0000BF
:1045A0006E6100006C5F00006D65000073730000B9
:1045B00061670000652000003D20000030780000A9
:1045C00025300000325800000A00000020200000C2
:1045D0005374000061740000652000003D2000005D
:1045E000256400000A000000494400003A20000051
:1045F0000050000061720000616D000065740000F1
:1046000065720000733A0000203000007825000039
:10461000700A000000530000656E00007420000066
:10462000446100007461000067720000616D000069
:10463000733A00002030000078250000700A000066
:1046400000200000206E0000756C00006C0000006F
:10465000536500006E740000204F0000707400006D
:10466000696F00006E6100006C2000004D65000065
:104670007373000061670000657300003A2000005A
:1046800030780000257000000A0000004E6F000026
:10469000646500004C6F0000636B0000204900005F
:1046A000443A000020000000546900006D650000DD
:1046B0007220000054690000636B0000733A000030
:1046C000202500006400000045760000656E0000B3
:1046D00074490000443A00002030000078250000B2
:1046E0003034000058000000434100004E5F0000DD
:1046F000434F00004E540000524F00004C5F00003A
:1047000046520000414D0000455F00004349000053
:104710004431000000430000414E00005F430000B0
:104720004F4E0000545200004F4C00005F46000006
:10473000524100004D4500005F4300004944000025
:1047400032000000434100004E5F0000434F000074
:104750004E540000524F00004C5F000046520000D3
:10476000414D0000455F0000434900004433000014
:1047700000430000414E00005F4300004F4E000028
:10478000545200004F4C00005F46000052410000B0
:104790004D4500005F430000494400003400000024
:1047A000434100004E5F0000434F00004E540000A4
:1047B000524F00004C5F000046520000414D000087
:1047C000455F0000434900004435000000430000FD
:1047D000414E00005F4300004F4E00005452000065
:1047E0004F4C00005F460000524100004D45000064
:1047F0005F430000494400003600000043410000D0
:104800004E5F0000434F00004E540000524F000026
:104810004C5F000046520000414D0000455F000023
:104820004349000044370000005B0000554E000083
:104830004B4E00004F5700004E5D0000004300004B
:10484000414E00005F4300004F4E000054520000F4
:104850004F4C00005F460000524100004D450000F3
:104860005F4100004D44000000430000414E000045
:104870005F4300004F4E0000545200004F4C0000B8
:104880005F460000524100004D4500005F410000BE
:104890004D45000000430000414E00005F43000012
:1048A0004F4E0000545200004F4C00005F46000085
:1048B000524100004D4500005F4100004D52000094
:1048C00000430000414E00005F4300004F4E0000D7
:1048D000545200004F4C00005F460000524100005F
:1048E0004D4500005F5200004944000000430000B5
:1048F000414E00005F4300004F4E00005452000044
:104900004F4C00005F460000524100004D45000042
:104910005F450000525200004F5200005F49000006
:104920004E4600004F5F000052450000504F00000F
:10493000525400005F30000000430000414E000070
:104940005F4300004F4E0000545200004F4C0000E7
:104950005F460000524100004D4500005F450000E9
:10496000525200004F5200005F4900004E460000C6
:104970004F5F000052450000504F000052540000AD
:104980005F31000000430000414E00005F43000023
:104990004F4E0000545200004F4C00005F46000094
:1049A000524100004D4500005F450000525200009A
:1049B0004F5200005F4900004E4600004F5F00006C
:1049C00052450000504F0000525400005F3200007A
:1049D00000430000414E00005F4300004F4E0000C6
:1049E000545200004F4C00005F460000524100004E
:1049F0004D4500005F450000525200004F5200003C
:104A00005F4900004E4600004F5F00005245000025
:104A1000504F0000525400005F330000004300007C
:104A200031430000545200004C3100003A20000095
:104A300030780000257800000A00000043310000B3
:104A400056450000433A0000203000007825000061
:104A5000780A000000430000314600004354000083
:104A6000524C00003A200000307800002578000009
:104A70000A0000004331000046490000464F000094
:104A80003A20000030780000257800000A0000007D
:104A900043310000494E0000544600003A20000017
:104AA00030780000257800000A0000004331000043
:104AB000494E0000544500003A20000030780000C4
:104AC000257800000A000000433100004543000043
:104AD0003A20000030780000257800000A0000002D
:104AE0004331000043460000473100003A200000F7
:104AF00030780000257800000A00000043310000F3
:104B000043460000473200003A20000030780000A1
:104B1000257800000A0000004331000046450000EF
:104B20004E3100003A200000307800002578000067
:104B30000A00000043310000464D0000534B0000C6
:104B4000534500004C3100003A200000307800004E
:104B5000257800000A00000043310000464D0000A7
:104B6000534B0000534500004C3200003A20000037
:104B700030780000257800000A0000004331000072
:104B800052580000465500004C3100003A20000009
:104B900030780000257800000A0000004331000052
:104BA00052580000465500004C3200003A200000E8
:104BB00030780000257800000A0000004331000032
:104BC000525800004F560000463100003A200000C5
:104BD00030780000257800000A0000004331000012
:104BE000525800004F560000463200003A200000A4
:104BF00030780000257800000A00000043310000F2
:104C00005452000030310000434F00004E3A000083
:104C10002030000078250000780A000000430000E2
:104C2000313100005452000032330000434F000085
:104C30004E3A00002030000078250000780A00007D
:104C4000004300003154000052340000354300009E
:104C50004F4E00003A200000307800002578000018
:104C60000A000000433100005452000036370000B3
:104C7000434F00004E3A000020300000782500002D
:104C8000780A000000430000315200005844000040
:104C90003A20000030780000257800000A0000006B
:104CA0004331000054580000443A00002030000016
:104CB00078250000780A000000430000314200001F
:104CC00055460000504E0000543100003A200000CC
:104CD00030780000257800000A0000004331000011
:104CE00042550000465000004E540000323A000089
:104CF0002030000078250000780A00000043000002
:104D00003142000055460000504E00005433000070
:104D10003A20000030780000257800000A000000EA
:104D20004331000042550000465000004E54000040
:104D3000343A00002030000078250000780A000096
:104D4000004D0000415300004B53000000430000A1
:104D500031520000584D000030530000494400001B
:104D60003A20000030780000257800000A0000009A
:104D700043310000525800004D300000454900000A
:104D8000443A00002030000078250000780A000036
:104D90000043000031520000584D00003153000024
:104DA000494400003A2000003078000025780000D7
:104DB0000A00000043310000525800004D3100004D
:104DC00045490000443A00002030000078250000EA
:104DD000780A00000043000031520000584D0000E6
:104DE00032530000494400003A20000030780000AF
:104DF000257800000A0000004331000052580000EE
:104E00004D32000045490000443A000020300000C7
:104E100078250000780A000000460000494C000098
:104E2000544500005253000000430000315200007E
:104E30005846000030530000494400003A2000006A
:104E400030780000257800000A000000433100009F
:104E5000525800004630000045490000443A000026
:104E60002030000078250000780A00000043000090
:104E70003152000058460000315300004944000000
:104E80003A20000030780000257800000A00000079
:104E900043310000525800004631000045490000EF
:104EA000443A00002030000078250000780A000015
:104EB0000043000031520000584600003253000009
:104EC000494400003A2000003078000025780000B6
:104ED0000A00000043310000525800004632000032
:104EE00045490000443A00002030000078250000C9
:104EF000780A0000002E00002E2E00002E2E00004A
:104F0000004400004D41000020300000004400003B
:104F10004D410000304300004F4E00003A20000099
:104F200030780000257800000A000000444D0000A1
:104F30004130000052450000513A0000203000008E
:104F400078250000780A0000004400004D41000070
:104F50003053000054410000483A00002030000067
:104F600078250000780A0000004400004D41000050
:104F700030530000544100004C3A00002030000043
:104F800078250000780A0000004400004D41000030
:104F90003053000054420000483A00002030000026
:104FA00078250000780A0000004400004D41000010
:104FB00030530000544200004C3A00002030000002
:104FC00078250000780A0000004400004D410000F0
:104FD00030500000414400003A20000030780000CA
:104FE000257800000A000000444D00004130000018
:104FF000434E0000543A00002030000078250000A5
:10500000780A0000004400004D41000020310000FB
:10501000004400004D410000314300004F4E0000AD
:105020003A20000030780000257800000A000000D7
:10503000444D00004132000052450000513A00004A
:105040002030000078250000780A000000440000AD
:105050004D4100003153000054410000483A000027
:105060002030000078250000780A0000004400008D
:105070004D41000031530000544100004C3A000003
:105080002030000078250000780A0000004400006D
:105090004D4100003153000054420000483A0000E6
:1050A0002030000078250000780A0000004400004D
:1050B0004D41000031530000544200004C3A0000C2
:1050C0002030000078250000780A0000004400002D
:1050D0004D41000031500000414400003A200000E2
:1050E00030780000257800000A000000444D0000E0
:1050F00041310000434E0000543A000020300000CF
:1051000078250000780A0000004400004D410000AE
:1051100020320000004400004D41000032430000F6
:105120004F4E00003A200000307800002578000043
:105130000A000000444D00004132000053540000BA
:10514000414800003A200000307800002578000037
:105150000A000000444D000041320000535400009A
:10516000414C00003A200000307800002578000013
:105170000A000000444D000041320000535400007A
:10518000424800003A2000003078000025780000F6
:105190000A000000444D000041320000535400005A
:1051A000424C00003A2000003078000025780000D2
:1051B0000A000000444D0000413200005041000050
:1051C000443A00002030000078250000780A0000F2
:1051D000004400004D410000324300004E540000E6
:1051E0003A20000030780000257800000A00000016
:1051F000444D00004120000033000000444D0000F9
:1052000041330000434F00004E3A000020300000C0
:1052100078250000780A0000004400004D4100009D
:1052200033520000455100003A2000003078000061
:10523000257800000A000000444D000041330000C2
:1052400053540000414800003A200000307800002C
:10525000257800000A000000444D000041330000A2
:1052600053540000414C00003A2000003078000008
:10527000257800000A000000444D00004133000082
:1052800053540000424800003A20000030780000EB
:10529000257800000A000000444D00004133000062
:1052A00053540000424C00003A20000030780000C7
:1052B000257800000A000000444D00004133000042
:1052C00050410000443A00002030000078250000E2
:1052D000780A0000004400004D4100003343000004
:1052E0004E5400003A20000030780000257800007D
:1052F0000A000000444D000041200000436F000000
:105300006D6D00006F6E000000440000534100000E
:10531000445200004C3A0000203000007825000084
:10532000780A00000044000053410000445200008D
:10533000483A00002030000078250000780A00007C
:10534000004400004D41000050570000433A000067
:105350002030000078250000780A0000004400009A
:105360004D41000052510000433A0000203000003F
:1053700078250000780A0000004400004D4100003C
:105380004C430000413A0000203000007825000026
:10539000780A0000004400004D4100005050000019
:1053A000533A00002030000078250000780A000001
:1053B00000000000044D00007573000074610000DF
:1053C0006E67000070650000616B00002045000002
:1053D0006E670000696E000065650000726900007C
:1053E0006E670000000000000000000000000000E8
:1053F00000000000000000000000000000000000AD
:10540000000000000000000054750000726E0000F3
:105410006F750000744200006F730000732000007D
:10542000426F00006F7400006C6F00006164000048
:105430006572000000000000000000000000000095
:10544000000000000000000000000000000000005C
:10545000000000000000000000560000657200001F
:10546000736900006F6E0000203200000000000031
:10547000000000000000000000000000000000002C
:1054800000000000323000003235000030330000F0
:10549000303100002E310000323300003431000082
:1054A00034000000000000000000000000020000C6
:1054B000201000005000000000000000000000006C
:1054C0000000000002FF00000000000000000000DB
:1054D00000000000000000000000000000000000CC
:1054E00000000000000000000000000000000000BC
:1054F00000000000000000000000000000000000AC
:10550000000000000000000000000000000000009B
:10551000000000000000000000000000000000008B
:10552000000000000000000000000000000000007B
:10553000000000000000000000000000000000006B
:10554000000000000000000000000000000000005B
:1055500002FE00000000000000000000000000004B
:10556000000000000000000000000000000000003B
:10557000000000000000000000000000000000002B
:10558000000000000000000000000000000000001B
:10559000000000000000000000000000000000000B
:1055A00000000000000000000000000000000000FB
:1055B00000000000000000000000000000000000EB
:1055C00000000000000000000000000000000000DB
:1055D00000000000000000000000000000FD0000CE
:1055E00000000000000000000000000000000000BB
:1055F00000000000000000000000000000000000AB
:10560000000000000000000000000000000000009A
:10561000000000000000000000000000000000008A
:10562000000000000000000000000000000000007A
:10563000000000000000000000000000000000006A
:10564000000000000000000000000000000000005A
:10565000000000000000000000000000000000004A
:10566000000000000000000002FC0000000000003C
:10567000000000000000000000000000000000002A
:10568000000000000000000000000000000000001A
:10569000000000000000000000000000000000000A
:1056A00000000000000000000000000000000000FA
:1056B00000000000000000000000000000000000EA
:1056C00000000000000000000000000000000000DA
:1056D00000000000000000000000000000000000CA
:1056E00000000000000000000000000000000000BA
:1056F0000000000000FB00000000000000000000AF
:105700000000000000000000000000000000000099
:105710000000000000000000000000000000000089
:105720000000000000000000000000000000000079
:105730000000000000000000000000000000000069
:105740000000000000000000000000000000000059
:105750000000000000000000000000000000000049
:105760000000000000000000000000000000000039
:105770000000000000000000000000000000000029
:1057800026EF0000EF000000000000000000000015
:105790000000000000000000000000000000000009
:1057A00000000000000000000000000000000000F9
:1057B00000000000000000000000000000000000E9
:1057C00000000000000000000000000000000000D9
:1057D00000000000000000000000000000000000C9
:1057E00000000000000000000000000000000000B9
:1057F00000000000000000000000000000000000A9
:105800000000000001EF0000FFFF0000FFFF0000AC
:105810000000000000000000000000000000000088
:105820000000000000000000000000000000000078
:105830000000000000000000000000000000000068
:105840000000000000000000000000000000000058
:105850000000000000000000000000000000000048
:105860000000000000000000000000000000000038
:105870000000000000000000000000000000000028
:105880000000000000000000000000000000000018
:10589000416C00006961000073200000416C000051
:1058A0006C6F000063610000746900006F6E00009F
:1058B0003A20000030780000253000003258000007
:1058C00020200000004E00006F64000065200000F2
:1058D00049440000206E00006F7400002066000044
:1058E0006F7500006E640000206900006E200000EB
:1058F00045450000505200004F4D0000004E000092
:105900006F6400006520000049440000206E000024
:105910006F740000206600006F7500006E64000068
:10592000206900006E200000464C0000415300003A
:1059300048000000527500006E6E0000696E0000A5
:10594000672000007468000065200000426F0000BE
:105950006F7400006C6F00006164000065720000ED
:10596000206D00006F640000653A000020610000B7
:105970006C69000061730000206900007320000062
:105980003078000025300000345800002E0A000056
:1059900000700000726500002D6C00006F61000057
:1059A0006465000064200000746800006520000049
:1059B0006E6F0000646500002C200000656E000022
:1059C00074650000726900006E67000020620000CC
:1059D0006F6F0000746C00006F6100006465000070
:1059E000722000006D6F00006465000020660000FA
:1059F000726F00006D2000007468000065200000D8
:105A00006D610000696E0000206100007070000090
:105A10006C69000063610000746900006F6E000033
:105A20002E000000616C00006C6F000063610000DC
:105A3000746900006E670000206E00006F64000053
:105A400065200000666F000072200000746800008E
:105A50006520000061200000667200006573000090
:105A600068200000626F00006F740000206C00006E
:105A70006F610000642E000000450000786900009E
:105A8000746900006E670000207400006865000003
:105A9000206200006F6F0000746C00006F610000F6
:105AA0006465000072000000426F00006F74000027
:105AB0006C6F0000616400006572000020530000FC
:105AC0007461000072740000696E000067000000DD
:105AD000426F00006F7400006C6F00006164000092
:105AE0006572000020720000756E00006E69000093
:105AF0006E6700003A2000005374000061720000DD
:105B00007465000064200000667200006F6D000084
:105B10002061000070700000004200006F6F000004
:105B2000746C00006F61000064650000722000006A
:105B3000727500006E6E0000696E0000673A00002A
:105B4000204300006F6C00006420000073740000AC
:105B500061720000742000006E6F00002061000080
:105B600070700000206900006D6100006765000032
:105B7000206600006F7500006E6400000053000096
:105B80007461000072740000696E000067200000FC
:105B900061700000706C00006963000061740000B7
:105BA000696F00006E200000627500007420000024
:105BB00063680000656300006B730000756D000092
:105BC0002069000073200000696E0000766100000B
:105BD0006C690000642C0000207200006562000007
:105BE0006F6F0000746900006E6700002E000000F7
:105BF0005374000061720000746900006E67000059
:105C000020610000707000006C690000636100009A
:105C1000746900006F6E00002E2E00002E2E000012
:105C20002E2E00002E2E00002E2E00002E2E000004
:105C3000000000004D75000073740000616E0000EC
:105C400067700000656100006B4500006E67000032
:105C5000696E000065650000726900006E670000F3
