:020000040800F2
:10000000000002204D6D0008B90E0008BB0E00086C
:10001000BD0E0008BF0E0008C10E00080000000061
:10002000000000000000000000000000C30E0008F7
:10003000C50E000800000000C70E0008C90E000829
:100040009D6D00089D6D00089D6D00089D6D000868
:100050009D6D00089D6D00089D6D00089D6D000858
:100060009D6D00089D6D00089D6D00089D6D000848
:100070009D6D00089D6D00089D6D00089D6D000838
:100080009D6D00089D6D00089D6D0008CD0E000857
:10009000D90E0008DD0E00089D6D00089D6D00085A
:1000A0009D6D00089D6D00089D6D00089D6D000808
:1000B0009D6D00089D6D00089D6D00089D6D0008F8
:1000C0009D6D00089D6D00089D6D00089D6D0008E8
:1000D0009D6D00089D6D00089D6D00089D6D0008D8
:1000E0009D6D00089D6D00089D6D00089D6D0008C8
:1000F0009D6D00089D6D00089D6D00089D6D0008B8
:100100009D6D00089D6D00089D6D00089D6D0008A7
:100110009D6D00089D6D00089D6D0008E10E0008B2
:100120009D6D00089D6D00089D6D00089D6D000887
:100130009D6D00089D6D00089D6D00089D6D000877
:100140009D6D00089D6D00089D6D0008ED0E000876
:100150009D6D00089D6D00089D6D00089D6D000857
:100160009D6D00089D6D00089D6D00089D6D000847
:100170009D6D00089D6D00089D6D00080000000049
:080180009D6D00089D6D000853
:1001900010B5054C237833B9044B13B10448AFF3C1
:1001A00000800123237010BD8800002000000000A3
:1001B0003CBD000808B5034B1BB103490348AFF32E
:1001C000008008BD000000008C0000203CBD00083D
:1001D000034613F8012B002AFBD1181A0138704787
:1001E00001F0FF01102A2BDB10F0070F08D010F8E8
:1001F000013B013A8B422DD010F0070F42B3F6D1EC
:10020000F0B441EA012141EA014122F007047FF004
:1002100000070023F0E80256083C85EA010586EA5B
:10022000010685FA47F5A3FA87F586FA47F6A5FA97
:1002300087F68EB9EED1F0BC01F0FF0102F00702A3
:1002400032B110F8013B013A83EA010313B1F8D14E
:100250000020704701387047002D06BF354603382F
:10026000073815F0010F07D1013015F4807F02BF68
:10027000013015F4C03F0130F0BC0138704700BFB9
:1002800053B94AB9002908BF00281CBF4FF0FF31FD
:100290004FF0FF3000F088B9ADF1080C6DE904CEE5
:1002A00000F006F8DDF804E0DDE9022304B0704751
:1002B0002DE9F047089D8E4604468846002B4AD11A
:1002C0008A42174662D9B2FA82F64EB1C6F12003CD
:1002D00001FA06F820FA03F3B74043EA0808B440ED
:1002E0004FEA174E1FFA87FCB8FBFEF1230C0EFBFA
:1002F000118843EA084301FB0CF29A4209D9FB1822
:1003000001F1FF3080F0EA809A4240F2E780023942
:100310003B449A1AA3B2B2FBFEF00EFB102243EA52
:10032000024300FB0CFC9C4509D9FB1800F1FF328D
:1003300080F0D6809C4540F2D3803B44023840EAAE
:100340000140A3EB0C0300211DB1F3400022C5E9DD
:100350000032BDE8F0878B4205D90DB1C5E9000137
:1003600000210846F5E7B3FA83F1002946D1734529
:1003700002D3824200F20581841A6EEB030201204F
:100380009046002DE5D0C5E90048E2E7002A00F0DC
:100390009080B2FA82F6002E40F0A4808A1A030CF4
:1003A0004FEA174E80B2BCB20121B2FBFEFC0EFB3D
:1003B0001C2243EA024304FB0CF29A4207D9FB18C1
:1003C0000CF1FF3802D29A4200F2E080C4469B1A38
:1003D000B3FBFEF20EFB123340EA034302FB04F4CC
:1003E0009C4207D9FB1802F1FF3002D29C4200F276
:1003F000CA8002461B1B42EA0C40A5E7C1F1200659
:100400008B4022FA06F71F430EFA01F420FA06F396
:100410002EFA06FE4FEA1749234300FA01F81FFAA5
:1004200087FCBEFBF9F01C0C09FB10EE44EA0E44FD
:1004300000FB0CFEA64502FA01F209D93C1900F1B5
:10044000FF3A80F09C80A64540F2998002383C44F7
:10045000A4EB0E041FFA83FEB4FBF9F309FB13446B
:100460004EEA044403FB0CFCA44508D93C1903F1F3
:10047000FF3E80F08280A4457FD9023B3C4443EAA2
:100480000040A4EB0C04A0FB02EC64457346E1467B
:1004900062D35FD05DB1B8EB030264EB090404FAE8
:1004A00006F622FA01F31E43CC40C5E900640021A0
:1004B0004FE7B1FBF2FC010C41EA0E4180B240EA89
:1004C00001423B4638463C46B846BE462026B1FB74
:1004D000F7F1A2EB080241EA0C4166E7014618E792
:1004E00010462CE7C6F120022EFA02F3B740B140C5
:1004F00020FA02F24FEA174E0A43B3FBFEF8BCB2F1
:100500000EFB1833110C41EA034108FB04F9B0401B
:1005100089454FEA104380B23ED9791808F1FF3C73
:1005200001D289451FD8A1EB0901B1FBFEF909FBF6
:1005300004F80EFB191192B242EA0142424529D257
:10054000BA1809F1FF31C4D24245C2D2A9F1020161
:100550003A44BEE7F0459DD2BEEB02036CEB070CBC
:100560000138E14696E7A7EB09094944A8F1020CD6
:10057000B1FBFEF909FB04F8DBE773467FE7504661
:1005800066E70846FDE63B44023A33E7ACF1020C6D
:100590003B441CE749469CE7A1EB0901C446B1FB7B
:1005A000FEF909FB04F8C4E7704700BF02480122C6
:1005B0004FF4005107F0CCB8000C02400248012271
:1005C0004FF4004107F0C4B8000C024070B501467A
:1005D00015461C4604480AF09BFD2A46234603485C
:1005E000BDE870400AF094BD58BD000873BD000816
:1005F0007047000010B50D4C0D484FF4804107F0D6
:10060000ACF82388052B0DD9094800224FF400517E
:1006100007F09EF8064800224FF4004107F098F8D2
:100620000023238023880133238010BDA4000020F1
:10063000000C024001480AF06BBD00BF86BD0008F7
:100640000B685B78EF2B02D101480AF061BD70475F
:10065000CFBD00080B685B78EF2B02D101480AF090
:1006600057BD7047EABD000810B50E4B8AB0012295
:100670000446694618600023CDE90033CDE9023312
:10068000CDE90632089205930993049306F068FCBD
:10069000204606F0EBFC0321204606F0D9FD0AB007
:1006A00010BD00BFA8000020024B0221186806F010
:1006B000E0BD00BFA8000020024B0321186806F02F
:1006C000C7BD00BFA800002010B5FFF7EDFF044B29
:1006D0001C7884F00104FFF7EFFF204610BD00BF37
:1006E000AC00002070B58AB00446FFF7EDFF054668
:1006F00018B9002528460AB070BD63680593042226
:100700000023CDE90623207A8DF824300493019349
:1007100004F10803C4F1FF2402A904F57F04089042
:100720000A46F834E618B0420BDC084801AB006812
:1007300004A906F0C6FC0028DBD1054B01221A7083
:10074000D8E713F8016F01F8016BEBE7A800002070
:10075000AC000020014B00221A707047AC00002052
:10076000014B00221A707047AC000020014B0022A0
:100770001A707047AC00002030B51C228FB00021E9
:1007800004460DEB02000AF0D5FC1422002102A859
:100790000AF0D0FC6B4607AA0021204606F0DCFCDC
:1007A00008B10FB030BD099B042BF3D10A9B002B7D
:1007B000F0D19DF8082042F001028DF80820089A37
:1007C00003920B9A8DF81020694604A8934203D136
:1007D00002A801F015FCDDE711F8015B00F8015FEC
:1007E0000133F3E7014B186008F0FCBBB0000020B8
:1007F00006F0B0BEF0B5134C87B001AD8C4604F1E5
:10080000100E2E46206861682F4603C708347445D1
:100810003D46F7D12068386000200146824209DC5D
:10082000BCF1000F03D131469818834205D1104620
:1008300007B0F0BD19540130F0E711F8014B03F88F
:10084000014BF2E71FBE00081046704770470000DA
:1008500008B5FFF729FF034B1868BDE8084008F00A
:10086000ADBB00BFB000002008B5FFF725FF034B6C
:100870001868BDE8084008F0B5BB00BFB000002014
:10088000034B1B68834201D102F0C0BB704700BF1D
:10089000B000002010B594B0102200210AA80AF080
:1008A00049FC1422002103A80AF044FC1F4B00213C
:1008B00001911A6C42F080521A641B6C03F0805351
:1008C0000193019B1A4B02911A6842F480421A600C
:1008D0001B6803F480430293029B01214FF4803391
:1008E0000224CDE908134FF480030420CDE90E4320
:1008F000A823CDE91003072308A81294139307F047
:10090000B9FF08B172B6FEE70F23CDE903348022A8
:100910004FF48053214603A8CDE90523079308F03F
:1009200085F908B172B6FEE714B010BD0038024078
:100930000070004080B58CB006F056FAFFF7AAFFB1
:100940001422002107A80AF0F5FB0024994B01941A
:100950001A6B994842F010021A631A6B02F01002E7
:100960000192019A02941A6B42F004021A631A6B04
:1009700002F004020292029A03941A6B42F080027F
:100980001A631A6B02F080020392039A04941A6BA2
:1009900042F001021A631A6B02F001020492049AF7
:1009A00005941A6B42F002021A631A6B02F00202FB
:1009B0000592059A06941A6B42F008021A631B6BA3
:1009C00003F00803069322460821069B06F0C0FEAA
:1009D00001221146794806F0BBFE224678484FF2C4
:1009E000100106F0B5FE01250826734807A9CDE9D8
:1009F0000765CDE9094406F0D3FD704807A9CDE9A4
:100A000007554FF00508CDE9094406F0C9FD6B48CC
:100A1000079607A902264FF49017CDE908640A94B7
:100A2000CDF82C8006F0BCFD6648079507A9CDE9F6
:100A3000087406F0B5FD04236348099407A9CDE9BD
:100A4000073406F0ADFD4FF480635F48CDF82C808D
:100A500007A9CDE90736CDE9094406F0A1FD4FF21B
:100A60001003574807A9CDE90735CDE9094406F039
:100A700097FD20235248554D099407A9CDE9073425
:100A800006F08EFDCDE907674B48514E099407A942
:100A900006F086FD2A23C5E900634FF400374FF4C2
:100AA00040132846C5E90473C5E90244AC61AC8330
:100AB00006F0DAF9034608B172B6FEE74548464A41
:100AC000464C0362C0E900424FF48042C0E9023361
:100AD000C0E90423C0E9063307F0DEFB034608B192
:100AE00072B6FEE73E483F4A4FF40074C0E9002466
:100AF0004BF68032C0E90233C0E90523C0E9073371
:100B0000046107F071FC034608B172B6FEE736488F
:100B100036498362C0E90233C0E90433C0E90643C1
:100B2000C0E908334FF482720A23C0E90012C3629D
:100B300008F0E8F9064608B172B6FEE70AF006F8D2
:100B40002B4C2C4AA6608023C4E9002320464FF694
:100B5000FF73CDE90766E360A66108F069FB08B1A1
:100B600072B6FEE7CDE9070007A9204608F08CFB26
:100B700008B172B6FEE72846FFF776FD2046FFF77C
:100B800031FE1D480E4C00F0B9FB1C4801F028FF57
:100B9000FFF72EFD1A4A1B4840F2015102F01CFAE1
:100BA00009F0F4FF4FF48051204606F0D6FD02F024
:100BB00015FAF5E700380240001002400008024034
:100BC000000C02400000024000040240F00100203E
:100BD000006400409C010020A086010000540040F9
:100BE00054010020003C0040FC0000200030014087
:100BF000B40000200014004068BF0008F0BE0008E8
:100C000088BF00085507010172B6FEE782B00D4BA0
:100C1000002100915A6C42F480425A645A6C02F4EA
:100C200080420092009A01911A6C42F080521A643C
:100C30001B6C03F080530193019B072002B006F068
:100C400037BC00BF0038024010B5044688B01422FB
:100C5000002103A80AF06EFA22681F4B9A4239D18C
:100C6000002403F5EA3301941A6C1C4842F0007228
:100C70001A641A6C02F000720192019A02941A6BC3
:100C800042F008021A631B6B03F00803029302226E
:100C9000029B0323CDE90332069303A9092307939B
:100CA00006F07EFC22462146132006F013FC13209A
:100CB00006F042FC22462146142006F00BFC1420CC
:100CC00006F03AFC15202246214606F003FC1520CA
:100CD00006F032FC08B010BD00640040000C024079
:100CE00030B5044689B01422002103A80AF022FA84
:100CF0002268144B9A4222D1134C144800250195C6
:100D0000236B43F002032363236B03F0020301937D
:100D1000019B4FF410721223CDE9032301230593A5
:100D200003A90423079306F03BFC0295236C43F4CC
:100D300000132364236C03F400130293029B09B095
:100D400030BD00BF005400400038024000040240A3
:100D500070B58CB004461422002107A80AF0EAF905
:100D60001022002103A80AF0E5F92268234B9A42D9
:100D700042D132230122CDE9032303A802230593A4
:100D800007F0FEFF08B1FFF73FFF1D4B1D48002491
:100D900000941A6C42F400421A641A6C02F4004285
:100DA0000092009A01941A6B42F001021A631A6BC6
:100DB00002F001020192019A02941A6B42F00402BD
:100DC0001A631B6B03F004030293029B0226102399
:100DD000062507A9CDE90736CDE909440B9506F0AC
:100DE000DFFB4FF4A45308480B9507A9CDE907365C
:100DF000CDE9094406F0D4FB0CB070BD003C0040C6
:100E000000380240000002400008024010B50446CD
:100E100088B01422002103A80AF08CF92268134B31
:100E20009A4220D103F58433002101915A6C104875
:100E300042F480525A645A6C02F480520192019A30
:100E400002911A6B42F001021A631B6B03F001035B
:100E50000293029BE0220223CDE9032303A9052389
:100E6000079306F09DFB08B010BD00BF00300140A5
:100E70000000024007B50F4B02689A4216D10022CB
:100E800003F509330192196C41F0200119641B6CC0
:100E900003F02003019311463720019B06F01AFB53
:100EA000372003B05DF804EB06F046BB03B05DF8F5
:100EB00004FB00BF00140040FEE7FEE7FEE7FEE78C
:100EC000FEE770477047704705F0A8BF014806F07D
:100ED000EBB900BFF0010020FFF7F8BFFFF7F6BF46
:100EE000014808F0BDB800BFB4000020014806F07A
:100EF000E1BC00BF444F00200120704708B50AF054
:100F000031F9162303604FF0FF3008BD08B50AF031
:100F100029F916230360FEE770B50D4614460E4608
:100F2000731B9C4201DC204670BDAFF3008006F8C5
:100F3000010BF5E770B50D4614460E46731B9C4237
:100F400001DC204670BD16F8010BAFF30080F5E719
:100F50004FF0FF3070474FF400534B600020704754
:100F600001207047002070470B4A116810B50346F6
:100F700009B90A491160106809490A4C0344091B60
:100F80008B4206D90AF0EEF80C2303604FF0FF30D5
:100F900010BD1360FCE700BF180200207054002051
:100FA0000000022000040000034AD2F8883043F415
:100FB0007003C2F88830704700ED00E02DE9F04F73
:100FC000294B1A7882422BD01870284BDFF8A0C02A
:100FD0001A88BCF80060DFF89CE0013292B2182752
:100FE0001A80B8464FF00009731CB3FBF8F108FBF8
:100FF00011331C019EB20EEB03135EF80400D3F80C
:1010000004A050EA0A0107D0197B1D8901F00101F3
:1010100003F1080B3DB951B9013FE5D1ACF80060CF
:10102000002082461CE05D89551BADB269B10EEB14
:1010300004035989511A89B21D29EDD9197BA3F8E6
:10104000089069F300011973E6E7F92DE4D99BF8DC
:101050000410ACF8006041F001018BF804105A81D3
:101060005146BDE8F08F00BF1E0200201C02002088
:1010700020020020280200200A4A0023F0B5104672
:101080001C46002600271481E2E8046700EB0315E4
:101090000133A97A042B21F00301A972F3D180F85E
:1010A0004040F0BDA8030020FFF7E6BF00487047AE
:1010B000A8030020024B012283F84020704700BFA4
:1010C000A8030020411EF0B589B2054640F6FE7027
:1010D000814220D8511E6FF0010443F1FF308C4251
:1010E0004FF6FF71814116D30C4C00212646208912
:1010F00030B906EB01100C01058132514360F0BD9F
:10110000D4E90070984208BF9742F2D00131042917
:1011100004F11004EBD10020F1E700BFA803002088
:1011200010B50C4900220B460C8984420CD103EB0C
:1011300002130022002000211A819A7AC3E90001DB
:1011400022F003029A7210BD0132042A01F110014B
:10115000EAD1F8E7A8030020431E9BB240F6FE72D6
:10116000934210B50DD8084900220B460C898442E1
:1011700002D103EB021010BD0132042A01F110016B
:10118000F4D10020F7E700BFA8030020431E70B58C
:101190006FF0010441F1FF329C424FF6FF7393411F
:1011A00010D3094A00241346D2E900658D4208BFD6
:1011B000864202D103EB041070BD0134042C02F10D
:1011C0001002F1D10020F7E7A803002008B5044B76
:1011D00054220021184609F0ADFF0022426508BDE7
:1011E000F0030020094AB2F8541010B54B1C9BB212
:1011F000152BB2F8564028BF00239C421DBF42F871
:101200002100A2F854300120002010BDF00300207E
:101210000B4AB2F85410B2F8563099424FF0000120
:101220000CD052F8230042F8231001339BB2142B48
:1012300094BFA2F85630A2F856107047084670477F
:10124000F00300200E4B002170B50A461D461426FF
:1012500006FB01F40131285D142920F00100285516
:1012600003F1140343F8102C03F80C2C43F80B2C57
:1012700043F8072CECD1034B1A80034B1A8070BD46
:101280004C0400204A0400204804002070B5124D90
:101290000023142202FB03F1695CC90716D40F492D
:1012A0000A88013292B20A800D490888904238BFFC
:1012B0000A80142202FB03F42E19304601F0E0F8F4
:1012C0002B5D43F001032B55304670BD0133142BC9
:1012D000E0D10026F8E700BF4C0400204A040020BB
:1012E0004804002038B1044A1388013B1380037876
:1012F00023F00103037070474A0400202DE9F84FE2
:10130000614DDFF858B22860FFF79CFFFFF75EFFE2
:10131000D5F800905D4B5E4ECBF80030D9F8183010
:10132000CBF808305B4B33605B4B73605B4BB36057
:101330005B4BF3605B4B33615B4B73615B4BB36146
:101340005B4BF3615B4B33625B4B73625B4B5C4C9F
:10135000CBF8044010220021184609F0EBFE594A50
:1013600040F81C2CA0F11C08574AC8F81420574A12
:10137000574842F8340C1546002145F83419554AAF
:101380006A60554AAA60554AEA60554A2A61554A38
:101390006A61554AAA61554AEA61554ADFF8C0A117
:1013A0002A62544A6A62544AAA62CAE90011534A3C
:1013B000534B544FC5E90B24D9F810206A63C8E990
:1013C0000134D9F80020504BC8F80C30CAF800207E
:1013D0004E4BD9F81420C8F81030CAF804204C4BF2
:1013E000C8F818301C22384609F0A4FED9F80420A9
:1013F0003A60484A7A60484ABA60484A484CFA60BB
:10140000484A3A61484A7A6100214822204609F058
:1014100091FED9F808203D4B2260D9F80C20E361F9
:10142000424B23623A4B6362414B6260A362414A82
:10143000414BA260E362414A414BE2602363414A6F
:10144000414B22616363414A414B6261A363414A5C
:10145000414BA2614046E36300F0BAFB284600F02E
:10146000C9FD504600F0FCFE384600F0BDFF58466E
:1014700000F09AF8304600F0C3F9204600F0FEF97B
:10148000BDE8F84FFFF710BEDC050020C5100008CE
:10149000B0060020B5150008CB150008E9150008B6
:1014A00085160008B9160008F51600082917000867
:1014B0006517000881170008A9170008A00600207A
:1014C000591100088D120008B51000088006002090
:1014D000B11D00084D1D0008DD1B0008791C000827
:1014E000ED1C0008071E0008411E0008451E0008EC
:1014F000DD1E0008A11F0008F11F0008091E0008DA
:10150000C5280008280600208D110008AD1000082D
:10151000D52900081D230008C52200086D220008F7
:10152000E005002085230008892300082111000818
:10153000B518000875240008411900081540000876
:101540008D1900083D400008B9190008AD41000898
:10155000F91900080D180008391A0008D8060020EB
:101560004406002010B5040E44EA01240D4920F081
:101570007F434002194424F07F4220F07F4008441A
:10158000D90B02F5D81341EA442103F6A3431944C9
:1015900021F07F4101EB106120F07F4040EA0160C3
:1015A000090A10BDA94B7A00014B1860704700BFB3
:1015B000E40600200368D3E902011A78C3E90601B2
:1015C000022161F304021A70704710B50468D4E96F
:1015D0000601FFF7C7FF2378022262F30403C4E980
:1015E0000601237010BD00000168F8B5D1E9063589
:1015F0001A0E42EA052222F07F42044623F07F4081
:10160000C3F30B335340434083EA1233C3F30B035A
:101610001B4D0B822368188A2B685B68B8B198470A
:10162000A8B921682B68088A1E68D1E90223B0474F
:101630002B68996821B12068D0E90223008A884785
:1016400023681A78032161F304021A70F8BD266832
:10165000D6E90601FFF786FF030E43EA012323F0D4
:101660007F42C0F30B3320F07F4753407B4083EA37
:101670001233C3F30B03C6E906013382CAE700BF86
:10168000E406002010B54468002323720268D36882
:101690001902084B0B40118A0B4343F0B8536360A7
:1016A000037A43F0010303721378042161F3040306
:1016B000137010BD00F0FF0010B5446800232372C2
:1016C0000268D2E90213090B41EA0351084B0B40AF
:1016D000118A0B4343F0B0536360037A43F0010374
:1016E00003721378052161F30403137010BD00BF6A
:1016F00000F0FF004168002310B50B720268094B2F
:1017000094682340148A234343F0A8534B60037A20
:1017100043F0010303721378062161F3040313708D
:1017200010BD00BF00F0FF004168002310B50B7230
:1017300002680B4B946803EA0433148A234343F092
:10174000A0534B60437CA2F8F438037A43F00103C2
:1017500003721378072161F30403137010BD00BFF7
:1017600000F0FF000268437CB2F8F4185B1ADBB2A9
:10177000022B81BF1378082161F3040313707047B3
:10178000D0E90021138A43F0835343F480134B6064
:1017900000230B72037A43F00103037213780921CB
:1017A00061F304031370704713B50446D0E90020B9
:1017B000138A43F0102343F4E003436000230093B3
:1017C000D2E9022300F064FE237A43F0010323727E
:1017D00023681A78188A42F040021A70074A126881
:1017E00052689047837A43F00203837223681A7821
:1017F0000A2161F304021A7002B010BDE406002051
:10180000014B1860704700BFE806002003681B7892
:1018100003F01F03092B2ED8DFE803F005090D1193
:1018200015191D212529144B1B681B681847124BDD
:101830001B685B68FAE7104B1B689B68F6E70E4B6A
:101840001B68DB68F2E70C4B1B681B69EEE70A4B71
:101850001B685B69EAE7084B1B689B69E6E7064B78
:101860001B68DB69E2E7044B1B681B6ADEE7024B7F
:101870001B685B6ADAE77047E806002010B50A4B80
:101880000A4C1860204600F0FBFD094B197A5C6099
:10189000002262F300011972197C1A6062F30001E0
:1018A0001974DA6010BD00BF14070020EC06002098
:1018B000000700202DE9F047204E33681B68984749
:1018C0003368DB69984790F840800546B8F1000F0F
:1018D0002ED0002700F108093B0139F803400CB372
:1018E0002B449B7ADB071DD5336820461B6A98473B
:1018F000336820465B699847044698B103884FF0E7
:10190000000A23F47C63A0F810A00380D0F800093B
:1019100018B101F035F8C4F800A92378012262F368
:10192000040323700137042FD6D1002385F84030FB
:1019300033685B6898474046BDE8F087140700208D
:1019400038B5104CE3684BB90F4D2B681B689847AE
:10195000FFF75EFC2B68E0605B689847E06880B149
:10196000094D2B689B68984750B12B681B689847B6
:10197000E068FFF7B7FC2B685B6898470023E360DB
:10198000012038BD000700201407002010B5084CC6
:10199000207A10F001000AD0064B60681B689B6833
:1019A000984718B1237A23F001032372012010BD58
:1019B000000700201407002038B50D4C2368ABB990
:1019C0000C4D2B680620DB689847206060B10378D7
:1019D00003F01F03092B07D82B685B6A98472B6815
:1019E00060749B6920469847012038BD0020FCE7C1
:1019F000000700201407002038B50D4D0D4C2B6852
:101A000006201B699847206078B1037803F01F0314
:101A1000092B01D9002038BD2B685B6A98472B68D9
:101A200060749B6920469847F4E70120F3E700BF04
:101A300014070020000700202DE9F3411D4C236806
:101A40005B6A9847FFF7BAFA50EA010380460F46EF
:101A500003D1002002B0BDE8F08123680620DB68D6
:101A6000984706460028F4D0038A002BF1D023685B
:101A70001B689847FFF70AFC236805465B68984790
:101A8000002DE6D0368A46F08356002346F48116B0
:101A900042466E60284600933B4600F0F9FC2368FE
:101AA0001B6898472846FFF79DFB23685B689847AB
:101AB0000120CFE71407002010B5134C23681B68E2
:101AC000984723685B6A984700F086FE23685B6846
:101AD00098472368DB6B03B1984723689B6A984754
:101AE00080B92368DB6A984760B923681B6B984705
:101AF00040B923685B6B984720B92368BDE8104064
:101B00009B6B184710BD00BF140700202DE9F04162
:101B10001E46174B1B6886B05B68074600200D46C3
:101B2000904698470446F8B141F6484240F64823AB
:101B3000904518BF6823049300220023CDE90223B7
:101B40003946009502F06EFB29462046002202F03D
:101B5000BEFB20460222314602F0B9FB204606B009
:101B6000BDE8F04100F0A0BD06B0BDE8F08100BFC7
:101B70001807002073B5144D00F0ECFC2B689B682F
:101B800006469847044650B1837A43F001038372B6
:101B90002B685B699847A37A9B0702D4012002B0A7
:101BA00070BD2B681B68984705460028F6D0074B88
:101BB0003343436000230093D4E9002300F068FC22
:101BC0002846FFF70FFBE9E71807002000307010E8
:101BD000014B1860704700BF180700202DE9F0473F
:101BE00086B089461446804600F0B8FC064640465A
:101BF00000F0B0FC0546404600F0D5FC31460746F3
:101C00000246284600F0B2FD48B142F242033A468D
:101C10002946304606B0BDE8F047FFF777BFDFF84A
:101C200054A0DAF8003020465B689847044610B9A3
:101C300042F22003EBE700220023CDE902232946EC
:101C40000497009602F0EEFADAF800309B699847A4
:101C5000237884F8200043F0020323704A4641466B
:101C6000204600F04AFC204606B0BDE8F04700F0F0
:101C70006BBD00BF180700202DE9F04789460546D7
:101C800000F06CFC0646284600F064FC0746284637
:101C900000F089FC314602468046384600F066FD79
:101CA000044640B942463946304642F24103BDE857
:101CB000F047FFF72BBF0C4B1B689B69984794F8C4
:101CC0002030C01AC0B21D2806D9204600F066FD9B
:101CD000204600F055FEE5E74A4629462046BDE885
:101CE000F04700F00ABC00BF180700202DE9F047BC
:101CF0008946054600F032FC0646284600F02AFCDC
:101D00000746284600F04FFC3146024680463846DA
:101D100000F02CFD044640B942463946304642F2B6
:101D20004103BDE8F047FFF7F1BE4A46294600F0FF
:101D3000E4FB237823F002032370204600F02EFDFD
:101D40002046BDE8F04700F0AFBC00002DE9F041AF
:101D5000164B1B6886B05B68054610460E469847D2
:101D6000044600B3284600F0F9FB8046284600F000
:101D7000F1FB0746284600F016FC00230022CDE9BF
:101D80000223049039462046CDF8008002F04AFA3A
:101D900032462946204600F0B0FB204606B0BDE89A
:101DA000F04100F081BC06B0BDE8F08118070020CA
:101DB0002DE9F0410D461646044600F0CFFB804663
:101DC000204600F0C7FB0746204600F0ECFB4146EA
:101DD0000246384600F0CAFC30B932462946204651
:101DE000BDE8F041FFF7FABE214600F000FC0528EF
:101DF0002946204603D8BDE8F041FFF73DBFBDE8C6
:101E0000F041FFF773BF704738B5B0B10B4D00F02C
:101E1000A1FB2B689B680446984770B12B681B6830
:101E2000984750B144F08354002244F48014027265
:101E30004460BDE83840FFF7D5B938BD1807002029
:101E4000FFF798BE2DE9F843234D0446FFF792FEB5
:101E50002B681B6A002B3DD0204600F06BFB06462A
:101E600020460F4600F076FB2B6802461B6A304680
:101E700039469847002540F2EB58A8B200F0A2FC82
:101E8000044620B303789B0721D5438843451ED1E0
:101E9000002102F09BFA01218146204602F096FAC9
:101EA000B9F1300F13D1012811D10321204602F0DE
:101EB00075FA8F4208BF864209D1237823F00203C6
:101EC0002370204600F06AFC204600F0EDFB01354F
:101ED000292DD2D1BDE8F883180700202DE9F34160
:101EE0000446FFF747FE0646002854D12B4D227AC0
:101EF0002B680AB32046DF6800F01CFBB847044695
:101F0000002848D0837A9A0745D52B681B689847E4
:101F1000054600283FD0238943F0102343F4E00313
:101F200043600096D4E9002300F0B2FA284602B0DC
:101F3000BDE8F041FFF756B99B6A03B198472B689B
:101F40001B6998470027804604462289F2B108EBB6
:101F500007139B7A9B0719D52B681B6A13B1D4E929
:101F6000000198472B681B689847064670B1238983
:101F700043F0102343F4E003436000230093D4E9CB
:101F8000002300F085FA3046FFF72CF90137042FC3
:101F900004F11004D9D102B0BDE8F0811807002087
:101FA00070B50446FFF7E6FD204600F0D3FA0026A0
:101FB0000446B0B200F006FC054638B18388A3425F
:101FC00004D100F0EBFB284600F0DAFC0136292EA4
:101FD000EFD1204600F094FB044B1B685B6A1BB1F9
:101FE0002046BDE87040184770BD00BF18070020AC
:101FF000FFF7C0BD014B1860704700BF1C070020F1
:1020000070B5874D2B685B6B044603B1984720463B
:1020100000F006FB6368002800F0B98003F0E0627E
:10202000B2F1806F00F09B800AD8B2F1007F7BD0C4
:10203000B2F1407F00F08380B2F1807F15D070BD97
:10204000B2F1A06F00F09780B2F1E06FF7D12B688A
:1020500020461E6B00F082FAB0470028EFD02B68B4
:102060005B69002BEBD0032253E013F400412A6894
:1020700038D02046166B00F071FAB0470028DED049
:10208000627A616802F03002202A28D00CD8C1F3AD
:102090000B3140F60820D2B981422B680FD11B6862
:1020A000002BCCD002220DE0302AC8D12B68DB688F
:1020B000002BC4D002212046BDE8704018475B6861
:1020C000002BBCD002212046BDE8704018472B6889
:1020D00081429B68E4D0002BB1D00022F2E72B684C
:1020E0001B69E5E7C3F30B3340F61570834212D04A
:1020F00040F616718B4208D040F614718B420ED018
:102100005368002B9BD0002203E09368002B96D0ED
:1021100002220021D7E7D368002BCCD18FE71369C7
:10212000002B8CD00021C6E72B6820461E6B00F0E8
:1021300015FAB047002882D02B685B68E1E72B686E
:1021400020461E6B00F00AFAB04700283FF477AF34
:102150002B689B68002B3FF472AF0122D9E72B68F4
:1021600020461E6B00F0FAF9B04700283FF467AF35
:102170002B68DB68D4E72B6820461E6B00F0EEF975
:10218000B04700283FF45BAF2B681B69C8E713F02A
:10219000E06234D1234A24491A408A4229D009D81E
:1021A000B2F5E00F1CD0214B9A427FF448AF2B6868
:1021B000DB6917E01E498A421ED0FFF440AF01F5EB
:1021C00070418A4206D008D81A4A1A40B2F5E20F86
:1021D0007FF435AF2B689B6A04E0174B9A42F7E710
:1021E0002B689B69002B3FF42AAF2046BDE8704066
:1021F00018472B681B6AF5E72B685B6AF2E7B2F1B8
:10220000806F09D008D9B2F1C06F05D003F0A06388
:10221000B3F1A06F7FF413AF2B68DB6AE2E700BF76
:102220001C07002000F0FF0000207000001070006C
:102230000030700000E0FF000030710070B5074E04
:1022400033681B680546984733685B68044613B1DA
:1022500008B128469847204670BD00BF20070020DF
:10226000014B1860704700BF20070020F8B50746F3
:102270000023154612880C4600F023F9798BBB88A1
:1022800008290646F8880CD843EA003343F0D053B7
:1022900063602046FFF7D2FF10B12B881E442E80CA
:1022A000F8BD2A88072A43EA003302D843F0D853FE
:1022B000EEE732448A42B4BF43F0E05343F0E853C0
:1022C000E6E70000F8B5438B082B06460F46144698
:1022D00015D81288002300F0F4F872880B4B03EA3B
:1022E0000233B288134343F0C85305467B60384637
:1022F000FFF7A4FF10B123881D442580F8BD044BCF
:10230000044A05484FF49D7108F052FD00F0FF00AB
:1023100033BE0008D010010839BE0008F8B5C388E4
:102320008B7215461A0A4A724288154B03EA023329
:1023300082881343074643F0C8532A884B60022320
:102340000C4600F0BEF87A8B062A064604F1090016
:102350000AD8002102F051F82046FFF76FFF10B1B4
:102360002B881E442E80F8BD2B88052B01D8102108
:10237000F0E733449342B4BF30212021EAE700BFA5
:1023800000F0FF0001207047FFF758BF70B51646F8
:1023900004460D4602F037F8124AF8B16388126815
:1023A00040F6C8418B420AD00BD823F0200140F6FA
:1023B0008800814203D040F668018B420CD113693A
:1023C00004E041F648418B4206D1D36832462946A3
:1023D0002046BDE8704018475368F7E713689B68CC
:1023E000F4E700BF24070020014B1860704700BFCE
:1023F0002407002030B503785B0787B0044602D578
:10240000012007B030BD1A4DC2882B686AB9D0E9E7
:10241000040150EA010208D09B6933B198470028B3
:10242000EED00389002BEBD0E3800023ADF802301F
:102430002B681B68984708B90020E2E7638B0DF111
:10244000020201A9204613B9FFF7A0FFD9E7FFF761
:102450009DFF0028F0D0628BBDF802309A42CFD9A0
:102460000DF1020201A92046FFF790FFF3E700BF3C
:1024700024070020014B1B685B69184724070020D4
:10248000002343600372C0F80930C0F80D30704774
:1024900010B59DF80840022C014610D8A01DC0B20E
:1024A0000F3408722144062401F8012D013C4FEA43
:1024B000122242EA03624FEA1323F5D110BD002035
:1024C000FCE7F0B50546002008726E8B9EB11C46F5
:1024D00001F1090C072C02DD03440B72F0BDEF691A
:1024E000BF5C0CF80470013292B201309642C0B267
:1024F000F2D90134EEE73046F0E7F8B50E4615465E
:102500000446007E01F084FE2B4606F10901327A72
:102510009A4202DC581BC0B2F8BD628B8242F9D2EB
:10252000E76911F803C007F802C0628B01326283C9
:102530000133ECE710B5C47A837B417A827A43EAAF
:102540000463047B407B43EA044343EA002042EAFD
:10255000012110BD4068C0F30B007047436803F0D1
:10256000E061B1F1806F024618D011D803F0C0606D
:10257000B0F1007F12D0B1F1807F12D113F400408E
:1025800010D0537A907A1B0203F47063184370479B
:10259000B1F1A06F02D0B1F1E06FEEE7C3F30B3001
:1025A000704700207047406800F0E063B3F1806F2F
:1025B00018D011D800F0C062B2F1007F12D0B3F190
:1025C000807F12D1C0F30B30A0F6147240F6147362
:1025D000022A98BF18467047B3F1A06F02D0B3F13A
:1025E000E06FEEE741F6484070470020704738B58D
:1025F0000B46C1F1FF2101F57F0113F8085F0024AC
:10260000F831CA18954204DC01F001FF2044C0B241
:1026100038BD13F8012F002AF3D10134E4B2F0E7FA
:102620004068C0F3C0607047014B1860704700BF3E
:1026300028070020134B00222DE9F041044698465C
:1026400010464FF0300E0EFB028595F820C01CF0AE
:10265000040F10D0D3E900768E4208BFA7420AD1FA
:102660001CF0020F04D09E6A16B12846BDE8F08126
:10267000002808BF18460132082A03F13003E2D1CE
:10268000F4E700BF30070020FFF7D4BF08B5054BC3
:10269000A8220021184608F04DFD0022C0F8A8200D
:1026A00008BD00BFB0080020094AB2F8A81010B554
:1026B0004B1C9BB22A2BB2F8AA4028BF00239C4295
:1026C0001ABF42F82100A2F8A830002010BD00BFB8
:1026D000B0080020094AB2F8AA30B2F8A81099420E
:1026E00009D052F8230001339BB2292B88BF002365
:1026F000A2F8AA3070470020704700BFB008002041
:1027000030B530B10B49B1F8AA30B1F8A8509D42AC
:1027100000D130BD51F8232032B19488844202BFE9
:10272000147844F00404147001339BB22A2B28BFA0
:102730000023ECE7B00800200248A422002108F0A2
:10274000F9BC00BF5C09002010B5074A0023114600
:1027500052F8044B14B941F8230010BD0133292B62
:10276000F6D10020F9E700BF5C09002070B50A4DE2
:102770000446002355F8040B40B1C6888E4205D1AB
:102780008688A64202D14688964203D00133292B7F
:10279000F0D1002070BD00BF5C09002010B548B129
:1027A000074A0023114652F8044B844203D1002209
:1027B00041F8232010BD0133292BF4D10020F9E783
:1027C0005C09002028289ABF024B53F82000002003
:1027D000704700BF5C090020F8B50B4D0646292460
:1027E000002755F8040B60B103789B0709D590F8D2
:1027F0002030F31ADBB21D2B03D945F8047C00F01E
:10280000BFF8013CEDD1F8BD5C0900202DE9F84F7F
:10281000224C0025A4F1980704F5CD68A7F5CF5602
:10282000A1464FF0010AAB46204601F028FD1F2DBE
:1028300021DC84F818B0C4F81C800135292D04F17E
:10284000280408F1100807F1480706F58076EBD157
:10285000134A00231380134A1380134A1380134A28
:102860001380134A1380134A1380134A1380134AA8
:102870001380BDE8F88F232D03DC84F818A0E761EE
:10288000DBE7282D09BF0323022389F858360C4BB8
:102890001ABF2376E661C9F85C36CEE7100A00203D
:1028A0000E0A00200C0A00200A0A0020080A002054
:1028B000060A0020040A0020020A0020000A002064
:1028C00098170020032870B507D8224B224D1A5CB8
:1028D000224B1B5C28219A4201DC002420E001FBF2
:1028E00003F6AC19A85DC00731D4204601F0C7FC3F
:1028F000012384F82130AB5D43F00103AB55237E07
:10290000032B0DD8DFE803F0020E151C144A1388C0
:1029100001339BB21380134A1188994200D213806D
:10292000204670BD104A138801339BB213800F4AB2
:10293000F2E70F4A138801339BB213800D4AEBE78D
:102940000D4A138801339BB213800C4AE4E701332C
:10295000C1E700BFFA100108100A0020FE100108AC
:102960000E0A0020060A00200C0A0020040A00209B
:102970000A0A0020020A0020080A0020000A00209B
:10298000C0B190F82130013BDBB280F821308BB927
:10299000037E032B07D8DFE803F0020E1012094A6A
:1029A0001388013B13800378002262F3000380F850
:1029B000212003707047044AF2E7044AF0E7044A12
:1029C000EEE700BF0E0A00200C0A00200A0A0020D1
:1029D000080A0020014B1878704700BFA01700209C
:1029E0002DE9F74FAB4CDFF8EC832060FFF70EFFCB
:1029F000FFF7A2FEFFF74AFE2468A74A636B136045
:102A0000A64AA74B1360A74B5360A74BC8F80030EA
:102A1000A64BC8F80C30A64BC8F81030A54BC8F828
:102A20001430A54BC8F82030A44BC8F82430A44B70
:102A3000C8F82830A34BC8F82C30A34BC8F8303066
:102A4000A36BC8F83430A149A14BC8F80410002189
:102A5000C3E900119E4F9F4B47F8043CA36847F819
:102A60000439E2680197BA609B4F9C4E3B609C4FD3
:102A7000E36A3B60C8F81860236B9A4E9A489B4DF6
:102A8000C8F80800C8F81C507B60E36B3360236C07
:102A90007360636C3363A36CB360E36CF360236DAA
:102AA0003361636D7361A36DB361E36DF361236E95
:102AB0003362636E7362A36E8D4DB362E36EF36235
:102AC000236F73634FF4DC72636FB363284608F0BF
:102AD00031FB23682B6063686B60864BAB60864B71
:102AE000EB60864B2B61864B6B61864BAB61864BF3
:102AF000C5F8B830854BC5F8C030854BC5F8CC302B
:102B0000844BC5F88031844BC5F88431834BC5F8BC
:102B10008831834BC5F88C31824BC5F89031824B9C
:102B2000C5F89431814BC5F89831814BC5F89C317B
:102B3000804BC5F8A031804BC5F8A4317F4BC5F858
:102B4000A8317F4BC5F8AC317E4BC5F8B0317E4B18
:102B5000C5F8B4317D4BC5F808317D4BC5F80C3153
:102B60007C4BC5F810317C4BC5F814317B4BC5F854
:102B700018317B4BC5F81C317A4BC5F820317A4BA4
:102B8000C5F82431794BDFF850B2442200211846B1
:102B900008F0D0FAA0F10807754B7B60A368BB6012
:102BA000744BFB60744B3B61744B7B61744BBB613A
:102BB000744BFB61744B3B62744B7B62744BBB6226
:102BC000744BFB62744B7B63744BBB63744BFB6352
:102BD000A369BB64734B40F808BC3022002118463F
:102BE00008F0A8FAA0F1080A614BCAF80430E368BB
:102BF000CAF80830A368CAF80C306B4BCAF8183012
:102C00006A4BCAF82030A36ACAF82C30E369CAF8C4
:102C10003030674B40F808BC34220021184608F0D9
:102C200089FAA0F10C09524BC9F80430614BC9F87C
:102C30000830614BC9F81030604BC9F81C30236A6A
:102C400040F80CBCC9F82C30DFF890B1636AC9F8C1
:102C500030302369C9F83830F4226369C9F83C3050
:102C60000021584608F066FA2368CBF80030636804
:102C7000CBF80430524BCBF80C30524BCBF8183019
:102C8000514BCBF82030514BCBF82430504BCBF884
:102C90002830A5E0A4170020781A00207C1A002014
:102CA000CF610008AD610008F5230008B9320008C3
:102CB000493300087134000899300008F5300008E5
:102CC0005D31000881310008B93100081540000865
:102CD000701A0020993E0008681A00203D3700084D
:102CE000601A0020241A00203D4000080542000818
:102CF0006C180020C94E0008ED4E0008154F000862
:102D00003D4F0008654F00082D520008555200083D
:102D100005520008014A0008214A0008414A0008FB
:102D2000654A0008894A0008AD4B0008CD4B0008F1
:102D3000ED4B00080D4C0008AD4A0008D14A0008D0
:102D40002D4C0008F54A00084D4C00087D52000843
:102D500097520008B3520008CF520008EB52000807
:102D600007530008235300083F5300082818002089
:102D7000FF540008316B00084F6B0008736B0008AC
:102D8000976B0008BB6B0008DF6B0008016C000844
:102D9000556C0008794D0008A54D0008F94D000854
:102DA0006D4E0008F01700205D530008A153000885
:102DB000B4170020AD4800085F490008414B0008E7
:102DC000D529000871400008E9360008B1680008FC
:102DD0001D690008841A002039540008BC1A00201C
:102DE000504BCBF82C30504BCBF830304F4BCBF80E
:102DF00034304F4BCBF838304E4BCBF83C304E4B49
:102E0000CBF840304D4BCBF844304D4BCBF84C30E9
:102E10004C4BCBF850304C4BCBF854304B4BCBF8A1
:102E200058304B4BCBF85C304A4BCBF860304A4BB8
:102E3000CBF86430494BCBF86830494BCBF86C3059
:102E4000484A494BCBF80820CBF87030474A484BEA
:102E50004849CBF81C20CBF87430474A4748484BC8
:102E6000CBF81010CBF84820CBF81400CBF8783012
:102E7000444BCBF87C30444BCBF88030434BCBF801
:102E80008430434BCBF88830424BCBF88C30424BEC
:102E9000CBF89030414BCBF89430414BCBF8983085
:102EA000404BCBF89C30404BCBF8A0303F4BCBF89D
:102EB000A4303F4BCBF8A8303E4BCBF8AC303E4B68
:102EC000CBF8C0303D4BCBF8C4303D4BCBF8CC30C9
:102ED0003C483D4BCBF8C83003F024FE284602F0B6
:102EE000A5FA384601F042FF504602F085F94846FF
:102EF00001F0D6FC304603F053F9344803F0D2FC1D
:102F0000334801F05FF8334800F0D0F9404600F054
:102F100085F8584600F052FB019803B0BDE8F04F29
:102F2000FFF782BBED690008BB690008F169000882
:102F3000F5690008496A000821690008B1690008BC
:102F400091360008413B0008A93B0008CD3B000832
:102F50001D3C0008653C0008AD6C0008416D000890
:102F6000F1610008F5230008A96200080542000885
:102F7000D9620008154000083D3700083D400008B0
:102F80000963000839630008696300089963000851
:102F90005564000885640008BD640008F5640008F5
:102FA0002D6500087B6700085D6500089D670008C7
:102FB000CD670008056800084D5500080560000849
:102FC00019600008681A0020FF540008601A0020E9
:102FD000781A00207C1A002001F060B810B5FEF7C6
:102FE0006BFD00F003F900F05BFE074B1C78E4B2C8
:102FF000204601F0F7F8204603F035F82046BDE8FA
:10300000104003F031B800BFA0170020024A137827
:103010000133DBB213707047A017002038B51A4C8B
:103020001A4B0025186004F1380304F11000E36224
:10303000A06084F8285001F022F9A06801F010F98E
:10304000A268137843F0010313702560104C04F15B
:10305000400304F118006363042384F830302061D6
:1030600001F00DF9206901F0FBF82269137843F0B3
:1030700001031370237A656065F300032372054B27
:1030800025601D7038BD00BF001D0020481D0020B8
:10309000B81B0020B01B002010B504460068037860
:1030A00003F01F030A3B032B1CD8DFE803F00209DF
:1030B0000D110F4B1B68DB682046BDE81040184718
:1030C0000B4B1B685B69F7E7094B1B681B69F3E750
:1030D000074B1B685B6B33B923681A780E2161F3C9
:1030E00004021A7010BD98470028F5D1FAE700BF16
:1030F000481D002038B5154C207B10F001000FD082
:10310000134DA0682B681B68984740B12B68DB699A
:103110009847012805D8237B23F00103237301205E
:1031200038BDA3680B4C227A636022F00102227240
:103130001A7842F008021A702B6809205B689847D9
:10314000054B206001221A70E9E700BF001D002036
:10315000481D0020B81B0020B01B0020064808B501
:10316000037B13F0020305D0044B1B681B6A9847CE
:10317000012008BD1846FCE7001D0020481D002066
:1031800038B50B4C23688BB90A4D2B6805205B685A
:103190009847206040B1037803F01F030D2B03D83C
:1031A0002B6820461B6A9847012038BD0020FCE7A9
:1031B000001D0020481D002038B50A4C206880B151
:1031C000094D2B6805209B689847206040B1037823
:1031D00003F01F030D2B03D82B6820461B6A98476A
:1031E000012038BD001D0020481D002070B52B4E69
:1031F0002B4D32782B686AB12A4C2B68227DD1077F
:103200001ED51B682069984718B1237D23F0010360
:10321000237570BD5B6A98470028FAD13378002B7C
:10322000EAD12B689B6A98470028F2D12B68DB6AA9
:1032300098470028EDD12B68BDE870401B6B1847FC
:10324000227AD20704D520469B69BDE87040184712
:1032500022680AB93270E4E7127802F01F020E2ADF
:1032600012D02B6809209B689847206090B9307075
:1032700060600D4B99680A7822F008020A701A7B88
:1032800022F001021A73C4E79B692046984723681D
:10329000002BE6D13378002BBBD1EAE7B01B00202E
:1032A000481D0020B81B0020001D0020014B1860A5
:1032B000704700BF4C1D0020F0B50368D3F8F0281C
:1032C000198AD2F8802087B0002600271202CDE9A3
:1032D000026754BF4FF4807240F201120025044689
:1032E00004920095D3E90223806800F09BFF2368D5
:1032F0000095D3E90223A06801F03CF8A3680622F8
:103300005A8323681A7883F8EA5842F080021A70C8
:10331000B3F8E82883F8825402F0FE0242F001027A
:10332000A3F8E828B3F8802402F0FE02A3F8802472
:10333000227B42F0010222731A780C2161F304020D
:103340001A7007B0F0BD00002DE9D04304460068B4
:10335000B0F88834B0F8902853EA020186B00BD157
:1033600003780B2262F304030370237B61F30003F1
:10337000237306B0BDE8D08390F8EA1891422CD2AE
:1033800040F22453018A049300220023CDE9022352
:1033900000230093D0E90223A06800F043FF2368D4
:1033A00093F8EA2803EB021101F69803B1F8A0287C
:1033B000D3E9000101F09EF902460B46A06800F037
:1033C0006FFF226892F8EA38013382F8EA38237BEB
:1033D00023F0030343F00303CAE790F8E9188B4294
:1033E00026D9224B1B681B689847226892F8E93857
:1033F000118A493302EB03134FF000084FF0000924
:10340000D3E90067CDE90289002304900093D2E953
:103410000223A06800F006FF32463B46A06800F099
:103420003FFF226892F8E938013382F8E938CEE7A5
:10343000B0F8E83803F0FE03A0F8E838B0F88034BC
:1034400003F0FE03002243F0010380F8EA2880F82D
:103450008224A0F88034237B23F0030323730378B2
:103460000B2262F30403037083E700BF4C1D0020AE
:103470002DE9D04304460068038CB0F8282453EAB1
:10348000020186B00BD103780D2262F304030370AE
:10349000237B61F30003237306B0BDE8D08390F86B
:1034A000821491422DD240F2A443018A0493002257
:1034B0000023CDE9022300230093D0E90223A06872
:1034C00000F0B0FE236893F8822403EB021143322C
:1034D00003EB0213B1F83824D3E9000101F00AF933
:1034E00002460B46A06800F0DBFE226892F88234A8
:1034F000013382F88234237B23F0030343F0030378
:10350000C9E790F881148B4225D9204B1B685B6872
:103510009847236893F88124198A03EB02124FF02D
:1035200000084FF00009D2E90A67CDE902890022BC
:1035300004900092D3E90223A06800F073FE3246A3
:103540003B46A06800F0ACFE226892F8813401335B
:1035500082F88134CFE7B0F8E83803F0FE03A0F832
:10356000E838B0F88034002203F0FE0380F8EA283F
:1035700080F88224A0F88034237B23F00303237394
:1035800003780D2262F30403037085E74C1D0020CD
:1035900038B5084C63685BB1074D2B681B689847CA
:1035A0006068FFF7EDF92B685B689847002363605C
:1035B00038BD00BFA0250020E826002070B5294BAB
:1035C000294D1860042605F1400305F118006B63CE
:1035D000286185F8306000F052FE286900F040FE56
:1035E0002A69137843F0010313702B7A002464F3E3
:1035F00000032B726C602C601C4D05F1400305F13B
:1036000018006B63286185F8306000F038FE286987
:1036100000F026FE2A69137843F0010313702B7A19
:10362000134A6C6064F300032B72124B2C601C7005
:10363000114B136003F12802DA611E760F4B1C70E8
:103640000F4B43F80C3C0134052C03F8106C03F5C8
:103650009473F6D10B4A002313700B4A13700B4A74
:10366000137070BDE8260020A025002058240020FB
:10367000541D002050240020581D0020501D002003
:10368000B01E0020821E0020811E0020801E00200F
:10369000036830B533B3406808B30278140707D520
:1036A000D3E90251D0E90242914208BFA54219D0A4
:1036B00093F90020002A15DA4288110710D51C8AD8
:1036C000C1888C420CD0D3E90251D0E9044399421D
:1036D00008BFA54204D0A2F592635842584130BDBC
:1036E0000120FCE70020FAE7F0B5044687B010B3EC
:1036F000036803B30069F0B16268E2B16825198A12
:103700000495D2E90267CDE9026792880092D3E975
:10371000022300F087FD2069002241F2430100F0FE
:10372000D6FD636820695988022200F0D0FD237D10
:1037300043F00103237507B0F0BD00002DE9F0410F
:103740000446002800F0F781AB4D2B68DB6C9847EE
:10375000002800F0F0816068438840F2EB52934209
:1037600000F0BC8100F29480B3F5996F50D240F222
:10377000C342934224D8B3F5B97F32D2B3F5B87FB0
:1037800080F05081B3F5807F00F0438122D8682B10
:1037900000F04B81A82B00F04B810146206800F01F
:1037A00045FE002800F0C7812B6822E1A3F24553B3
:1037B000022B00F26581DFE813F07D0181015F01DA
:1037C000A3F2C543022B00F23C81DFE813F03D0178
:1037D0004001370140F201129342DED12B689B6A0F
:1037E00010E1B3F5926F00F01A810AD840F2E912A5
:1037F000934200F07781B3F5916FCED12B68DB6AED
:1038000000E140F2A4429342C7D12B681B6FF9E05C
:10381000B3F5A96F0BD240F243529342C6D840F29F
:1038200024529342B9D12B68D3F88830EAE040F2B1
:103830009452934200F04A8140F2B4529342ACD188
:1038400000F0BEFD2B68D3F8E43007460E4643B1C6
:10385000236893F8043923B900F062FF002840F090
:103860001E812B68D3F8F030002B00F033812368E1
:10387000D3F80839002B00F02D813846314600F08E
:103880006DFF002800F026812B68D3F8F01009E1C5
:1038900040F6C812934200F02D8167D840F6A80286
:1038A000934200F044811AD840F66802934200F037
:1038B0003A810BD8B3F5CD6F00F0AE8040F6280208
:1038C00093427FF46AAF2B681B6C9BE040F6880242
:1038D00093427FF462AF2B68D3F8DC3092E040F67D
:1038E0006812934200F0EE8038D840F6F40293421A
:1038F00000F0A18040F6141293427FF44EAF00F026
:103900005FFD2B68D3F8E83007460E46002B00F029
:10391000A28000F01BFF002800F09D8022682B6829
:10392000D2F80829002A40F09A802B6804209B696D
:103930009847002800F0FF80304B1B78002B40F0A8
:10394000FA802B68D3F8EC50002D00F0F4803A4652
:10395000334620462946BDE8F0410847B3F5176FC6
:103960007FF41BAF2B68D3F8A0304BE040F6A85291
:10397000934200F0BB801BD840F64822934200F0EF
:10398000CE800CD840F60822934239D040F6282247
:1039900093427FF402AF2B68D3F8C43032E040F694
:1039A000C84293427FF4F9AE2B68D3F8D0201DE0D3
:1039B00041F64842934200F0A1800CD840F6E8520C
:1039C000934211D040F6147293427FF4E6AE2B6816
:1039D000D3F8AC3016E041F6887293427FF4DDAE46
:1039E0002B68D3F8D82001E02B685A6E002A40F0EB
:1039F00089801B6A09E000BFE826002051240020CE
:103A00002B689B6E002B00F096802046BDE8F041AD
:103A100018472B685B6AF5E72B685B6CF2E72B684D
:103A20001B6BEFE72B685B6BECE72B689B6BE9E7A5
:103A30002B68DB6BE6E72B68DB6EE3E72B685B6FDD
:103A4000E0E72B689B6FDDE72B68DB6FDAE72B681D
:103A5000D3F88030D6E72B68D3F88430D2E73A46E3
:103A6000D3F8E810204633468847237DDB0742BF62
:103A7000324B01221A7058E72B68D3F88C30C1E71B
:103A80002B68D3F8E4308BB1236893F804396BB911
:103A900000F096FC07460E4600F042FE30B12B685F
:103AA000D3F8E4103A463346204654E72B68D3F85F
:103AB0009030A7E72B68D3F89430A3E72B68D3F8AE
:103AC00098309FE72B68D3F89C309BE72B68D3F89E
:103AD000A43097E72B68D3F8A83093E72B68D3F886
:103AE000B02083E72B68D3F8B4308BE72B68D3F88A
:103AF000B8207BE72B68D3F8BC3083E72B68D3F87A
:103B0000C0201AB12046BDE8F0411047D3F8C830B4
:103B10008BB120464FF48251BDE8F04118472B6825
:103B2000D3F8CC306EE72B68D3F8D4306AE72B6833
:103B3000D3F8E0205AE7BDE8F08100BF512400200F
:103B400038B5154C207D10F001000FD0134D2069C1
:103B50002B689B68984740B12B68DB699847012820
:103B600005D8237D23F001032375012038BD236987
:103B70000B4C227A636022F0010222721A7842F022
:103B800008021A702B6808201B699847054B2060B3
:103B900001221A70E9E700BFA0250020E8260020D6
:103BA0005824002050240020064808B5037A13F05A
:103BB000010305D0044B1B689B6C9847012008BD8E
:103BC0001846FCE7A0250020E826002038B5114C57
:103BD0006368E3B9104D2B681B689847FEF77AFDC0
:103BE0002B6860605B689847636833B11B785B073C
:103BF00003D5FFF7CDFC012038BD2B68DB68984763
:103C000084F840016068B0FA80F04009F4E70020D1
:103C1000F2E700BFA0250020E826002038B50E4CB2
:103C20002368B3B90D4A0E4D13702B6804201B692D
:103C30009847206018B9FFF7ABFC012038BD037826
:103C400003F01F030E2BF8D12B6820469B6C98477E
:103C5000F3E70020F2E700BFA02500205124002058
:103C6000E826002038B50C4C206848B10B4D2B6875
:103C700004205B699847206018B9FFF789FC012090
:103C800038BD037803F01F030E2BF8D12B682046B4
:103C90009B6C9847F3E700BFA0250020E826002092
:103CA0002DE9F047724E734D32782B68002A52D0BE
:103CB000714C2A68237DD90777D593682069984786
:103CC000002846D06D4F226938780521431CB3FB8C
:103CD000F1F101EB81015B1A69490E785FFA83FC0F
:103CE000B44532D0DFF8ACE155884FF494714843C5
:103CF0000EEB00014D8095888D80D2E90289C1E9E3
:103D00000289D588CD80D2E90489C1E90489558B1F
:103D10004D831EF8005045F008050EF800500020B5
:103D2000B2F81AE085B2AE4547D89B1B0533052291
:103D300093FBF2F202EB82029B1A524A87F800C010
:103D40001178DBB2994238BF1370237D23F0010351
:103D50002375BDE8F0871B6D98470028F9D13378AB
:103D6000002BA5D14648454A037812789A4263D180
:103D7000454B1A782AB1454A116800221A70002969
:103D800067D12B685B6D98470028E2D12B689B6D4B
:103D900098470028DDD12B68DB6D98470028D8D1E3
:103DA0002B68BDE8F0471B6E1847237ADB070ED55A
:103DB0002046936CBDE8F0471847D5691FFA80FE8E
:103DC000013015F80E80CD6905F80E80A8E723684C
:103DD00063B92F4A636011693370087863F3C300D5
:103DE0000870117D63F300011175BBE71B7803F0C8
:103DF0001F030E2B16D02B6808205B6998472060A4
:103E0000B0B9237D13F0010312D133706360204BEE
:103E100019690A7822F008020A701A7D22F001025C
:103E20001A7596E7936C204698472368002BE2D1D9
:103E30003378002B8DD1EAE716494FF4947202FBD8
:103E4000031101330522B3FBF2F202EB82029B1A4B
:103E50000370094C237A616023F0010323722B68FD
:103E600008201B69984701232060337071E700BF69
:103E700050240020E826002058240020811E002025
:103E8000821E0020801E0020501D0020541D002096
:103E9000A0250020881E002070B5194E33689B684D
:103EA00004469847054610B33368DB6998470128F4
:103EB0001DD9144B62881B68D4E902015A80A2887C
:103EC0009A80C3E90201E288DA80D4E90401628BB6
:103ED0005A831A78C3E9040142F008021A700022DA
:103EE000608B91B2884204D8074B01221A70284691
:103EF00070BDE06991B20132465CD8694654EFE783
:103F0000E8260020541D0020501D002002886FF379
:103F10000B0230B5002300240025028000F510625A
:103F2000C0E90245C0E906450382A0F8F43800F56F
:103F3000806142E9024580F80439C0F80039038401
:103F40000246C2E90A4582F8303010328A42F8D17E
:103F5000A0F8883400F5096100F59263002400257B
:103F60000022C3E900451A7210338B42F9D1A0F840
:103F7000282400F5866300F59061002400250022C6
:103F8000C3E900451A8110338B42F9D1A0F890287B
:103F900000F6980300F6E801002400250022C3E99A
:103FA00000451A8110338B42F9D190F8E83862F35A
:103FB000000380F8E83890F8803462F3000380F85A
:103FC000803430BD38B50F4B0F4C18600F4B0025B7
:103FD00020461D70FFF79AFF04F51160FFF796FF6A
:103FE00004F59150FFF792FF00F51160FFF78EFF87
:103FF000074B04F500541D605D601D81A4F840541A
:1040000038BD00BFF026002000270020EC2600204D
:10401000F4260020092801D900207047054B002212
:104020001A540548B0F84034002BF5D0A0F50050E4
:10403000704700BFF426002000470020092801D95E
:1040400000207047084A135C0133DBB21354074861
:1040500000F50052B2F840249A42F1D94FF41162AF
:1040600002FB0300704700BFF42600200027002059
:10407000092803460BD8074AB2F8400440B1064A63
:10408000D35C01388342B4BF002001207047002078
:10409000704700BF00470020F42600202DE9F84FAC
:1040A000404E904681460F4600254FF4116202FBB8
:1040B00005F43019335DC3F3401B9B066DD4FFF745
:1040C00025FFC0E90297C0F8F08880F80459A0F8ED
:1040D00020B039044FF4116298F888A041EA1941E0
:1040E0004FEA0943DC4681465F4602FB0562D44540
:1040F0002ADB4FF4116C0CFB056C0027ACF88874BC
:1041000004F5926298F8898032443C46444531DB9C
:104110004FF411636B43F218B2F8801401F0FE0102
:10412000A2F88014B2F8E81801F0FE01A2F8E8182D
:104130001D49B1F840240132A1F84024F25C42F05C
:104140002002F254BDE8F88FBCF13F0F0DDC17EBF5
:10415000030B41F1000EC9E90ABEB2F820E00137B5
:104160000EF1010EA2F820E0BFB20CF1010C09F132
:104170001009BCE73F2C0DDC17EB030941F1000EE1
:10418000C2E9009EBCF888E401370EF1010EACF8DC
:1041900088E4BFB201341032B8E70135042D86D16E
:1041A0000020CFE700270020004700200C4B30B54F
:1041B000B3F84044A3F5005300211A468C4201DCB9
:1041C00000200AE003F51163A3F510652D888542F0
:1041D00004D14FF4116303FB012030BD0131EDE741
:1041E00000470020054B1A78824206D01870044B15
:1041F0001B6813B11B6803B118477047EC260020F9
:10420000F0260020014BB3F840047047004700201F
:1042100004289ABF024B33F810000020704700BFFB
:1042200002110108D0B5DDE906670446C4E902239E
:10423000BDF81000BDF82030E08000226380C4E9A2
:104240000467207EA180628384F82020FFF7E0FFCE
:104250001346984200DCD0BDE169CA540133F8E747
:1042600010B50246007EFFF7D3FF0023194698429F
:1042700001DC518310BDD469E1540133F7E730B557
:104280000023438043604383038403780024002594
:1042900023F00703C0E90245C0E90445037030BDBF
:1042A00010B50721C4696254448B120A01340139E4
:1042B00042EA036244834FEA1323F3D20823438381
:1042C00010BDC3699954438B013343837047C3695D
:1042D00010B50C0A9C54C36913445970438B0233C4
:1042E000438310BDC36910B50C0E9C54C3691344BD
:1042F0000C0C5C70C36913440C0A9C70C3691344B2
:10430000D970438B0433438310BD70B50446007EDF
:10431000FFF77EFF013900230138E56911F8016FCD
:10432000013315449BB236B900222A70628B0132E8
:104330006283184670BD9042F6DD2E70658B0135A4
:1043400065830132E9E7F8B50446007E1E46FFF7B3
:104350005FFF00250346A8B2864200D8F8BD93420D
:10436000FCDDE0694F5D8754608B0130608301356F
:104370000132F0E730B5BDF80C500521C4690C449A
:1043800001396255448B4FEA122204F1010442EADA
:10439000036244834FEA1323F0D230BD10B5C369E2
:1043A0005C5C0B4498785A79597842EA0062D87874
:1043B00042EA0042187941EA042142EA002010BD95
:1043C000C3691968586809BA00BA7047C369585C6C
:1043D0007047C369585C0B445B7843EA0020704720
:1043E000C3695A5C1944CB78887843EA02634A78F7
:1043F00043EA024343EA00207047037803F00F03C7
:104400001943017070474088C0F3C0007047002214
:1044100010B50146448B1046944200DC10BDCB69B8
:104420009B5C0BB9431CD8B20132F5E7028ACB88FA
:104430009A4210B50AD0D0E90242D1E904039A4267
:1044400008BF84420CBF0120002010BD0120FCE702
:1044500070B500F5926030F8084C00218C4201DC08
:1044600000200AE050F8106B50F80C5C9D4208BF29
:10447000964203D1049B0120198070BD0131EDE704
:1044800070B5048C00218C4201DC002009E0103062
:10449000D0E906659D4208BF964203D1049B0120E6
:1044A000198070BD0131EEE7F0B5D0E9003287B078
:1044B000044641F648400D46198A0490D2E9026745
:1044C000CDE9026792880092D3E902232069FFF7C1
:1044D000A9FE206900222021FFF7F3FE636820690E
:1044E000DB69597810310122C9B2FFF7EAFE696829
:1044F00020690222FFF7F6FE2B78012B06D16368B4
:104500002069DB6906229979FFF7DBFE237D23F022
:104510000103237507B0F0BD2DE970431546D0E9BE
:10452000003286B0044641F648400E46198A04908F
:10453000D2E90289CDE9028992880092D3E9022367
:104540002069FFF76FFE206900222021FFF7B9FEE6
:1045500063682069DB69597818310122C9B2FFF715
:10456000B0FE716820690222FFF7BCFE3378012B90
:1045700012D163682069DB6906229979FFF7A1FEF1
:10458000072220692946FFF7A2FE237D23F00103BD
:10459000237506B0BDE870830622F2E7F0B5D0E9D6
:1045A000003287B0044641F648400D46198A04900F
:1045B000D2E90267CDE9026792880092D3E902232B
:1045C0002069FFF72FFE206900222021FFF779FEE6
:1045D00063682069DB69597810310122C9B2FFF79D
:1045E00070FE696820690222FFF77CFE2B78012BA0
:1045F00006D163682069DB6906229979FFF761FEBD
:10460000237D23F00103237507B0F0BD2DE970432E
:104610001646D0E9003286B0044641F648400D46C1
:10462000198A0490D2E90289CDE902899288009220
:10463000D3E902232069FFF7F5FD2069002220213C
:10464000FFF73FFE63682069DB6959781831012262
:10465000C9B2FFF736FE696820690222FFF742FE01
:104660002B78012B06D163682069DB6906229979D2
:10467000FFF727FE6A892069314606B0BDE870431E
:10468000FFF725BEF0B500F5866030F8087C002500
:10469000AF4201DC0020F0BDD0E90061B24273EB13
:1046A000010406D30489A41941F1000194429941FF
:1046B00002D201351030EBE70120ECE7F0B500F64F
:1046C000980030F8087C0025AF4201DC0020F0BDE6
:1046D000D0E90061B24273EB010406D30489A41946
:1046E00041F100019442994102D201351030EBE7CB
:1046F0000120ECE7013A30B5B2FA82F2C2F12005AE
:104700000123544203FA04F423FA02F2AB40013BC2
:1047100044EA020444F1FF341843214330BD000051
:1047200008B5820C084B9204994208BFB2F1807F11
:1047300007D06FF30F00FDF7A7FF003818BF012067
:1047400008BD0120FCE700BF000001010248084449
:10475000B0FA80F0400970470166FFF6054BC018BB
:1047600061F18071042871F1000134BF0120002043
:10477000704700BF0400FFFF4368DB699B78EF3B95
:10478000102B39D8DFE803F0323838383838383869
:1047900038382C26201A140E09000368D3F8F008C4
:1047A000CC3070470368D3F8F00800F58A70704782
:1047B0000368D3F8F00800F5AE7070470368D3F8CB
:1047C000F00800F5D27070470368D3F8F00800F5E0
:1047D000F67070470368D3F8F00800F50D70704765
:1047E0000368D3F8F00800F51F7070470368D3F82A
:1047F000F00800F53170704700207047F0B50446AE
:10480000D4E9003287B00069198A002541F648468C
:1048100045830496D2E90267CDE902679288009247
:10482000D3E90223FFF7FEFC20692A462021FFF787
:1048300048FD237D65F30003237507B0F0BD00003C
:104840000268527870B5C2F34006920704461CD441
:10485000124A4D6812686DB1136831469847226854
:10486000537843F0020353700122237A62F300036A
:10487000237270BD536841F24101984723685A780A
:1048800065F341025A700022EFE74B6898472268AF
:10489000537823F002035370F5E700BF484B002024
:1048A000014B1860704700BF484B002010B504460C
:1048B000FFF7A4FF012220698221FFF702FD236890
:1048C0002069D3F8F03893F88A3003F00101C90366
:1048D0009A0748BF41F480415A0748BF41F400514C
:1048E0001A0748BF41F40061DA0648BF41F480610D
:1048F0009B0648BF41F400710222FFF7E8FC2368E1
:104900002069D3F8F03893F88A3013F0400F14BFC1
:10491000E321E2210422FFF7D4FC23682069D3F8C5
:10492000F038052293F88B10FFF7CBFC2368206941
:10493000D3F8F038062293F88C10FFF7C2FC2368F6
:10494000D3F8F01891F88D3023B120698D31428B66
:10495000FFF7DBFC237D43F00103237510BD38B561
:104960000D460446FFF74AFF2B680122002B37D083
:104970001B78D90734D520698721FFF7A2FC63682B
:104980002069DB6902229978FFF79BFC2B6820697C
:1049900059680322FFF7A6FC2B6820691B78C3F334
:1049A00040015B0748BF41F002010722FFF789FC85
:1049B0002B681A7812F0040F4FF0080204D099689F
:1049C0002069FFF78FFC0C2229680B7B1BB1206943
:1049D0000C31FFF79AFC237D43F00103237538BDAA
:1049E00020698621FFF76DFC63682069DB6902227C
:1049F0009978FFF766FC236908225A83EBE70000E9
:104A000007B5064B1B689B6801936946002300931A
:104A1000FFF716FF03B05DF804FB00BF484B002012
:104A200007B5064B1B68DB680193694600230093BA
:104A3000FFF706FF03B05DF804FB00BF484B002002
:104A400013B5074B1B681B6901930446FFF794FEDF
:104A5000694600902046FFF7F3FE02B010BD00BF8C
:104A6000484B002013B5074B1B689B690193044614
:104A7000FFF782FE694600902046FFF7E1FE02B094
:104A800010BD00BF484B002013B5074B1B685B6986
:104A900001930446FFF770FE694600902046FFF739
:104AA000CFFE02B010BD00BF484B002013B5074B2E
:104AB0001B681B6B01930446FFF75EFE694600907E
:104AC0002046FFF7BDFE02B010BD00BF484B0020DE
:104AD00013B5074B1B68DB6A01930446FFF74CFED6
:104AE000694600902046FFF7ABFE02B010BD00BF44
:104AF000484B0020114B1B6873B59D6B044675B97C
:104B00005B6841F24101984723685A7865F3410296
:104B10005A70237A23F00103237202B070BD037D23
:104B20000195002666F30003037500966946A847C1
:104B300023685A7866F34102EAE700BF484B002039
:104B400073B50446FFF75AFE60680221FFF726FCA2
:104B5000236803F5106353E9025255EA020619D19E
:104B600043E902012046FFF749FE20698A2101221C
:104B7000FFF7A7FB23680222009203F5106353E9B5
:104B800002232069FFF7F6FB237D43F00103237521
:104B900002B070BD50EA010603D08A4208BF8542C8
:104BA000E0D10020002143E90201DBE707B5064B15
:104BB0001B68DB690193694600230093FFF740FE01
:104BC00003B05DF804FB00BF484B002007B5064B5F
:104BD0001B681B6A0193694600230093FFF730FEB0
:104BE00003B05DF804FB00BF484B002007B5064B3F
:104BF0001B685B6A0193694600230093FFF720FE60
:104C000003B05DF804FB00BF484B002007B5064B1E
:104C10001B689B6A0193694600230093FFF710FE0F
:104C200003B05DF804FB00BF484B002007B5064BFE
:104C30001B685B6B0193694600230093FFF700FE3E
:104C400003B05DF804FB00BF484B002013B50446D9
:104C500002214068FFF7A2FB2368D3E902238B42BD
:104C600008BF824205D0237D23F00103237502B0E3
:104C700010BD054B1B68DB6B019369460023204682
:104C80000093FFF7DDFDF2E7484B002070B50446C6
:104C90000D4640680221FFF7A3FB63686860DB698B
:104CA0005A78402A0BBF012200222A702A700CBFBA
:104CB000DA799A792A810CBF072306236B8123684E
:104CC0005B7899072CD4284B18682B695BB1EB688B
:104CD0001B78DB070ED5013A3F2A0ED8836C066895
:104CE00073B9194610E041F2410143682046BDE81E
:104CF0007040184741F28101F7E74FF48451F4E71F
:104D000029462046984701462046B04722685378F6
:104D100043F002035370237A43F00103237270BD02
:104D2000EB685B68834212D241F282022946204638
:104D3000FFF76CFC237D43F0010323752268537851
:104D400023F002035370237A23F00103E6E70244C1
:104D500093429FBF1B1ADBB201332B8129462B697B
:104D600020469847EAE700BF4C4B0020014B1860F3
:104D7000704700BF4C4B002038B504460D46FFF786
:104D80000DFC23686968D3F8F0086A892B8901F55E
:104D9000437101442069FFF7D6FA237D43F00103F4
:104DA000237538BD70B5134E33689B6804460D46B5
:104DB000EBB1FFF7F3FB22693168D2696B898E682A
:104DC0002068696813442A89B0472269538B0344D9
:104DD00053832B89834205D94FF40252294620463A
:104DE000FFF714FC237D43F00103237570BD4FF4DE
:104DF0008452F5E74C4B002070B50D460446FFF792
:104E0000CDFB6B682A2B27D005D863B1012B1FD0AF
:104E100041F2810217E0532B22D0682BF8D1124BBC
:104E20001B68DE6902E0104B1B68DE684EB12B89FF
:104E30006A8921692068B047237D43F00103237507
:104E400070BD4FF4845229462046FFF7DFFBF3E79D
:104E5000054B1B681E69E9E7034B1B685E69E5E7C4
:104E6000014B1B689E69E1E74C4B002070B50D4675
:104E70000446FFF793FB6B68012B17D0402B19D02A
:104E8000E3B9104B1B681E6A4EB12B896A892169F0
:104E90002068B047237D43F00103237570BD4FF4B4
:104EA000845229462046FFF7B1FBF3E7054B1B6808
:104EB0005E6AE9E7034B1B689E6AE5E741F28102FF
:104EC000EFE700BF4C4B00207FB5074B1B68DB6A48
:104ED00005930368D3F8F03801A9CC330493FFF7A6
:104EE000D5FE07B05DF804FB4C4B00207FB5084BA6
:104EF0001B681B6B05930368D3F8F03801A903F511
:104F00008A730493FFF7C2FE07B05DF804FB00BF8D
:104F10004C4B00207FB5084B1B685B6B0593036807
:104F2000D3F8F03801A903F5AE730493FFF7AEFE92
:104F300007B05DF804FB00BF4C4B00207FB5084B69
:104F40001B689B6B05930368D3F8F03801A903F540
:104F5000D2730493FFF79AFE07B05DF804FB00BF1D
:104F60004C4B00207FB5084B1B68DB6B0593036837
:104F7000D3F8F03801A903F5F6730493FFF786FE22
:104F800007B05DF804FB00BF4C4B00202DE9F04159
:104F900004464068C3695B78082B14BF00230123D3
:104FA00090B00B70438B14BF062607269B1BC3F3E0
:104FB0004E030D460B810E820221FFF711FA67683E
:104FC0006860FB693344EB6023685B7813F0020F81
:104FD0006B693BD11B78494A13F0010F15D0990733
:104FE0001CD42B89013B9BB23F2B1AD82B7811681C
:104FF000012B7B8B14BF062007201B1ADB0710D464
:105000000B6B0E6883B9194612E041F281011368F7
:105010005B68204610B0BDE8F041184741F28301BB
:10502000F5E74FF48451F2E72946204698470146B8
:105030002046B0472268537843F002035370237A26
:1050400043F00103237210B0BDE8F0815B68834236
:1050500006D241F2820229462046FFF75DFA31E08E
:105060002A89264E024493429FBF1B1ADBB20133AA
:105070002B8129462046FFF717FA3368DF6817B9F6
:105080004FF48452E7E72A89696820686B46B8477D
:105090002A89904202D24FF40252DCE7D5F80CC0C4
:1050A000684600230CF1010899B28A4217D8336888
:1050B0009E68002EE4D06B4669682068B0472B8953
:1050C0008342E8D8237D226843F001032375537897
:1050D00023F002035370237A23F00103B2E71CF894
:1050E00013E018F8131007780EEA010127EA0E07FB
:1050F000394300F8011B0133D6E700BF504B0020B5
:1051000070B504464068C269438B52780D463ABB7D
:10511000073B9BB20121072229702B812A820221A1
:10512000FFF75EF963682A8ADB6968601344EB6005
:1051300023685B789E0738D42E4B1A68AB69A3B1FD
:105140006B691B78D90717D59B0718D42B89013BAE
:105150009BB23F2B16D8136B1668B3B9194618E0EB
:10516000063B9BB200210622D6E741F241012046D0
:105170005368BDE87040184741F28101F7E741F2FA
:105180008301F4E74FF48451F1E72946204698471C
:1051900001462046B0472268537843F0020353701B
:1051A000237A43F00103237270BD6B695B6883420D
:1051B00012D241F2820229462046FFF7ADF9237D43
:1051C00043F0010323752268537823F002035370E0
:1051D000237A23F00103E6E72A89024493429FBF22
:1051E0001B1ADBB201332B812946AB692046984755
:1051F000E9E700BF504B0020014B1860704700BF2B
:10520000504B002000B5084B1B6889B0DB6A079340
:105210000368D3F8F03801A903F531730693FFF75B
:105220006FFF09B05DF804FB504B002000B5084B40
:105230001B6889B09B6907930368D3F8F03801A90C
:1052400003F5AE730693FFF75BFF09B05DF804FB4F
:10525000504B002000B5084B1B6889B01B6A0793B0
:105260000368D3F8F03801A903F5F6730693FFF746
:1052700047FF09B05DF804FB504B002000B5036800
:10528000D3F8F03889B0CC3301A90693FFF77EFE3E
:1052900009B05DF804FB00B50368D3F8F03889B0B5
:1052A00003F58A7301A90693FFF770FE09B05DF854
:1052B00004FB00B50368D3F8F03889B003F5AE738A
:1052C00001A90693FFF762FE09B05DF804FB00B583
:1052D0000368D3F8F03889B003F5D27301A90693B7
:1052E000FFF754FE09B05DF804FB00B50368D3F87E
:1052F000F03889B003F5F67301A90693FFF746FE6F
:1053000009B05DF804FB00B50368D3F8F03889B044
:1053100003F50D7301A90693FFF738FE09B05DF898
:1053200004FB00B50368D3F8F03889B003F51F73A8
:1053300001A90693FFF72AFE09B05DF804FB00B54A
:105340000368D3F8F03889B003F5317301A90693E7
:10535000FFF71CFE09B05DF804FB000070B50546C0
:105360000C46FFF7A1F80D4B1B689E6896B1E368E9
:10537000228961682868B0472389834205D94FF4A0
:10538000025221462846FFF7C7F82B7D43F0010360
:105390002B7570BD4FF48452F3E700BF504B0020D3
:1053A0004B68012B70B506460D460AD0402B25D020
:1053B00041F28202FFF7B0F8337D43F00103337509
:1053C00070BD0068D0F8F03893F85C1111F004015A
:1053D00001D0D3F86411144B1B689C68D4B1EB68FE
:1053E0002A89A047104B1B689B68ABB12B8983426D
:1053F00017D829463046FFF757F8DDE70068D0F8A0
:10540000F03893F85C2152074ABFD3F864113F216A
:105410003F31E0E72046E5E74FF484522946304625
:10542000C8E74FF40252F9E7504B0020014B1860D7
:10543000704700BF544B0020F0B5054687B00029E7
:1054400041D0022941D9042941D9082941D910293B
:1054500041D9202941D9402941D9802941D9B1F5E3
:10546000807F40D9B1F5007F3FD9B1F5806F3ED93B
:10547000B1F5006F3DD9B1F5805F3CD9B1F5005F62
:105480003BD9B1F5804F8CBF0F240E24D5E90032F3
:1054900040F62820198A0490D2E90267CDE9026714
:1054A00092880092D3E902232869FEF7BBFE28699F
:1054B000002244F08001FEF704FF2B7D43F001033E
:1054C0002B7507B0F0BD0C46E0E70124DEE70224AF
:1054D000DCE70324DAE70424D8E70524D6E706242A
:1054E000D4E70724D2E70824D0E70924CEE70A242A
:1054F000CCE70B24CAE70C24C8E70D24C6E7F0B5B7
:10550000D0E9003287B0044640F648200D46198A9B
:105510000490D2E90267CDE9026792880092D3E94C
:1055200002232069FEF77EFE206900222946FEF74D
:10553000CEFE237D43F00103237507B0F0BD19B9FA
:1055400041F24101FFF7DBBF084700004268D26922
:1055500011782029034640F034855178AA2900F2B9
:10556000E180DFE811F06A02CD02D402DB02DF0045
:10557000DF00DF00DF008603C203C903D003DF00C2
:10558000DF00DF00DF00E2021E0325032C03DF0043
:10559000DF00DF00DF003303710378037F03DF00E8
:1055A000DF00DF00DF00D70313041A042104DF004B
:1055B000DF00DF00DF00DF00DF00DF00DF00DF00F3
:1055C000DF00DF00DF00280464046B047204DF00E6
:1055D000DF00DF00DF007904B504BC04C504DF0090
:1055E000DF00DF00DF00AB00E400EA00F000DF00D6
:1055F000DF00DF00DF00DF00DF00DF00DF00DF00B3
:10560000DF00DF00DF00F6002A0130013601DF0095
:10561000DF00DF00DF003C01700176017C01DF006C
:10562000DF00DF00DF008201B701BD01C301DF0041
:10563000DF00DF00DF00DF00DF00DF00DF00DF0072
:10564000DF00DF00DF00C90106020D021302DF00E8
:10565000DF00DF00DF00190255025C026302DF0099
:10566000DF00DF00DF00CC04DF00D304DF00DA045A
:10567000DF00E104E804EF04DF00F604DF00FD04CE
:105680000405DF00DF00DF00DF00DF00DF00DF00F8
:10569000DF00DF00DF00DF00DF00DF00DF00DF0012
:1056A000DF00DF00DF000B051205DF00DF00DF0099
:1056B000DF00DF00DF001905200527059279F93AA0
:1056C000062A2FD8DFE802F028221C16100A040050
:1056D0009C4A126818469168FFF731BF994A1268D0
:1056E0001846D168FFF72BBF964A12681846116911
:1056F000FFF725BF934A126818465169FFF71FBF8D
:10570000904A126818469169FFF719BF8D4A1268CE
:105710001846D169FFF713BF8A4A12681846116A02
:10572000FFF70DBF41F241011846FFF7E8BE854A79
:10573000126818461169FFF702BF824A12681846BC
:10574000D168FFF7FCBE7F4A126818469168FFF7E0
:10575000F6BE9279F93A062AE4D8DFE802F0282268
:105760001C16100A0400774A12681846516AFFF79F
:10577000E6BE744A12681846916AFFF7E0BE714AA5
:1057800012681846D16AFFF7DABE6E4A12681846E8
:10579000116BFFF7D4BE6B4A12681846516BFFF7C6
:1057A000CEBE684A12681846916BFFF7C8BE654ABC
:1057B00012681846D16BFFF7C2BE624A12681846DB
:1057C000D16AFFF7BCBE5F4A12681846916AFFF7BC
:1057D000B6BE5C4A12681846516AFFF7B0BE9279AD
:1057E000F93A062A9ED8DFE802F028221C16100A91
:1057F0000400544A12681846116CFFF7A0BE514AC3
:1058000012681846516CFFF79ABE4E4A1268184645
:10581000916CFFF794BE4B4A12681846D16CFFF7A3
:105820008EBE484A12681846116DFFF788BE454A79
:1058300012681846516DFFF782BE424A1268184638
:10584000916DFFF77CBE3F4A12681846916CFFF7D6
:1058500076BE3C4A12681846516CFFF770BE394A52
:1058600012681846116CFFF76ABE9279F93A062A57
:105870003FF658AFDFE802F028221C16100A040099
:10588000304A12681846D16DFFF759BE2D4A12688A
:105890001846116EFFF753BE2A4A12681846516E19
:1058A000FFF74DBE274A12681846916EFFF747BEB4
:1058B000244A12681846D16EFFF741BE214A126889
:1058C0001846116FFFF73BBE1E4A12681846516F0B
:1058D000FFF735BE1B4A12681846516EFFF72FBE00
:1058E000184A12681846116EFFF729BE154A126849
:1058F0001846D16DFFF723BE9279F93A062A3FF692
:1059000011AFDFE802F02F282117100A04000D4A1A
:1059100012681846916FFFF712BE0A4A12681846BD
:10592000D16FFFF70CBE074A12681846D2F88010F4
:10593000FFF705BE034A12681846D2F88410FFF735
:10594000FEBD00BF544B0020B74A12681846D2F87B
:105950008810FFF7F4BDB44A12681846D2F88C10CC
:10596000FFF7EDBDB04A12681846D2F89010FFF765
:10597000E6BDAD4A12681846D2F88010FFF7DFBDC9
:10598000A94A12681846D16FFFF7D9BDA64A126816
:105990001846916FFFF7D3BD9279F93A062A3FF680
:1059A000C1AEDFE802F02E272019120B04009E4A38
:1059B00012681846D2F89410FFF7C1BD9A4A1268CF
:1059C0001846D2F89810FFF7BABD974A12681846E1
:1059D000D2F89C10FFF7B3BD934A12681846D2F86C
:1059E000A010FFF7ACBD904A12681846D2F8A41078
:1059F000FFF7A5BD8C4A12681846D2F8A810FFF729
:105A00009EBD894A12681846D2F8AC10FFF797BDC0
:105A1000854A12681846D2F89C10FFF790BD824A5A
:105A200012681846D2F89810FFF789BD7E4A1268AE
:105A30001846D2F89410FFF782BD9279EF3A102AF7
:105A40003FF670AE01A151F822F000BFF35A0008F2
:105A50002557000825570008255700082557000836
:105A60002557000825570008255700082557000826
:105A700025570008E55A0008D75A0008C95A0008F7
:105A8000BB5A0008AD5A00089F5A0008915A0008F6
:105A9000654A12681846D2F8B010FFF750BD624A46
:105AA00012681846D2F8B410FFF749BD5E4A126872
:105AB0001846D2F8B810FFF742BD5B4A1268184684
:105AC000D2F8BC10FFF73BBD574A12681846D2F80F
:105AD000C010FFF734BD544A12681846D2F8C410FB
