:020000040800F2
:1000000000000220299C0008550F00085D0F000821
:10001000650F00086D0F0008750F00080000000054
:100020000000000000000000000000007D0F00083C
:100030008B0F000800000000990F0008A70F0008B0
:10004000799C0008799C0008799C0008799C00083C
:10005000799C0008799C0008799C0008799C00082C
:10006000799C0008799C0008799C0008799C00081C
:10007000799C0008799C0008799C0008799C00080C
:10008000799C0008799C0008799C0008B50F00084D
:10009000C90F0008DD0F0008799C0008799C000852
:1000A000799C0008799C0008799C0008799C0008DC
:1000B000799C0008799C0008799C0008799C0008CC
:1000C000799C0008799C0008799C0008799C0008BC
:1000D000799C0008799C0008799C0008799C0008AC
:1000E000799C0008799C0008799C0008799C00089C
:1000F000799C0008799C0008799C0008799C00088C
:10010000799C0008799C0008799C0008799C00087B
:10011000799C0008799C0008799C0008F10F000880
:10012000799C0008799C0008799C0008799C00085B
:10013000799C0008799C0008799C0008799C00084B
:10014000799C0008799C0008799C0008051000083B
:10015000799C0008799C0008799C0008799C00082B
:10016000799C0008799C0008799C0008799C00081B
:10017000799C0008799C0008799C00080000000028
:08018000799C0008799C00083D
:1001900010B5054C237833B9044B13B10448AFF3C1
:1001A00000800123237010BD8800002000000000A3
:1001B000E839010808B5034B1BB103490348AFF305
:1001C000008008BD000000008C000020E839010814
:1001D000034613F8012B002AFBD1181A0138704787
:1001E00001F0FF01102A2BDB10F0070F08D010F8E8
:1001F000013B013A8B422DD010F0070F42B3F6D1EC
:10020000F0B441EA012141EA014122F007047FF004
:1002100000070023F0E80256083C85EA010586EA5B
:10022000010685FA47F5A3FA87F586FA47F6A5FA97
:1002300087F68EB9EED1F0BC01F0FF0102F00702A3
:1002400032B110F8013B013A83EA010313B1F8D14E
:100250000020704701387047002D06BF354603382F
:10026000073815F0010F07D1013015F4807F02BF68
:10027000013015F4C03F0130F0BC0138704700BFB9
:1002800053B94AB9002908BF00281CBF4FF0FF31FD
:100290004FF0FF3000F088B9ADF1080C6DE904CEE5
:1002A00000F006F8DDF804E0DDE9022304B0704751
:1002B0002DE9F047089D8E4604468846002B4AD11A
:1002C0008A42174662D9B2FA82F64EB1C6F12003CD
:1002D00001FA06F820FA03F3B74043EA0808B440ED
:1002E0004FEA174E1FFA87FCB8FBFEF1230C0EFBFA
:1002F000118843EA084301FB0CF29A4209D9FB1822
:1003000001F1FF3080F0EA809A4240F2E780023942
:100310003B449A1AA3B2B2FBFEF00EFB102243EA52
:10032000024300FB0CFC9C4509D9FB1800F1FF328D
:1003300080F0D6809C4540F2D3803B44023840EAAE
:100340000140A3EB0C0300211DB1F3400022C5E9DD
:100350000032BDE8F0878B4205D90DB1C5E9000137
:1003600000210846F5E7B3FA83F1002946D1734529
:1003700002D3824200F20581841A6EEB030201204F
:100380009046002DE5D0C5E90048E2E7002A00F0DC
:100390009080B2FA82F6002E40F0A4808A1A030CF4
:1003A0004FEA174E80B2BCB20121B2FBFEFC0EFB3D
:1003B0001C2243EA024304FB0CF29A4207D9FB18C1
:1003C0000CF1FF3802D29A4200F2E080C4469B1A38
:1003D000B3FBFEF20EFB123340EA034302FB04F4CC
:1003E0009C4207D9FB1802F1FF3002D29C4200F276
:1003F000CA8002461B1B42EA0C40A5E7C1F1200659
:100400008B4022FA06F71F430EFA01F420FA06F396
:100410002EFA06FE4FEA1749234300FA01F81FFAA5
:1004200087FCBEFBF9F01C0C09FB10EE44EA0E44FD
:1004300000FB0CFEA64502FA01F209D93C1900F1B5
:10044000FF3A80F09C80A64540F2998002383C44F7
:10045000A4EB0E041FFA83FEB4FBF9F309FB13446B
:100460004EEA044403FB0CFCA44508D93C1903F1F3
:10047000FF3E80F08280A4457FD9023B3C4443EAA2
:100480000040A4EB0C04A0FB02EC64457346E1467B
:1004900062D35FD05DB1B8EB030264EB090404FAE8
:1004A00006F622FA01F31E43CC40C5E900640021A0
:1004B0004FE7B1FBF2FC010C41EA0E4180B240EA89
:1004C00001423B4638463C46B846BE462026B1FB74
:1004D000F7F1A2EB080241EA0C4166E7014618E792
:1004E00010462CE7C6F120022EFA02F3B740B140C5
:1004F00020FA02F24FEA174E0A43B3FBFEF8BCB2F1
:100500000EFB1833110C41EA034108FB04F9B0401B
:1005100089454FEA104380B23ED9791808F1FF3C73
:1005200001D289451FD8A1EB0901B1FBFEF909FBF6
:1005300004F80EFB191192B242EA0142424529D257
:10054000BA1809F1FF31C4D24245C2D2A9F1020161
:100550003A44BEE7F0459DD2BEEB02036CEB070CBC
:100560000138E14696E7A7EB09094944A8F1020CD6
:10057000B1FBFEF909FB04F8DBE773467FE7504661
:1005800066E70846FDE63B44023A33E7ACF1020C6D
:100590003B441CE749469CE7A1EB0901C446B1FB7B
:1005A000FEF909FB04F8C4E7704700BF80B400AF50
:1005B00000BFBD465DF8047B7047000080B500AF0A
:1005C0004FF480410E480AF03EFD0E4B1B88052B70
:1005D0000ED900224FF4005109480AF01BFD0022F9
:1005E0004FF4004106480AF015FD064B00221A8020
:1005F000044B1B8801339AB2024B1A8000BF80BDA6
:10060000000C0240A400002080B582B000AF7860EA
:1006100001224FF4005103480AF0FCFC00BF0837E8
:10062000BD4680BD000C024080B582B000AF78604E
:1006300001224FF4004103480AF0ECFC00BF0837E8
:10064000BD4680BD000C024080B584B000AF0146BD
:10065000C7E900230B46FB81FB891946054812F0C8
:10066000F7FBD7E90023044812F0F2FB00BF103774
:10067000BD4680BD003A01081C3A010880B500AFB4
:1006800009F0FCFA00F03AF800F0A0F900F0A0F848
:1006900000F0D4F800F000F900F02CF911F060FF40
:1006A00000F05EF903F06CF903F024F9FFF77EFF28
:1006B0000D4800F067FD0D4800F090FE0C4A0D4813
:1006C00040F2015104F082FF11F070FF4FF48051AD
:1006D00009480AF0B8FC01F0DDFD03F0BBFD04F0B1
:1006E0006DFD00BFF0E700BFA8000020C40100209E
:1006F000703A010855070101000C024080B594B022
:1007000000AF07F1200330220021184612F0B2FB9F
:1007100007F10C0300221A605A609A60DA601A61CD
:100720000023BB60284B1B6C274A43F080531364A3
:10073000254B1B6C03F08053BB60BB6800237B60C0
:10074000224B1B68214A43F4804313601F4B1B68F4
:1007500003F480437B607B6801233B624FF480336A
:100760007B620223BB634FF48003FB6304233B647F
:10077000A8237B640223BB640723FB6407F12003E7
:1007800018460DF06FFB0346002B01D000F01CFA59
:100790000F23FB6002233B6180237B614FF4805376
:1007A000BB614FF48053FB6107F10C030221184633
:1007B0000DF0D0FD0346002B01D000F005FA00BF7C
:1007C0005037BD4680BD00BF003802400070004079
:1007D00080B500AF174B184A1A60164B2A225A6090
:1007E000144B00229A60134B0022DA60114B4FF435
:1007F00000321A610F4B4FF440125A610D4B002228
:100800001A760C4B00225A760A4B00229A76094B34
:100810000022DA76074B00221A77064B00225A771D
:10082000044809F0C1FA0346002B01D000F0CCF9CE
:1008300000BF80BDA80000200064004080B500AF6C
:10084000124B134A1A60114B124A5A600F4B002286
:100850009A600E4B0022DA600C4B4FF480421A6112
:100860000A4B00225A61094B00229A61074B002271
:10087000DA61064B00221A6204480CF00FFD0346B1
:10088000002B01D000F0A0F900BF80BDD0000020F7
:1008900000540040A086010080B500AF134B144AFD
:1008A0001A60124B4FF400725A60104B00229A608B
:1008B0000E4B0022DA600D4B4FF400721A610B4BA5
:1008C0004BF680325A61094B00229A61074B002295
:1008D000DA61064B00221A6204480CF023FE03463C
:1008E000002B01D000F070F900BF80BD2401002072
:1008F000003C004080B500AF174B184A1A60164BF9
:100900004FF482725A60144B00229A60124B0022FC
:10091000DA60114B00221A610F4B00225A610E4B14
:100920004FF400729A610C4B0022DA610A4B0022EC
:100930001A62094B00225A62074B00229A62064B48
:100940000A22DA6204480EF053F80346002B01D065
:1009500000F03AF900BF80BD6C010020003001407A
:1009600080B582B000AF3B4600221A605A60154B3A
:10097000154A1A60134B80225A60124B00229A606B
:10098000104B4FF6FF72DA600E4B00229A610D4851
:100990000EF0B7F80346002B01D000F015F9002344
:1009A0003B6000237B603B46194606480EF04EFB39
:1009B0000346002B01D000F007F900BF0837BD4601
:1009C00080BD00BFC40100200014004080B58CB081
:1009D00000AF07F11C0300221A605A609A60DA60C7
:1009E0001A610023BB61724B1B6B714A43F0100309
:1009F00013636F4B1B6B03F01003BB61BB690023D8
:100A00007B616B4B1B6B6A4A43F004031363684BB7
:100A10001B6B03F004037B617B6900233B61644B28
:100A20001B6B634A43F080031363614B1B6B03F042
:100A300080033B613B690023FB605D4B1B6B5C4AA1
:100A400043F0010313635A4B1B6B03F00103FB607C
:100A5000FB680023BB60564B1B6B554A43F00203F7
:100A60001363534B1B6B03F00203BB60BB68002393
:100A70007B604F4B1B6B4E4A43F0080313634C4B98
:100A80001B6B03F008037B607B6800220821494848
:100A90000AF0C0FA0122012147480AF0BBFA0022FD
:100AA0004FF2100145480AF0B5FA0823FB61012313
:100AB0003B6200237B620023BB6207F11C031946E3
:100AC0003C480AF00BF90123FB6101233B62002340
:100AD0007B620023BB6207F11C03194636480AF00B
:100AE000FDF80823FB6102233B6200237B620023A5
:100AF000BB620523FB6207F11C0319462E480AF06E
:100B0000EDF80123FB614FF490133B6200237B62FD
:100B100007F11C0319462A480AF0E0F80423FB6198
:100B200000233B6200237B6207F11C031946254822
:100B30000AF0D4F84FF48063FB6102233B62002388
:100B40007B620023BB620523FB6207F11C0319468D
:100B50001C480AF0C3F84FF21003FB6101233B620B
:100B600000237B620023BB6207F11C031946134874
:100B70000AF0B4F82023FB6100233B6200237B6270
:100B800007F11C0319460D480AF0A8F80223FB617F
:100B90004FF490133B6200237B6207F11C0319465C
:100BA00004480AF09BF800BF3037BD4680BD00BF47
:100BB000003802400010024000080240000C0240D1
:100BC000000002400004024080B400AF72B600BFD3
:100BD00000BFFDE780B582B000AF00237B60104B03
:100BE0005B6C0F4A43F4804353640D4B5B6C03F41E
:100BF00080437B607B6800233B60094B1B6C084A89
:100C000043F080531364064B1B6C03F080533B602E
:100C10003B6807200AF01CF800BF0837BD4680BDBE
:100C20000038024080B58AB000AF786007F1140345
:100C300000221A605A609A60DA601A617B681B6849
:100C4000254A934243D100233B61244B1B6C234A2A
:100C500043F000731364214B1B6C03F000733B6182
:100C60003B690023FB601D4B1B6B1C4A43F00803D0
:100C700013631A4B1B6B03F00803FB60FB68032331
:100C80007B610223BB610023FB6103233B620923D9
:100C90007B6207F11403194611480AF01FF800227D
:100CA0000021132009F0DFFF132009F0F8FF0022D4
:100CB0000021142009F0D7FF142009F0F0FF0022D2
:100CC0000021152009F0CFFF152009F0E8FF00BF33
:100CD0002837BD4680BD00BF006400400038024098
:100CE000000C024080B58AB000AF786007F11403B1
:100CF00000221A605A609A60DA601A617B681B6889
:100D0000194A93422CD100233B61184B1B6B174AA5
:100D100043F002031363154B1B6B03F002033B61AB
:100D20003B694FF410737B611223BB610123FB61AC
:100D300000233B6204237B6207F1140319460C482D
:100D400009F0CCFF0023FB60084B1B6C074A43F4FF
:100D500000131364054B1B6C03F40013FB60FB686A
:100D600000BF2837BD4680BD005400400038024017
:100D70000004024080B58EB000AF786007F1240314
:100D800000221A605A609A60DA601A6107F114034F
:100D900000221A605A609A60DA607B681B68314AE8
:100DA00093425AD101237B613223BB610223FB6151
:100DB00007F1140318460DF0D9FC0346002B01D0AF
:100DC000FFF702FF00233B61274B1B6C264A43F4CD
:100DD00000431364244B1B6C03F400433B613B69E9
:100DE0000023FB60204B1B6B1F4A43F0010313637E
:100DF0001D4B1B6B03F00103FB60FB680023BB6012
:100E0000194B1B6B184A43F004031363164B1B6BFF
:100E100003F00403BB60BB6810237B620223BB6248
:100E20000023FB6200233B6306237B6307F124035B
:100E300019460E4809F052FF4FF4A4537B62022377
:100E4000BB620023FB6200233B6306237B6307F145
:100E500024031946064809F041FF00BF3837BD4654
:100E600080BD00BF003C004000380240000002404E
:100E70000008024080B58AB000AF786007F1140323
:100E800000221A605A609A60DA601A617B681B68F7
:100E9000194A93422BD100233B61184B5B6C174AD4
:100EA00043F480535364154B5B6C03F480533B61F4
:100EB0003B690023FB60114B1B6B104A43F001039D
:100EC00013630E4B1B6B03F00103FB60FB68E02315
:100ED0007B610223BB610023FB6100233B6205238E
:100EE0007B6207F114031946054809F0F7FE00BFBD
:100EF0002837BD4680BD00BF0030014000380240A9
:100F00000000024080B584B000AF78607B681B6849
:100F10000E4A934215D10023FB600D4B1B6C0C4A0B
:100F200043F0200313640A4B1B6C03F02003FB60A7
:100F3000FB6800220021372009F095FE372009F0D8
:100F4000AEFE00BF1037BD4680BD00BF001400409C
:100F50000038024080B400AF00BFFDE780B400AFAE
:100F600000BFFDE780B400AF00BFFDE780B400AF75
:100F700000BFFDE780B400AF00BFFDE780B400AF65
:100F800000BFBD465DF8047B704780B400AF00BF72
:100F9000BD465DF8047B704780B400AF00BFBD461E
:100FA0005DF8047B704780B500AF08F0B9FE00BF64
:100FB00080BD000080B500AF024809F052FB00BFC1
:100FC00080BD00BFA800002080B500AF024809F036
:100FD00048FB00BF80BD00BFA800002080B500AF67
:100FE000024809F03EFB00BF80BD00BFA800002002
:100FF00080B500AF02480DF06BFE00BF80BD00BFA2
:10100000C401002080B500AF02480AF0F3FA00BF27
:1010100080BD00BFA034002080B586B000AFF8606E
:10102000B9607A6000237B610AE0AFF3008001467B
:10103000BB685A1CBA60CAB21A707B6901337B6103
:101040007A697B689A42F0DB7B6818461837BD46A0
:1010500080BD80B586B000AFF860B9607A600023CB
:101060007B6109E0BB685A1CBA601B781846AFF375
:1010700000807B6901337B617A697B689A42F1DB8E
:101080007B6818461837BD4680BD80B483B000AF7A
:1010900078604FF0FF3318460C37BD465DF8047B8F
:1010A000704780B483B000AF786039603B684FF41C
:1010B00000525A60002318460C37BD465DF8047B89
:1010C000704780B483B000AF7860012318460C37B6
:1010D000BD465DF8047B704780B485B000AFF86012
:1010E000B9607A60002318461437BD465DF8047B6A
:1010F0007047000080B586B000AF7860144A154B89
:10110000D31A7B617B693B61134B1B68002B02D1B7
:10111000114B124A1A60104B1A687B6813443A69E3
:101120009A4207D211F0BEFE03460C221A604FF01D
:10113000FF3309E0084B1B68FB60074B1A687B68AC
:101140001344054A1360FB6818461837BD4680BD36
:1011500000000220000400000C020020D039002012
:1011600080B400AF064BD3F88830054A43F47003CF
:10117000C2F8883000BFBD465DF8047B704700BFF1
:1011800000ED00E080B58CB000AF7860134A7B685A
:1011900013600123BB620023FB610023FB62002379
:1011A000BB610023BB600023FB6000233B61002385
:1011B0007B6100233B6201237B6207F10803194630
:1011C000786808F0EDFE786808F0C8FF03217868B9
:1011D00009F0FAF900BF3037BD4680BD1402002087
:1011E00080B582B000AF00F019F80B4B1B78002BD4
:1011F00014BF01230023DBB283F00103DBB2FB71D8
:10120000FB7903F00103FB7100F014F8FB79184639
:101210000837BD4680BD00BF1002002080B500AF7A
:10122000034B1B680221184609F0F4F900BF80BD8A
:101230001402002080B500AF034B1B680321184641
:1012400009F0C2F900BF80BD1402002080B58CB047
:1012500000AF7860FFF7C4FF0346002B39D07B68EE
:101260001B7A7B627B685B68BB6100233B62042363
:10127000FB61002387F8283000237B610023BB60DB
:101280000023FB620DE07A68FB6A13440933197886
:1012900007F10C02FB6A13440A461A70FB6A013319
:1012A000FB627B681B7A1A46FB6A9342EBDB0B4BB3
:1012B000186807F1080307F10C0207F1140108F0A0
:1012C00091FF0346002B04D1054B01221A70012324
:1012D00000E0002318463037BD4680BD14020020D0
:1012E0001002002080B483B000AF7860044B00226D
:1012F0001A7000BF0C37BD465DF8047B704700BF15
:101300001002002080B483B000AF7860044B00224C
:101310001A7000BF0C37BD465DF8047B704700BFF4
:101320001002002080B483B000AF7860044B00222C
:101330001A7000BF0C37BD465DF8047B704700BFD4
:101340001002002080B592B000AF786007F128034A
:101350001C220021184611F08DFD07F10C03142208
:101360000021184611F086FD28E03B6B042B25D1A7
:101370007B6B002B22D13B7B43F001033B73FB6A69
:101380003B61BB6BDBB23B7500237B640DE007F177
:1013900020027B6C1344197807F115027B6C13440F
:1013A0000A461A707B6C01337B64BA6B7B6C9A4281
:1013B000EDD807F10C03184601F030FD07F12003CA
:1013C00007F128020021786808F0DCFF0346002BB3
:1013D000CBD000BF00BF4837BD4680BD80B582B0CE
:1013E00000AF7860044A7B68136078680DF000FCF9
:1013F00000BF0837BD4680BD1802002080B582B00E
:1014000000AF7860396009F058FC00BF0837BD466E
:1014100080BD0000B0B48DB000AFF860B9603B6033
:101420001346FB801A4B07F114041D460FCD0FC461
:101430002B6823600023FB6207E03A68FB6A1344D1
:1014400000221A70FB6A0133FB62FB88FA6A9A4237
:10145000F3DBBB68002B14D10023BB620CE007F167
:101460001402BB6A134419783A68BB6A13440A46EB
:101470001A70BB6A0133BB62FB88BA6A9A42EEDB20
:1014800000E000BFFB8818463437BD46B0BC70474B
:10149000543A010880B485B000AFF860B9603B6091
:1014A0001346FB80FB8818461437BD465DF8047B65
:1014B000704780B483B000AF7860396000BF0C37EC
:1014C000BD465DF8047B704780B500AFFFF7A6FE10
:1014D000034B1B6818460DF063FB00BF80BD00BFC7
:1014E0001802002080B500AFFFF7A4FE034B1B6875
:1014F00018460DF07DFB00BF80BD00BF1802002024
:1015000080B582B000AF7860064B1B687A689A425B
:1015100003D104F00BF907F047FB00BF0837BD46C5
:1015200080BD00BF1802002080B483B000AF00234C
:101530007B6027E01A4A7B681B01134408330022B2
:101540001A80174A7B681B01D1184FF000024FF038
:101550000003C1E90023124A7B681B01134403F115
:101560000802937823F0010393700D4A7B681B01F6
:10157000134403F10802937823F0020393707B680D
:1015800001337B607B68032BD4DD054B002283F89D
:10159000402000BF0C37BD465DF8047B704700BF9C
:1015A0002002002080B500AFFFF7BEFF00BF80BD66
:1015B00080B400AF024B1846BD465DF8047B70470F
:1015C0002002002080B400AF044B012283F84020A9
:1015D00000BFBD465DF8047B704700BF20020020BD
:1015E00080B487B000AF0146C7E900230B46FB81FA
:1015F00000237B612AE01A4A7B691B0113440833EC
:101600001B88002B0BD0164A7B691B011344D3E9BE
:101610000023D7E90001994208BF904213D1104A34
:101620007B691B0113440833FA891A800C4A7B69D1
:101630001B01D118D7E90023C1E900237B691B01F5
:10164000074A134406E07B6901337B617B69032B06
:10165000D1DD002318461C37BD465DF8047B70477A
:101660002002002080B485B000AF0346FB80002339
:10167000FB6031E01D4AFB681B01134408331B88E3
:10168000FA889A4225D1194AFB681B011344083392
:1016900000221A80154AFB681B01D1184FF0000286
:1016A0004FF00003C1E90023104AFB681B011344FB
:1016B00003F10802937823F0010393700B4AFB684F
:1016C0001B01134403F10802937823F00203937083
:1016D00006E0FB680133FB60FB68032BCADD00BF3B
:1016E00000BF1437BD465DF8047B70472002002020
:1016F00080B485B000AF0346FB800023FB6010E0A0
:101700000D4AFB681B01134408331B88FA889A4270
:1017100004D1FB681B01084A134406E0FB6801334F
:10172000FB60FB68032BEBDD002318461437BD4636
:101730005DF8047B704700BF2002002080B485B0B4
:1017400000AFC7E900010023FB6013E00E4AFB680D
:101750001B011344D3E90023D7E90001994208BFD4
:10176000904204D1FB681B01074A134406E0FB6862
:101770000133FB60FB68032BE8DD002318461437B8
:10178000BD465DF8047B70472002002080B483B022
:1017900000AF00237B6007E00C4A7B68002142F821
:1017A00023107B6801337B607B680A2BF4DD074BD9
:1017B000002283F82C20054B002283F82D2000BF47
:1017C0000C37BD465DF8047B704700BF68020020FF
:1017D00080B485B000AF7860124B93F82C300133A1
:1017E000FB73FB7B0A2B01D90023FB730D4B93F892
:1017F0002D30FA7B9A420DD00A4B93F82C301946C3
:10180000084A7B6842F82130064AFB7B82F82C307C
:10181000012300E0002318461437BD465DF8047B21
:10182000704700BF6802002080B483B000AF194B3E
:1018300093F82C20174B93F82D309A4222D0154B59
:1018400093F82D301A46134B53F822307B60114B1E
:1018500093F82D3019460F4B002243F821200D4BF1
:1018600093F82D300133DAB20A4B83F82D20094B5F
:1018700093F82D300A2B03D9064B002283F82D2034
:101880007B6800E0002318460C37BD465DF8047BFA
:10189000704700BF6802002080B483B000AF00230F
:1018A0007B6036E022497A6813469B0013449B0014
:1018B000CA18137823F0010313701D497A68134680
:1018C0009B0013449B000B44043300221A60184908
:1018D0007A6813469B0013449B000B440833002294
:1018E0001A7000233B600EE011497A6813469B0092
:1018F00013449B00CA183B681344093300221A7032
:101900003B6801333B603B68072BEDDD7B680133AF
:101910007B607B68092BC5DD064B00221A80064BD5
:1019200000221A8000BF0C37BD465DF8047B70476B
:1019300098020020600300206203002080B582B07E
:1019400000AF00237B603CE022497A6813469B008D
:1019500013449B000B441B78C3F30003DBB2002B42
:101960002CD11D4B1B8801339AB21B4B1A801A4B8A
:101970001A881A4B1B889A4203D9174B1A88174B9F
:101980001A807A6813469B0013449B00114A134443
:10199000184601F065FD0F497A6813469B00134411
:1019A0009B00CA18137843F0010313707A6813463A
:1019B0009B0013449B00074A134406E07B680133F5
:1019C0007B607B68092BBFDD002318460837BD46C6
:1019D00080BD00BF98020020600300206203002049
:1019E00080B483B000AF78607B68002B0BD0094BCC
:1019F0001B88013B9AB2074B1A807A68137823F050
:101A00000103137000E000BF0C37BD465DF8047B96
:101A1000704700BF6003002080B483B000AF7860DF
:101A2000044A7B68136000BF0C37BD465DF8047B39
:101A3000704700BF640300202DE9B00F89B000AFEC
:101A4000C7E90201BB6823F07F43FB61D7E90201CC
:101A50004FF000024FF00003020E42EA01220B0E8B
:101A6000134623F07F43BB61FB695A02BB69DB0B62
:101A7000C3F30803134323F07F437B61BB695B021D
:101A800023F07F433B61FA697B69134403F5D81364
:101A900003F6A343FB61BA693B691A44144B134430
:101AA000BB61FB6923F07F42BB691B0E1344FB61E2
:101AB000BB6923F07F43BB61FB6900229A469346D2
:101AC0004FEA1A254FEA0A64BB69002298469146FC
:101AD00044EA08033B6045EA09037B60D7E9002339
:101AE000104619462437BD46BDE8B00F704700BF09
:101AF000A94B7A0080B485B000AFC7E900013B680C
:101B000023F07F43FB60D7E900014FF000024FF064
:101B10000003020E42EA01220B0E134623F07F431C
:101B2000BB60BB689AB2FB689BB253409AB2BB6879
:101B30001B0B9BB253409AB2FB681B0B9BB25340EA
:101B40009BB2C3F30B039BB218461437BD465DF836
:101B5000047B704780B483B000AF78607B681B68FB
:101B60007A681168D3E90223C1E906237B681A6801
:101B70001378022161F30403137000BF0C37BD46D4
:101B80005DF8047B704790B583B000AF78607B68E8
:101B90001B68D3E9062379680C6810461946FFF7DD
:101BA0004BFF02460B46C4E906237B681A6813788C
:101BB000022161F30403137000BF0C37BD4690BDD2
:101BC00090B583B000AF78607B681B68D3E90623CB
:101BD00079680C6810461946FFF78CFF034623828C
:101BE000124B1B6819687B681B68188A7B681B6826
:101BF000D3E9022388470D4B1B689B68002B0AD052
:101C00000A4B1B6899687B681B68188A7B681B688D
:101C1000D3E9022388477B681A681378032161F3AC
:101C20000403137000BF0C37BD4690BD6403002051
:101C300080B483B000AF78607B685B6800221A7262
:101C40007B681B68D3E902014FF000024FF00003EC
:101C5000020E42EA01220B0E0E4B13407A68126804
:101C6000128A1A437B685B6842F0B8525A607A68FD
:101C7000137A43F0010313727B681A681378042106
:101C800061F30403137000BF0C37BD465DF8047B9D
:101C9000704700BF00F0FF0080B483B000AF7860F1
:101CA0007B685B6800221A727B681B68D3E90201BB
:101CB0004FF000024FF00003020B42EA01520B0BFF
:101CC0000E4B13407A681268128A1A437B685B686D
:101CD00042F0B0525A607A68137A43F001031372EB
:101CE0007B681A681378052161F30403137000BF41
:101CF0000C37BD465DF8047B704700BF00F0FF0065
:101D000080B483B000AF78607B685B6800221A7291
:101D10007B681B68D3E902230E4B13407A68126874
:101D2000128A1A437B685B6842F0A8525A607A684C
:101D3000137A43F0010313727B681A681378062143
:101D400061F30403137000BF0C37BD465DF8047BDC
:101D5000704700BF00F0FF0080B483B000AF786030
:101D60007B685B6800221A727B681B68D3E90223D8
:101D700013461A03104B13407A681268128A1A43EA
:101D80007B685B6842F0A0525A607B681B68002247
:101D9000A3F844267A68137A43F0010313727B6830
:101DA0001A681378072161F30403137000BF0C371E
:101DB000BD465DF8047B704700F0FF0080B483B03F
:101DC00000AF78607B681B68B3F84436022B06D9F5
:101DD0007B681A681378082161F30403137000BF4D
:101DE0000C37BD465DF8047B704780B483B000AF0C
:101DF00078607B681B681B8A43F0835343F480132D
:101E00007A68526853607B685B6800221A727A684D
:101E1000137A43F0010313727B681A68137809215F
:101E200061F30403137000BF0C37BD465DF8047BFB
:101E30007047000080B586B002AF78607B681B6891
:101E40001B8A43F0102343F4E0037A68526853601E
:101E50007B6859687B681B68D3E9022300200090E7
:101E6000084601F00DFD7A68137A43F001031372FE
:101E70007B681A68137843F0400313700C4B1B689F
:101E80005B687A681268128A10469847F860FA68A8
:101E9000937A43F0020393727B681A6813780A21DD
:101EA00061F30403137000BF1037BD4680BD00BF4F
:101EB0006403002080B483B000AF7860044A7B687C
:101EC000136000BF0C37BD465DF8047B704700BF50
:101ED0006803002080B582B000AF78607B681B6823
:101EE0001B78C3F30403DBB2092B53D801A252F8C9
:101EF00023F000BF1D1F0008291F0008351F000820
:101F0000411F00084D1F0008591F0008651F0008E9
:101F1000711F00087D1F0008891F00081F4B1B68E8
:101F20001B687868984736E01C4B1B685B687868CC
:101F3000984730E0194B1B689B68786898472AE0FF
:101F4000164B1B68DB687868984724E0134B1B68C6
:101F50001B69786898471EE0104B1B685B697868BE
:101F6000984718E00D4B1B689B697868984712E00A
:101F70000A4B1B68DB69786898470CE0074B1B68C5
:101F80001B6A7868984706E0044B1B685B6A7868B0
:101F9000984700E000BF0837BD4680BD68030020B9
:101FA00080B582B000AF78600E4A7B6813600E483F
:101FB00001F056FA0D4B0C4A5A600C4B00221A6085
:101FC0000A4A137A23F001031372084A137C23F0A0
:101FD00001031374054B0022DA6000BF0837BD46C9
:101FE00080BD00BF6C03002084030020700300202C
:101FF00080B582B000AF78607B68002B36D07B68FC
:1020000000221A827A68137823F0400313707A68EA
:10201000137823F0800313707A68537823F0010358
:1020200053707A68537823F0080353707A685378B2
:1020300023F0040353707A68537823F0020353703B
:102040007B68D3F85036002B09D07B68D3F8503624
:10205000184601F0B9FF7B680022C3F850267A6861
:102060001378012161F30403137000E000BF083707
:10207000BD4680BD80B586B000AF78600023FB759B
:1020800000233B6129E07A683B691B011344083354
:102090001B88FB81FB89002B1CD07A683B691B01E4
:1020A000134408339B78C3F30003DBB2002B11D039
:1020B000104B1B681B6AFA89104698470D4B1B682A
:1020C0005B69FA891046984703461846FFF790FF68
:1020D0000123FB753B6901333B613B69032BD2DD77
:1020E0007B68002283F84020FB7D18461837BD46E8
:1020F00080BD00BF6C03002080B582B000AF00231C
:10210000FB710E4B1B681B6898470C4B1B68DB6907
:10211000984738603B6893F84030002B04D038680B
:10212000FFF7A8FF0123FB71044B1B685B6898470E
:10213000FB7918460837BD4680BD00BF6C03002000
:1021400080B500AF194BDB68002B0CD1184B1B6816
:102150001B689847FFF768FB0346144AD360144B8B
:102160001B685B689847114BDB68002B1BD0104B3A
:102170001B689B680D4AD268104698470346002B9F
:102180000FD00B4B1B681B689847084BDB68184641
:10219000FFF726FC064B1B685B689847034B002241
:1021A000DA60012300E00023184680BD70030020A0
:1021B0006C03002080B500AF0D4B1B7A03F00103C8
:1021C000DBB2002B10D00B4B1B689B68084A52688F
:1021D000104698470346002B04D0054A137A23F093
:1021E00001031372012300E00023184680BD00BFE5
:1021F000700300206C03002080B500AF114B1B68FA
:10220000002B1CD1104B1B68DB6806209847034647
:102210000C4A13600B4B1B68002B01D101230FE00C
:10222000084B1B681B78C3F30403DBB2092B04D8EB
:10223000054B1B689B6903489847012300E0002376
:10224000184680BD700300206C03002080B500AFED
:102250000E4B1B681B690620984703460C4A136007
:102260000B4B1B68002B01D101230DE0084B1B68B1
:102270001B78C3F30403DBB2092B04D8034B1B68A0
:102280009B69034898470023184680BD6C030020D3
:102290007003002080B500AF154B1B685B6A984740
:1022A0000346002B1BD1124B1B689B6A98470346C1
:1022B000002B16D10E4B1B68DB6A98470346002B98
:1022C00011D10B4B1B681B6B98470346002B0CD19D
:1022D000074B1B685B6B98470346002B06E000BF6B
:1022E00004E000BF02E000BF00E000BF80BD00BF0F
:1022F0006C03002080B483B000AF7860044A7B6830
:10230000136000BF0C37BD465DF8047B704700BF0B
:102310009803002090B58BB006AF044608461146DE
:102320001A462346FB800346BB800B467B80134640
:102330003B801C4B1B685B6800209847F860FB687B
:10234000002B2BD07B8841F64842934203D140F6C4
:1023500048237B8001E068237B80F9887B88049395
:102360004FF000024FF00003CDE90223BB88009339
:102370004FF000024FF00003F86803F037FABB8813
:1023800000221946F86803F00FFB3B880222194629
:10239000F86803F009FBF86801F052FB00BF14373E
:1023A000BD4690BD9803002080B588B002AF78602C
:1023B000786801F075F80346FB821B4B1B689B682D
:1023C000FA8A1046984738613B69002B01D10023F7
:1023D00026E03A69937A43F001039372124B1B682B
:1023E0005B6998473B699B7A03F00203DBB2002BE1
:1023F00015D00D4B1B681B689847F860FA8A0B4B89
:1024000013431A46FB685A603B69D3E90023002155
:102410000091F86801F034FAF868FFF7D9F9012360
:1024200018461837BD4680BD980300200030701054
:1024300080B58CB006AF78600B46FB701346BB705E
:10244000786801F03DF80346FB82786801F028F8CF
:102450000346BB82786801F081F803467B827A8A62
:10246000F98ABB8A184601F085FBF860FB68002BEF
:1024700007D07A8AB98AF88A42F24203FFF74AFF04
:1024800031E01A4B1B685B68BA7810469847F860D1
:10249000FB68002B07D17A8AB98AF88A42F22003B6
:1024A000FFF738FF1FE0B98A7B8A04934FF00002E0
:1024B0004FF00003CDE90223FB8A00934FF00002A6
:1024C0004FF00003F86803F091F9FA68137843F0CD
:1024D00002031370FB781A467968F86801F082F8F5
:1024E000F86801F023FB1837BD4680BD9803002033
:1024F00080B586B000AF78600B46FB70786800F05E
:10250000DFFF0346FB82786800F0CAFF0346BB8208
:10251000786801F023F803467B827A8AF98ABB8ABD
:10252000184601F027FBF860FB68002B07D17A8A78
:10253000B98AF88A42F24103FFF7ECFE05E0FB7826
:102540001A467968F86801F04DF81837BD4680BD25
:1025500080B586B000AF78600B46FB70786800F0FD
:10256000AFFF0346FB82786800F09AFF0346BB8208
:10257000786800F0F3FF03467B827A8AF98ABB8A87
:10258000184601F0F7FAF860FB68002B07D17A8A49
:10259000B98AF88A42F24103FFF7BCFE10E0FB78EB
:1025A0001A467968F86801F01DF8FA68137823F084
:1025B00002031370F86801F01BFBF86801F040FAA1
:1025C0001837BD4680BD000080B58CB006AF78607E
:1025D0000B46FB701346BB701C4B1B685B68BA78DC
:1025E0001046984778617B69002B2AD0786800F004
:1025F00067FF03467B82786800F052FF03463B8208
:10260000786800F0ABFF0346FB81398AFB890493AD
:102610004FF000024FF00003CDE902237B8A0093C4
:102620004FF000024FF00003786903F0DFF8FB7809
:102630001A467968786900F0D5FF786901F000FAE8
:1026400000E000BF1837BD4680BD00BF98030020E2
:1026500080B586B000AF78600B46FB701346BB7048
:10266000786800F02DFF0346FB82786800F018FFC1
:102670000346BB82786800F071FF03467B827A8A4A
:10268000F98ABB8A184601F075FAF860FB68002BDE
:1026900006D1BA78FB7819467868FFF7C9FE11E0D1
:1026A0007968F86800F0FDFF0346052B05D8FB7834
:1026B00019467868FFF71CFF04E0FB781946786834
:1026C000FFF746FF00BF1837BD4680BD80B483B01A
:1026D00000AF78600B46FB701346BB7000BF0C3731
:1026E000BD465DF8047B704780B586B000AF78606A
:1026F000786800F0D5FE0346FB82104B1B689B6890
:10270000FA8A1046984738613B69002B12D00B4B70
:102710001B681B689847F860FB8A43F0835343F4B7
:1027200080131A46FB685A60FB6800221A72F86828
:10273000FFF74EF800BF1837BD4680BD9803002054
:1027400080B582B000AF78607868FFF72DFE00BFDB
:102750000837BD4680BD80B582B000AF786078682C
:10276000FFF722FE00BF0837BD4680BD90B589B097
:1027700002AF78607868FFF717FE0346002B65D13B
:1027800000233B617B681B7A002B28D0324B1B68EF
:10279000DC68786800F0ACFF02460B46104619462C
:1027A000A047B860BB68002B52D02B4B1B681B683E
:1027B00098473861BB681B8943F0102343F4E0035A
:1027C0001A463B695A60BB68D3E900230021009197
:1027D000386901F055F83869FEF7FAFF39E01E4B09
:1027E0001B681B699847F86000237B612AE0FA6840
:1027F0007B691B01134408331B88002B1FD0164B29
:102800001B681B6898473861FA687B691B01134491
:1028100008331B8843F0102343F4E0031A463B6956
:102820005A60FA687B691B011344D3E90023002135
:102830000091386901F024F83869FEF7C9FF7B6917
:1028400001337B617B69032BD1DD02E000BF00E037
:1028500000BF1C37BD4690BD9803002080B582B0F4
:1028600000AF78607868FFF79FFD00BF0837BD466E
:1028700080BD80B582B000AF78607868FFF794FDC6
:1028800000BF0837BD4680BD80B483B000AF78601C
:10289000044A7B68136000BF0C37BD465DF8047BBB
:1028A000704700BF9C03002080B483B000AF786005
:1028B0007B685B681B0B9BB2C3F30B039BB2184690
:1028C0000C37BD465DF8047B7047000080B582B0D0
:1028D00000AF78600B467B807B685B7A03F0F00387
:1028E000C02B48D0C02B5EDC802B50D0802B5ADC14
:1028F000002B02D0402B1FD055E07B8840F60822E9
:1029000093420CD12E4B1B681B68002B4DD02C4BD7
:102910001B681B68022202217868984745E0284B13
:102920001B685B68002B40D0254B1B685B6800224E
:1029300002217868984738E07B8840F60822934265
:102940000CD11F4B1B689B68002B30D01C4B1B68A5
:102950009B68022202217868984728E0184B1B6880
:102960009B68002B23D0164B1B689B68002202211A
:10297000786898471BE0124B1B68DB68002B18D067
:102980000F4B1B68DB6802217868984711E00C4BFD
:102990001B681B69002B0ED0094B1B681B690221A9
:1029A0007868984707E000BF06E000BF04E000BF7A
:1029B00002E000BF00E000BF00BF0837BD4680BD99
:1029C0009C03002080B582B000AF78600B467B800E
:1029D0007B8840F6167293420CD040F616729342F2
:1029E0002DDC40F6147293421DD040F615729342CE
:1029F0000DD024E01E4B1B689B68002B2CD01C4B79
:102A00001B689B68022200217868984724E0184BD5
:102A10001B68DB68002B21D0154B1B68DB6800218D
:102A2000786898471AE0124B1B681B69002B17D077
:102A30000F4B1B681B6900217868984710E00C4B0E
:102A40001B685B68002B0DD0094B1B685B6800227C
:102A500000217868984705E000BF04E000BF02E06D
:102A600000BF00E000BF00BF0837BD4680BD00BF0B
:102A70009C03002090B583B000AF78607B685B68F2
:102A800003F0E063B3F1E06F00F0B080B3F1E06F0A
:102A900000F2C580B3F1C06F00F0C380B3F1C06F26
:102AA00000F2BD80B3F1A06F00F08880B3F1A06F99
:102AB00000F2B580B3F1806F68D0B3F1806F00F29F
:102AC000AE80B3F1407F48D0B3F1407F00F2A780E1
:102AD000B3F1807F03D0B3F1007F25D09FE07B6806
:102AE0005B6803F40043002B15D05B4B1B681C6B29
:102AF000786800F0E5FC03461846A0470346002B23
:102B000000F091807868FFF7CFFE03461946786899
:102B1000FFF7DCFE9CE07868FFF7C6FE0346194627
:102B20007868FFF74FFF93E04B4B1B681C6B78688E
:102B300000F0C6FC03461846A0470346002B74D09D
:102B4000454B1B685B68002B71D0434B1B685B686F
:102B5000002200217868984769E03F4B1B681C6B96
:102B6000786800F0ADFC03461846A0470346002BEA
:102B70005FD0394B1B689B68002B5CD0364B1B68C1
:102B80009B68012200217868984754E0324B1B680B
:102B90001C6B786800F094FC03461846A047034677
:102BA000002B4AD02C4B1B68DB68002B47D02A4BEC
:102BB0001B68DB6800217868984740E0264B1B685B
:102BC0001C6B786800F07CFC03461846A04703465F
:102BD000002B36D0204B1B681B69002B33D01E4BBB
:102BE0001B681B690021786898472CE01A4B1B680A
:102BF0001C6B786800F064FC03461846A047034647
:102C0000002B22D0144B1B685B69002B1FD0124B8A
:102C10001B685B69032200217868984717E000BFB2
:102C200016E000BF14E000BF12E000BF10E000BFDC
:102C30000EE000BF0CE000BF0AE000BF08E000BFEC
:102C400006E000BF04E000BF02E000BF00E000BFFC
:102C500000BF0C37BD4690BD9C03002080B582B0FC
:102C600000AF78607B685A68394B1340394A934209
:102C700053D0384A93425BD8374A93424DD0364AB4
:102C8000934255D8354A934247D0344A93424FD85D
:102C9000B3F5E20F41D0B3F5E20F49D8304A934281
:102CA00030D02F4A934243D82E4A93421FD02D4A08
:102CB00093423DD8B3F5E00F03D02B4A93420BD09B
:102CC00036E02A4B1B689B69002B33D0274B1B68CF
:102CD0009B69786898472DE0244B1B68DB69002BC3
:102CE0002AD0224B1B68DB697868984724E01F4B89
:102CF0001B681B6A002B21D01C4B1B681B6A786861
:102D000098471BE0194B1B685B6A002B18D0174BC8
:102D10001B685B6A7868984712E0144B1B689B6AD3
:102D2000002B0FD0114B1B689B6A7868984709E00D
:102D300000BF08E000BF06E000BF04E000BF02E003
:102D400000BF00E000BF00BF0837BD4680BD00BF28
:102D500000F0FF00003071000020710000107100D1
:102D60000030700000207000001070009C030020F4
:102D700080B582B000AF78607B685B6803F0E06389
:102D8000B3F1E06F20D0B3F1E06F28D8B3F1C06F9A
:102D90001AD0B3F1C06F22D8B3F1A06F14D0B3F141
:102DA000A06F1CD8B3F1806F0ED0B3F1806F16D82E
:102DB000B3F1407F08D0B3F1407F10D8B3F1807FEA
:102DC00002D0B3F1007F0AD1084B1B68DB6A002BED
:102DD00007D0064B1B68DB6A7868984701E000BFA4
:102DE00000E000BF00BF0837BD4680BD9C03002047
:102DF00080B582B000AF78607B685B6803F0E06309
:102E0000002B03D17868FFF729FF03E07868FFF70C
:102E1000AFFF00BF00BF0837BD4680BD80B582B0A0
:102E200000AF78600D4B1B685B6B002B04D00B4B25
:102E30001B685B6B78689847786800F046FC03462F
:102E4000002B03D07868FFF715FE02E07868FFF7E3
:102E5000CFFF00BF0837BD4680BD00BF9C030020E8
:102E600080B483B000AF7860044A7B68136000BF11
:102E70000C37BD465DF8047B704700BFA0030020FF
:102E800080B483B000AF78607B68DB881B034FF0B1
:102E9000D05213437A689288134318460C37BD46C4
:102EA0005DF8047B704780B483B000AF78607B68C6
:102EB000DB881B034FF0D85213437A689288134380
:102EC00018460C37BD465DF8047B704780B483B06C
:102ED00000AF78607B68DB881B034FF0E052134340
:102EE0007A689288134318460C37BD465DF8047B18
:102EF000704780B483B000AF78607B68DB881B03C9
:102F00004FF0E85213437A689288134318460C37FF
:102F1000BD465DF8047B704780B483B000AF786035
:102F20007B685B881A03074B13404FF0C85213436A
:102F30007A689288134318460C37BD465DF8047BC7
:102F4000704700BF00F0FF0080B483B000AF78602E
:102F50007B685B881A03074B13404FF0C85213433A
:102F60007A689288134318460C37BD465DF8047B97
:102F7000704700BF00F0FF0080B584B000AF7860FC
:102F80000C4B1B681B68786898470346FB73094B1A
:102F90001B685B68002B07D0FB7B002B04D0054B24
:102FA0001B685B6878689847FB7B18461037BD46FE
:102FB00080BD00BFA003002080B582B000AF786064
:102FC00039607868FFF75CFF02463B685A603868F2
:102FD000FFF7D2FF034618460837BD4680BD80B5CF
:102FE00082B000AF786039607868FFF75CFF024616
:102FF0003B685A603868FFF7BFFF0346184608373A
:10300000BD4680BD80B582B000AF78603960786819
:10301000FFF75CFF02463B685A603868FFF7ACFF79
:10302000034618460837BD4680BD80B582B000AF64
:10303000786039607868FFF75CFF02463B685A6049
:103040003868FFF799FF034618460837BD4680BD2C
:1030500080B582B000AF786039603B6809330021E9
:10306000184602F066FF3868FFF786FF03461846E9
:103070000837BD4680BD80B582B000AF786039604A
:103080003B6809334021184602F053FF3868FFF7C8
:1030900073FF034618460837BD4680BD80B582B031
:1030A00000AF78607B680933C021184602F041FF09
:1030B0007868FFF761FF034618460837BD4680BDB4
:1030C00080B582B000AF786039603B6809338021F9
:1030D000184602F02EFF3868FFF74EFF03461846E9
:1030E0000837BD4680BD80B483B000AF78603960DA
:1030F0007B68DB881B0A9BB2DAB23B685A727B683A
:10310000DB88DAB23B689A7200BF0C37BD465DF8C7
:10311000047B704780B586B000AFF860B9607A6014
:103120000023FB757B681A880023B968F86800F0F3
:1031300063FB0346BB75FB685B8B082B06D8B9683D
:10314000F868FFF739FF0346FB7520E07B681B88B2
:10315000072B06D8B968F868FFF741FF0346FB75EF
:1031600015E07B681B881A46BB7D1344FA68528BB6
:10317000934206DAB968F868FFF744FF0346FB7527
:1031800005E0B968F868FFF750FF0346FB75FB7D63
:10319000002B07D07B681A88BB7D9BB213449AB280
:1031A0007B681A80FB7D18461837BD4680BD80B508
:1031B00086B000AFF860B9607A600023FB75FB68E9
:1031C0005B8B082B1ED87B681A880023B968F868C7
:1031D00000F012FB0346BB75F868FFF79DFE024640
:1031E000BB685A60B868FFF7C7FE0346FB75FB7DF6
:1031F000002B07D07B681A88BB7D9BB213449AB220
:103200007B681A80FB7D18461837BD4680BD80B5A7
:1032100086B000AFF860B9607A60B968F868FFF707
:1032200062FFF868FFF790FE0246BB685A607B6851
:103230001A880223B968F86800F0DEFA0346BB7505
:103240000023FB75FB685B8B062B06D8B968F86812
:10325000FFF7FEFE0346FB751FE07B681B88052B0E
:1032600006D8B968F868FFF706FF0346FB7514E057
:103270007B681B881A46BB7D1344FA68528B9342C5
:1032800005DAB868FFF70AFF0346FB7505E0B96881
:10329000F868FFF715FF0346FB75FB7D002B07D091
:1032A0007B681A88BB7D9BB213449AB27B681A80F4
:1032B000FB7D18461837BD4680BD80B485B000AF91
:1032C000F860B9607A60012318461437BD465DF88E
:1032D000047B704780B582B000AF78607868FFF7F4
:1032E0004BFE034618460837BD4680BD80B483B008
:1032F00000AF7860044A7B68136000BF0C37BD469E
:103300005DF8047B704700BFA403002080B584B043
:1033100000AFF860B9607A60F86802F024FE0346F6
:10332000002B3DD0FB685B8841F6484293421CD09D
:1033300041F6484293422ADC40F6C84293421DD0EF
:1033400040F6C842934222DC40F6A802934215D0D0
:1033500040F6A80293421ADC40F6680293420DD070
:1033600040F68802934209D011E0134B1B68DB68DA
:103370007A68B968F8689847034619E00E4B1B68ED
:103380001B697A68B968F8689847034610E00A4BE9
:103390001B685B687A68B968F8689847034607E075
:1033A000054B1B689B687A68B968F86898470346BC
:1033B00018461037BD4680BDA403002080B588B0F4
:1033C00000AF786000237B811C4B1B681B6898470B
:1033D000034683F00103DBB2002B01D0002329E078
:1033E0007B685B8B002B09D107F10A0207F10C0304
:1033F00019467868FFF78AFF03461BE007F10A02C7
:1034000007F10C0319467868FFF780FF0346002B8D
:103410000FD007E007F10A0207F10C03194678689C
:10342000FFF774FF7B685A8B7B899A42F2D801239D
:1034300000E0002318462037BD4680BDA4030020CD
:1034400080B582B000AF7860044B1B685B69786818
:103450009847034618460837BD4680BDA4030020A0
:1034600080B485B000AF78607B6800225A607B68CA
:1034700000221A720023FB6008E07A68FB6813449C
:10348000093300221A70FB680133FB60FB68072BCD
:10349000F3DD00BF00BF1437BD465DF8047B704705
:1034A00080B483B000AF78607B685B689BB2C3F385
:1034B0000B039BB218460C37BD465DF8047B704782
:1034C00080B483B000AF78607B685B6803F0E06332
:1034D000B3F1E06F1BD0B3F1E06F35D8B3F1A06F5B
:1034E0002AD0B3F1A06F2FD8B3F1806F24D0B3F1FD
:1034F000806F29D8B3F1407F1ED0B3F1407F23D82D
:10350000B3F1807F03D0B3F1007F15D01CE07B685E
:103510005B6803F40043002B18D07B685B7A1BB216
:103520001B021BB203F470631AB27B689B7A1BB256
:1035300013431BB29BB20BE07B685B681B0B9BB217
:10354000C3F30B039BB203E000BF00E000BF002306
:1035500018460C37BD465DF8047B704780B485B0D3
:1035600000AF78600023FB817B685B6803F0E06359
:10357000B3F1E06F1BD0B3F1E06F2CD8B3F1A06FC3
:1035800026D0B3F1A06F26D8B3F1806F20D0B3F16D
:10359000806F20D8B3F1407F1AD0B3F1407F1AD8A2
:1035A000B3F1807F03D0B3F1007F11D013E07B68CB
:1035B0005B681B0B9BB2C3F30B03FB81FB89A3F678
:1035C0001473022B02D840F61473FB81FB8903E0CD
:1035D00041F6484300E0002318461437BD465DF825
:1035E000047B704780B588B000AFF860B9601346BF
:1035F000FB710023FB77FB681B7E184602F0D0F8B6
:103600000346FB82FB79BB611BE0FB685B8BFA8A9C
:103610009A421DD9FB68DB69FA68528B1344B9687A
:10362000BA690A44093212781A70FB685B8B01335D
:103630009AB2FB685A83FB7F0133FB77BB69013386
:10364000BB61BB681B7A1A46BB699342DDDB00E0B5
:1036500000BFFB7F18462037BD4680BD80B485B0D3
:1036600000AF78600023FB730023BB600CE07A6836
:10367000BB68134409331B78002B02D1FB7B013359
:10368000FB73BB680133BB607B681B7A1A46BB685F
:103690009342ECDBFB7B18461437BD465DF8047B98
:1036A000704790B583B000AF786039603868FFF735
:1036B000D5FF03461C46786802F068FC03462344A5
:1036C000DBB218460C37BD4690BD80B483B000AF66
:1036D00078607B685B6803F00063002B14BF0123F4
:1036E0000023DBB218460C37BD465DF8047B7047FB
:1036F0002DE9F00F94B000AFF864FB6C5B7ADBB29D
:1037000000223B647A644FF000004FF000013B6CF4
:1037100019020020FB6C9B7ADBB20022BB63FA63C8
:103720004FF000024FF00003BE6B3300002240EA6E
:10373000020841EA0309FB6CDB7ADBB200223B633F
:103740007A63D7E90C120B461D0A0B461C0648EAA1
:103750000403BB6249EA0503FB62FB6C1B7BDBB223
:1037600000223B627A624FF000024FF00003D7E97B
:10377000084529460B04214643EA114321460A0421
:10378000D7E90A4521461143B96129461943F96130
:10379000FB6C5B7BDBB200223B617A614FF0000285
:1037A0004FF00003D7E9044529460B02214643EABE
:1037B000116321460A02D7E90645214641EA020A79
:1037C000294641EA030BFB6C9B7BDBB20022BB600A
:1037D000FA60D7E902120B464AEA03033B6013463C
:1037E0004BEA03037B60D7E90023104619465037A4
:1037F000BD46BDE8F00F704780B487B000AFF860F9
:10380000B96011461A460B46FB8013467B71BB68B4
:1038100000221A720023FB75FB685B8B002B01D121
:10382000002327E07B793B6118E0FB68DA69FB88BD
:1038300013441978BA683B69134409330A461A706D
:10384000FB880133FB80FB7D0133FB75FB685B8BE1
:10385000FA889A4206D23B6901333B613B69072BE8
:10386000E3DD00E000BF7A79FB7D1344DAB2BB6888
:103870001A72FB7D18461C37BD465DF8047B704705
:1038800080B487B000AFF860C7E9002397F8203014
:10389000022B01D9002327E097F820300633DAB253
:1038A000FB681A7297F8203005337B6115E0397890
:1038B000FA687B69134409330A461A70D7E9000194
:1038C0004FF000024FF00003020A42EA01620B0AC5
:1038D000C7E900237B69013B7B6197F820307A6957
:1038E0009A42E4DAFB681B7A18461C37BD465DF83D
:1038F000047B704780B500AF00F0A4F900F0FCF83D
:1039000000F07CF8124805F049FF124803F02CFF44
:10391000114805F051F9114805F08AFD104803F0EF
:1039200039F8104803F07CFC0F4802F0CBFB0F483D
:1039300001F02CFD0E4800F0B3FC0E4800F09EFB99
:103940000D4800F055FE0D4800F048F800BF80BD5E
:10395000E0900108A8910108A48F0108A48F010834
:10396000E4900108309101085C910108A08F0108E2
:10397000D88F0108E08F01080C9001089C91010884
:1039800080B500AFFDF788FFFDF700FF0C48FEF79C
:10399000B1FC0C48FEF778FF0B48FFF761FA0B48C3
:1039A000FFF7A4FC0A48FEF737F80A48FEF782FA48
:1039B0000948FEF7F5FAFDF7F5FD00BF80BD00BF31
:1039C00094930108AC930108E4930108EC93010877
:1039D000609301086C9301080494010880B483B0DB
:1039E00000AF7860044A7B68136000BF0C37BD46A7
:1039F0005DF8047B704700BFA803002080B483B04B
:103A000000AF00237B6007E00C4A7B68002142F88E
:103A100023107B6801337B607B68292BF4DD074B27
:103A2000002283F8A820054B002283F8A92000BFBC
:103A30000C37BD465DF8047B704700BFAC03002027
:103A400080B485B000AF7860124B93F8A830013392
:103A5000FB73FB7B292B01D90023FB730D4B93F8E0
:103A6000A930FA7B9A420DD00A4B93F8A830194638
:103A7000084A7B6842F82130064AFB7B82F8A8306E
:103A80007B6800E0002318461437BD465DF8047BD0
:103A9000704700BFAC03002080B483B000AF0023A8
:103AA0007B60144B93F8A820124B93F8A9309A42EC
:103AB00018D0104B93F8A9301A460E4B53F8223009
:103AC0007B600C4B93F8A9300133DAB2094B83F8D1
:103AD000A920084B93F8A930292B03D9054B0022C4
:103AE00083F8A9207B6818460C37BD465DF8047B37
:103AF000704700BFAC03002080B483B000AF002348
:103B00007B6007E0084A7B68002142F823107B684D
:103B100001337B607B68282BF4DD00BF00BF0C37CE
:103B2000BD465DF8047B70475804002080B485B022
:103B300000AF78600023FB600FE00D4AFB6852F88D
:103B40002330002B06D10A49FB687A6841F823200C
:103B50007B6806E0FB680133FB60FB68282BECDD2B
:103B6000002318461437BD465DF8047B704700BF3C
:103B70005804002080B485B000AF0346FB800B469C
:103B8000BB8013467B800023FB6025E0174AFB685F
:103B900052F82330002B1CD0144AFB6852F8233013
:103BA000DB88BA889A4214D1104AFB6852F8233055
:103BB0009B88FA889A420CD10C4AFB6852F8233051
:103BC0005B887A889A4204D1084AFB6852F823300D
:103BD00006E0FB680133FB60FB68282BD6DD002381
:103BE00018461437BD465DF8047B70475804002022
:103BF00080B485B000AF78607B68002B01D10023D2
:103C000017E00023FB6010E00D4AFB6852F82330F8
:103C10007A689A4206D10A4AFB68002142F82310CA
:103C20007B6806E0FB680133FB60FB68282BEBDD5B
:103C3000002318461437BD465DF8047B704700BF6B
:103C40005804002080B582B000AF00237B6083E081
:103C50007A6813469B001344DB004F4A134418460E
:103C600001F024FE7B681F2B19DC4B497A68134650
:103C70009B001344DB000B44183300221A707B684E
:103C80001B0103F5CD63444A991843487A681346EB
:103C90009B001344DB0003441C33196059E07B682C
:103CA000232B1EDC3C497A6813469B001344DB003F
:103CB0000B44183301221A707B68A3F120021346CB
:103CC000DB001344DB0003F66803334A99183248DB
:103CD0007A6813469B001344DB0003441C331960CD
:103CE00037E07B68272B1ADC2B497A6813469B0048
:103CF0001344DB000B44183302221A707B68243B08
:103D00001B0203F68813244A991823487A6813463D
:103D10009B001344DB0003441C33196019E01E4967
:103D20007A6813469B001344DB000B4418330322CC
:103D30001A707B68283B5B0203F68853164A991871
:103D400015487A6813469B001344DB0003441C3378
:103D500019607B6801337B607B68282B7FF778AF25
:103D60000E4B00221A800E4B00221A800D4B0022AF
:103D70001A800D4B00221A800C4B00221A800C4B2B
:103D800000221A800B4B00221A800B4B00221A8053
:103D900000BF0837BD4680BD000500208814002004
:103DA0008A1400208C1400208E140020901400200F
:103DB00092140020941400209614002080B483B044
:103DC00000AF0346FB71FB79032B57D801A252F8D1
:103DD00023F000BFE53D00080B3E0008313E00081F
:103DE000573E00082D4B1B8801339AB22B4B1A808B
:103DF0002A4B1A882A4B1B889A4241D9284B1B8888
:103E000001339AB2264B1A8041E0264B1B880133BE
:103E10009AB2244B1A80234B1A88234B1B889A4250
:103E200030D9214B1B8801339AB21F4B1A802EE0E8
:103E30001E4B1B8801339AB21C4B1A801B4B1A88ED
:103E40001B4B1B889A421FD9194B1B8801339AB20E
:103E5000174B1A801BE0174B1B8801339AB2154B86
:103E60001A80144B1A88144B1B889A420ED9124B95
:103E70001B8801339AB2104B1A8008E000BF06E09D
:103E800000BF04E000BF02E000BF00E000BF00BFD1
:103E90000C37BD465DF8047B704700BF88140020D6
:103EA000901400208A140020921400208C1400200A
:103EB000941400208E1400209614002080B584B045
:103EC00000AF0346FB710023FB730023BB73FB7938
:103ED000032B22D801A252F823F000BFED3E0008C8
:103EE000F73E0008033F00080F3F00080023FB7364
:103EF0002023BB7313E02023FB73FB7B0433BB73D2
:103F00000DE02423FB73FB7B0433BB7307E0282302
:103F1000FB73FB7B0133BB7301E000234DE0FB7BB4
:103F2000BB6045E02749BA6813469B001344DB0099
:103F30000B441B78C3F30003DBB283F00103DBB255
:103F4000002B32D0BA6813469B001344DB001D4A95
:103F50001344184601F0AAFC1A49BA6813469B009C
:103F60001344DB000B44213301221A701549BA684F
:103F700013469B001344DB00CA18137843F0010377
:103F800013701049BA6813469B001344DB000B44BE
:103F900018331B781846FFF711FFBA6813469B00C9
:103FA0001344DB00074A134407E0BB680133BB60DE
:103FB000BB7BBA689A42B5DB002318461037BD4672
:103FC00080BD00BF0005002080B483B000AF7860E2
:103FD0007B68002B42D07B6893F82130013BDAB23A
:103FE0007B6883F821207B6893F82130002B37D140
:103FF0007B681B7E032B27D801A252F823F000BF59
:10400000114000081F4000082D4000083B400008F8
:10401000164B1B88013B9AB2144B1A8014E0144BC8
:104020001B88013B9AB2124B1A800DE0114B1B8882
:10403000013B9AB20F4B1A8006E00F4B1B88013BE5
:104040009AB20D4B1A8000BF7B68002283F82120B2
:104050007A68137823F00103137002E000BF00E0D8
:1040600000BF0C37BD465DF8047B70478814002004
:104070008A1400208C1400208E14002080B582B099
:1040800000AF7860124A7B681360124B124A9A6044
:10409000104B9B68114ADA610E4B9B6800221A761E
:1040A0000C4B9B68184601F001FC0A4B9B681846B4
:1040B00001F0DAFB074B9A68137843F001031370A1
:1040C000044B00221A6000BF0837BD4680BD00BF08
:1040D00098140020A0140020B0140020D814002050
:1040E00080B582B000AF78607B681B681B78C3F333
:1040F0000403DBB20C2B0CD00C2B16DC0A2B02D0E9
:104100000B2B0CD011E00B4B1B68DB6878689847D1
:104110000CE0084B1B681B697868984706E0054B64
:104120001B685B697868984700E000BF0837BD46A8
:1041300080BD00BF9814002080B500AF0D4B1B7BE5
:1041400003F00103DBB2002B10D00B4B1B681B6884
:10415000084A9268104698470346002B04D0054A47
:10416000137B23F001031373012300E0002318469F
:1041700080BD00BFA01400209814002080B500AFBF
:10418000084B1B7B03F00203DBB2002B06D0064B6F
:104190001B689B6903489847012300E000231846E9
:1041A00080BD00BFA01400209814002080B500AF8F
:1041B000114B1B68002B1CD1104B1B685B68052042
:1041C000984703460C4A13600B4B1B68002B01D128
:1041D00001230FE0084B1B681B78C3F30403DBB219
:1041E0000C2B04D8054B1B689B6903489847012397
:1041F00000E00023184680BDA01400209814002081
:1042000080B500AF114B1B68002B1CD0104B1B68F6
:104210009B680520984703460C4A13600B4B1B68AC
:10422000002B01D101230FE0084B1B681B78C3F35F
:104230000403DBB20C2B04D8054B1B689B690348B5
:104240009847012300E00023184680BDA0140020F9
:104250009814002080B500AF104B1B68DB699847AD
:104260000346002B14D10D4B1B681B6A984703466D
:10427000002B0FD1094B1B685B6A98470346002B44
:104280000AD1064B1B689B6A98470346002B04E043
:1042900000BF02E000BF00E000BF80BD9814002016
:1042A00080B483B000AF7860044A7B68136000BFBD
:1042B0000C37BD465DF8047B704700BFE814002052
:1042C000B0B58AB006AF78604FF48071F981796833
:1042D0000968D1F84016D1E9200100F4000200235A
:1042E000134302D040F20113FB817B689C687B681A
:1042F0001B681D8A7B681B68D3E90223F989049136
:104300004FF000004FF00001CDE9020100210091C3
:104310002946204601F06AFA7B6899687B681B6829
:10432000D3E9022300200090084601F024FC7B68BA
:104330009B6806225A837B681A68137843F08003CF
:1043400013707B681A6892F8383643F0010382F8DC
:1043500038367B681B68002283F839267B681A6828
:1043600092F8283223F0010382F828327B681B6818
:10437000002283F829227A68137B43F00103137328
:104380007B681A6813780C2161F30403137000BF73
:104390001037BD46B0BD0000B0B58CB006AF786038
:1043A0007B681B68B3F83032002B0CD17B681A682D
:1043B00013780B2161F3040313707A68137B23F0E5
:1043C0000103137380E0424B1B681B687A68106816
:1043D0007A68126892F83926114698470346FB829C
:1043E0007B681A687B681B6893F839361B01134495
:1043F00003F50E73D3E90023C7E902237B689C68A9
:104400007B681B681D8A7B681B68D3E90223F98AD5
:1044100004914FF000004FF00001CDE902010021AE
:1044200000912946204601F0E1F97B689968D7E9B7
:104430000223084601F070FA7B689B6808225A83C1
:104440007B681B6893F839260132D2B283F839268B
:104450007A68137B43F0020313737A68137B43F08B
:10446000010313737B681B6893F839361A467B681F
:104470001B68B3F830329A4226D37B681B6800224F
:1044800083F839267B681A6892F8383623F00103DE
:1044900082F838367B681B68002283F829227B6803
:1044A0001A6892F8283243F0010382F828327A68B9
:1044B000137B23F0020313737B681A6813780B21B4
:1044C00061F30403137000BF1837BD46B0BD00BFD1
:1044D000E8140020B0B58CB006AF78607B681B682C
:1044E0001B8C002B0CD17B681A6813780D2161F3AB
:1044F000040313707A68137B23F00103137371E0D4
:104500003A4B1B685B687A6810687A68126892F8A0
:104510002922114698470346FB827B681A687B680C
:104520001B6893F829321B0113442833D3E9002375
:10453000C7E902237B689C687B681B681D8A7B68CF
:104540001B68D3E90223F98A04914FF000004FF071
:104550000001CDE90201002100912946204601F029
:1045600045F97B689968D7E90223084601F0D4F938
:104570007B689B6808225A837B681B6893F8292212
:104580000132D2B283F829227A68137B43F0020306
:1045900013737A68137B43F0010313737B681B6802
:1045A00093F829321A467B681B681B8C9A4219D3F0
:1045B0007B681A6892F8283223F0010382F82832C7
:1045C0007B681B68002283F829227A68137B23F01A
:1045D000020313737B681A6813780D2161F30403D7
:1045E000137000BF1837BD46B0BD00BFE8140020EF
:1045F00080B582B000AF7860164A7B681360164BB6
:10460000164A1A61144B1B69154ADA61124B1B6971
:1046100003221A76104B1B69184601F047F90E4B1E
:104620001B69184601F020F90B4B1A69137843F007
:1046300001031370084B00225A60074A137A23F0D3
:1046400001031372044B00221A6000BF0837BD46F5
:1046500080BD00BFEC140020F014002008150020DD
:104660003015002080B582B000AF78607B685B6851
:10467000002B10D00A4B1B681B6898477B685B684F
:104680001846FFF7A1FC064B1B685B6898477B68E0
:1046900000225A6000E000BF0837BD4680BD00BF61
:1046A000EC14002080B483B000AF78607B681B6896
:1046B0001B7823F07F03DBB2002B29D07B685B687B
:1046C0005B8803F00803002B20D07B681B681A8AE4
:1046D0007B685B68DB889A420BD07B681B68D3E9F8
:1046E00002017B685B68D3E90423994208BF9042CA
:1046F00006D17B685B685B8803F00803002B05D15B
:104700007B685B685B88B3F5926F01D1012300E0A1
:10471000002303F00103DBB218460C37BD465DF8F9
:10472000047B7047F0B589B006AF78607B681D697F
:104730007B681B681E8A7B681B68D3E902017B6863
:104740005B689C887B685B6893ED027B68230493BD
:104750008DED027B009402460B463146284601F05F
:1047600045F87B681B69002241F24301184601F0BD
:104770001BF97B6818697B685B685B8802221946B5
:1047800001F012F97A68137D43F00103137500BF3D
:104790000C37BD46F0BD000080B582B000AF786038
:1047A0007B68002B00F0FE83C04B1B681B6C786895
:1047B0009847034683F00103DBB2002B40F0F483FB
:1047C0007B685B685B8841F68872934200F0B28335
:1047D00041F68872934200F3D48341F648429342F3
:1047E00000F0628341F64842934200F3CA8340F6E8
:1047F0001472934200F0088340F61472934200F35F
:10480000C08340F6E852934200F0A28140F6E8529D
:10481000934200F3B68340F6A852934200F02383FC
:1048200040F6A852934200F3AC8340F6C84293424C
:1048300000F0648340F6C842934200F3A28340F63E
:104840004822934200F04C8340F64822934200F302
:10485000988340F62822934200F0348340F62822C1
:10486000934200F38E8340F60822934200F0818148
:1048700040F60822934200F3848340F6C812934224
:1048800000F0048340F6C812934200F37A83B3F534
:10489000176F00F08F82B3F5176F00F3728340F645
:1048A0006812934200F0788240F66812934200F357
:1048B000688340F61412934200F01B8240F61412F3
:1048C000934200F35E8340F6F402934200F0C98104
:1048D00040F6F402934200F3548340F6A802934258
:1048E00000F0428340F6A802934200F34A8340F668
:1048F0008802934200F02B8340F68802934200F333
:10490000408340F66802934200F0068340F6680256
:10491000934200F3368340F62802934200F04D8123
:1049200040F62802934200F32C83B3F5CD6F00F0DC
:104930005081B3F5CD6F00F3248340F2EB529342E4
:1049400000F0708240F2EB52934200F31A8340F27F
:10495000B452934200F04A8240F2B452934200F3C0
:10496000108340F29452934200F0328240F294520B
:10497000934200F30683B3F5A96F80F2028340F2FD
:104980002452934241DAB3F5996F80F2FA8240F2F1
:10499000A442934280F28C80B3F5926F00F0318193
:1049A000B3F5926F00F3ED82B3F5916F00F01D81C6
:1049B000B3F5916F00F3E58240F2E912934200F003
:1049C0004482B3F5F57F80F2DC82B3F5B87F00F066
:1049D0002481B3F5B87F00F3D48240F201129342F0
:1049E00000F0DF80B3F5817F80F2CB82B3F5807F6A
:1049F00000F0CB80B3F5807F00F3C382682B00F01A
:104A00001881A82B00F02181BBE2A3F22453232BB1
:104A100000F2B78201A252F823F000BF0B4D00084C
:104A2000834F0008834F0008834F0008834F00081E
:104A3000834F0008834F0008834F0008834F00080E
:104A4000834F0008834F0008834F0008834F0008FE
:104A5000834F0008834F0008834F0008834F0008EE
:104A6000834F0008834F0008834F0008834F0008DE
:104A7000834F0008834F0008834F0008834F0008CE
:104A8000834F0008834F0008834F0008834F0008BE
:104A9000834F0008834F0008834F00083F4D0008F4
:104AA0005B4D00087D4D0008234D0008EC140020EC
:104AB000A3F2A443232B00F2648201A252F823F054
:104AC0007B4C0008834F0008834F0008834F000889
:104AD000834F0008834F0008834F0008834F00086E
:104AE000834F0008834F0008834F0008834F00085E
:104AF000834F0008834F0008834F0008834F00084E
:104B0000834F0008834F0008834F0008834F00083D
:104B1000834F0008834F0008834F0008834F00082D
:104B2000834F0008834F0008834F0008834F00081D
:104B3000834F0008834F0008834F0008834F00080D
:104B4000AB4C0008C34C0008DB4C0008934C000839
:104B5000894B1B689B6D002B05D0874B1B689B6D99
:104B6000786898476FE2844B1B685B697868984760
:104B700069E2814B1B68DB6D002B00F017827E4BD6
:104B80001B68DB6D7868984710E27B4B1B689B695C
:104B9000002B00F00D82784B1B689B697868984762
:104BA00006E2754B1B68DB69002B00F00382724B39
:104BB0001B68DB6978689847FCE16F4B1B685B6B8F
:104BC000002B00F0F9816C4B1B685B6B7868984791
:104BD000F2E1694B1B689B6B002B00F0EF81664B89
:104BE0001B689B6B78689847E8E1634B1B681B6AFE
:104BF000002B00F0E581604B1B681B6A78689847C2
:104C0000DEE15D4B1B685B6A002B00F0DB815A4BD9
:104C10001B685B6A78689847D4E1574B1B689B6AAE
:104C2000002B00F0D181544B1B689B6A7868984731
:104C3000CAE1514B1B68DB6A002B00F0C7814E4B69
:104C40001B68DB6A78689847C0E14B4B1B681B6B9D
:104C5000002B00F0BD81484B1B681B6B78689847A0
:104C6000B6E1454B1B681B6E002B00F0B381424B35
:104C70001B681B6E78689847ACE13F4B1B685B6E06
:104C8000002B00F0A9813C4B1B685B6E786898474D
:104C9000A2E1394B1B689B6E002B00F09F81364BC5
:104CA0001B689B6E7868984798E1334B1B68DB6EF6
:104CB000002B00F09581304B1B68DB6E78689847BD
:104CC0008EE12D4B1B681B6F002B00F08B812A4B54
:104CD0001B681B6F7868984784E1274B1B685B6FE4
:104CE000002B00F08181244B1B685B6F786898472C
:104CF0007AE1214B1B689B6F002B00F077811E4BE4
:104D00001B689B6F7868984770E11B4B1B68DB6FD3
:104D1000002B00F06F81184B1B68DB6F7868984799
:104D200068E1154B1B68D3F88030002B00F06481DC
:104D3000114B1B68D3F88030786898475CE10E4BC4
:104D40001B68D3F88430002B00F058810A4B1B6895
:104D5000D3F884307868984750E1074B1B68D3F844
:104D60008830002B00F04C81034B1B68D3F888304F
:104D70007868984744E100BFEC1400209C4B1B6806
:104D8000D3F88C30002B00F03D81994B1B68D3F891
:104D90008C307868984735E1954B1B68D3F8903094
:104DA000002B00F03181924B1B68D3F8903078686B
:104DB000984729E18E4B1B68D3F89430002B00F004
:104DC00025818B4B1B68D3F89430786898471DE198
:104DD000874B1B68D3F89830002B00F01981844B67
:104DE0001B68D3F898307868984711E1804B1B68AE
:104DF000D3F89C30002B00F00D817D4B1B68D3F85D
:104E00009C307868984705E1794B1B68D3F8A0304F
:104E1000002B00F00181764B1B68D3F8A030786836
:104E20009847F9E0724B1B68D3F8A430002B06D0EA
:104E30006F4B1B68D3F8A4307868984703E16C4B3C
:104E40001B685B6978689847FDE0694B1B68D3F87D
:104E5000A830002B00F0E280654B1B68D3F8A83027
:104E600078689847DAE0624B1B68D3F8AC30002BC7
:104E700006D05F4B1B68D3F8AC3078689847E2E007
:104E80005B4B1B685B6978689847DCE0584B1B6894
:104E9000D3F8B030002B00F0C380554B1B68D3F81B
:104EA000B03078689847BBE0514B1B68D3F8B430FA
:104EB000002B00F0B7804E4B1B68D3F8B4307868F5
:104EC0009847AFE04A4B1B68D3F8B830002B00F08E
:104ED000AB80474B1B68D3F8B83078689847A3E09D
:104EE000434B1B68D3F8BC30002B00F09F80404B35
:104EF0001B68D3F8BC307868984797E03C4B1B6838
:104F0000D3F8C030002B00F09380394B1B68D3F8E6
:104F1000C030786898478BE0354B1B68D3F8C430B5
:104F2000002B00F08780324B1B68D3F8C4307868C0
:104F300098477FE02E4B1B68D3F8C830002B7BD0FE
:104F40002B4B1B68D3F8C8307868984774E0284B1F
:104F50001B68D3F8CC30002B70D0254B1B68D3F8DE
:104F6000CC307868984769E0214B1B68D3F8D03083
:104F7000002B65D01E4B1B68D3F8D030786898475B
:104F80005EE07B681A687B685B681946104601F032
:104F900020F80346002B55D0154B1B685B697868D9
:104FA00098474FE000BF4EE000BF4CE000BF4AE032
:104FB00000BF48E000BF46E000BF44E000BF42E061
:104FC00000BF40E000BF3EE000BF3CE000BF3AE071
:104FD00000BF38E000BF36E000BF34E000BF32E081
:104FE00000BF30E000BF2EE000BF2CE000BF2AE091
:104FF000EC14002000BF26E000BF24E000BF22E048
:1050000000BF20E000BF1EE000BF1CE000BF1AE0B0
:1050100000BF18E000BF16E000BF14E000BF12E0C0
:1050200000BF10E000BF0EE000BF0CE000BF0AE0D0
:1050300000BF08E000BF06E000BF04E000BF02E0E0
:1050400000BF00E000BF0837BD4680BD80B500AF9F
:105050000D4B1B7D03F00103DBB2002B10D00B4B7B
:105060001B689B68084A1269104698470346002B44
:1050700004D0054A137D23F001031375012300E0DA
:105080000023184680BD00BFF0140020EC1400205F
:1050900080B500AF084B1B7A03F00103DBB2002B95
:1050A00006D0064B1B68DB6B03489847012300E0E2
:1050B0000023184680BD00BFF0140020EC1400202F
:1050C00080B500AF0D4B5B68002B14D10C4B1B68F7
:1050D0001B689847FEF7E0FC0346084A5360084BFC
:1050E0001B685B689847054B5B68002B0CBF01236E
:1050F0000023DBB200E00023184680BDF01400203E
:10510000EC14002080B500AF134B1B68002B1FD19F
:10511000124B1B68DB680420984703460E4A136055
:105120000D4B1B68002B04D10B48FFF79BFA0123A2
:105130000FE0094B1B681B7803F01F03DBB20D2B3C
:1051400004D1064B1B68DB6B03489847012300E042
:105150000023184680BD00BFF0140020EC1400208E
:1051600080B500AF134B1B68002B1FD0124B1B6880
:105170001B690420984703460E4A13600D4B1B68B9
:10518000002B04D10B48FFF76DFA01230FE0094B08
:105190001B681B7803F01F03DBB20D2B04D1064BF9
:1051A0001B68DB6B03489847012300E00023184687
:1051B00080BD00BFF0140020EC14002080B500AFCB
:1051C000154B1B685B6C98470346002B1BD1124B99
:1051D0001B689B6C98470346002B16D10E4B1B682F
:1051E000DB6C98470346002B11D10B4B1B681B6DE2
:1051F00098470346002B0CD1074B1B685B6D984703
:105200000346002B06E000BF04E000BF02E000BF41
:1052100000E000BF80BD00BFEC14002080B487B068
:1052200000AF78607B6800221A8279684FF0000234
:105230004FF00003C1E9022379684FF000024FF0FC
:105240000003C1E906237A68137823F01F03137063
:105250007A68137823F0200313707A68537823F068
:10526000010353707A68137823F0800313707A680F
:10527000137823F0400313707A68537823F0020305
:1052800053707A68537823F0040353707A68537824
:1052900023F0080353707B680022A3F844267B6840
:1052A00003F5CA6319464FF000024FF0000341E9CD
:1052B00002237B68002283F854267B680022C3F80F
:1052C00050267B6800221A8400237B6115E07A68EF
:1052D0007B691B01134403F128014FF000024FF0DA
:1052E0000003C1E900237A687B6903331B0113447F
:1052F00000221A707B6901337B617B691F2BE6DD1D
:105300007B680022A3F8302200233B6115E07A6815
:105310003B691B01134403F50E714FF000024FF07F
:105320000003C1E900237A683B6924331B0113445D
:1053300000221A703B6901333B613B693F2BE6DD7C
:105340007A6892F8383623F0010382F838367A68A2
:1053500092F8283223F0010382F828320023FB6000
:1053600007E0094AFB68134400221A70FB68013306
:10537000FB60FB68072BF4DD00BF00BF1C37BD4698
:105380005DF8047B704700BF9830002080B584B082
:1053900000AF78600F4A7B6813600023FB600CE06D
:1053A000FB684FF4CB6202FB03F30B4A134418462D
:1053B000FFF734FFFB680133FB60FB68032BEFDD75
:1053C000054B03F580530022A3F8602900BF103776
:1053D000BD4680BDA03000203017002080B483B0CF
:1053E00000AF0346FB71FB79072B01D9002316E0C0
:1053F000FB790E4A0021D1540D4B03F58053B3F8CD
:105400006039002B01D1002309E0FB79074AD35C06
:105410001A464FF4CB6302FB03F3054A13441846C4
:105420000C37BD465DF8047B704700BF9830002004
:105430003017002080B483B000AF0346FB71FB79C6
:10544000072B01D900231EE0FB79124AD25CFB79BD
:105450000132D1B20F4AD154FB790E4AD35C1A46BD
:105460000D4B03F58053B3F860399A4201D3002302
:1054700009E0FB79074AD35C1A464FF4CB6302FB81
:1054800003F3054A134418460C37BD465DF8047B08
:10549000704700BF98300020301700202DE9B00F72
:1054A0008BB000AFF860FB68D3E902014FF0000257
:1054B0004FF000030B0443EA10430204C7E904233E
:1054C0000023FB84FB6800221A8400233B6223E054
:1054D0003B6A1F2B1ADCFB8C002298469146D7E9C9
:1054E000042318EB0201396049EB03037B60FA687F
:1054F0003B6A1B0113442833D7E90012C3E90012A9
:10550000FB681B8C01339AB2FB681A84FB8C013355
:10551000FB843B6A01333B62FB68D3F8403693F867
:1055200088301A463B6A9342D2DB0023FB84FB6837
:105530000022A3F830220023FB6122E0FB693F2B0D
:1055400019DCFB8C00221C461546D7E9042314EB1A
:10555000020A45EB030BFA68FB691B01134403F5D0
:105560000E73C3E900ABFB68B3F8303201339AB273
:10557000FB68A3F83022FB8C0133FB84FB69013309
:10558000FB61FB68D3F8403693F889301A46FB6913
:105590009342D3DBFA6892F8283223F0010382F8B1
:1055A0002832FB68002283F82922FA6892F83836FC
:1055B00023F0010382F83836FB68002283F839268D
:1055C00000BF2C37BD46BDE8B00F704780B586B030
:1055D00000AFC7E902017A6000237B616AE0394AC3
:1055E0007B694FF4CB6101FB03F313441B78C3F3D6
:1055F0004013DBB283F00103DBB2002B57D07B6991
:105600004FF4CB6202FB03F32E4A13441846FFF714
:1056100005FE2C4A7B694FF4CB6101FB03F3134475
:1056200003F5C8637A681A60264A7B694FF4CB6138
:1056300001FB03F3134403F10801D7E90223C1E995
:1056400000237B69D8B21F4A7B694FF4CB6101FB11
:1056500003F3134403F2546302461A707B694FF458
:10566000CB6202FB03F3174A13441846FFF716FFF9
:10567000144B03F58053B3F8603901339AB2114BE0
:1056800003F58053A3F860290E4A7B694FF4CB6180
:1056900001FB03F31A44137843F0200313707B6972
:1056A0004FF4CB6202FB03F3064A134406E07B6926
:1056B00001337B617B69032B91DD0023184618378A
:1056C000BD4680BD3017002080B485B000AF0346D2
:1056D000FB800023FB6016E0134AFB684FF4CB61AC
:1056E00001FB03F3134410331B88FA889A4207D155
:1056F000FB684FF4CB6202FB03F30B4A13440CE04C
:10570000FB680133FB60084B03F58053B3F8603945
:105710001A46FB689342DFDB002318461437BD4668
:105720005DF8047B704700BF3017002080B582B061
:1057300000AF00237B6019E0174A7B684FF4CB6110
:1057400001FB03F3134403F244631B88013398B253
:10575000114A7B684FF4CB6101FB03F3134403F25E
:10576000446302461A807B6801337B600A4B03F571
:105770008053B3F860391A467B689342DCDB074BF1
:105780001B681B68002B03D0044B1B681B689847E1
:1057900000BF0837BD4680BD30170020A030002074
:1057A00080B483B000AF0346FB71FB79032B15D89F
:1057B00001A252F823F000BFC9570008CD570008D6
:1057C000D1570008D7570008102308E0482306E007
:1057D0004FF4807303E04FF4007300E00023184699
:1057E0000C37BD465DF8047B704700BF80B586B0BE
:1057F00000AFF860C7E900230B467B81FB683A8C59
:10580000DA80F968D7E90A23C1E90423FB687A89B9
:105810009A80F968D7E90023C1E90223FB683A8E30
:105820005A80FB6800225A83FB68002283F82020FC
:10583000FB681B7E1846FFF7B3FF03467B820023FD
:105840007B6108E0FB68DA697B69134400221A7007
:105850007B6901337B617B8A7A699A42F2DB00BF04
:1058600000BF1837BD4680BD80B584B000AF7860FA
:105870007B681B7E1846FFF793FF03467B8100235E
:10588000FB6008E07B68DA69FB68134400221A7049
:10589000FB680133FB607B89FA689A42F2DB7B6824
:1058A00000225A8300BF1037BD4680BD80B483B04C
:1058B00000AF78607B680022DA8079684FF00002E0
:1058C0004FF00003C1E904237B6800229A807968C5
:1058D0004FF000024FF00003C1E902237B68002271
:1058E0005A807B6800225A837B68002283F820203C
:1058F0007B68002283F821207A68137823F0010363
:1059000013707A68137823F00203137000BF0C370A
:10591000BD465DF8047B704780B487B000AFF86087
:10592000C7E9002307237B611AE0FB68DA697B691A
:1059300013443A781A70FB685B8B01339AB2FB68A8
:105940005A83D7E900014FF000024FF00003020A2A
:1059500042EA01620B0AC7E900237B69013B7B61D4
:105960007B69002BE1DA00BF00BF1C37BD465DF844
:10597000047B704780B483B000AF78600B46FB7047
:1059800013463B807B68DA693B881344FA781A70C7
:105990007B685B8B01339AB27B685A8300BF0C37FC
:1059A000BD465DF8047B704780B483B000AF78607B
:1059B0000B467B8013463B807B881B0A99B27B6831
:1059C000DA693B881344CAB21A707B68DB693A888B
:1059D000013213447A88D2B21A707B685B8B02332F
:1059E0009AB27B685A8300BF0C37BD465DF8047BD2
:1059F000704780B485B000AFF860B9601346FB8093
:105A0000BB68190EFB68DA69FB881344CAB21A70C6
:105A1000BB68190CFB68DB69FA8801321344CAB20F
:105A20001A70BB68190AFB68DB69FA8802321344F2
:105A3000CAB21A70FB68DB69FA8803321344BA6889
:105A4000D2B21A70FB685B8B04339AB2FB685A833C
:105A500000BF1437BD465DF8047B704780B586B043
:105A600000AFF860B9601346FB800023FB8200237F
:105A7000BB82FB681B7E1846FFF792FE0346BB8283
:105A80001AE0FA8AFB881A44BB8A013B9A421ADA66
:105A9000FB8ABA681A44FB68DB69F88AF988014412
:105AA0000B4412781A70FB685B8B01339AB2FB6867
:105AB0005A83FB8A0133FB82FB8ABA6813441B7842
:105AC000002BDED100E000BFFB68DB69F98AFA88B1
:105AD0000A44134400221A70FB685B8B01339AB2AC
